{
  "abi": [
    {
      "inputs": [
        {
          "components": [
            {
              "components": [
                {
                  "internalType": "address",
                  "name": "reactor",
                  "type": "address"
                },
                {
                  "internalType": "uint256",
                  "name": "nonce",
                  "type": "uint256"
                },
                {
                  "internalType": "uint256",
                  "name": "deadline",
                  "type": "uint256"
                }
              ],
              "internalType": "struct OrderInfo",
              "name": "info",
              "type": "tuple"
            },
            {
              "components": [
                {
                  "internalType": "address",
                  "name": "token",
                  "type": "address"
                },
                {
                  "internalType": "uint256",
                  "name": "amount",
                  "type": "uint256"
                }
              ],
              "internalType": "struct TokenAmount",
              "name": "input",
              "type": "tuple"
            },
            {
              "components": [
                {
                  "internalType": "address",
                  "name": "token",
                  "type": "address"
                },
                {
                  "internalType": "uint256",
                  "name": "amount",
                  "type": "uint256"
                },
                {
                  "internalType": "address",
                  "name": "recipient",
                  "type": "address"
                }
              ],
              "internalType": "struct Output[]",
              "name": "outputs",
              "type": "tuple[]"
            }
          ],
          "internalType": "struct ResolvedOrder[]",
          "name": "resolvedOrders",
          "type": "tuple[]"
        },
        {
          "internalType": "bytes",
          "name": "fillData",
          "type": "bytes"
        }
      ],
      "name": "reactorCallback",
      "outputs": [],
      "stateMutability": "nonpayable",
      "type": "function"
    }
  ],
  "bytecode": {
    "object": "0x608060405234801561001057600080fd5b50610680806100206000396000f3fe608060405234801561001057600080fd5b506004361061002b5760003560e01c806389930d2714610030575b600080fd5b61004361003e3660046103a9565b610045565b005b600183146100995760405162461bcd60e51b815260206004820152601a60248201527f7265736f6c7665644f72646572732e6c656e67746820213d2031000000000000604482015260640160405180910390fd5b6000806100a883850185610486565b90925090506000805b878760008181106100c4576100c46104bf565b90506020028101906100d691906104d5565b6100e49060a08101906104f5565b90508110156101f157600088886000818110610102576101026104bf565b905060200281019061011491906104d5565b6101229060a08101906104f5565b83818110610132576101326104bf565b9050606002018036038101906101489190610545565b805160208201516040516323b872dd60e01b81526001600160a01b038981166004830152306024830152604482019290925292935016906323b872dd906064016020604051808303816000875af11580156101a7573d6000803e3d6000fd5b505050506040513d601f19601f820116820180604052508101906101cb91906105bc565b5060208101516101db90846105fb565b92505080806101e990610614565b9150506100b1565b5086866000818110610205576102056104bf565b905060200281019061021791906104d5565b6102259060a08101906104f5565b6000818110610236576102366104bf565b61024c926020606090920201908101915061062d565b60405163095ea7b360e01b81526001600160a01b03848116600483015260248201849052919091169063095ea7b3906044016020604051808303816000875af115801561029d573d6000803e3d6000fd5b505050506040513d601f19601f820116820180604052508101906102c191906105bc565b50868660008181106102d5576102d56104bf565b90506020028101906102e791906104d5565b6102f890608081019060600161062d565b6001600160a01b031663a9059cbb848989600081811061031a5761031a6104bf565b905060200281019061032c91906104d5565b60405160e084901b6001600160e01b03191681526001600160a01b0390921660048301526080013560248201526044016020604051808303816000875af115801561037b573d6000803e3d6000fd5b505050506040513d601f19601f8201168201806040525081019061039f91906105bc565b5050505050505050565b600080600080604085870312156103bf57600080fd5b843567ffffffffffffffff808211156103d757600080fd5b818701915087601f8301126103eb57600080fd5b8135818111156103fa57600080fd5b8860208260051b850101111561040f57600080fd5b60209283019650945090860135908082111561042a57600080fd5b818701915087601f83011261043e57600080fd5b81358181111561044d57600080fd5b88602082850101111561045f57600080fd5b95989497505060200194505050565b6001600160a01b038116811461048357600080fd5b50565b6000806040838503121561049957600080fd5b82356104a48161046e565b915060208301356104b48161046e565b809150509250929050565b634e487b7160e01b600052603260045260246000fd5b6000823560be198336030181126104eb57600080fd5b9190910192915050565b6000808335601e1984360301811261050c57600080fd5b83018035915067ffffffffffffffff82111561052757600080fd5b602001915060608102360382131561053e57600080fd5b9250929050565b60006060828403121561055757600080fd5b6040516060810181811067ffffffffffffffff8211171561058857634e487b7160e01b600052604160045260246000fd5b60405282356105968161046e565b81526020838101359082015260408301356105b08161046e565b60408201529392505050565b6000602082840312156105ce57600080fd5b815180151581146105de57600080fd5b9392505050565b634e487b7160e01b600052601160045260246000fd5b8082018082111561060e5761060e6105e5565b92915050565b600060018201610626576106266105e5565b5060010190565b60006020828403121561063f57600080fd5b81356105de8161046e56fea2646970667358221220cb0f40b8eaada0a89c90d98d55e505efa7ee8b362c5309255e6a82674df8a0c264736f6c63430008100033",
    "linkReferences": {}
  },
  "methodIdentifiers": {
    "reactorCallback(((address,uint256,uint256),(address,uint256),(address,uint256,address)[])[],bytes)": "89930d27"
  },
  "id": 29
}