{
  "abi": [
    {
      "inputs": [
        {
          "internalType": "address",
          "name": "_owner",
          "type": "address"
        }
      ],
      "stateMutability": "nonpayable",
      "type": "constructor"
    },
    {
      "anonymous": false,
      "inputs": [
        {
          "indexed": true,
          "internalType": "address",
          "name": "user",
          "type": "address"
        },
        {
          "indexed": true,
          "internalType": "address",
          "name": "newOwner",
          "type": "address"
        }
      ],
      "name": "OwnerUpdated",
      "type": "event"
    },
    {
      "inputs": [],
      "name": "owner",
      "outputs": [
        {
          "internalType": "address",
          "name": "",
          "type": "address"
        }
      ],
      "stateMutability": "view",
      "type": "function"
    },
    {
      "inputs": [
        {
          "components": [
            {
              "components": [
                {
                  "internalType": "address",
                  "name": "reactor",
                  "type": "address"
                },
                {
                  "internalType": "address",
                  "name": "offerer",
                  "type": "address"
                },
                {
                  "internalType": "uint256",
                  "name": "nonce",
                  "type": "uint256"
                },
                {
                  "internalType": "uint256",
                  "name": "deadline",
                  "type": "uint256"
                }
              ],
              "internalType": "struct OrderInfo",
              "name": "info",
              "type": "tuple"
            },
            {
              "components": [
                {
                  "internalType": "address",
                  "name": "token",
                  "type": "address"
                },
                {
                  "internalType": "uint256",
                  "name": "amount",
                  "type": "uint256"
                },
                {
                  "internalType": "uint256",
                  "name": "maxAmount",
                  "type": "uint256"
                }
              ],
              "internalType": "struct InputToken",
              "name": "input",
              "type": "tuple"
            },
            {
              "components": [
                {
                  "internalType": "address",
                  "name": "token",
                  "type": "address"
                },
                {
                  "internalType": "uint256",
                  "name": "amount",
                  "type": "uint256"
                },
                {
                  "internalType": "address",
                  "name": "recipient",
                  "type": "address"
                }
              ],
              "internalType": "struct OutputToken[]",
              "name": "outputs",
              "type": "tuple[]"
            },
            {
              "internalType": "bytes",
              "name": "sig",
              "type": "bytes"
            },
            {
              "internalType": "bytes32",
              "name": "hash",
              "type": "bytes32"
            }
          ],
          "internalType": "struct ResolvedOrder[]",
          "name": "resolvedOrders",
          "type": "tuple[]"
        },
        {
          "internalType": "address",
          "name": "taker",
          "type": "address"
        },
        {
          "internalType": "bytes",
          "name": "",
          "type": "bytes"
        }
      ],
      "name": "reactorCallback",
      "outputs": [],
      "stateMutability": "nonpayable",
      "type": "function"
    },
    {
      "inputs": [
        {
          "internalType": "address",
          "name": "newOwner",
          "type": "address"
        }
      ],
      "name": "setOwner",
      "outputs": [],
      "stateMutability": "nonpayable",
      "type": "function"
    }
  ],
  "bytecode": {
    "object": "0x60803461009857601f61099738819003918201601f19168301916001600160401b0383118484101761009d5780849260209460405283398101031261009857516001600160a01b0381169081900361009857600080546001600160a01b0319168217815560405191907f8292fce18fa69edf4db7b94ea2e58241df0ae57f97e0a6c9b29067028bf92d768180a36108e390816100b48239f35b600080fd5b634e487b7160e01b600052604160045260246000fdfe60806040526004361015610013575b600080fd5b6000803560e01c90816313af4035146100525750806356d6d0211461004957638da5cb5b1461004157600080fd5b61000e61024f565b5061000e6101b5565b346101575760207ffffffffffffffffffffffffffffffffffffffffffffffffffffffffffffffffc3601126101575760043561008d8161015a565b815473ffffffffffffffffffffffffffffffffffffffff80821633036100ff577fffffffffffffffffffffffff0000000000000000000000000000000000000000921691829116178255337f8292fce18fa69edf4db7b94ea2e58241df0ae57f97e0a6c9b29067028bf92d768380a380f35b7f08c379a0000000000000000000000000000000000000000000000000000000006080526020608452600c60a4527f554e415554484f52495a4544000000000000000000000000000000000000000060c45260646080fd5b80fd5b73ffffffffffffffffffffffffffffffffffffffff81160361000e57565b602435906101858261015a565b565b9181601f8401121561000e5782359167ffffffffffffffff831161000e576020838186019501011161000e57565b503461000e5760607ffffffffffffffffffffffffffffffffffffffffffffffffffffffffffffffffc36011261000e5760043567ffffffffffffffff80821161000e573660238301121561000e57816004013581811161000e573660248260051b8501011161000e57610226610178565b9160443590811161000e5761024d936102456024923690600401610187565b505001610576565b005b503461000e5760007ffffffffffffffffffffffffffffffffffffffffffffffffffffffffffffffffc36011261000e57602073ffffffffffffffffffffffffffffffffffffffff60005416604051908152f35b156102a957565b60646040517f08c379a000000000000000000000000000000000000000000000000000000000815260206004820152601a60248201527f7265736f6c7665644f72646572732e6c656e67746820213d20310000000000006044820152fd5b507f4e487b7100000000000000000000000000000000000000000000000000000000600052601160045260246000fd5b6001907fffffffffffffffffffffffffffffffffffffffffffffffffffffffffffffffff8114610365570190565b61036d610307565b0190565b507f4e487b7100000000000000000000000000000000000000000000000000000000600052603260045260246000fd5b90156103db575b8035907ffffffffffffffffffffffffffffffffffffffffffffffffffffffffffffffec18136030182121561000e570190565b6103e3610371565b6103a8565b9035907fffffffffffffffffffffffffffffffffffffffffffffffffffffffffffffffe18136030182121561000e570180359067ffffffffffffffff821161000e5760200191606082023603831361000e57565b90156104455790565b61044d610371565b90565b9160609181101561046057020190565b610468610371565b020190565b90601f7fffffffffffffffffffffffffffffffffffffffffffffffffffffffffffffffe0910116810190811067ffffffffffffffff8211176104ae57604052565b7f4e487b7100000000000000000000000000000000000000000000000000000000600052604160045260246000fd5b60608136031261000e5760405190606082019082821067ffffffffffffffff8311176104ae57604091825280356105138161015a565b835260208101356020840152013561052a8161015a565b604082015290565b9190820180921161053f57565b610185610307565b3561044d8161015a565b9081602091031261000e5751801515810361000e5790565b506040513d6000823e3d90fd5b90916001926105868482146102a2565b6000938085915b6106a2575b505061065f8160006020610630610185986105ec6105d36105d36105ce6105c86105be60a09c8f6103a1565b60e08101906103e8565b9061043c565b610547565b73ffffffffffffffffffffffffffffffffffffffff1690565b6040517f095ea7b300000000000000000000000000000000000000000000000000000000815233600482015260248101929092529093849283919082906044820190565b03925af18015610695575b610667575b506106596105d3608061065384896103a1565b01610547565b946103a1565b0135916107fc565b6106879060203d811161068e575b61067f818361046d565b810190610551565b5038610640565b503d610675565b61069d610569565b61063b565b90946106ae83866103a1565b6106bd60e091828101906103e8565b905087101561073e57610737916106f66106f1896106eb610731956106e28a8d6103a1565b908101906103e8565b90610450565b6104dd565b61072a602061071c6105d3845173ffffffffffffffffffffffffffffffffffffffff1690565b920191825190893091610745565b5190610532565b95610337565b908061058d565b5094610592565b9060006064926020958295604051947f23b872dd0000000000000000000000000000000000000000000000000000000086526004860152602485015260448401525af13d15601f3d116001600051141617161561079e57565b60646040517f08c379a000000000000000000000000000000000000000000000000000000000815260206004820152601460248201527f5452414e534645525f46524f4d5f4641494c45440000000000000000000000006044820152fd5b60009182604492602095604051937fa9059cbb000000000000000000000000000000000000000000000000000000008552600485015260248401525af13d15601f3d116001600051141617161561084f57565b60646040517f08c379a000000000000000000000000000000000000000000000000000000000815260206004820152600f60248201527f5452414e534645525f4641494c454400000000000000000000000000000000006044820152fdfea26469706673582212202b2f478048a755b91cb839ee671571f455446fa650a125d2199d9841e26796a264736f6c63430008110033",
    "linkReferences": {}
  },
  "methodIdentifiers": {
    "owner()": "8da5cb5b",
    "reactorCallback(((address,address,uint256,uint256),(address,uint256,uint256),(address,uint256,address)[],bytes,bytes32)[],address,bytes)": "56d6d021",
    "setOwner(address)": "13af4035"
  },
  "id": 51
}