{
  "abi": [
    {
      "inputs": [
        {
          "internalType": "address",
          "name": "_permitPost",
          "type": "address"
        }
      ],
      "stateMutability": "nonpayable",
      "type": "constructor"
    },
    {
      "inputs": [],
      "name": "DeadlineBeforeEndTime",
      "type": "error"
    },
    {
      "inputs": [],
      "name": "DeadlinePassed",
      "type": "error"
    },
    {
      "inputs": [],
      "name": "EndTimeBeforeStart",
      "type": "error"
    },
    {
      "inputs": [],
      "name": "InvalidReactor",
      "type": "error"
    },
    {
      "inputs": [],
      "name": "InvalidSender",
      "type": "error"
    },
    {
      "anonymous": false,
      "inputs": [
        {
          "indexed": false,
          "internalType": "bytes32",
          "name": "orderHash",
          "type": "bytes32"
        },
        {
          "indexed": false,
          "internalType": "address",
          "name": "filler",
          "type": "address"
        },
        {
          "indexed": false,
          "internalType": "uint256",
          "name": "nonce",
          "type": "uint256"
        },
        {
          "indexed": false,
          "internalType": "address",
          "name": "offerer",
          "type": "address"
        }
      ],
      "name": "Fill",
      "type": "event"
    },
    {
      "inputs": [
        {
          "components": [
            {
              "internalType": "bytes",
              "name": "order",
              "type": "bytes"
            },
            {
              "components": [
                {
                  "internalType": "uint8",
                  "name": "v",
                  "type": "uint8"
                },
                {
                  "internalType": "bytes32",
                  "name": "r",
                  "type": "bytes32"
                },
                {
                  "internalType": "bytes32",
                  "name": "s",
                  "type": "bytes32"
                }
              ],
              "internalType": "struct Signature",
              "name": "sig",
              "type": "tuple"
            }
          ],
          "internalType": "struct SignedOrder",
          "name": "order",
          "type": "tuple"
        },
        {
          "internalType": "address",
          "name": "fillContract",
          "type": "address"
        },
        {
          "internalType": "bytes",
          "name": "fillData",
          "type": "bytes"
        }
      ],
      "name": "execute",
      "outputs": [],
      "stateMutability": "nonpayable",
      "type": "function"
    },
    {
      "inputs": [
        {
          "components": [
            {
              "internalType": "bytes",
              "name": "order",
              "type": "bytes"
            },
            {
              "components": [
                {
                  "internalType": "uint8",
                  "name": "v",
                  "type": "uint8"
                },
                {
                  "internalType": "bytes32",
                  "name": "r",
                  "type": "bytes32"
                },
                {
                  "internalType": "bytes32",
                  "name": "s",
                  "type": "bytes32"
                }
              ],
              "internalType": "struct Signature",
              "name": "sig",
              "type": "tuple"
            }
          ],
          "internalType": "struct SignedOrder[]",
          "name": "orders",
          "type": "tuple[]"
        },
        {
          "internalType": "address",
          "name": "fillContract",
          "type": "address"
        },
        {
          "internalType": "bytes",
          "name": "fillData",
          "type": "bytes"
        }
      ],
      "name": "executeBatch",
      "outputs": [],
      "stateMutability": "nonpayable",
      "type": "function"
    },
    {
      "inputs": [],
      "name": "permitPost",
      "outputs": [
        {
          "internalType": "contract IPermitPost",
          "name": "",
          "type": "address"
        }
      ],
      "stateMutability": "view",
      "type": "function"
    }
  ],
  "bytecode": {
    "object": "0x60a060405234801561001057600080fd5b506040516118d03803806118d083398101604081905261002f91610040565b6001600160a01b0316608052610070565b60006020828403121561005257600080fd5b81516001600160a01b038116811461006957600080fd5b9392505050565b60805161183f6100916000396000818160730152610b22015261183f6000f3fe608060405234801561001057600080fd5b50600436106100415760003560e01c806386114adf146100465780638bcaadbd1461005b578063f45d6b231461006e575b600080fd5b610059610054366004611078565b6100be565b005b610059610069366004611167565b610331565b6100957f000000000000000000000000000000000000000000000000000000000000000081565b60405173ffffffffffffffffffffffffffffffffffffffff909116815260200160405180910390f35b6000845167ffffffffffffffff8111156100da576100da610dd5565b60405190808252806020026020018201604052801561017157816020015b6040805160e081018252600060608083018281526080840183905260a0840183905260c08401839052835283518085018552828152602080820193909352828401529282019290925282527fffffffffffffffffffffffffffffffffffffffffffffffffffffffffffffffff9092019101816100f85790505b5090506000855167ffffffffffffffff81111561019057610190610dd5565b6040519080825280602002602001820160405280156101b9578160200160208202803683370190505b5090506000865167ffffffffffffffff8111156101d8576101d8610dd5565b60405190808252806020026020018201604052801561024157816020015b60408051606081018252600080825260208083018290529282015282527fffffffffffffffffffffffffffffffffffffffffffffffffffffffffffffffff9092019101816101f65790505b50905060005b875181101561031957610276888281518110610265576102656111c9565b6020026020010151600001516103c0565b848281518110610288576102886111c9565b60200260200101819052508781815181106102a5576102a56111c9565b602002602001015160000151805190602001208382815181106102ca576102ca6111c9565b6020026020010181815250508781815181106102e8576102e86111c9565b602002602001015160200151828281518110610306576103066111c9565b6020908102919091010152600101610247565b50610328838284898989610633565b50505050505050565b604080516001808252818301909252600091816020015b6103796040805180820182526060808252825190810183526000808252602082810182905293820152909182015290565b81526020019060019003908161034857905050905084816000815181106103a2576103a26111c9565b60200260200101819052506103b9818585856100be565b5050505050565b6040805160e081018252600060608083018281526080840183905260a0840183905260c084018390528352835180850185528281526020808201849052808501919091529383015283519192909161041f9190850181019085016112e3565b905061042a816108d1565b600081606001515167ffffffffffffffff81111561044a5761044a610dd5565b6040519080825280602002602001820160405280156104b357816020015b60408051606081018252600080825260208083018290529282015282527fffffffffffffffffffffffffffffffffffffffffffffffffffffffffffffffff9092019101816104685790505b50905060005b8151811015610612576000836060015182815181106104da576104da6111c9565b602002602001015190506000428560000151606001511480610503575081604001518260200151145b1561051357506040810151610591565b4285602001511061052957506020810151610591565b600085602001514261053b91906113f6565b90506000866020015187600001516060015161055791906113f6565b905060008460400151856020015161056f91906113f6565b905061057c818484610916565b856020015161058b91906113f6565b93505050505b6040518060600160405280836000015173ffffffffffffffffffffffffffffffffffffffff168152602001828152602001836060015173ffffffffffffffffffffffffffffffffffffffff168152508484815181106105f2576105f26111c9565b60200260200101819052505050808061060a9061140f565b9150506104b9565b50604080516060810182528351815292810151602084015282015292915050565b60005b86518110156106c457610665878281518110610654576106546111c9565b602002602001015160000151610935565b6106bc87828151811061067a5761067a6111c9565b6020026020010151878381518110610694576106946111c9565b60200260200101518784815181106106ae576106ae6111c9565b6020026020010151876109c3565b600101610636565b506040517fed33913200000000000000000000000000000000000000000000000000000000815273ffffffffffffffffffffffffffffffffffffffff84169063ed3391329061071d9089903390879087906004016114fa565b600060405180830381600087803b15801561073757600080fd5b505af115801561074b573d6000803e3d6000fd5b5050505060005b86518110156103285760005b878281518110610770576107706111c9565b60200260200101516040015151811015610801576000888381518110610798576107986111c9565b60200260200101516040015182815181106107b5576107b56111c9565b602002602001015190506107f88682604001518360200151846000015173ffffffffffffffffffffffffffffffffffffffff16610c48909392919063ffffffff16565b5060010161075e565b507fb7425f63eb6d6633896fb37a17c56e098d84542b065fb929e1e65eac5d8c96ba858281518110610835576108356111c9565b602002602001015133898481518110610850576108506111c9565b602002602001015160000151604001518a8581518110610872576108726111c9565b602002602001015160000151602001516040516108c1949392919093845273ffffffffffffffffffffffffffffffffffffffff9283166020850152604084019190915216606082015260800190565b60405180910390a1600101610752565b602081015181516060015111610913576040517f302e5b7c00000000000000000000000000000000000000000000000000000000815260040160405180910390fd5b50565b82820281151584158583048514171661092e57600080fd5b0492915050565b805173ffffffffffffffffffffffffffffffffffffffff163014610985576040517f4ddf4a6400000000000000000000000000000000000000000000000000000000815260040160405180910390fd5b8060600151421115610913576040517f70f65caa00000000000000000000000000000000000000000000000000000000815260040160405180910390fd5b60006040518060800160405280610a0987602001516020015188602001516000015173ffffffffffffffffffffffffffffffffffffffff16610d0b90919063ffffffff16565b81523060208201528651606090810151604083015201849052905060006001604051908082528060200260200182016040528015610a51578160200160208202803683370190505b5090508281600081518110610a6857610a686111c9565b73ffffffffffffffffffffffffffffffffffffffff9290921660209283029190910190910152604080516001808252818301909252600091816020016020820280368337019050509050600081600081518110610ac757610ac76111c9565b602090810291909101015260408051600180825281830190925260009181602001602082028036833701905050905087602001516020015181600081518110610b1257610b126111c9565b60200260200101818152505060007f000000000000000000000000000000000000000000000000000000000000000073ffffffffffffffffffffffffffffffffffffffff1663ee3ab326868686868e60000151604001518e6040518763ffffffff1660e01b8152600401610b8b96959493929190611683565b6020604051808303816000875af1158015610baa573d6000803e3d6000fd5b505050506040513d601f19601f82011682018060405250810190610bce91906117e5565b905088600001516020015173ffffffffffffffffffffffffffffffffffffffff168173ffffffffffffffffffffffffffffffffffffffff1614610c3d576040517fddb5de5e00000000000000000000000000000000000000000000000000000000815260040160405180910390fd5b505050505050505050565b60006040517f23b872dd0000000000000000000000000000000000000000000000000000000081528460048201528360248201528260448201526020600060648360008a5af13d15601f3d11600160005114161716915050806103b9576040517f08c379a000000000000000000000000000000000000000000000000000000000815260206004820152601460248201527f5452414e534645525f46524f4d5f4641494c4544000000000000000000000000604482015260640160405180910390fd5b604080516001808252818301909252606091816020015b6040805160808101825260008082526020808301829052928201819052606082015282527fffffffffffffffffffffffffffffffffffffffffffffffffffffffffffffffff909201910181610d2257905050604080516080810190915290915080600081526020018473ffffffffffffffffffffffffffffffffffffffff168152602001838152602001600081525081600081518110610dc457610dc46111c9565b602002602001018190525092915050565b7f4e487b7100000000000000000000000000000000000000000000000000000000600052604160045260246000fd5b6040805190810167ffffffffffffffff81118282101715610e2757610e27610dd5565b60405290565b6040516080810167ffffffffffffffff81118282101715610e2757610e27610dd5565b604051601f82017fffffffffffffffffffffffffffffffffffffffffffffffffffffffffffffffe016810167ffffffffffffffff81118282101715610e9757610e97610dd5565b604052919050565b600067ffffffffffffffff821115610eb957610eb9610dd5565b5060051b60200190565b600060608284031215610ed557600080fd5b6040516060810181811067ffffffffffffffff82111715610ef857610ef8610dd5565b604052905080823560ff81168114610f0f57600080fd5b8082525060208301356020820152604083013560408201525092915050565b600060808284031215610f4057600080fd5b610f48610e04565b9050813567ffffffffffffffff80821115610f6257600080fd5b818401915084601f830112610f7657600080fd5b8135602082821115610f8a57610f8a610dd5565b610fba817fffffffffffffffffffffffffffffffffffffffffffffffffffffffffffffffe0601f85011601610e50565b92508183528681838601011115610fd057600080fd5b81818501828501376000818385010152828552610fef87828801610ec3565b818601525050505092915050565b73ffffffffffffffffffffffffffffffffffffffff8116811461091357600080fd5b803561102a81610ffd565b919050565b60008083601f84011261104157600080fd5b50813567ffffffffffffffff81111561105957600080fd5b60208301915083602082850101111561107157600080fd5b9250929050565b6000806000806060858703121561108e57600080fd5b843567ffffffffffffffff808211156110a657600080fd5b818701915087601f8301126110ba57600080fd5b813560206110cf6110ca83610e9f565b610e50565b82815260059290921b8401810191818101908b8411156110ee57600080fd5b8286015b848110156111265780358681111561110a5760008081fd5b6111188e86838b0101610f2e565b8452509183019183016110f2565b509850611136905089820161101f565b96505050604087013591508082111561114e57600080fd5b5061115b8782880161102f565b95989497509550505050565b6000806000806060858703121561117d57600080fd5b843567ffffffffffffffff8082111561119557600080fd5b6111a188838901610f2e565b9550602087013591506111b382610ffd565b9093506040860135908082111561114e57600080fd5b7f4e487b7100000000000000000000000000000000000000000000000000000000600052603260045260246000fd5b60006040828403121561120a57600080fd5b611212610e04565b9050815161121f81610ffd565b808252506020820151602082015292915050565b600082601f83011261124457600080fd5b815160206112546110ca83610e9f565b82815260079290921b8401810191818101908684111561127357600080fd5b8286015b848110156112d857608081890312156112905760008081fd5b611298610e2d565b81516112a381610ffd565b81528185015185820152604080830151908201526060808301516112c681610ffd565b90820152835291830191608001611277565b509695505050505050565b6000602082840312156112f557600080fd5b815167ffffffffffffffff8082111561130d57600080fd5b9083019081850361010081121561132357600080fd5b61132b610e2d565b608082121561133957600080fd5b611341610e2d565b9150835161134e81610ffd565b8252602084015161135e81610ffd565b806020840152506040840151604083015260608401516060830152818152608084015160208201526113938760a086016111f8565b604082015260e08401519150828211156113ac57600080fd5b6113b887838601611233565b60608201529695505050505050565b7f4e487b7100000000000000000000000000000000000000000000000000000000600052601160045260246000fd5b81810381811115611409576114096113c7565b92915050565b60007fffffffffffffffffffffffffffffffffffffffffffffffffffffffffffffffff8203611440576114406113c7565b5060010190565b600081518084526020808501945080840160005b838110156114a6578151805173ffffffffffffffffffffffffffffffffffffffff908116895284820151858a015260409182015116908801526060909601959082019060010161145b565b509495945050505050565b8183528181602085013750600060208284010152600060207fffffffffffffffffffffffffffffffffffffffffffffffffffffffffffffffe0601f840116840101905092915050565b60006060808301818452808851808352608092508286019150828160051b8701016020808c0160005b848110156115ce578984037fffffffffffffffffffffffffffffffffffffffffffffffffffffffffffffff8001865281518051805173ffffffffffffffffffffffffffffffffffffffff90811687528582015181168688015260408083015181890152918b01518b8801528583015180519091168a88015285015160a0870152015160e060c086018190526115ba81870183611447565b978501979550505090820190600101611523565b505073ffffffffffffffffffffffffffffffffffffffff8b169088015286810360408801526115fe81898b6114b1565b9b9a5050505050505050505050565b600081518084526020808501945080840160005b838110156114a657815173ffffffffffffffffffffffffffffffffffffffff1687529582019590820190600101611621565b600081518084526020808501945080840160005b838110156114a657815187529582019590820190600101611667565b61010080825287516080918301829052805161018084018190526000926101a0850192602092908301919085805b828110156117365784518051600381106116f2577f4e487b710000000000000000000000000000000000000000000000000000000084526021600452602484fd5b88528087015173ffffffffffffffffffffffffffffffffffffffff1687890152604080820151908901526060908101519088015295830195938501936001016116b1565b5050508b83015173ffffffffffffffffffffffffffffffffffffffff8116610120880152915060408c015161014087015260608c015161016087015285840383870152611783848c61160d565b93508584036040870152611797848b611653565b935085840360608701526117ab848a611653565b908601889052865160ff1660a0870152602087015160c0870152604087015160e087015293506117da92505050565b979650505050505050565b6000602082840312156117f757600080fd5b815161180281610ffd565b939250505056fea264697066735822122012f98e4098df8dd00534496562fc76451d026bd771a07d16292d2af6a5a1bd9764736f6c63430008100033",
    "linkReferences": {}
  },
  "methodIdentifiers": {
    "execute((bytes,(uint8,bytes32,bytes32)),address,bytes)": "8bcaadbd",
    "executeBatch((bytes,(uint8,bytes32,bytes32))[],address,bytes)": "86114adf",
    "permitPost()": "f45d6b23"
  },
  "id": 30
}