{
  "abi": [
    {
      "inputs": [
        {
          "internalType": "address",
          "name": "_permit2",
          "type": "address"
        },
        {
          "internalType": "address",
          "name": "_protocolFeeOwner",
          "type": "address"
        }
      ],
      "stateMutability": "nonpayable",
      "type": "constructor"
    },
    {
      "inputs": [],
      "name": "DeadlineBeforeEndTime",
      "type": "error"
    },
    {
      "inputs": [],
      "name": "DeadlinePassed",
      "type": "error"
    },
    {
      "inputs": [],
      "name": "DuplicateFeeOutput",
      "type": "error"
    },
    {
      "inputs": [],
      "name": "EndTimeBeforeStartTime",
      "type": "error"
    },
    {
      "inputs": [],
      "name": "EndTimeBeforeStartTime",
      "type": "error"
    },
    {
      "inputs": [],
      "name": "FeeTooLarge",
      "type": "error"
    },
    {
      "inputs": [],
      "name": "IncorrectAmounts",
      "type": "error"
    },
    {
      "inputs": [],
      "name": "InputAndOutputDecay",
      "type": "error"
    },
    {
      "inputs": [],
      "name": "InsufficientEth",
      "type": "error"
    },
    {
      "inputs": [
        {
          "internalType": "uint256",
          "name": "actualBalance",
          "type": "uint256"
        },
        {
          "internalType": "uint256",
          "name": "expectedBalance",
          "type": "uint256"
        }
      ],
      "name": "InsufficientOutput",
      "type": "error"
    },
    {
      "inputs": [],
      "name": "InvalidFeeToken",
      "type": "error"
    },
    {
      "inputs": [],
      "name": "InvalidReactor",
      "type": "error"
    },
    {
      "inputs": [],
      "name": "NativeTransferFailed",
      "type": "error"
    },
    {
      "inputs": [],
      "name": "NoExclusiveOverride",
      "type": "error"
    },
    {
      "inputs": [],
      "name": "NotEnoughETHDirectFiller",
      "type": "error"
    },
    {
      "anonymous": false,
      "inputs": [
        {
          "indexed": true,
          "internalType": "bytes32",
          "name": "orderHash",
          "type": "bytes32"
        },
        {
          "indexed": true,
          "internalType": "address",
          "name": "filler",
          "type": "address"
        },
        {
          "indexed": true,
          "internalType": "address",
          "name": "swapper",
          "type": "address"
        },
        {
          "indexed": false,
          "internalType": "uint256",
          "name": "nonce",
          "type": "uint256"
        }
      ],
      "name": "Fill",
      "type": "event"
    },
    {
      "anonymous": false,
      "inputs": [
        {
          "indexed": true,
          "internalType": "address",
          "name": "user",
          "type": "address"
        },
        {
          "indexed": true,
          "internalType": "address",
          "name": "newOwner",
          "type": "address"
        }
      ],
      "name": "OwnerUpdated",
      "type": "event"
    },
    {
      "inputs": [],
      "name": "DIRECT_FILL",
      "outputs": [
        {
          "internalType": "address",
          "name": "",
          "type": "address"
        }
      ],
      "stateMutability": "view",
      "type": "function"
    },
    {
      "inputs": [
        {
          "components": [
            {
              "internalType": "bytes",
              "name": "order",
              "type": "bytes"
            },
            {
              "internalType": "bytes",
              "name": "sig",
              "type": "bytes"
            }
          ],
          "internalType": "struct SignedOrder",
          "name": "order",
          "type": "tuple"
        },
        {
          "internalType": "contract IReactorCallback",
          "name": "fillContract",
          "type": "address"
        },
        {
          "internalType": "bytes",
          "name": "fillData",
          "type": "bytes"
        }
      ],
      "name": "execute",
      "outputs": [],
      "stateMutability": "payable",
      "type": "function"
    },
    {
      "inputs": [
        {
          "components": [
            {
              "internalType": "bytes",
              "name": "order",
              "type": "bytes"
            },
            {
              "internalType": "bytes",
              "name": "sig",
              "type": "bytes"
            }
          ],
          "internalType": "struct SignedOrder[]",
          "name": "orders",
          "type": "tuple[]"
        },
        {
          "internalType": "contract IReactorCallback",
          "name": "fillContract",
          "type": "address"
        },
        {
          "internalType": "bytes",
          "name": "fillData",
          "type": "bytes"
        }
      ],
      "name": "executeBatch",
      "outputs": [],
      "stateMutability": "payable",
      "type": "function"
    },
    {
      "inputs": [],
      "name": "feeController",
      "outputs": [
        {
          "internalType": "contract IProtocolFeeController",
          "name": "",
          "type": "address"
        }
      ],
      "stateMutability": "view",
      "type": "function"
    },
    {
      "inputs": [],
      "name": "owner",
      "outputs": [
        {
          "internalType": "address",
          "name": "",
          "type": "address"
        }
      ],
      "stateMutability": "view",
      "type": "function"
    },
    {
      "inputs": [],
      "name": "permit2",
      "outputs": [
        {
          "internalType": "address",
          "name": "",
          "type": "address"
        }
      ],
      "stateMutability": "view",
      "type": "function"
    },
    {
      "inputs": [
        {
          "internalType": "address",
          "name": "newOwner",
          "type": "address"
        }
      ],
      "name": "setOwner",
      "outputs": [],
      "stateMutability": "nonpayable",
      "type": "function"
    },
    {
      "inputs": [
        {
          "internalType": "address",
          "name": "_feeController",
          "type": "address"
        }
      ],
      "name": "setProtocolFeeController",
      "outputs": [],
      "stateMutability": "nonpayable",
      "type": "function"
    }
  ],
  "bytecode": {
    "object": "0x60a06040523480156200001157600080fd5b50604051620034f5380380620034f58339810160408190526200003491620000bc565b600080546001600160a01b0319166001600160a01b03831690811782556040518492849283928392907f8292fce18fa69edf4db7b94ea2e58241df0ae57f97e0a6c9b29067028bf92d76908290a350506001600255506001600160a01b031660805250620000f49050565b80516001600160a01b0381168114620000b757600080fd5b919050565b60008060408385031215620000d057600080fd5b620000db836200009f565b9150620000eb602084016200009f565b90509250929050565b6080516133d86200011d6000396000818160a701528181611525015261192201526133d86000f3fe60806040526004361061007b5760003560e01c80636999b3771161004e5780636999b377146101325780636f1d5f511461015f5780638da5cb5b14610172578063fccbcaaf1461019f57600080fd5b806305afc9771461008057806312261ee71461009557806313af4035146100f25780632d77138914610112575b600080fd5b61009361008e366004612642565b6101b4565b005b3480156100a157600080fd5b506100c97f000000000000000000000000000000000000000000000000000000000000000081565b60405173ffffffffffffffffffffffffffffffffffffffff909116815260200160405180910390f35b3480156100fe57600080fd5b5061009361010d3660046126c5565b6102b6565b34801561011e57600080fd5b5061009361012d3660046126c5565b6103ac565b34801561013e57600080fd5b506001546100c99073ffffffffffffffffffffffffffffffffffffffff1681565b61009361016d3660046126e9565b610474565b34801561017e57600080fd5b506000546100c99073ffffffffffffffffffffffffffffffffffffffff1681565b3480156101ab57600080fd5b506100c9600181565b6101bc6105d0565b604080516001808252818301909252600091816020015b6040805161016081018252600060a0820181815260c0830182905260e0830182905261010083018290526101208301829052606061014084018190529083528351808201855282815260208082018490528186018490528085019190915293830181905280830152608082015282527fffffffffffffffffffffffffffffffffffffffffffffffffffffffffffffffff9092019101816101d357905050905061027b85610641565b8160008151811061028e5761028e6127ca565b60200260200101819052506102a5818585856107ad565b506102b06001600255565b50505050565b60005473ffffffffffffffffffffffffffffffffffffffff16331461033c576040517f08c379a000000000000000000000000000000000000000000000000000000000815260206004820152600c60248201527f554e415554484f52495a4544000000000000000000000000000000000000000060448201526064015b60405180910390fd5b600080547fffffffffffffffffffffffff00000000000000000000000000000000000000001673ffffffffffffffffffffffffffffffffffffffff83169081178255604051909133917f8292fce18fa69edf4db7b94ea2e58241df0ae57f97e0a6c9b29067028bf92d769190a350565b60005473ffffffffffffffffffffffffffffffffffffffff16331461042d576040517f08c379a000000000000000000000000000000000000000000000000000000000815260206004820152600c60248201527f554e415554484f52495a454400000000000000000000000000000000000000006044820152606401610333565b600180547fffffffffffffffffffffffff00000000000000000000000000000000000000001673ffffffffffffffffffffffffffffffffffffffff92909216919091179055565b61047c6105d0565b60008467ffffffffffffffff8111156104975761049761279b565b60405190808252806020026020018201604052801561055257816020015b6040805161016081018252600060a0820181815260c0830182905260e0830182905261010083018290526101208301829052606061014084018190529083528351808201855282815260208082018490528186018490528085019190915293830181905280830152608082015282527fffffffffffffffffffffffffffffffffffffffffffffffffffffffffffffffff9092019101816104b55790505b50905060005b858110156105b15761058c878783818110610575576105756127ca565b905060200281019061058791906127f9565b610641565b82828151811061059e5761059e6127ca565b6020908102919091010152600101610558565b506105be818585856107ad565b506105c96001600255565b5050505050565b600280540361063b576040517f08c379a000000000000000000000000000000000000000000000000000000000815260206004820152601f60248201527f5265656e7472616e637947756172643a207265656e7472616e742063616c6c006044820152606401610333565b60028055565b6040805161016081018252600060a0820181815260c0830182905260e0830182905261010083018290526101208301829052606061014084018190529083528351808201855282815260208082018490528186018490528401529282018390528282019290925260808101829052906106ba8380612837565b8101906106c79190612bc0565b90506106d281610975565b6040518060a0016040528082600001518152602001610708836020015184604001518560a00151610aa79092919063ffffffff16565b815260200161072e836020015184604001518560c00151610b799092919063ffffffff16565b81526020018480602001906107439190612837565b8080601f01602080910402602001604051908101604052809392919081815260200183838082843760009201919091525050509082525060200161078683610c60565b90526060820151602083015160808401519294506107a79285929190610f32565b50919050565b73ffffffffffffffffffffffffffffffffffffffff831660011460005b85518110156108b75760008682815181106107e7576107e76127ca565b602002602001015190506107fa81610fdd565b61080481336113eb565b61081981846108135787611523565b33611523565b80600001516020015173ffffffffffffffffffffffffffffffffffffffff163373ffffffffffffffffffffffffffffffffffffffff16888481518110610861576108616127ca565b6020026020010151608001517f78ad7ec0e9f89e74012afa58738b6b661c024cb0fd185ee2f616c0a28924bd668460000151604001516040516108a691815260200190565b60405180910390a4506001016107ca565b5080156108cc576108c7856118b6565b6105c9565b60006108d7866119f9565b6040517f9943fa8900000000000000000000000000000000000000000000000000000000815290915073ffffffffffffffffffffffffffffffffffffffff861690639943fa8990610932908990339089908990600401612e67565b600060405180830381600087803b15801561094c57600080fd5b505af1158015610960573d6000803e3d6000fd5b5050505061096d81611cbf565b505050505050565b604081015181516060015110156109b8576040517f773a618700000000000000000000000000000000000000000000000000000000815260040160405180910390fd5b8060200151816040015110156109fa576040517f4313345300000000000000000000000000000000000000000000000000000000815260040160405180910390fd5b60a0810151604081015160209091015114610aa45760005b8160c0015151811015610aa2578160c001518181518110610a3557610a356127ca565b6020026020010151604001518260c001518281518110610a5757610a576127ca565b60200260200101516020015114610a9a576040517fd303758b00000000000000000000000000000000000000000000000000000000815260040160405180910390fd5b600101610a12565b505b50565b610ae16040518060600160405280600073ffffffffffffffffffffffffffffffffffffffff16815260200160008152602001600081525090565b836040015184602001511115610b23576040517f7c1f811300000000000000000000000000000000000000000000000000000000815260040160405180910390fd5b6000610b39856020015186604001518686611d82565b60408051606081018252875173ffffffffffffffffffffffffffffffffffffffff1681526020810192909252958601519581019590955250929392505050565b82516060908067ffffffffffffffff811115610b9757610b9761279b565b604051908082528060200260200182016040528015610c0057816020015b60408051606081018252600080825260208083018290529282015282527fffffffffffffffffffffffffffffffffffffffffffffffffffffffffffffffff909201910181610bb55790505b50915060005b81811015610c5757610c32868281518110610c2357610c236127ca565b60200260200101518686611e1c565b838281518110610c4457610c446127ca565b6020908102919091010152600101610c06565b50509392505050565b6040517f4578636c757369766544757463684c696d69744f72646572280000000000000060208201527f4f72646572496e666f20696e666f2c000000000000000000000000000000000060398201527f75696e7432353620737461727454696d652c000000000000000000000000000060488201527f75696e7432353620656e6454696d652c00000000000000000000000000000000605a8201527f61646472657373206578636c757369766546696c6c65722c0000000000000000606a8201527f75696e74323536206578636c757369766974794f766572726964654270732c0060828201527f6164647265737320696e707574546f6b656e2c0000000000000000000000000060a18201527f75696e7432353620696e7075745374617274416d6f756e742c0000000000000060b48201527f75696e7432353620696e707574456e64416d6f756e742c00000000000000000060cd8201527f44757463684f75747075745b5d206f757470757473290000000000000000000060e482015260009060fa01604080517fffffffffffffffffffffffffffffffffffffffffffffffffffffffffffffffe081840301815260808301909152605280835290919061332360208301396040518060a00160405280607981526020016132aa60799139604051602001610e5293929190612f4a565b60405160208183030381529060405280519060200120610e758360000151611eec565b83602001518460400151856060015186608001518760a00151600001518860a00151602001518960a0015160400151610eb18b60c00151611f86565b60408051602081019b909b528a01989098526060890196909652608088019490945273ffffffffffffffffffffffffffffffffffffffff92831660a088015260c08701919091521660e0850152610100840152610120830152610140820152610160015b604051602081830303815290604052805190602001209050919050565b610f3c8383612024565b6102b05780610f77576040517fb9ec1e9600000000000000000000000000000000000000000000000000000000815260040160405180910390fd5b604084015160005b815181101561096d576000828281518110610f9c57610f9c6127ca565b60200260200101519050610fc584612710610fb79190612fbc565b602083015190612710612071565b60209091015280610fd581612fcf565b915050610f7f565b60015473ffffffffffffffffffffffffffffffffffffffff16610ffd5750565b6001546040517f8aa6cf0300000000000000000000000000000000000000000000000000000000815260009173ffffffffffffffffffffffffffffffffffffffff1690638aa6cf0390611054908590600401613007565b600060405180830381865afa158015611071573d6000803e3d6000fd5b505050506040513d6000823e601f3d9081017fffffffffffffffffffffffffffffffffffffffffffffffffffffffffffffffe01682016040526110b7919081019061301a565b60408301515181519192509060006110cf8284612fbc565b67ffffffffffffffff8111156110e7576110e761279b565b60405190808252806020026020018201604052801561115057816020015b60408051606081018252600080825260208083018290529282015282527fffffffffffffffffffffffffffffffffffffffffffffffffffffffffffffffff9092019101816111055790505b50905060005b838110156111a15785604001518181518110611174576111746127ca565b602002602001015182828151811061118e5761118e6127ca565b6020908102919091010152600101611156565b5060005b828110156113dc5760008582815181106111c1576111c16127ca565b6020026020010151905060005b82811015611264578681815181106111e8576111e86127ca565b60200260200101516000015173ffffffffffffffffffffffffffffffffffffffff16826000015173ffffffffffffffffffffffffffffffffffffffff160361125c576040517f264a0cf000000000000000000000000000000000000000000000000000000000815260040160405180910390fd5b6001016111ce565b506000805b868110156112e957600089604001518281518110611289576112896127ca565b60200260200101519050836000015173ffffffffffffffffffffffffffffffffffffffff16816000015173ffffffffffffffffffffffffffffffffffffffff16036112e05760208101516112dd9084612fbc565b92505b50600101611269565b50815160208901515173ffffffffffffffffffffffffffffffffffffffff9182169116036113265760208089015101516113239082612fbc565b90505b80600003611360576040517f6cb9962300000000000000000000000000000000000000000000000000000000815260040160405180910390fd5b61136e816005612710612071565b826020015111156113ab576040517ffc5bee1200000000000000000000000000000000000000000000000000000000815260040160405180910390fd5b81846113b78589612fbc565b815181106113c7576113c76127ca565b602090810291909101015250506001016111a5565b50604090940193909352505050565b81515173ffffffffffffffffffffffffffffffffffffffff16301461143c576040517f4ddf4a6400000000000000000000000000000000000000000000000000000000815260040160405180910390fd5b81516060015142111561147b576040517f70f65caa00000000000000000000000000000000000000000000000000000000815260040160405180910390fd5b81516080015173ffffffffffffffffffffffffffffffffffffffff1615610aa2578151608001516040517f6e84ba2b00000000000000000000000000000000000000000000000000000000815273ffffffffffffffffffffffffffffffffffffffff90911690636e84ba2b906114f790849086906004016130ea565b60006040518083038186803b15801561150f57600080fd5b505afa15801561096d573d6000803e3d6000fd5b7f000000000000000000000000000000000000000000000000000000000000000073ffffffffffffffffffffffffffffffffffffffff1663137c29fe6115e3846040805160a0810182526000606082018181526080830182905282526020820181905291810191909152506040805160a081018252602080840180515173ffffffffffffffffffffffffffffffffffffffff1660608085019182529151850151608085015283528451840151918301919091529251909201519082015290565b6040805180820182526000808252602091820152815180830190925273ffffffffffffffffffffffffffffffffffffffff861682528087015181015190820152856000015160200151866080015160405180608001604052806052815260200161332360529139604080517f4578636c757369766544757463684c696d69744f72646572280000000000000060208201527f4f72646572496e666f20696e666f2c000000000000000000000000000000000060398201527f75696e7432353620737461727454696d652c000000000000000000000000000060488201527f75696e7432353620656e6454696d652c00000000000000000000000000000000605a8201527f61646472657373206578636c757369766546696c6c65722c0000000000000000606a8201527f75696e74323536206578636c757369766974794f766572726964654270732c0060828201527f6164647265737320696e707574546f6b656e2c0000000000000000000000000060a18201527f75696e7432353620696e7075745374617274416d6f756e742c0000000000000060b48201527f75696e7432353620696e707574456e64416d6f756e742c00000000000000000060cd8201527f44757463684f75747075745b5d206f757470757473290000000000000000000060e4820152815160da81830301815261019a8201909252607960fa8201818152916132aa9061011a01396040518060600160405280602e8152602001613375602e913960405160200161181b9493929190613119565b604080517fffffffffffffffffffffffffffffffffffffffffffffffffffffffffffffffe08184030181529082905260608a01517fffffffff0000000000000000000000000000000000000000000000000000000060e089901b16835261188896959493926004016131c8565b600060405180830381600087803b1580156118a257600080fd5b505af115801561096d573d6000803e3d6000fd5b3460005b82518110156119e65760008382815181106118d7576118d76127ca565b6020026020010151905060005b8160400151518110156119dc57600082604001518281518110611909576119096127ca565b6020026020010151905061196c816040015182602001517f0000000000000000000000000000000000000000000000000000000000000000846000015173ffffffffffffffffffffffffffffffffffffffff16612090909392919063ffffffff16565b805173ffffffffffffffffffffffffffffffffffffffff166119d357806020015185106119a1578060200151850394506119d3565b6040517fa01a9df600000000000000000000000000000000000000000000000000000000815260040160405180910390fd5b506001016118e4565b50506001016118ba565b508015610aa257610aa260003383612247565b60606000805b8351811015611a3857838181518110611a1a57611a1a6127ca565b602002602001015160400151518201915080806001019150506119ff565b508067ffffffffffffffff811115611a5257611a5261279b565b604051908082528060200260200182016040528015611abb57816020015b60408051606081018252600080825260208083018290529282015282527fffffffffffffffffffffffffffffffffffffffffffffffffffffffffffffffff909201910181611a705790505b509150506000805b8351811015611cb7576000848281518110611ae057611ae06127ca565b6020026020010151905060005b816040015151811015611cad57600082604001518281518110611b1257611b126127ca565b602002602001015190506000805b86811015611bee576000888281518110611b3c57611b3c6127ca565b60200260200101519050836040015173ffffffffffffffffffffffffffffffffffffffff16816000015173ffffffffffffffffffffffffffffffffffffffff16148015611bbc5750836000015173ffffffffffffffffffffffffffffffffffffffff16816020015173ffffffffffffffffffffffffffffffffffffffff16145b15611be55760019250836020015181604001818151611bdb9190612fbc565b905250611bee9050565b50600101611b20565b5080611ca35760408201518251600091611c1e9173ffffffffffffffffffffffffffffffffffffffff1690612322565b90506040518060600160405280846040015173ffffffffffffffffffffffffffffffffffffffff168152602001846000015173ffffffffffffffffffffffffffffffffffffffff168152602001846020015183611c7b9190612fbc565b815250888881518110611c9057611c906127ca565b6020908102919091010152506001909501945b5050600101611aed565b5050600101611ac3565b508152919050565b60005b8151811015610aa2576000828281518110611cdf57611cdf6127ca565b602002602001015190506000611d1c8260000151836020015173ffffffffffffffffffffffffffffffffffffffff1661232290919063ffffffff16565b90508160400151811015611d6d578082604001516040517f2c19b8b8000000000000000000000000000000000000000000000000000000008152600401610333929190918252602082015260400190565b50508080611d7a90612fcf565b915050611cc2565b600082821015611dbe576040517f4313345300000000000000000000000000000000000000000000000000000000815260040160405180910390fd5b428211611dcc575082611e14565b428310611dda575083611e14565b4283900383830386861015611dff57611df68688038383612071565b87039250611e11565b611e0c8787038383612071565b870192505b50505b949350505050565b6040805160608101825260008082526020820181905291810191909152836040015184602001511015611e7b576040517f7c1f811300000000000000000000000000000000000000000000000000000000815260040160405180910390fd5b6000611e91856020015186604001518686611d82565b90506040518060600160405280866000015173ffffffffffffffffffffffffffffffffffffffff168152602001828152602001866060015173ffffffffffffffffffffffffffffffffffffffff168152509150509392505050565b60006040518060a00160405280607981526020016132aa6079913980516020918201208351848301516040808701516060880151608089015160a08a01518051908901209351610f1598939492939192910196875273ffffffffffffffffffffffffffffffffffffffff958616602088015293851660408701526060860192909252608085015290911660a083015260c082015260e00190565b600080825160200267ffffffffffffffff811115611fa657611fa661279b565b6040519080825280601f01601f191660200182016040528015611fd0576020820181803683370190505b50905060005b8351811015612015576000612003858381518110611ff657611ff66127ca565b60200260200101516123ed565b60208381028501015250600101611fd6565b50805160209091012092915050565b600073ffffffffffffffffffffffffffffffffffffffff8316158061204857508142115b80612068575073ffffffffffffffffffffffffffffffffffffffff831633145b90505b92915050565b82820281151584158583048514171661208957600080fd5b0492915050565b73ffffffffffffffffffffffffffffffffffffffff841661218557813410156120e5576040517f821a48b100000000000000000000000000000000000000000000000000000000815260040160405180910390fd5b60008373ffffffffffffffffffffffffffffffffffffffff168360405160006040518083038185875af1925050503d806000811461213f576040519150601f19603f3d011682016040523d82523d6000602084013e612144565b606091505b505090508061217f576040517ff4b3b1bc00000000000000000000000000000000000000000000000000000000815260040160405180910390fd5b506102b0565b8073ffffffffffffffffffffffffffffffffffffffff166336c7851633856121ac86612464565b6040517fffffffff0000000000000000000000000000000000000000000000000000000060e086901b16815273ffffffffffffffffffffffffffffffffffffffff93841660048201529183166024830152821660448201529087166064820152608401600060405180830381600087803b15801561222957600080fd5b505af115801561223d573d6000803e3d6000fd5b5050505050505050565b73ffffffffffffffffffffffffffffffffffffffff83166122fc5760008273ffffffffffffffffffffffffffffffffffffffff168260405160006040518083038185875af1925050503d80600081146122bc576040519150601f19603f3d011682016040523d82523d6000602084013e6122c1565b606091505b50509050806102b0576040517ff4b3b1bc00000000000000000000000000000000000000000000000000000000815260040160405180910390fd5b61231d73ffffffffffffffffffffffffffffffffffffffff8416838361250e565b505050565b600073ffffffffffffffffffffffffffffffffffffffff831661235d575073ffffffffffffffffffffffffffffffffffffffff81163161206b565b6040517f70a0823100000000000000000000000000000000000000000000000000000000815273ffffffffffffffffffffffffffffffffffffffff83811660048301528416906370a0823190602401602060405180830381865afa1580156123c9573d6000803e3d6000fd5b505050506040513d601f19601f820116820180604052508101906120689190613290565b600060405180608001604052806052815260200161332360529139805160209182012083518483015160408087015160608801519151610f15969192910194855273ffffffffffffffffffffffffffffffffffffffff93841660208601526040850192909252606084015216608082015260a00190565b600073ffffffffffffffffffffffffffffffffffffffff82111561250a576040517f08c379a000000000000000000000000000000000000000000000000000000000815260206004820152602760248201527f53616665436173743a2076616c756520646f65736e27742066697420696e203160448201527f36302062697473000000000000000000000000000000000000000000000000006064820152608401610333565b5090565b60006040517fa9059cbb000000000000000000000000000000000000000000000000000000008152836004820152826024820152602060006044836000895af13d15601f3d11600160005114161716915050806102b0576040517f08c379a000000000000000000000000000000000000000000000000000000000815260206004820152600f60248201527f5452414e534645525f4641494c454400000000000000000000000000000000006044820152606401610333565b73ffffffffffffffffffffffffffffffffffffffff81168114610aa457600080fd5b80356125f4816125c7565b919050565b60008083601f84011261260b57600080fd5b50813567ffffffffffffffff81111561262357600080fd5b60208301915083602082850101111561263b57600080fd5b9250929050565b6000806000806060858703121561265857600080fd5b843567ffffffffffffffff8082111561267057600080fd5b908601906040828903121561268457600080fd5b909450602086013590612696826125c7565b909350604086013590808211156126ac57600080fd5b506126b9878288016125f9565b95989497509550505050565b6000602082840312156126d757600080fd5b81356126e2816125c7565b9392505050565b60008060008060006060868803121561270157600080fd5b853567ffffffffffffffff8082111561271957600080fd5b818801915088601f83011261272d57600080fd5b81358181111561273c57600080fd5b8960208260051b850101111561275157600080fd5b60208301975080965050612767602089016125e9565b9450604088013591508082111561277d57600080fd5b5061278a888289016125f9565b969995985093965092949392505050565b7f4e487b7100000000000000000000000000000000000000000000000000000000600052604160045260246000fd5b7f4e487b7100000000000000000000000000000000000000000000000000000000600052603260045260246000fd5b600082357fffffffffffffffffffffffffffffffffffffffffffffffffffffffffffffffc183360301811261282d57600080fd5b9190910192915050565b60008083357fffffffffffffffffffffffffffffffffffffffffffffffffffffffffffffffe184360301811261286c57600080fd5b83018035915067ffffffffffffffff82111561288757600080fd5b60200191503681900382131561263b57600080fd5b6040516060810167ffffffffffffffff811182821017156128bf576128bf61279b565b60405290565b6040516080810167ffffffffffffffff811182821017156128bf576128bf61279b565b60405160e0810167ffffffffffffffff811182821017156128bf576128bf61279b565b604051601f82017fffffffffffffffffffffffffffffffffffffffffffffffffffffffffffffffe016810167ffffffffffffffff811182821017156129525761295261279b565b604052919050565b600082601f83011261296b57600080fd5b813567ffffffffffffffff8111156129855761298561279b565b6129b660207fffffffffffffffffffffffffffffffffffffffffffffffffffffffffffffffe0601f8401160161290b565b8181528460208386010111156129cb57600080fd5b816020850160208301376000918101602001919091529392505050565b600060c082840312156129fa57600080fd5b60405160c0810167ffffffffffffffff8282108183111715612a1e57612a1e61279b565b8160405282935084359150612a32826125c7565b908252602084013590612a44826125c7565b816020840152604085013560408401526060850135606084015260808501359150612a6e826125c7565b81608084015260a0850135915080821115612a8857600080fd5b50612a958582860161295a565b60a0830152505092915050565b600060608284031215612ab457600080fd5b612abc61289c565b90508135612ac9816125c7565b80825250602082013560208201526040820135604082015292915050565b600067ffffffffffffffff821115612b0157612b0161279b565b5060051b60200190565b600082601f830112612b1c57600080fd5b81356020612b31612b2c83612ae7565b61290b565b82815260079290921b84018101918181019086841115612b5057600080fd5b8286015b84811015612bb55760808189031215612b6d5760008081fd5b612b756128c5565b8135612b80816125c7565b8152818501358582015260408083013590820152606080830135612ba3816125c7565b90820152835291830191608001612b54565b509695505050505050565b600060208284031215612bd257600080fd5b813567ffffffffffffffff80821115612bea57600080fd5b908301906101208286031215612bff57600080fd5b612c076128e8565b823582811115612c1657600080fd5b612c22878286016129e8565b8252506020830135602082015260408301356040820152612c45606084016125e9565b606082015260808301356080820152612c618660a08501612aa2565b60a082015261010083013582811115612c7957600080fd5b612c8587828601612b0b565b60c08301525095945050505050565b60005b83811015612caf578181015183820152602001612c97565b50506000910152565b60008151808452612cd0816020860160208601612c94565b601f017fffffffffffffffffffffffffffffffffffffffffffffffffffffffffffffffe0169290920160200192915050565b600081518084526020808501945080840160005b83811015612d61578151805173ffffffffffffffffffffffffffffffffffffffff908116895284820151858a0152604091820151169088015260609096019590820190600101612d16565b509495945050505050565b6000815160e0845273ffffffffffffffffffffffffffffffffffffffff8082511660e08601528060208301511661010086015260408201516101208601526060820151610140860152806080830151166101608601525060a0810151905060c0610180850152612de06101a0850182612cb8565b90506020830151612e1e6020860182805173ffffffffffffffffffffffffffffffffffffffff16825260208082015190830152604090810151910152565b5060408301518482036080860152612e368282612d02565b915050606083015184820360a0860152612e508282612cb8565b915050608083015160c08501528091505092915050565b6000606082016060835280875180835260808501915060808160051b86010192506020808a0160005b83811015612edc577fffffffffffffffffffffffffffffffffffffffffffffffffffffffffffffff80888703018552612eca868351612d6c565b95509382019390820190600101612e90565b505073ffffffffffffffffffffffffffffffffffffffff89168187015285840360408701528684528688828601376000848801820152601f9096017fffffffffffffffffffffffffffffffffffffffffffffffffffffffffffffffe016909201909401979650505050505050565b60008451612f5c818460208901612c94565b845190830190612f70818360208901612c94565b8451910190612f83818360208801612c94565b0195945050505050565b7f4e487b7100000000000000000000000000000000000000000000000000000000600052601160045260246000fd5b8082018082111561206b5761206b612f8d565b60007fffffffffffffffffffffffffffffffffffffffffffffffffffffffffffffffff820361300057613000612f8d565b5060010190565b6020815260006120686020830184612d6c565b6000602080838503121561302d57600080fd5b825167ffffffffffffffff81111561304457600080fd5b8301601f8101851361305557600080fd5b8051613063612b2c82612ae7565b8181526060918202830184019184820191908884111561308257600080fd5b938501935b838510156130de5780858a03121561309f5760008081fd5b6130a761289c565b85516130b2816125c7565b815285870151878201526040808701516130cb816125c7565b9082015283529384019391850191613087565b50979650505050505050565b73ffffffffffffffffffffffffffffffffffffffff83168152604060208201526000611e146040830184612d6c565b7f4578636c757369766544757463684c696d69744f72646572207769746e65737381527f2900000000000000000000000000000000000000000000000000000000000000602082015260008551613177816021850160208a01612c94565b85519083019061318e816021840160208a01612c94565b85519101906131a4816021840160208901612c94565b84519101906131ba816021840160208801612c94565b016021019695505050505050565b60006101406131f8838a51805173ffffffffffffffffffffffffffffffffffffffff168252602090810151910152565b60208901516040840152604089015160608401526132396080840189805173ffffffffffffffffffffffffffffffffffffffff168252602090810151910152565b73ffffffffffffffffffffffffffffffffffffffff871660c08401528560e08401528061010084015261326e81840186612cb8565b90508281036101208401526132838185612cb8565b9998505050505050505050565b6000602082840312156132a257600080fd5b505191905056fe4f72646572496e666f28616464726573732072656163746f722c6164647265737320737761707065722c75696e74323536206e6f6e63652c75696e7432353620646561646c696e652c616464726573732076616c69646174696f6e436f6e74726163742c62797465732076616c69646174696f6e446174612944757463684f7574707574286164647265737320746f6b656e2c75696e74323536207374617274416d6f756e742c75696e7432353620656e64416d6f756e742c6164647265737320726563697069656e7429546f6b656e5065726d697373696f6e73286164647265737320746f6b656e2c75696e7432353620616d6f756e7429a264697066735822122052af8f05920cb87d3ec6d541c451b1bc73e51c67d0a11b1ee737d81a683e3b1764736f6c63430008130033",
    "linkReferences": {}
  },
  "methodIdentifiers": {
    "DIRECT_FILL()": "fccbcaaf",
    "execute((bytes,bytes),address,bytes)": "05afc977",
    "executeBatch((bytes,bytes)[],address,bytes)": "6f1d5f51",
    "feeController()": "6999b377",
    "owner()": "8da5cb5b",
    "permit2()": "12261ee7",
    "setOwner(address)": "13af4035",
    "setProtocolFeeController(address)": "2d771389"
  },
  "id": 55
}