{
  "abi": [
    {
      "inputs": [
        {
          "internalType": "address",
          "name": "_permitPost",
          "type": "address"
        }
      ],
      "stateMutability": "nonpayable",
      "type": "constructor"
    },
    {
      "inputs": [],
      "name": "DeadlineBeforeEndTime",
      "type": "error"
    },
    {
      "inputs": [],
      "name": "DeadlinePassed",
      "type": "error"
    },
    {
      "inputs": [],
      "name": "EndTimeBeforeStart",
      "type": "error"
    },
    {
      "inputs": [],
      "name": "InvalidReactor",
      "type": "error"
    },
    {
      "inputs": [],
      "name": "OrderAlreadyFilled",
      "type": "error"
    },
    {
      "inputs": [],
      "name": "OrderCancelled",
      "type": "error"
    },
    {
      "anonymous": false,
      "inputs": [
        {
          "indexed": false,
          "internalType": "bytes32",
          "name": "orderHash",
          "type": "bytes32"
        },
        {
          "indexed": false,
          "internalType": "address",
          "name": "filler",
          "type": "address"
        }
      ],
      "name": "Fill",
      "type": "event"
    },
    {
      "inputs": [
        {
          "components": [
            {
              "internalType": "bytes",
              "name": "order",
              "type": "bytes"
            },
            {
              "components": [
                {
                  "internalType": "uint8",
                  "name": "v",
                  "type": "uint8"
                },
                {
                  "internalType": "bytes32",
                  "name": "r",
                  "type": "bytes32"
                },
                {
                  "internalType": "bytes32",
                  "name": "s",
                  "type": "bytes32"
                }
              ],
              "internalType": "struct Signature",
              "name": "sig",
              "type": "tuple"
            }
          ],
          "internalType": "struct SignedOrder",
          "name": "order",
          "type": "tuple"
        },
        {
          "internalType": "address",
          "name": "fillContract",
          "type": "address"
        },
        {
          "internalType": "bytes",
          "name": "fillData",
          "type": "bytes"
        }
      ],
      "name": "execute",
      "outputs": [],
      "stateMutability": "nonpayable",
      "type": "function"
    },
    {
      "inputs": [
        {
          "components": [
            {
              "internalType": "bytes",
              "name": "order",
              "type": "bytes"
            },
            {
              "components": [
                {
                  "internalType": "uint8",
                  "name": "v",
                  "type": "uint8"
                },
                {
                  "internalType": "bytes32",
                  "name": "r",
                  "type": "bytes32"
                },
                {
                  "internalType": "bytes32",
                  "name": "s",
                  "type": "bytes32"
                }
              ],
              "internalType": "struct Signature",
              "name": "sig",
              "type": "tuple"
            }
          ],
          "internalType": "struct SignedOrder[]",
          "name": "orders",
          "type": "tuple[]"
        },
        {
          "internalType": "address",
          "name": "fillContract",
          "type": "address"
        },
        {
          "internalType": "bytes",
          "name": "fillData",
          "type": "bytes"
        }
      ],
      "name": "executeBatch",
      "outputs": [],
      "stateMutability": "nonpayable",
      "type": "function"
    },
    {
      "inputs": [
        {
          "internalType": "bytes32",
          "name": "",
          "type": "bytes32"
        }
      ],
      "name": "orderStatus",
      "outputs": [
        {
          "internalType": "bool",
          "name": "isCancelled",
          "type": "bool"
        },
        {
          "internalType": "bool",
          "name": "isFilled",
          "type": "bool"
        }
      ],
      "stateMutability": "view",
      "type": "function"
    },
    {
      "inputs": [],
      "name": "permitPost",
      "outputs": [
        {
          "internalType": "contract IPermitPost",
          "name": "",
          "type": "address"
        }
      ],
      "stateMutability": "view",
      "type": "function"
    },
    {
      "inputs": [
        {
          "internalType": "bytes",
          "name": "order",
          "type": "bytes"
        }
      ],
      "name": "resolve",
      "outputs": [
        {
          "components": [
            {
              "components": [
                {
                  "internalType": "address",
                  "name": "reactor",
                  "type": "address"
                },
                {
                  "internalType": "uint256",
                  "name": "nonce",
                  "type": "uint256"
                },
                {
                  "internalType": "uint256",
                  "name": "deadline",
                  "type": "uint256"
                }
              ],
              "internalType": "struct OrderInfo",
              "name": "info",
              "type": "tuple"
            },
            {
              "components": [
                {
                  "internalType": "address",
                  "name": "token",
                  "type": "address"
                },
                {
                  "internalType": "uint256",
                  "name": "amount",
                  "type": "uint256"
                }
              ],
              "internalType": "struct TokenAmount",
              "name": "input",
              "type": "tuple"
            },
            {
              "components": [
                {
                  "internalType": "address",
                  "name": "token",
                  "type": "address"
                },
                {
                  "internalType": "uint256",
                  "name": "amount",
                  "type": "uint256"
                },
                {
                  "internalType": "address",
                  "name": "recipient",
                  "type": "address"
                }
              ],
              "internalType": "struct Output[]",
              "name": "outputs",
              "type": "tuple[]"
            }
          ],
          "internalType": "struct ResolvedOrder",
          "name": "resolvedOrder",
          "type": "tuple"
        }
      ],
      "stateMutability": "view",
      "type": "function"
    }
  ],
  "bytecode": {
    "object": "0x60a060405234801561001057600080fd5b506040516116ee3803806116ee83398101604081905261002f91610040565b6001600160a01b0316608052610070565b60006020828403121561005257600080fd5b81516001600160a01b038116811461006957600080fd5b9392505050565b60805161165d6100916000396000818160f10152610be0015261165d6000f3fe608060405234801561001057600080fd5b50600436106100575760003560e01c80632dff692d1461005c57806386114adf146100a45780638bcaadbd146100b9578063e4056186146100cc578063f45d6b23146100ec575b600080fd5b61008861006a366004610d4a565b60006020819052908152604090205460ff8082169161010090041682565b6040805192151583529015156020830152015b60405180910390f35b6100b76100b2366004610dc7565b61012b565b005b6100b76100c7366004610e78565b61036a565b6100df6100da366004610ef7565b6104b8565b60405161009b9190610fe0565b6101137f000000000000000000000000000000000000000000000000000000000000000081565b6040516001600160a01b03909116815260200161009b565b6000846001600160401b0381111561014557610145610ffa565b60405190808252806020026020018201604052801561017e57816020015b61016b610d00565b8152602001906001900390816101635790505b5090506000856001600160401b0381111561019b5761019b610ffa565b6040519080825280602002602001820160405280156101c4578160200160208202803683370190505b5090506000866001600160401b038111156101e1576101e1610ffa565b60405190808252806020026020018201604052801561022c57816020015b60408051606081018252600080825260208083018290529282015282526000199092019101816101ff5790505b50905060005b878110156103515761026b89898381811061024f5761024f611010565b90506020028101906102619190611026565b6100da9080611046565b84828151811061027d5761027d611010565b602002602001018190525088888281811061029a5761029a611010565b90506020028101906102ac9190611026565b6102b69080611046565b6040516102c492919061108c565b60405180910390208382815181106102de576102de611010565b6020026020010181815250508888828181106102fc576102fc611010565b905060200281019061030e9190611026565b6020018036038101906103219190611138565b82828151811061033357610333611010565b60200260200101819052508080610349906111b5565b915050610232565b506103608382848989896106a5565b5050505050505050565b604080516001808252818301909252600091816020015b610389610d00565b8152602001906001900390816103815790505090506103ab6100da8680611046565b816000815181106103be576103be611010565b60209081029190910101526040805160018082528183019092526000918160200160208202803683370190505090506103f78680611046565b60405161040592919061108c565b60405180910390208160008151811061042057610420611010565b6020908102919091010152604080516001808252818301909252600091816020015b604080516060810182526000808252602080830182905292820152825260001990920191018161044257905050905061048336889003880160208901611138565b8160008151811061049657610496611010565b60200260200101819052506104af8382848989896106a5565b50505050505050565b6104c0610d00565b60006104ce838501856112e9565b90506104d98161094f565b60008160800151516001600160401b038111156104f8576104f8610ffa565b60405190808252806020026020018201604052801561054357816020015b60408051606081018252600080825260208083018290529282015282526000199092019101816105165790505b50905060005b81518110156106815760008360800151828151811061056a5761056a611010565b602002602001015190506000428560400151111580610590575081604001518260200151145b156105a05750604081015161061a565b428560200151106105b65750602081015161061a565b60008560200151426105c891906113bf565b90506000866020015187604001516105e091906113bf565b90506000846040015185602001516105f891906113bf565b90506106058184846109a7565b856020015161061491906113bf565b93505050505b604051806060016040528083600001516001600160a01b0316815260200182815260200183606001516001600160a01b031681525084848151811061066157610661611010565b602002602001018190525050508080610679906111b5565b915050610549565b50604080516060808201835284518252939093015160208401528201529392505050565b60005b8651811015610762576106d78782815181106106c6576106c6611010565b6020026020010151600001516109c6565b6106f98582815181106106ec576106ec611010565b6020026020010151610a15565b61075087828151811061070e5761070e611010565b602002602001015187838151811061072857610728611010565b602002602001015187848151811061074257610742611010565b602002602001015187610aa9565b8061075a816111b5565b9150506106a8565b506040516389930d2760e01b81526001600160a01b038416906389930d2790610793908990869086906004016113d8565b600060405180830381600087803b1580156107ad57600080fd5b505af11580156107c1573d6000803e3d6000fd5b5050505060005b86518110156104af5760005b8782815181106107e6576107e6611010565b602002602001015160400151518110156108d857600088838151811061080e5761080e611010565b602002602001015160400151828151811061082b5761082b611010565b60209081029190910181015180516040808301519383015190516323b872dd60e01b81526001600160a01b038b811660048301529485166024820152604481019190915291935091909116906323b872dd906064016020604051808303816000875af115801561089f573d6000803e3d6000fd5b505050506040513d601f19601f820116820180604052508101906108c39190611462565b505080806108d0906111b5565b9150506107d4565b507fba7599121d7877246723714eb403e13928cdbebe980abf7c630c0f9bef83fce185828151811061090c5761090c611010565b6020026020010151336040516109359291909182526001600160a01b0316602082015260400190565b60405180910390a180610947816111b5565b9150506107c8565b806020015181604001511161097757604051630c0b96df60e21b815260040160405180910390fd5b806040015181600001516040015110156109a45760405163773a618760e01b815260040160405180910390fd5b50565b8282028115158415858304851417166109bf57600080fd5b0492915050565b80516001600160a01b031630146109f057604051631377d29960e21b815260040160405180910390fd5b80604001514211156109a45760405163387b2e5560e11b815260040160405180910390fd5b6000818152602081815260409182902082518084019093525460ff808216158015855261010090920416151591830191909152610a68576040516001622a81af60e21b0319815260040160405180910390fd5b806020015115610a8b5760405163ee3b3d4b60e01b815260040160405180910390fd5b506000908152602081905260409020805461ff001916610100179055565b60006040518060800160405280610ac38760200151610c5a565b8152306020820152865160409081015181830152606090910185905280516001808252818301909252919250600091908160200160208202803683370190505090508281600081518110610b1957610b19611010565b6001600160a01b039290921660209283029190910190910152604080516001808252818301909252600091816020016020820280368337019050509050600081600081518110610b6b57610b6b611010565b602090810291909101015260408051600180825281830190925260009181602001602082028036833701905050905087602001516020015181600081518110610bb657610bb6611010565b6020908102919091018101919091528851015160405163771d599360e11b81526001600160a01b037f0000000000000000000000000000000000000000000000000000000000000000169163ee3ab32691610c1e918891889188918891908f906004016114f8565b600060405180830381600087803b158015610c3857600080fd5b505af1158015610c4c573d6000803e3d6000fd5b505050505050505050505050565b604080516001808252818301909252606091816020015b604080516080810182526000808252602080830182905292820181905260608201528252600019909201910181610c71579050506040805160808101909152909150806000815260200183600001516001600160a01b0316815260200183602001518152602001600081525081600081518110610cf057610cf0611010565b6020026020010181905250919050565b6040805160c0810182526000606082018181526080830182905260a08301829052825282518084019093528083526020838101919091529091908201908152602001606081525090565b600060208284031215610d5c57600080fd5b5035919050565b80356001600160a01b0381168114610d7a57600080fd5b919050565b60008083601f840112610d9157600080fd5b5081356001600160401b03811115610da857600080fd5b602083019150836020828501011115610dc057600080fd5b9250929050565b600080600080600060608688031215610ddf57600080fd5b85356001600160401b0380821115610df657600080fd5b818801915088601f830112610e0a57600080fd5b813581811115610e1957600080fd5b8960208260051b8501011115610e2e57600080fd5b60208301975080965050610e4460208901610d63565b94506040880135915080821115610e5a57600080fd5b50610e6788828901610d7f565b969995985093965092949392505050565b60008060008060608587031215610e8e57600080fd5b84356001600160401b0380821115610ea557600080fd5b9086019060808289031215610eb957600080fd5b819550610ec860208801610d63565b94506040870135915080821115610ede57600080fd5b50610eeb87828801610d7f565b95989497509550505050565b60008060208385031215610f0a57600080fd5b82356001600160401b03811115610f2057600080fd5b610f2c85828601610d7f565b90969095509350505050565b600060c08301825160018060a01b038082511686526020808301518188015260408084015181890152818701519350606083855116818a01528285015160808a015281880151945060c060a08a015285855180885260e08b0191508487019750600096505b80871015610fd25787518051871683528581015186840152840151861684830152968401966001969096019590820190610f9d565b509998505050505050505050565b602081526000610ff36020830184610f38565b9392505050565b634e487b7160e01b600052604160045260246000fd5b634e487b7160e01b600052603260045260246000fd5b60008235607e1983360301811261103c57600080fd5b9190910192915050565b6000808335601e1984360301811261105d57600080fd5b8301803591506001600160401b0382111561107757600080fd5b602001915036819003821315610dc057600080fd5b8183823760009101908152919050565b604051608081016001600160401b03811182821017156110be576110be610ffa565b60405290565b60405160a081016001600160401b03811182821017156110be576110be610ffa565b604051606081016001600160401b03811182821017156110be576110be610ffa565b604051601f8201601f191681016001600160401b038111828210171561113057611130610ffa565b604052919050565b60006060828403121561114a57600080fd5b604051606081018181106001600160401b038211171561116c5761116c610ffa565b604052823560ff8116811461118057600080fd5b8152602083810135908201526040928301359281019290925250919050565b634e487b7160e01b600052601160045260246000fd5b6000600182016111c7576111c761119f565b5060010190565b6000604082840312156111e057600080fd5b604051604081018181106001600160401b038211171561120257611202610ffa565b60405290508061121183610d63565b8152602083013560208201525092915050565b600082601f83011261123557600080fd5b813560206001600160401b0382111561125057611250610ffa565b61125e818360051b01611108565b82815260079290921b8401810191818101908684111561127d57600080fd5b8286015b848110156112de576080818903121561129a5760008081fd5b6112a261109c565b6112ab82610d63565b815281850135858201526040808301359082015260606112cc818401610d63565b90820152835291830191608001611281565b509695505050505050565b6000602082840312156112fb57600080fd5b81356001600160401b038082111561131257600080fd5b9083019081850361010081121561132857600080fd5b6113306110c4565b606082121561133e57600080fd5b6113466110e6565b915061135184610d63565b82526020840135602083015260408401356040830152818152606084013560208201526080840135604082015261138b8760a086016111ce565b606082015260e08401359150828211156113a457600080fd5b6113b087838601611224565b60808201529695505050505050565b818103818111156113d2576113d261119f565b92915050565b6000604082016040835280865180835260608501915060608160051b8601019250602080890160005b8381101561142f57605f1988870301855261141d868351610f38565b95509382019390820190600101611401565b5050858403818701528684528688828601376000848801820152601f909601601f19169092019094019695505050505050565b60006020828403121561147457600080fd5b81518015158114610ff357600080fd5b600081518084526020808501945080840160005b838110156114bd5781516001600160a01b031687529582019590820190600101611498565b509495945050505050565b600081518084526020808501945080840160005b838110156114bd578151875295820195908201906001016114dc565b61010080825287516080918301829052805161018084018190526000926101a0850192602092908301919085805b8281101561158557845180516003811061154e57634e487b7160e01b84526021600452602484fd5b8852808701516001600160a01b03168789015260408082015190890152606090810151908801529583019593850193600101611526565b5050508b8301516001600160a01b038116610120880152915060408c015161014087015260608c0151610160870152858403838701526115c5848c611484565b935085840360408701526115d9848b6114c8565b935085840360608701526115ed848a6114c8565b908601889052865160ff1660a0870152602087015160c0870152604087015160e0870152935061161c92505050565b97965050505050505056fea2646970667358221220007f61157eb182a19c6bb2113e137404955ca2226bf9d03355ce8396ddeaa98764736f6c63430008100033",
    "linkReferences": {}
  },
  "methodIdentifiers": {
    "execute((bytes,(uint8,bytes32,bytes32)),address,bytes)": "8bcaadbd",
    "executeBatch((bytes,(uint8,bytes32,bytes32))[],address,bytes)": "86114adf",
    "orderStatus(bytes32)": "2dff692d",
    "permitPost()": "f45d6b23",
    "resolve(bytes)": "e4056186"
  },
  "id": 24
}