{
  "abi": [
    {
      "inputs": [
        {
          "internalType": "address",
          "name": "_permitPost",
          "type": "address"
        }
      ],
      "stateMutability": "nonpayable",
      "type": "constructor"
    },
    {
      "inputs": [],
      "name": "DeadlineBeforeEndTime",
      "type": "error"
    },
    {
      "inputs": [],
      "name": "DeadlinePassed",
      "type": "error"
    },
    {
      "inputs": [],
      "name": "EndTimeBeforeStart",
      "type": "error"
    },
    {
      "inputs": [],
      "name": "InvalidReactor",
      "type": "error"
    },
    {
      "inputs": [],
      "name": "InvalidSender",
      "type": "error"
    },
    {
      "anonymous": false,
      "inputs": [
        {
          "indexed": false,
          "internalType": "bytes32",
          "name": "orderHash",
          "type": "bytes32"
        },
        {
          "indexed": false,
          "internalType": "address",
          "name": "filler",
          "type": "address"
        },
        {
          "indexed": false,
          "internalType": "uint256",
          "name": "nonce",
          "type": "uint256"
        },
        {
          "indexed": false,
          "internalType": "address",
          "name": "offerer",
          "type": "address"
        }
      ],
      "name": "Fill",
      "type": "event"
    },
    {
      "inputs": [
        {
          "components": [
            {
              "internalType": "bytes",
              "name": "order",
              "type": "bytes"
            },
            {
              "components": [
                {
                  "internalType": "uint8",
                  "name": "v",
                  "type": "uint8"
                },
                {
                  "internalType": "bytes32",
                  "name": "r",
                  "type": "bytes32"
                },
                {
                  "internalType": "bytes32",
                  "name": "s",
                  "type": "bytes32"
                }
              ],
              "internalType": "struct Signature",
              "name": "sig",
              "type": "tuple"
            }
          ],
          "internalType": "struct SignedOrder",
          "name": "order",
          "type": "tuple"
        },
        {
          "internalType": "address",
          "name": "fillContract",
          "type": "address"
        },
        {
          "internalType": "bytes",
          "name": "fillData",
          "type": "bytes"
        }
      ],
      "name": "execute",
      "outputs": [],
      "stateMutability": "nonpayable",
      "type": "function"
    },
    {
      "inputs": [
        {
          "components": [
            {
              "internalType": "bytes",
              "name": "order",
              "type": "bytes"
            },
            {
              "components": [
                {
                  "internalType": "uint8",
                  "name": "v",
                  "type": "uint8"
                },
                {
                  "internalType": "bytes32",
                  "name": "r",
                  "type": "bytes32"
                },
                {
                  "internalType": "bytes32",
                  "name": "s",
                  "type": "bytes32"
                }
              ],
              "internalType": "struct Signature",
              "name": "sig",
              "type": "tuple"
            }
          ],
          "internalType": "struct SignedOrder[]",
          "name": "orders",
          "type": "tuple[]"
        },
        {
          "internalType": "address",
          "name": "fillContract",
          "type": "address"
        },
        {
          "internalType": "bytes",
          "name": "fillData",
          "type": "bytes"
        }
      ],
      "name": "executeBatch",
      "outputs": [],
      "stateMutability": "nonpayable",
      "type": "function"
    },
    {
      "inputs": [],
      "name": "permitPost",
      "outputs": [
        {
          "internalType": "contract IPermitPost",
          "name": "",
          "type": "address"
        }
      ],
      "stateMutability": "view",
      "type": "function"
    }
  ],
  "bytecode": {
    "object": "0x60a060405234801561001057600080fd5b5060405161156138038061156183398101604081905261002f91610040565b6001600160a01b0316608052610070565b60006020828403121561005257600080fd5b81516001600160a01b038116811461006957600080fd5b9392505050565b6080516114d0610091600039600081816073015261096b01526114d06000f3fe608060405234801561001057600080fd5b50600436106100415760003560e01c806386114adf146100465780638bcaadbd1461005b578063f45d6b231461006e575b600080fd5b610059610054366004610e02565b6100b1565b005b610059610069366004610ef0565b6102a5565b6100957f000000000000000000000000000000000000000000000000000000000000000081565b6040516001600160a01b03909116815260200160405180910390f35b600084516001600160401b038111156100cc576100cc610bc8565b60405190808252806020026020018201604052801561010557816020015b6100f2610b77565b8152602001906001900390816100ea5790505b509050600085516001600160401b0381111561012357610123610bc8565b60405190808252806020026020018201604052801561014c578160200160208202803683370190505b509050600086516001600160401b0381111561016a5761016a610bc8565b6040519080825280602002602001820160405280156101b557816020015b60408051606081018252600080825260208083018290529282015282526000199092019101816101885790505b50905060005b875181101561028d576101ea8882815181106101d9576101d9610f51565b602002602001015160000151610334565b8482815181106101fc576101fc610f51565b602002602001018190525087818151811061021957610219610f51565b6020026020010151600001518051906020012083828151811061023e5761023e610f51565b60200260200101818152505087818151811061025c5761025c610f51565b60200260200101516020015182828151811061027a5761027a610f51565b60209081029190910101526001016101bb565b5061029c83828489898961052e565b50505050505050565b604080516001808252818301909252600091816020015b6102ed6040805180820182526060808252825190810183526000808252602082810182905293820152909182015290565b8152602001906001900390816102bc579050509050848160008151811061031657610316610f51565b602002602001018190525061032d818585856100b1565b5050505050565b61033c610b77565b6000828060200190518101906103529190611052565b905061035d8161078c565b60008160600151516001600160401b0381111561037c5761037c610bc8565b6040519080825280602002602001820160405280156103c757816020015b604080516060810182526000808252602080830182905292820152825260001990920191018161039a5790505b50905060005b815181101561050d576000836060015182815181106103ee576103ee610f51565b60200260200101519050600042856000015160600151111580610418575081604001518260200151145b15610428575060408101516104a6565b4285602001511061043e575060208101516104a6565b6000856020015142610450919061114b565b90506000866020015187600001516060015161046c919061114b565b9050600084604001518560200151610484919061114b565b90506104918184846107b8565b85602001516104a0919061114b565b93505050505b604051806060016040528083600001516001600160a01b0316815260200182815260200183606001516001600160a01b03168152508484815181106104ed576104ed610f51565b60200260200101819052505050808061050590611164565b9150506103cd565b50604080516060810182528351815292810151602084015282015292915050565b60005b86518110156105bf5761056087828151811061054f5761054f610f51565b6020026020010151600001516107d7565b6105b787828151811061057557610575610f51565b602002602001015187838151811061058f5761058f610f51565b60200260200101518784815181106105a9576105a9610f51565b602002602001015187610826565b600101610531565b50604051637699c89960e11b81526001600160a01b0384169063ed339132906105f2908990339087908790600401611203565b600060405180830381600087803b15801561060c57600080fd5b505af1158015610620573d6000803e3d6000fd5b5050505060005b865181101561029c5760005b87828151811061064557610645610f51565b602002602001015160400151518110156106c957600088838151811061066d5761066d610f51565b602002602001015160400151828151811061068a5761068a610f51565b602002602001015190506106c0868260400151836020015184600001516001600160a01b0316610a51909392919063ffffffff16565b50600101610633565b507fb7425f63eb6d6633896fb37a17c56e098d84542b065fb929e1e65eac5d8c96ba8582815181106106fd576106fd610f51565b60200260200101513389848151811061071857610718610f51565b602002602001015160000151604001518a858151811061073a5761073a610f51565b6020026020010151600001516020015160405161077c94939291909384526001600160a01b039283166020850152604084019190915216606082015260800190565b60405180910390a1600101610627565b6020810151815160600151116107b557604051630c0b96df60e21b815260040160405180910390fd5b50565b8282028115158415858304851417166107d057600080fd5b0492915050565b80516001600160a01b0316301461080157604051631377d29960e21b815260040160405180910390fd5b80606001514211156107b55760405163387b2e5560e11b815260040160405180910390fd5b6000604051806080016040528061085f8760200151602001518860200151600001516001600160a01b0316610ad890919063ffffffff16565b815230602082015286516060908101516040830152018490529050600060016040519080825280602002602001820160405280156108a7578160200160208202803683370190505b50905082816000815181106108be576108be610f51565b6001600160a01b03929092166020928302919091019091015260408051600180825281830190925260009181602001602082028036833701905050905060008160008151811061091057610910610f51565b60209081029190910101526040805160018082528183019092526000918160200160208202803683370190505090508760200151602001518160008151811061095b5761095b610f51565b60200260200101818152505060007f00000000000000000000000000000000000000000000000000000000000000006001600160a01b031663ee3ab326868686868e60000151604001518e6040518763ffffffff1660e01b81526004016109c796959493929190611347565b6020604051808303816000875af11580156109e6573d6000803e3d6000fd5b505050506040513d601f19601f82011682018060405250810190610a0a9190611476565b90508860000151602001516001600160a01b0316816001600160a01b031614610a4657604051636edaef2f60e11b815260040160405180910390fd5b505050505050505050565b60006040516323b872dd60e01b81528460048201528360248201528260448201526020600060648360008a5af13d15601f3d116001600051141617169150508061032d5760405162461bcd60e51b81526020600482015260146024820152731514905394d1915497d19493d357d1905253115160621b604482015260640160405180910390fd5b604080516001808252818301909252606091816020015b604080516080810182526000808252602080830182905292820181905260608201528252600019909201910181610aef5790505060408051608081019091529091508060008152602001846001600160a01b03168152602001838152602001600081525081600081518110610b6657610b66610f51565b602002602001018190525092915050565b6040805160e0810182526000606082018181526080830182905260a0830182905260c08301829052825282518084019093528083526020838101919091529091908201908152602001606081525090565b634e487b7160e01b600052604160045260246000fd5b604080519081016001600160401b0381118282101715610c0057610c00610bc8565b60405290565b604051608081016001600160401b0381118282101715610c0057610c00610bc8565b604051601f8201601f191681016001600160401b0381118282101715610c5057610c50610bc8565b604052919050565b60006001600160401b03821115610c7157610c71610bc8565b5060051b60200190565b600060608284031215610c8d57600080fd5b604051606081018181106001600160401b0382111715610caf57610caf610bc8565b604052905080823560ff81168114610cc657600080fd5b8082525060208301356020820152604083013560408201525092915050565b600060808284031215610cf757600080fd5b610cff610bde565b905081356001600160401b0380821115610d1857600080fd5b818401915084601f830112610d2c57600080fd5b8135602082821115610d4057610d40610bc8565b610d52601f8301601f19168201610c28565b92508183528681838601011115610d6857600080fd5b81818501828501376000818385010152828552610d8787828801610c7b565b818601525050505092915050565b6001600160a01b03811681146107b557600080fd5b8035610db581610d95565b919050565b60008083601f840112610dcc57600080fd5b5081356001600160401b03811115610de357600080fd5b602083019150836020828501011115610dfb57600080fd5b9250929050565b60008060008060608587031215610e1857600080fd5b84356001600160401b0380821115610e2f57600080fd5b818701915087601f830112610e4357600080fd5b81356020610e58610e5383610c58565b610c28565b82815260059290921b8401810191818101908b841115610e7757600080fd5b8286015b84811015610eaf57803586811115610e935760008081fd5b610ea18e86838b0101610ce5565b845250918301918301610e7b565b509850610ebf9050898201610daa565b965050506040870135915080821115610ed757600080fd5b50610ee487828801610dba565b95989497509550505050565b60008060008060608587031215610f0657600080fd5b84356001600160401b0380821115610f1d57600080fd5b610f2988838901610ce5565b955060208701359150610f3b82610d95565b90935060408601359080821115610ed757600080fd5b634e487b7160e01b600052603260045260246000fd5b600060408284031215610f7957600080fd5b610f81610bde565b90508151610f8e81610d95565b808252506020820151602082015292915050565b600082601f830112610fb357600080fd5b81516020610fc3610e5383610c58565b82815260079290921b84018101918181019086841115610fe257600080fd5b8286015b848110156110475760808189031215610fff5760008081fd5b611007610c06565b815161101281610d95565b815281850151858201526040808301519082015260608083015161103581610d95565b90820152835291830191608001610fe6565b509695505050505050565b60006020828403121561106457600080fd5b81516001600160401b038082111561107b57600080fd5b9083019081850361010081121561109157600080fd5b611099610c06565b60808212156110a757600080fd5b6110af610c06565b915083516110bc81610d95565b825260208401516110cc81610d95565b806020840152506040840151604083015260608401516060830152818152608084015160208201526111018760a08601610f67565b604082015260e084015191508282111561111a57600080fd5b61112687838601610fa2565b60608201529695505050505050565b634e487b7160e01b600052601160045260246000fd5b8181038181111561115e5761115e611135565b92915050565b60006001820161117657611176611135565b5060010190565b600081518084526020808501945080840160005b838110156111cf57815180516001600160a01b03908116895284820151858a0152604091820151169088015260609096019590820190600101611191565b509495945050505050565b81835281816020850137506000828201602090810191909152601f909101601f19169091010190565b60006060808301818452808851808352608092508286019150828160051b8701016020808c0160005b848110156112ac57898403607f190186528151805180516001600160a01b0390811687528582015181168688015260408083015181890152918b01518b8801528583015180519091168a88015285015160a0870152015160e060c086018190526112988187018361117d565b97850197955050509082019060010161122c565b50506001600160a01b038b169088015286810360408801526112cf81898b6111da565b9b9a5050505050505050505050565b600081518084526020808501945080840160005b838110156111cf5781516001600160a01b0316875295820195908201906001016112f2565b600081518084526020808501945080840160005b838110156111cf5781518752958201959082019060010161132b565b61010080825287516080918301829052805161018084018190526000926101a0850192602092908301919085805b828110156113d457845180516003811061139d57634e487b7160e01b84526021600452602484fd5b8852808701516001600160a01b03168789015260408082015190890152606090810151908801529583019593850193600101611375565b5050508b8301516001600160a01b038116610120880152915060408c015161014087015260608c015161016087015285840383870152611414848c6112de565b93508584036040870152611428848b611317565b9350858403606087015261143c848a611317565b908601889052865160ff1660a0870152602087015160c0870152604087015160e0870152935061146b92505050565b979650505050505050565b60006020828403121561148857600080fd5b815161149381610d95565b939250505056fea26469706673582212201143682204d4bdb55e7970a2c8f80ce2749c133378b3fb1a06208a9f83e3799a64736f6c63430008100033",
    "linkReferences": {}
  },
  "methodIdentifiers": {
    "execute((bytes,(uint8,bytes32,bytes32)),address,bytes)": "8bcaadbd",
    "executeBatch((bytes,(uint8,bytes32,bytes32))[],address,bytes)": "86114adf",
    "permitPost()": "f45d6b23"
  },
  "id": 30
}