{
  "abi": [
    {
      "inputs": [
        {
          "internalType": "address",
          "name": "_permit2",
          "type": "address"
        }
      ],
      "stateMutability": "nonpayable",
      "type": "constructor"
    },
    {
      "inputs": [],
      "name": "DeadlinePassed",
      "type": "error"
    },
    {
      "inputs": [],
      "name": "EndTimeBeforeStart",
      "type": "error"
    },
    {
      "inputs": [],
      "name": "IncorrectAmounts",
      "type": "error"
    },
    {
      "inputs": [],
      "name": "InputAndOutputDecay",
      "type": "error"
    },
    {
      "inputs": [],
      "name": "InvalidReactor",
      "type": "error"
    },
    {
      "inputs": [],
      "name": "InvalidSender",
      "type": "error"
    },
    {
      "anonymous": false,
      "inputs": [
        {
          "indexed": true,
          "internalType": "bytes32",
          "name": "orderHash",
          "type": "bytes32"
        },
        {
          "indexed": true,
          "internalType": "address",
          "name": "filler",
          "type": "address"
        },
        {
          "indexed": true,
          "internalType": "uint256",
          "name": "nonce",
          "type": "uint256"
        },
        {
          "indexed": false,
          "internalType": "address",
          "name": "offerer",
          "type": "address"
        }
      ],
      "name": "Fill",
      "type": "event"
    },
    {
      "inputs": [
        {
          "components": [
            {
              "internalType": "bytes",
              "name": "order",
              "type": "bytes"
            },
            {
              "internalType": "bytes",
              "name": "sig",
              "type": "bytes"
            }
          ],
          "internalType": "struct SignedOrder",
          "name": "order",
          "type": "tuple"
        },
        {
          "internalType": "address",
          "name": "fillContract",
          "type": "address"
        },
        {
          "internalType": "bytes",
          "name": "fillData",
          "type": "bytes"
        }
      ],
      "name": "execute",
      "outputs": [],
      "stateMutability": "nonpayable",
      "type": "function"
    },
    {
      "inputs": [
        {
          "components": [
            {
              "internalType": "bytes",
              "name": "order",
              "type": "bytes"
            },
            {
              "internalType": "bytes",
              "name": "sig",
              "type": "bytes"
            }
          ],
          "internalType": "struct SignedOrder[]",
          "name": "orders",
          "type": "tuple[]"
        },
        {
          "internalType": "address",
          "name": "fillContract",
          "type": "address"
        },
        {
          "internalType": "bytes",
          "name": "fillData",
          "type": "bytes"
        }
      ],
      "name": "executeBatch",
      "outputs": [],
      "stateMutability": "nonpayable",
      "type": "function"
    },
    {
      "inputs": [],
      "name": "permit2",
      "outputs": [
        {
          "internalType": "contract ISignatureTransfer",
          "name": "",
          "type": "address"
        }
      ],
      "stateMutability": "view",
      "type": "function"
    }
  ],
  "bytecode": {
    "object": "0x60a03461007357601f611bad38819003918201601f19168301916001600160401b038311848410176100785780849260209460405283398101031261007357516001600160a01b0381169081900361007357608052604051611b1e908161008f82396080518181816103f401526117d80152f35b600080fd5b634e487b7160e01b600052604160045260246000fdfe60806040526004361015610013575b600080fd5b6000803560e01c90816305afc977146100525750806312261ee71461004957636f1d5f511461004157600080fd5b61000e61043f565b5061000e6103a8565b3461011c5760607ffffffffffffffffffffffffffffffffffffffffffffffffffffffffffffffffc36011261011c5767ffffffffffffffff600435818111610118576100a29036906004016102d3565b602435906100af82610344565b604435928311610114576100ca6100f793369060040161036f565b9290916100de6100d86105d3565b91610f60565b815115610107575b60208201528051156100fa57610992565b80f35b61010261060f565b610992565b61010f61060f565b6100e6565b8380fd5b8280fd5b80fd5b507f4e487b7100000000000000000000000000000000000000000000000000000000600052604160045260246000fd5b6060810190811067ffffffffffffffff82111761016b57604052565b61017361011f565b604052565b67ffffffffffffffff811161016b57604052565b6080810190811067ffffffffffffffff82111761016b57604052565b6040810190811067ffffffffffffffff82111761016b57604052565b60c0810190811067ffffffffffffffff82111761016b57604052565b90601f7fffffffffffffffffffffffffffffffffffffffffffffffffffffffffffffffe0910116810190811067ffffffffffffffff82111761016b57604052565b6040519061022e8261014f565b565b6040519060a0820182811067ffffffffffffffff82111761016b57604052565b81601f8201121561000e5780359067ffffffffffffffff82116102c6575b604051926102a460207fffffffffffffffffffffffffffffffffffffffffffffffffffffffffffffffe0601f86011601856101e0565b8284526020838301011161000e57816000926020809301838601378301015290565b6102ce61011f565b61026e565b91909160408184031261000e57604080519167ffffffffffffffff91830182811184821017610337575b6040528294813583811161000e5781610317918401610250565b8452602082013592831161000e576020926103329201610250565b910152565b61033f61011f565b6102fd565b73ffffffffffffffffffffffffffffffffffffffff81160361000e57565b6024359061022e82610344565b9181601f8401121561000e5782359167ffffffffffffffff831161000e576020838186019501011161000e57565b600091031261000e57565b503461000e5760007ffffffffffffffffffffffffffffffffffffffffffffffffffffffffffffffffc36011261000e57602060405173ffffffffffffffffffffffffffffffffffffffff7f0000000000000000000000000000000000000000000000000000000000000000168152f35b60209067ffffffffffffffff8111610432575b60051b0190565b61043a61011f565b61042b565b503461000e5760607ffffffffffffffffffffffffffffffffffffffffffffffffffffffffffffffffc36011261000e5767ffffffffffffffff60043581811161000e573660238201121561000e57806004013561049b81610418565b916104a960405193846101e0565b8183526020918284016024809260051b8401019236841161000e57828101915b8483106105005787876104da610362565b9060443592831161000e576104f66104fe93369060040161036f565b929091610661565b005b823588811161000e57869161051b83928736918701016102d3565b8152019201916104c9565b604051906105338261014f565b60006040838281528260208201520152565b604051906000608060a084019367ffffffffffffffff94818110868211176105c6575b806040528195610120830190828210908211176105b9575b6040528381528360c08301528360e08301528361010083015281526105a3610526565b6020820152606060408201526060808201520152565b6105c161011f565b610580565b6105ce61011f565b610568565b604051906105e0826101a8565b600182528160005b6020908181101561060a576020916105fe610545565b908285010152016105e8565b505050565b507f4e487b7100000000000000000000000000000000000000000000000000000000600052603260045260246000fd5b6020918151811015610654575b60051b010190565b61065c61060f565b61064c565b919390928251947fffffffffffffffffffffffffffffffffffffffffffffffffffffffffffffffe06106ab61069588610418565b976106a3604051998a6101e0565b808952610418565b0160005b81811061070557505060005b84518110156106f657806106da6106d46001938861063f565b51610f60565b6106e4828a61063f565b526106ef818961063f565b50016106bb565b50919461022e94919350610992565b602090610710610545565b82828b010152016106af565b90815180825260208080930193019160005b82811061073c575050505090565b8351805173ffffffffffffffffffffffffffffffffffffffff9081168752818401518785015260409182015116908601526060909401939281019260010161072e565b60005b8381106107925750506000910152565b8181015183820152602001610782565b907fffffffffffffffffffffffffffffffffffffffffffffffffffffffffffffffe0601f6020936107de8151809281875287808801910161077f565b0116010190565b601f82602094937fffffffffffffffffffffffffffffffffffffffffffffffffffffffffffffffe0938186528686013760008582860101520116010190565b94939192909260609384870194808852815180965260809586890196808260051b8b0101976020809501936000925b848410610897575050505050508691610887916108949798019073ffffffffffffffffffffffffffffffffffffffff169052565b60408185039101526107e5565b90565b9091929394998680828f7fffffffffffffffffffffffffffffffffffffffffffffffffffffffffffffff8090600195030187528d51906101208661096f61095d855173ffffffffffffffffffffffffffffffffffffffff8082511687528882015116888701528b604091828101518389015201518c87015261094988880151858801906040809173ffffffffffffffffffffffffffffffffffffffff8151168452602081015160208501520151910152565b8601516101408060e088015286019061071c565b8a8601518582036101008701526107a2565b9301519101529c01940194019294939190610853565b506040513d6000823e3d90fd5b93909160005b85518110156109c857806109c2856109b26001948a61063f565b516109bd8151610c59565b6117bb565b01610998565b5090939273ffffffffffffffffffffffffffffffffffffffff8316803b1561000e57610a2b916000916040948386518096819582947f56d6d021000000000000000000000000000000000000000000000000000000008452338d60048601610824565b03925af18015610b95575b610b7c575b50600093915b8351851015610b7557610a57858596949661063f565b51828101939060005b85518051821015610ae95790610ae3610a7b8260019461063f565b51610ab6610a9d825173ffffffffffffffffffffffffffffffffffffffff1690565b73ffffffffffffffffffffffffffffffffffffffff1690565b90876020610ada8b84015173ffffffffffffffffffffffffffffffffffffffff1690565b92015192610ba2565b01610a60565b505060019294506080610afc838861063f565b510151905190610b2760208684015193015173ffffffffffffffffffffffffffffffffffffffff1690565b855173ffffffffffffffffffffffffffffffffffffffff9190911681523391907fb7425f63eb6d6633896fb37a17c56e098d84542b065fb929e1e65eac5d8c96ba90602090a4019391610a41565b5050915050565b80610b89610b8f92610178565b8061039d565b38610a3b565b610b9d610985565b610a36565b9060006064926020958295604051947f23b872dd0000000000000000000000000000000000000000000000000000000086526004860152602485015260448401525af13d15601f3d1160016000511416171615610bfb57565b60646040517f08c379a000000000000000000000000000000000000000000000000000000000815260206004820152601460248201527f5452414e534645525f46524f4d5f4641494c45440000000000000000000000006044820152fd5b73ffffffffffffffffffffffffffffffffffffffff8151163003610cad57606001514211610c8357565b60046040517f70f65caa000000000000000000000000000000000000000000000000000000008152fd5b60046040517f4ddf4a64000000000000000000000000000000000000000000000000000000008152fd5b919082606091031261000e576040516060810181811067ffffffffffffffff821117610d24575b60405260408082948051610d1181610344565b8452602081015160208501520151910152565b610d2c61011f565b610cfe565b81601f8201121561000e57805190610d4882610418565b92604092610d58845195866101e0565b808552602091828087019260071b8501019381851161000e578301915b848310610d855750505050505090565b60808383031261000e57836080918751610d9e8161018c565b8551610da981610344565b81528286015183820152888601518982015260608087015190610dcb82610344565b820152815201920191610d75565b9060208282031261000e57815167ffffffffffffffff9283821161000e57019081810392610120841261000e57608060405194610e158661018c565b1261000e57604051610e268161018c565b8351610e3181610344565b81526020840151610e4181610344565b60208201526040840151604082015260608401516060820152845260808301516020850152610e738260a08501610cd7565b604085015261010083015190811161000e57610e8f9201610d31565b606082015290565b90610ea182610418565b610eae60405191826101e0565b8281527fffffffffffffffffffffffffffffffffffffffffffffffffffffffffffffffe0610edc8294610418565b019060005b828110610eed57505050565b602090610ef8610526565b82828501015201610ee1565b7fffffffffffffffffffffffffffffffffffffffffffffffffffffffffffffffff8114610f315760010190565b7f4e487b7100000000000000000000000000000000000000000000000000000000600052601160045260246000fd5b610f68610545565b508051610f7f602091828082518301019101610dd9565b92610f8984611969565b60609182850192610f9b845151610e97565b938683019360005b86518110156110bc57610fb781845161063f565b518581018051604091828401918251116110935791610feb611073928e8c8b61108e99989751935191519251015192611a76565b9061102a8961100e865173ffffffffffffffffffffffffffffffffffffffff1690565b95015173ffffffffffffffffffffffffffffffffffffffff1690565b91611052611036610221565b73ffffffffffffffffffffffffffffffffffffffff9096168652565b8a85015283019073ffffffffffffffffffffffffffffffffffffffff169052565b61107d828a61063f565b52611088818961063f565b50610f04565b610fa3565b600483517f7c1f8113000000000000000000000000000000000000000000000000000000008152fd5b50969390506111438383979693949660408701519361110a6110ef8487015160408801519351848c519e8f015192611a76565b955173ffffffffffffffffffffffffffffffffffffffff1690565b94611132611116610221565b73ffffffffffffffffffffffffffffffffffffffff9097168752565b8386015260408501520151946113ea565b9461114c610230565b9687528601526040850152830152608082015290565b604051906080820182811067ffffffffffffffff8211176111f9575b604052605282527f6164647265737320726563697069656e742900000000000000000000000000006060837f44757463684f7574707574286164647265737320746f6b656e2c75696e74323560208201527f36207374617274416d6f756e742c75696e7432353620656e64416d6f756e742c60408201520152565b61120161011f565b61117e565b906112196020928281519485920161077f565b0190565b6113be61089461122b611162565b6040519283917f44757463684c696d69744f72646572280000000000000000000000000000000060208401527f616464726573732072656163746f722c0000000000000000000000000000000060308401527f61646472657373206f6666657265722c0000000000000000000000000000000060408401527f75696e74323536206e6f6e63652c00000000000000000000000000000000000060508401527f75696e7432353620646561646c696e652c000000000000000000000000000000605e8401527f75696e7432353620737461727454696d652c0000000000000000000000000000606f8401527f6164647265737320696e707574546f6b656e2c0000000000000000000000000060818401527f75696e7432353620696e7075745374617274416d6f756e742c0000000000000060948401527f75696e7432353620696e707574456e64416d6f756e742c00000000000000000060ad8401526113b860c484016016907f44757463684f75747075745b5d206f757470757473290000000000000000000081520190565b90611206565b037fffffffffffffffffffffffffffffffffffffffffffffffffffffffffffffffe081018352826101e0565b906113f361121d565b602081519101209082519073ffffffffffffffffffffffffffffffffffffffff8251169273ffffffffffffffffffffffffffffffffffffffff602084015116606060408501519401519460208701519460408801519773ffffffffffffffffffffffffffffffffffffffff89511698606060406020830151920151920151998a51987fffffffffffffffffffffffffffffffffffffffffffffffffffffffffffffffe06114b86114a28c610418565b9b6114b06040519d8e6101e0565b808d52610418565b013660208c013760005b8c5181101561157057808b6115658f936114df8161156b9661063f565b516114e8611162565b602081519101209073ffffffffffffffffffffffffffffffffffffffff8151169060208101519073ffffffffffffffffffffffffffffffffffffffff606060408301519201511691604051936020850195865260408501526060840152608083015260a09081830152815261155c816101c4565b5190209261063f565b52610f04565b6114c2565b5090919293949699611607989b506113be9699604051611598816113be60208201809561160d565b519020956040519a8b9960208b019d8e9692936101209895919b9a99969261014089019c895273ffffffffffffffffffffffffffffffffffffffff958680921660208b01521660408901526060880152608087015260a08601521660c084015260e08301526101008201520152565b51902090565b805160208092019160005b828110611626575050505090565b835185529381019392810192600101611618565b6116f6610894603861164a61121d565b6040516116568161014f565b602e815260208101907f546f6b656e5065726d697373696f6e73286164647265737320746f6b656e2c7582527f696e7432353620616d6f756e742900000000000000000000000000000000000060408201526040519586937f44757463684c696d69744f72646572207769746e65737329000000000000000060208601526116e7815180926020898901910161077f565b8401915180938684019061077f565b010360188101845201826101e0565b94916117ac9361178f73ffffffffffffffffffffffffffffffffffffffff9260406108949a98956117578b82516020809173ffffffffffffffffffffffffffffffffffffffff81511684520151910152565b6020818101518c84015291015160608b0152815173ffffffffffffffffffffffffffffffffffffffff1660808b0152015160a0890152565b1660c086015260e0850152610140806101008601528401906107a2565b916101208184039101526107a2565b906118669073ffffffffffffffffffffffffffffffffffffffff807f00000000000000000000000000000000000000000000000000000000000000001690604093849384516118098161014f565b611811611912565b81526000968188602081940152015284602088015193845116930151855193611839856101a8565b84526020840152865160608682015191015190611854610221565b9485526020850152858401528661192b565b9061188a602087510173ffffffffffffffffffffffffffffffffffffffff90511690565b93608087015196606061189b61163a565b91015191853b1561190e57916118e29188949351998a98899788967f137c29fe00000000000000000000000000000000000000000000000000000000885260048801611705565b03925af18015611901575b6118f45750565b80610b8961022e92610178565b611909610985565b6118ed565b8780fd5b6040519061191f826101a8565b60006020838281520152565b60208091611937611912565b500151015173ffffffffffffffffffffffffffffffffffffffff6040519261195e846101a8565b168252602082015290565b60608082510151602090818401511015611a4c576040918284015183838201519101519081810361199d575b505050505050565b9593949511611a235760005b81860180518051831015611a10576119d183866119c7828b9561063f565b510151935161063f565b510151036119e7576119e290610f04565b6119a9565b600485517fd303758b000000000000000000000000000000000000000000000000000000008152fd5b5050505050915050388080808080611995565b600484517f7c1f8113000000000000000000000000000000000000000000000000000000008152fd5b60046040517f302e5b7c000000000000000000000000000000000000000000000000000000008152fd5b9290914282148015611ac7575b15611a8f575050905090565b428110611a9c5750505090565b80420391039083808410600014611abd5792611ab89303611ad0565b900390565b6112199303611ad0565b50828414611a83565b8181029181830414901517821515161561000e57049056fea26469706673582212208e369ad741540fe71416807d2dc8c83ceefa2d8ef6cd234b9e2baa55edfbc66e64736f6c63430008110033",
    "linkReferences": {}
  },
  "methodIdentifiers": {
    "execute((bytes,bytes),address,bytes)": "05afc977",
    "executeBatch((bytes,bytes)[],address,bytes)": "6f1d5f51",
    "permit2()": "12261ee7"
  },
  "id": 49
}