{
  "abi": [
    {
      "inputs": [
        {
          "internalType": "address",
          "name": "_permit2",
          "type": "address"
        },
        {
          "internalType": "address",
          "name": "_protocolFeeOwner",
          "type": "address"
        }
      ],
      "stateMutability": "nonpayable",
      "type": "constructor"
    },
    {
      "inputs": [],
      "name": "DeadlineBeforeEndTime",
      "type": "error"
    },
    {
      "inputs": [],
      "name": "DeadlinePassed",
      "type": "error"
    },
    {
      "inputs": [],
      "name": "DuplicateFeeOutput",
      "type": "error"
    },
    {
      "inputs": [],
      "name": "EndTimeBeforeStartTime",
      "type": "error"
    },
    {
      "inputs": [],
      "name": "EndTimeBeforeStartTime",
      "type": "error"
    },
    {
      "inputs": [],
      "name": "FeeTooLarge",
      "type": "error"
    },
    {
      "inputs": [],
      "name": "IncorrectAmounts",
      "type": "error"
    },
    {
      "inputs": [],
      "name": "InputAndOutputDecay",
      "type": "error"
    },
    {
      "inputs": [],
      "name": "InsufficientEth",
      "type": "error"
    },
    {
      "inputs": [],
      "name": "InsufficientOutput",
      "type": "error"
    },
    {
      "inputs": [],
      "name": "InvalidFeeToken",
      "type": "error"
    },
    {
      "inputs": [],
      "name": "InvalidOverrideAmount",
      "type": "error"
    },
    {
      "inputs": [],
      "name": "InvalidReactor",
      "type": "error"
    },
    {
      "inputs": [],
      "name": "NativeTransferFailed",
      "type": "error"
    },
    {
      "inputs": [],
      "name": "NoExclusiveOverride",
      "type": "error"
    },
    {
      "inputs": [],
      "name": "ValidationFailed",
      "type": "error"
    },
    {
      "anonymous": false,
      "inputs": [
        {
          "indexed": true,
          "internalType": "bytes32",
          "name": "orderHash",
          "type": "bytes32"
        },
        {
          "indexed": true,
          "internalType": "address",
          "name": "filler",
          "type": "address"
        },
        {
          "indexed": true,
          "internalType": "address",
          "name": "offerer",
          "type": "address"
        },
        {
          "indexed": false,
          "internalType": "uint256",
          "name": "nonce",
          "type": "uint256"
        }
      ],
      "name": "Fill",
      "type": "event"
    },
    {
      "anonymous": false,
      "inputs": [
        {
          "indexed": true,
          "internalType": "address",
          "name": "user",
          "type": "address"
        },
        {
          "indexed": true,
          "internalType": "address",
          "name": "newOwner",
          "type": "address"
        }
      ],
      "name": "OwnerUpdated",
      "type": "event"
    },
    {
      "inputs": [],
      "name": "DIRECT_TAKER_FILL",
      "outputs": [
        {
          "internalType": "address",
          "name": "",
          "type": "address"
        }
      ],
      "stateMutability": "view",
      "type": "function"
    },
    {
      "inputs": [
        {
          "components": [
            {
              "internalType": "bytes",
              "name": "order",
              "type": "bytes"
            },
            {
              "internalType": "bytes",
              "name": "sig",
              "type": "bytes"
            }
          ],
          "internalType": "struct SignedOrder",
          "name": "order",
          "type": "tuple"
        },
        {
          "internalType": "address",
          "name": "fillContract",
          "type": "address"
        },
        {
          "internalType": "bytes",
          "name": "fillData",
          "type": "bytes"
        }
      ],
      "name": "execute",
      "outputs": [],
      "stateMutability": "payable",
      "type": "function"
    },
    {
      "inputs": [
        {
          "components": [
            {
              "internalType": "bytes",
              "name": "order",
              "type": "bytes"
            },
            {
              "internalType": "bytes",
              "name": "sig",
              "type": "bytes"
            }
          ],
          "internalType": "struct SignedOrder[]",
          "name": "orders",
          "type": "tuple[]"
        },
        {
          "internalType": "address",
          "name": "fillContract",
          "type": "address"
        },
        {
          "internalType": "bytes",
          "name": "fillData",
          "type": "bytes"
        }
      ],
      "name": "executeBatch",
      "outputs": [],
      "stateMutability": "payable",
      "type": "function"
    },
    {
      "inputs": [],
      "name": "feeController",
      "outputs": [
        {
          "internalType": "contract IProtocolFeeController",
          "name": "",
          "type": "address"
        }
      ],
      "stateMutability": "view",
      "type": "function"
    },
    {
      "inputs": [],
      "name": "owner",
      "outputs": [
        {
          "internalType": "address",
          "name": "",
          "type": "address"
        }
      ],
      "stateMutability": "view",
      "type": "function"
    },
    {
      "inputs": [],
      "name": "permit2",
      "outputs": [
        {
          "internalType": "address",
          "name": "",
          "type": "address"
        }
      ],
      "stateMutability": "view",
      "type": "function"
    },
    {
      "inputs": [
        {
          "internalType": "address",
          "name": "newOwner",
          "type": "address"
        }
      ],
      "name": "setOwner",
      "outputs": [],
      "stateMutability": "nonpayable",
      "type": "function"
    },
    {
      "inputs": [
        {
          "internalType": "address",
          "name": "_feeController",
          "type": "address"
        }
      ],
      "name": "setProtocolFeeController",
      "outputs": [],
      "stateMutability": "nonpayable",
      "type": "function"
    },
    {
      "stateMutability": "payable",
      "type": "receive"
    }
  ],
  "bytecode": {
    "object": "0x60a06040523480156200001157600080fd5b506040516200374b3803806200374b8339810160408190526200003491620000bc565b600080546001600160a01b0319166001600160a01b03831690811782556040518492849283928392907f8292fce18fa69edf4db7b94ea2e58241df0ae57f97e0a6c9b29067028bf92d76908290a350506001600255506001600160a01b031660805250620000f49050565b80516001600160a01b0381168114620000b757600080fd5b919050565b60008060408385031215620000d057600080fd5b620000db836200009f565b9150620000eb602084016200009f565b90509250929050565b60805161362e6200011d6000396000818160f0015281816116c70152611ac4015261362e6000f3fe60806040526004361061007f5760003560e01c80632d7713891161004e5780632d771389146101325780636999b377146101525780636f1d5f511461017f5780638da5cb5b1461019257600080fd5b806305afc9771461008b578063094fc90a146100a057806312261ee7146100de57806313af40351461011257600080fd5b3661008657005b600080fd5b61009e6100993660046127d8565b6101bf565b005b3480156100ac57600080fd5b506100b5600181565b60405173ffffffffffffffffffffffffffffffffffffffff909116815260200160405180910390f35b3480156100ea57600080fd5b506100b57f000000000000000000000000000000000000000000000000000000000000000081565b34801561011e57600080fd5b5061009e61012d36600461285b565b6102c1565b34801561013e57600080fd5b5061009e61014d36600461285b565b6103b7565b34801561015e57600080fd5b506001546100b59073ffffffffffffffffffffffffffffffffffffffff1681565b61009e61018d36600461287f565b61047f565b34801561019e57600080fd5b506000546100b59073ffffffffffffffffffffffffffffffffffffffff1681565b6101c76105db565b604080516001808252818301909252600091816020015b6040805161016081018252600060a0820181815260c0830182905260e0830182905261010083018290526101208301829052606061014084018190529083528351808201855282815260208082018490528186018490528085019190915293830181905280830152608082015282527fffffffffffffffffffffffffffffffffffffffffffffffffffffffffffffffff9092019101816101de5790505090506102868561064c565b8160008151811061029957610299612960565b60200260200101819052506102b0818585856107b8565b506102bb6001600255565b50505050565b60005473ffffffffffffffffffffffffffffffffffffffff163314610347576040517f08c379a000000000000000000000000000000000000000000000000000000000815260206004820152600c60248201527f554e415554484f52495a4544000000000000000000000000000000000000000060448201526064015b60405180910390fd5b600080547fffffffffffffffffffffffff00000000000000000000000000000000000000001673ffffffffffffffffffffffffffffffffffffffff83169081178255604051909133917f8292fce18fa69edf4db7b94ea2e58241df0ae57f97e0a6c9b29067028bf92d769190a350565b60005473ffffffffffffffffffffffffffffffffffffffff163314610438576040517f08c379a000000000000000000000000000000000000000000000000000000000815260206004820152600c60248201527f554e415554484f52495a45440000000000000000000000000000000000000000604482015260640161033e565b600180547fffffffffffffffffffffffff00000000000000000000000000000000000000001673ffffffffffffffffffffffffffffffffffffffff92909216919091179055565b6104876105db565b60008467ffffffffffffffff8111156104a2576104a2612931565b60405190808252806020026020018201604052801561055d57816020015b6040805161016081018252600060a0820181815260c0830182905260e0830182905261010083018290526101208301829052606061014084018190529083528351808201855282815260208082018490528186018490528085019190915293830181905280830152608082015282527fffffffffffffffffffffffffffffffffffffffffffffffffffffffffffffffff9092019101816104c05790505b50905060005b858110156105bc5761059787878381811061058057610580612960565b9050602002810190610592919061298f565b61064c565b8282815181106105a9576105a9612960565b6020908102919091010152600101610563565b506105c9818585856107b8565b506105d46001600255565b5050505050565b6002805403610646576040517f08c379a000000000000000000000000000000000000000000000000000000000815260206004820152601f60248201527f5265656e7472616e637947756172643a207265656e7472616e742063616c6c00604482015260640161033e565b60028055565b6040805161016081018252600060a0820181815260c0830182905260e0830182905261010083018290526101208301829052606061014084018190529083528351808201855282815260208082018490528186018490528401529282018390528282019290925260808101829052906106c583806129cd565b8101906106d29190612d56565b90506106dd81610989565b6040518060a0016040528082600001518152602001610713836020015184604001518560a00151610abb9092919063ffffffff16565b8152602001610739836020015184604001518560c00151610b8d9092919063ffffffff16565b815260200184806020019061074e91906129cd565b8080601f01602080910402602001604051908101604052809392919081815260200183838082843760009201919091525050509082525060200161079183610c74565b90526060820151602083015160808401519294506107b29285929190610f46565b50919050565b6107c18461102d565b73ffffffffffffffffffffffffffffffffffffffff831660011460005b85518110156108cb5760008682815181106107fb576107fb612960565b60200260200101519050610818338261153b90919063ffffffff16565b61082d818461082757876116c5565b336116c5565b80600001516020015173ffffffffffffffffffffffffffffffffffffffff163373ffffffffffffffffffffffffffffffffffffffff1688848151811061087557610875612960565b6020026020010151608001517f78ad7ec0e9f89e74012afa58738b6b661c024cb0fd185ee2f616c0a28924bd668460000151604001516040516108ba91815260200190565b60405180910390a4506001016107de565b5080156108e0576108db85611a58565b6105d4565b60006108eb86611b9b565b6040517f9943fa8900000000000000000000000000000000000000000000000000000000815290915073ffffffffffffffffffffffffffffffffffffffff861690639943fa8990610946908990339089908990600401613052565b600060405180830381600087803b15801561096057600080fd5b505af1158015610974573d6000803e3d6000fd5b5050505061098181611e61565b505050505050565b604081015181516060015110156109cc576040517f773a618700000000000000000000000000000000000000000000000000000000815260040160405180910390fd5b806020015181604001511015610a0e576040517f4313345300000000000000000000000000000000000000000000000000000000815260040160405180910390fd5b60a0810151604081015160209091015114610ab85760005b8160c0015151811015610ab6578160c001518181518110610a4957610a49612960565b6020026020010151604001518260c001518281518110610a6b57610a6b612960565b60200260200101516020015114610aae576040517fd303758b00000000000000000000000000000000000000000000000000000000815260040160405180910390fd5b600101610a26565b505b50565b610af56040518060600160405280600073ffffffffffffffffffffffffffffffffffffffff16815260200160008152602001600081525090565b836040015184602001511115610b37576040517f7c1f811300000000000000000000000000000000000000000000000000000000815260040160405180910390fd5b6000610b4d856020015186604001518686611f13565b60408051606081018252875173ffffffffffffffffffffffffffffffffffffffff1681526020810192909252958601519581019590955250929392505050565b82516060908067ffffffffffffffff811115610bab57610bab612931565b604051908082528060200260200182016040528015610c1457816020015b60408051606081018252600080825260208083018290529282015282527fffffffffffffffffffffffffffffffffffffffffffffffffffffffffffffffff909201910181610bc95790505b50915060005b81811015610c6b57610c46868281518110610c3757610c37612960565b60200260200101518686611fc3565b838281518110610c5857610c58612960565b6020908102919091010152600101610c1a565b50509392505050565b6040517f4578636c757369766544757463684c696d69744f72646572280000000000000060208201527f4f72646572496e666f20696e666f2c000000000000000000000000000000000060398201527f75696e7432353620737461727454696d652c000000000000000000000000000060488201527f75696e7432353620656e6454696d652c00000000000000000000000000000000605a8201527f61646472657373206578636c757369766546696c6c65722c0000000000000000606a8201527f75696e74323536206578636c757369766974794f766572726964654270732c0060828201527f6164647265737320696e707574546f6b656e2c0000000000000000000000000060a18201527f75696e7432353620696e7075745374617274416d6f756e742c0000000000000060b48201527f75696e7432353620696e707574456e64416d6f756e742c00000000000000000060cd8201527f44757463684f75747075745b5d206f757470757473290000000000000000000060e482015260009060fa01604080517fffffffffffffffffffffffffffffffffffffffffffffffffffffffffffffffe081840301815260808301909152605280835290919061350060208301396040518060a001604052806079815260200161358060799139604051602001610e66939291906130d3565b60405160208183030381529060405280519060200120610e898360000151612093565b83602001518460400151856060015186608001518760a00151600001518860a00151602001518960a0015160400151610ec58b60c0015161212d565b60408051602081019b909b528a01989098526060890196909652608088019490945273ffffffffffffffffffffffffffffffffffffffff92831660a088015260c08701919091521660e0850152610100840152610120830152610140820152610160015b604051602081830303815290604052805190602001209050919050565b610f5083836121f9565b6102bb5780610f8b576040517fb9ec1e9600000000000000000000000000000000000000000000000000000000815260040160405180910390fd5b612710811115610fc7576040517f053a254b00000000000000000000000000000000000000000000000000000000815260040160405180910390fd5b604084015160005b8151811015610981576000828281518110610fec57610fec612960565b60200260200101519050611015846127106110079190613145565b602083015190612710612246565b6020909101528061102581613158565b915050610fcf565b60015473ffffffffffffffffffffffffffffffffffffffff1661104d5750565b6001546040517fec9dbb1f00000000000000000000000000000000000000000000000000000000815260009173ffffffffffffffffffffffffffffffffffffffff169063ec9dbb1f906110a4908590600401613190565b600060405180830381865afa1580156110c1573d6000803e3d6000fd5b505050506040513d6000823e601f3d9081017fffffffffffffffffffffffffffffffffffffffffffffffffffffffffffffffe016820160405261110791908101906131a3565b90508151815114611174576040517f08c379a000000000000000000000000000000000000000000000000000000000815260206004820152601360248201527f496e76616c696420666565206f75747075747300000000000000000000000000604482015260640161033e565b60005b825181101561153657600083828151811061119457611194612960565b6020026020010151905060008383815181106111b2576111b2612960565b60200260200101519050600081518360400151516111d09190613145565b67ffffffffffffffff8111156111e8576111e8612931565b60405190808252806020026020018201604052801561125157816020015b60408051606081018252600080825260208083018290529282015282527fffffffffffffffffffffffffffffffffffffffffffffffffffffffffffffffff9092019101816112065790505b50905060005b8360400151518110156112b2578360400151818151811061127a5761127a612960565b602002602001015182828151811061129457611294612960565b602002602001018190525080806112aa90613158565b915050611257565b5060005b82518110156115195760008382815181106112d3576112d3612960565b6020026020010151905060005b82811015611380578481815181106112fa576112fa612960565b60200260200101516000015173ffffffffffffffffffffffffffffffffffffffff16826000015173ffffffffffffffffffffffffffffffffffffffff160361136e576040517f264a0cf000000000000000000000000000000000000000000000000000000000815260040160405180910390fd5b8061137881613158565b9150506112e0565b506000805b866040015151811015611414576000876040015182815181106113aa576113aa612960565b60200260200101519050836000015173ffffffffffffffffffffffffffffffffffffffff16816000015173ffffffffffffffffffffffffffffffffffffffff16036114015760208101516113fe9084613145565b92505b508061140c81613158565b915050611385565b50815160208701515173ffffffffffffffffffffffffffffffffffffffff91821691160361145157602080870151015161144e9082613145565b90505b8060000361148b576040517f6cb9962300000000000000000000000000000000000000000000000000000000815260040160405180910390fd5b611499816005612710612246565b826020015111156114d6576040517ffc5bee1200000000000000000000000000000000000000000000000000000000815260040160405180910390fd5b8184848860400151516114e99190613145565b815181106114f9576114f9612960565b60200260200101819052505050808061151190613158565b9150506112b6565b50604090920191909152508061152e81613158565b915050611177565b505050565b81515173ffffffffffffffffffffffffffffffffffffffff16301461158c576040517f4ddf4a6400000000000000000000000000000000000000000000000000000000815260040160405180910390fd5b8151606001514211156115cb576040517f70f65caa00000000000000000000000000000000000000000000000000000000815260040160405180910390fd5b81516080015173ffffffffffffffffffffffffffffffffffffffff161580159061168e57508151608001516040517f6e84ba2b00000000000000000000000000000000000000000000000000000000815273ffffffffffffffffffffffffffffffffffffffff90911690636e84ba2b9061164b90849086906004016132e8565b602060405180830381865afa158015611668573d6000803e3d6000fd5b505050506040513d601f19601f8201168201806040525081019061168c9190613317565b155b15610ab6576040517f0a0b0d7900000000000000000000000000000000000000000000000000000000815260040160405180910390fd5b7f000000000000000000000000000000000000000000000000000000000000000073ffffffffffffffffffffffffffffffffffffffff1663137c29fe611785846040805160a0810182526000606082018181526080830182905282526020820181905291810191909152506040805160a081018252602080840180515173ffffffffffffffffffffffffffffffffffffffff1660608085019182529151850151608085015283528451840151918301919091529251909201519082015290565b6040805180820182526000808252602091820152815180830190925273ffffffffffffffffffffffffffffffffffffffff861682528087015181015190820152856000015160200151866080015160405180608001604052806052815260200161350060529139604080517f4578636c757369766544757463684c696d69744f72646572280000000000000060208201527f4f72646572496e666f20696e666f2c000000000000000000000000000000000060398201527f75696e7432353620737461727454696d652c000000000000000000000000000060488201527f75696e7432353620656e6454696d652c00000000000000000000000000000000605a8201527f61646472657373206578636c757369766546696c6c65722c0000000000000000606a8201527f75696e74323536206578636c757369766974794f766572726964654270732c0060828201527f6164647265737320696e707574546f6b656e2c0000000000000000000000000060a18201527f75696e7432353620696e7075745374617274416d6f756e742c0000000000000060b48201527f75696e7432353620696e707574456e64416d6f756e742c00000000000000000060cd8201527f44757463684f75747075745b5d206f757470757473290000000000000000000060e4820152815160da81830301815261019a8201909252607960fa8201818152916135809061011a01396040518060600160405280602e8152602001613552602e91396040516020016119bd9493929190613339565b604080517fffffffffffffffffffffffffffffffffffffffffffffffffffffffffffffffe08184030181529082905260608a01517fffffffff0000000000000000000000000000000000000000000000000000000060e089901b168352611a2a96959493926004016133e8565b600060405180830381600087803b158015611a4457600080fd5b505af1158015610981573d6000803e3d6000fd5b3460005b8251811015611b88576000838281518110611a7957611a79612960565b6020026020010151905060005b816040015151811015611b7e57600082604001518281518110611aab57611aab612960565b60200260200101519050611b0e816040015182602001517f0000000000000000000000000000000000000000000000000000000000000000846000015173ffffffffffffffffffffffffffffffffffffffff16612265909392919063ffffffff16565b805173ffffffffffffffffffffffffffffffffffffffff16611b755780602001518510611b4357806020015185039450611b75565b6040517fa01a9df600000000000000000000000000000000000000000000000000000000815260040160405180910390fd5b50600101611a86565b5050600101611a5c565b508015610ab657610ab6600033836123e2565b60606000805b8351811015611bda57838181518110611bbc57611bbc612960565b60200260200101516040015151820191508080600101915050611ba1565b508067ffffffffffffffff811115611bf457611bf4612931565b604051908082528060200260200182016040528015611c5d57816020015b60408051606081018252600080825260208083018290529282015282527fffffffffffffffffffffffffffffffffffffffffffffffffffffffffffffffff909201910181611c125790505b509150506000805b8351811015611e59576000848281518110611c8257611c82612960565b6020026020010151905060005b816040015151811015611e4f57600082604001518281518110611cb457611cb4612960565b602002602001015190506000805b86811015611d90576000888281518110611cde57611cde612960565b60200260200101519050836040015173ffffffffffffffffffffffffffffffffffffffff16816000015173ffffffffffffffffffffffffffffffffffffffff16148015611d5e5750836000015173ffffffffffffffffffffffffffffffffffffffff16816020015173ffffffffffffffffffffffffffffffffffffffff16145b15611d875760019250836020015181604001818151611d7d9190613145565b905250611d909050565b50600101611cc2565b5080611e455760408201518251600091611dc09173ffffffffffffffffffffffffffffffffffffffff16906124b8565b90506040518060600160405280846040015173ffffffffffffffffffffffffffffffffffffffff168152602001846000015173ffffffffffffffffffffffffffffffffffffffff168152602001846020015183611e1d9190613145565b815250888881518110611e3257611e32612960565b6020908102919091010152506001909501945b5050600101611c8f565b5050600101611c65565b508152919050565b60005b8151811015610ab6576000828281518110611e8157611e81612960565b602002602001015190506000611ebe8260000151836020015173ffffffffffffffffffffffffffffffffffffffff166124b890919063ffffffff16565b90508160400151811015611efe576040517fbb2875c300000000000000000000000000000000000000000000000000000000815260040160405180910390fd5b50508080611f0b90613158565b915050611e64565b600082821015611f4f576040517f4313345300000000000000000000000000000000000000000000000000000000815260040160405180910390fd5b42821080611f5c57508385145b80611f6657508183145b15611f72575082611fbb565b42831115611f81575083611fbb565b4283900383830386861015611fa657611f9d8688038383612246565b87039250611fb8565b611fb38787038383612246565b870192505b50505b949350505050565b6040805160608101825260008082526020820181905291810191909152836040015184602001511015612022576040517f7c1f811300000000000000000000000000000000000000000000000000000000815260040160405180910390fd5b6000612038856020015186604001518686611f13565b90506040518060600160405280866000015173ffffffffffffffffffffffffffffffffffffffff168152602001828152602001866060015173ffffffffffffffffffffffffffffffffffffffff168152509150509392505050565b60006040518060a00160405280607981526020016135806079913980516020918201208351848301516040808701516060880151608089015160a08a01518051908901209351610f2998939492939192910196875273ffffffffffffffffffffffffffffffffffffffff958616602088015293851660408701526060860192909252608085015290911660a083015260c082015260e00190565b600080825167ffffffffffffffff81111561214a5761214a612931565b604051908082528060200260200182016040528015612173578160200160208202803683370190505b50905060005b83518110156121c9576121a484828151811061219757612197612960565b6020026020010151612583565b8282815181106121b6576121b6612960565b6020908102919091010152600101612179565b50806040516020016121db91906134b0565b60405160208183030381529060405280519060200120915050919050565b600073ffffffffffffffffffffffffffffffffffffffff8316158061221d57508142115b8061223d575073ffffffffffffffffffffffffffffffffffffffff831633145b90505b92915050565b82820281151584158583048514171661225e57600080fd5b0492915050565b73ffffffffffffffffffffffffffffffffffffffff84166123205760008373ffffffffffffffffffffffffffffffffffffffff168360405160006040518083038185875af1925050503d80600081146122da576040519150601f19603f3d011682016040523d82523d6000602084013e6122df565b606091505b505090508061231a576040517ff4b3b1bc00000000000000000000000000000000000000000000000000000000815260040160405180910390fd5b506102bb565b8073ffffffffffffffffffffffffffffffffffffffff166336c785163385612347866125fa565b6040517fffffffff0000000000000000000000000000000000000000000000000000000060e086901b16815273ffffffffffffffffffffffffffffffffffffffff93841660048201529183166024830152821660448201529087166064820152608401600060405180830381600087803b1580156123c457600080fd5b505af11580156123d8573d6000803e3d6000fd5b5050505050505050565b73ffffffffffffffffffffffffffffffffffffffff83166124975760008273ffffffffffffffffffffffffffffffffffffffff168260405160006040518083038185875af1925050503d8060008114612457576040519150601f19603f3d011682016040523d82523d6000602084013e61245c565b606091505b50509050806102bb576040517ff4b3b1bc00000000000000000000000000000000000000000000000000000000815260040160405180910390fd5b61153673ffffffffffffffffffffffffffffffffffffffff841683836126a4565b600073ffffffffffffffffffffffffffffffffffffffff83166124f3575073ffffffffffffffffffffffffffffffffffffffff811631612240565b6040517f70a0823100000000000000000000000000000000000000000000000000000000815273ffffffffffffffffffffffffffffffffffffffff83811660048301528416906370a0823190602401602060405180830381865afa15801561255f573d6000803e3d6000fd5b505050506040513d601f19601f8201168201806040525081019061223d91906134e6565b600060405180608001604052806052815260200161350060529139805160209182012083518483015160408087015160608801519151610f29969192910194855273ffffffffffffffffffffffffffffffffffffffff93841660208601526040850192909252606084015216608082015260a00190565b600073ffffffffffffffffffffffffffffffffffffffff8211156126a0576040517f08c379a000000000000000000000000000000000000000000000000000000000815260206004820152602760248201527f53616665436173743a2076616c756520646f65736e27742066697420696e203160448201527f3630206269747300000000000000000000000000000000000000000000000000606482015260840161033e565b5090565b60006040517fa9059cbb000000000000000000000000000000000000000000000000000000008152836004820152826024820152602060006044836000895af13d15601f3d11600160005114161716915050806102bb576040517f08c379a000000000000000000000000000000000000000000000000000000000815260206004820152600f60248201527f5452414e534645525f4641494c45440000000000000000000000000000000000604482015260640161033e565b73ffffffffffffffffffffffffffffffffffffffff81168114610ab857600080fd5b803561278a8161275d565b919050565b60008083601f8401126127a157600080fd5b50813567ffffffffffffffff8111156127b957600080fd5b6020830191508360208285010111156127d157600080fd5b9250929050565b600080600080606085870312156127ee57600080fd5b843567ffffffffffffffff8082111561280657600080fd5b908601906040828903121561281a57600080fd5b90945060208601359061282c8261275d565b9093506040860135908082111561284257600080fd5b5061284f8782880161278f565b95989497509550505050565b60006020828403121561286d57600080fd5b81356128788161275d565b9392505050565b60008060008060006060868803121561289757600080fd5b853567ffffffffffffffff808211156128af57600080fd5b818801915088601f8301126128c357600080fd5b8135818111156128d257600080fd5b8960208260051b85010111156128e757600080fd5b602083019750809650506128fd6020890161277f565b9450604088013591508082111561291357600080fd5b506129208882890161278f565b969995985093965092949392505050565b7f4e487b7100000000000000000000000000000000000000000000000000000000600052604160045260246000fd5b7f4e487b7100000000000000000000000000000000000000000000000000000000600052603260045260246000fd5b600082357fffffffffffffffffffffffffffffffffffffffffffffffffffffffffffffffc18336030181126129c357600080fd5b9190910192915050565b60008083357fffffffffffffffffffffffffffffffffffffffffffffffffffffffffffffffe1843603018112612a0257600080fd5b83018035915067ffffffffffffffff821115612a1d57600080fd5b6020019150368190038213156127d157600080fd5b6040516060810167ffffffffffffffff81118282101715612a5557612a55612931565b60405290565b6040516080810167ffffffffffffffff81118282101715612a5557612a55612931565b60405160e0810167ffffffffffffffff81118282101715612a5557612a55612931565b604051601f82017fffffffffffffffffffffffffffffffffffffffffffffffffffffffffffffffe016810167ffffffffffffffff81118282101715612ae857612ae8612931565b604052919050565b600082601f830112612b0157600080fd5b813567ffffffffffffffff811115612b1b57612b1b612931565b612b4c60207fffffffffffffffffffffffffffffffffffffffffffffffffffffffffffffffe0601f84011601612aa1565b818152846020838601011115612b6157600080fd5b816020850160208301376000918101602001919091529392505050565b600060c08284031215612b9057600080fd5b60405160c0810167ffffffffffffffff8282108183111715612bb457612bb4612931565b8160405282935084359150612bc88261275d565b908252602084013590612bda8261275d565b816020840152604085013560408401526060850135606084015260808501359150612c048261275d565b81608084015260a0850135915080821115612c1e57600080fd5b50612c2b85828601612af0565b60a0830152505092915050565b600060608284031215612c4a57600080fd5b612c52612a32565b90508135612c5f8161275d565b80825250602082013560208201526040820135604082015292915050565b600067ffffffffffffffff821115612c9757612c97612931565b5060051b60200190565b600082601f830112612cb257600080fd5b81356020612cc7612cc283612c7d565b612aa1565b82815260079290921b84018101918181019086841115612ce657600080fd5b8286015b84811015612d4b5760808189031215612d035760008081fd5b612d0b612a5b565b8135612d168161275d565b8152818501358582015260408083013590820152606080830135612d398161275d565b90820152835291830191608001612cea565b509695505050505050565b600060208284031215612d6857600080fd5b813567ffffffffffffffff80821115612d8057600080fd5b908301906101208286031215612d9557600080fd5b612d9d612a7e565b823582811115612dac57600080fd5b612db887828601612b7e565b8252506020830135602082015260408301356040820152612ddb6060840161277f565b606082015260808301356080820152612df78660a08501612c38565b60a082015261010083013582811115612e0f57600080fd5b612e1b87828601612ca1565b60c08301525095945050505050565b60005b83811015612e45578181015183820152602001612e2d565b50506000910152565b60008151808452612e66816020860160208601612e2a565b601f017fffffffffffffffffffffffffffffffffffffffffffffffffffffffffffffffe0169290920160200192915050565b600081518084526020808501945080840160005b83811015612ef7578151805173ffffffffffffffffffffffffffffffffffffffff908116895284820151858a0152604091820151169088015260609096019590820190600101612eac565b509495945050505050565b6000815160e0845273ffffffffffffffffffffffffffffffffffffffff8082511660e08601528060208301511661010086015260408201516101208601526060820151610140860152806080830151166101608601525060a0810151905060c0610180850152612f766101a0850182612e4e565b90506020830151612fb46020860182805173ffffffffffffffffffffffffffffffffffffffff16825260208082015190830152604090810151910152565b5060408301518482036080860152612fcc8282612e98565b915050606083015184820360a0860152612fe68282612e4e565b915050608083015160c08501528091505092915050565b600081518084526020808501808196508360051b8101915082860160005b85811015613045578284038952613033848351612f02565b9885019893509084019060010161301b565b5091979650505050505050565b6060815260006130656060830187612ffd565b73ffffffffffffffffffffffffffffffffffffffff8616602084015282810360408401528381528385602083013760006020858301015260207fffffffffffffffffffffffffffffffffffffffffffffffffffffffffffffffe0601f86011682010191505095945050505050565b600084516130e5818460208901612e2a565b8451908301906130f9818360208901612e2a565b845191019061310c818360208801612e2a565b0195945050505050565b7f4e487b7100000000000000000000000000000000000000000000000000000000600052601160045260246000fd5b8082018082111561224057612240613116565b60007fffffffffffffffffffffffffffffffffffffffffffffffffffffffffffffffff820361318957613189613116565b5060010190565b60208152600061223d6020830184612ffd565b600060208083850312156131b657600080fd5b825167ffffffffffffffff808211156131ce57600080fd5b818501915085601f8301126131e257600080fd5b81516131f0612cc282612c7d565b81815260059190911b8301840190848101908883111561320f57600080fd5b8585015b838110156132db5780518581111561322a57600080fd5b8601603f81018b1361323b57600080fd5b8781015161324b612cc282612c7d565b8181526060909102820160400190898101908d83111561326a57600080fd5b6040840193505b828410156132cb576060848f03121561328957600080fd5b613291612a32565b845161329c8161275d565b8152848c01518c82015260408501516132b48161275d565b6040820152825260609390930192908a0190613271565b8652505050918601918601613213565b5098975050505050505050565b73ffffffffffffffffffffffffffffffffffffffff83168152604060208201526000611fbb6040830184612f02565b60006020828403121561332957600080fd5b8151801515811461287857600080fd5b7f4578636c757369766544757463684c696d69744f72646572207769746e65737381527f2900000000000000000000000000000000000000000000000000000000000000602082015260008551613397816021850160208a01612e2a565b8551908301906133ae816021840160208a01612e2a565b85519101906133c4816021840160208901612e2a565b84519101906133da816021840160208801612e2a565b016021019695505050505050565b6000610140613418838a51805173ffffffffffffffffffffffffffffffffffffffff168252602090810151910152565b60208901516040840152604089015160608401526134596080840189805173ffffffffffffffffffffffffffffffffffffffff168252602090810151910152565b73ffffffffffffffffffffffffffffffffffffffff871660c08401528560e08401528061010084015261348e81840186612e4e565b90508281036101208401526134a38185612e4e565b9998505050505050505050565b815160009082906020808601845b838110156134da578151855293820193908201906001016134be565b50929695505050505050565b6000602082840312156134f857600080fd5b505191905056fe44757463684f7574707574286164647265737320746f6b656e2c75696e74323536207374617274416d6f756e742c75696e7432353620656e64416d6f756e742c6164647265737320726563697069656e7429546f6b656e5065726d697373696f6e73286164647265737320746f6b656e2c75696e7432353620616d6f756e74294f72646572496e666f28616464726573732072656163746f722c61646472657373206f6666657265722c75696e74323536206e6f6e63652c75696e7432353620646561646c696e652c616464726573732076616c69646174696f6e436f6e74726163742c62797465732076616c69646174696f6e4461746129a264697066735822122025d30c80be88aba111198c92ded6d282be8abc7ebcf555f6b9faaa5fe04dd0b764736f6c63430008130033",
    "linkReferences": {}
  },
  "methodIdentifiers": {
    "DIRECT_TAKER_FILL()": "094fc90a",
    "execute((bytes,bytes),address,bytes)": "05afc977",
    "executeBatch((bytes,bytes)[],address,bytes)": "6f1d5f51",
    "feeController()": "6999b377",
    "owner()": "8da5cb5b",
    "permit2()": "12261ee7",
    "setOwner(address)": "13af4035",
    "setProtocolFeeController(address)": "2d771389"
  },
  "id": 54
}