{
  "abi": [
    {
      "inputs": [
        {
          "internalType": "address",
          "name": "_permit2",
          "type": "address"
        },
        {
          "internalType": "uint256",
          "name": "_protocolFeeBps",
          "type": "uint256"
        },
        {
          "internalType": "address",
          "name": "_protocolFeeRecipient",
          "type": "address"
        }
      ],
      "stateMutability": "nonpayable",
      "type": "constructor"
    },
    {
      "inputs": [],
      "name": "DeadlineBeforeEndTime",
      "type": "error"
    },
    {
      "inputs": [],
      "name": "DeadlinePassed",
      "type": "error"
    },
    {
      "inputs": [],
      "name": "EndTimeBeforeStartTime",
      "type": "error"
    },
    {
      "inputs": [],
      "name": "IncorrectAmounts",
      "type": "error"
    },
    {
      "inputs": [],
      "name": "InputAndOutputDecay",
      "type": "error"
    },
    {
      "inputs": [],
      "name": "InvalidFee",
      "type": "error"
    },
    {
      "inputs": [],
      "name": "InvalidReactor",
      "type": "error"
    },
    {
      "inputs": [],
      "name": "InvalidSender",
      "type": "error"
    },
    {
      "inputs": [],
      "name": "NoClaimableFees",
      "type": "error"
    },
    {
      "inputs": [],
      "name": "UnauthorizedFeeRecipient",
      "type": "error"
    },
    {
      "inputs": [],
      "name": "ValidationFailed",
      "type": "error"
    },
    {
      "anonymous": false,
      "inputs": [
        {
          "indexed": true,
          "internalType": "bytes32",
          "name": "orderHash",
          "type": "bytes32"
        },
        {
          "indexed": true,
          "internalType": "address",
          "name": "filler",
          "type": "address"
        },
        {
          "indexed": true,
          "internalType": "address",
          "name": "offerer",
          "type": "address"
        },
        {
          "indexed": false,
          "internalType": "uint256",
          "name": "nonce",
          "type": "uint256"
        }
      ],
      "name": "Fill",
      "type": "event"
    },
    {
      "inputs": [],
      "name": "PROTOCOL_FEE_BPS",
      "outputs": [
        {
          "internalType": "uint256",
          "name": "",
          "type": "uint256"
        }
      ],
      "stateMutability": "view",
      "type": "function"
    },
    {
      "inputs": [
        {
          "internalType": "address",
          "name": "token",
          "type": "address"
        }
      ],
      "name": "claimFees",
      "outputs": [],
      "stateMutability": "nonpayable",
      "type": "function"
    },
    {
      "inputs": [
        {
          "components": [
            {
              "internalType": "bytes",
              "name": "order",
              "type": "bytes"
            },
            {
              "internalType": "bytes",
              "name": "sig",
              "type": "bytes"
            }
          ],
          "internalType": "struct SignedOrder",
          "name": "order",
          "type": "tuple"
        },
        {
          "internalType": "address",
          "name": "fillContract",
          "type": "address"
        },
        {
          "internalType": "bytes",
          "name": "fillData",
          "type": "bytes"
        }
      ],
      "name": "execute",
      "outputs": [],
      "stateMutability": "nonpayable",
      "type": "function"
    },
    {
      "inputs": [
        {
          "components": [
            {
              "internalType": "bytes",
              "name": "order",
              "type": "bytes"
            },
            {
              "internalType": "bytes",
              "name": "sig",
              "type": "bytes"
            }
          ],
          "internalType": "struct SignedOrder[]",
          "name": "orders",
          "type": "tuple[]"
        },
        {
          "internalType": "address",
          "name": "fillContract",
          "type": "address"
        },
        {
          "internalType": "bytes",
          "name": "fillData",
          "type": "bytes"
        }
      ],
      "name": "executeBatch",
      "outputs": [],
      "stateMutability": "nonpayable",
      "type": "function"
    },
    {
      "inputs": [
        {
          "internalType": "address",
          "name": "",
          "type": "address"
        },
        {
          "internalType": "address",
          "name": "",
          "type": "address"
        }
      ],
      "name": "feesOwed",
      "outputs": [
        {
          "internalType": "uint256",
          "name": "",
          "type": "uint256"
        }
      ],
      "stateMutability": "view",
      "type": "function"
    },
    {
      "inputs": [],
      "name": "permit2",
      "outputs": [
        {
          "internalType": "contract ISignatureTransfer",
          "name": "",
          "type": "address"
        }
      ],
      "stateMutability": "view",
      "type": "function"
    },
    {
      "inputs": [],
      "name": "protocolFeeRecipient",
      "outputs": [
        {
          "internalType": "address",
          "name": "",
          "type": "address"
        }
      ],
      "stateMutability": "view",
      "type": "function"
    },
    {
      "inputs": [
        {
          "internalType": "address",
          "name": "_protocolFeeRecipient",
          "type": "address"
        }
      ],
      "name": "setProtocolFeeRecipient",
      "outputs": [],
      "stateMutability": "nonpayable",
      "type": "function"
    }
  ],
  "bytecode": {
    "object": "0x60c06040523480156200001157600080fd5b50604051620024ef380380620024ef8339810160408190526200003491620000af565b82828281816127108211156200005d576040516358d620b360e01b815260040160405180910390fd5b608091909152600180546001600160a01b0319166001600160a01b039283161790559290921660a05250620000f09350505050565b80516001600160a01b0381168114620000aa57600080fd5b919050565b600080600060608486031215620000c557600080fd5b620000d08462000092565b925060208401519150620000e76040850162000092565b90509250925092565b60805160a0516123cc620001236000396000818160a7015261117401526000818161013e0152610f1101526123cc6000f3fe608060405234801561001057600080fd5b50600436106100885760003560e01c80636f1d5f511161005b5780636f1d5f5114610126578063be37822814610139578063e521cb921461016e578063ffecc0851461018157600080fd5b806305afc9771461008d57806312261ee7146100a257806315a0ea6a146100f357806364df049e14610106575b600080fd5b6100a061009b366004611647565b6101a9565b005b6100c97f000000000000000000000000000000000000000000000000000000000000000081565b60405173ffffffffffffffffffffffffffffffffffffffff90911681526020015b60405180910390f35b6100a06101013660046116c7565b610299565b6001546100c99073ffffffffffffffffffffffffffffffffffffffff1681565b6100a06101343660046116e9565b61039b565b6101607f000000000000000000000000000000000000000000000000000000000000000081565b6040519081526020016100ea565b6100a061017c3660046116c7565b6104e5565b61016061018f36600461179b565b600060208181529281526040808220909352908152205481565b604080516001808252818301909252600091816020015b6040805161016081018252600060a0820181815260c0830182905260e0830182905261010083018290526101208301829052606061014084018190529083528351808201855282815260208082018490528186018490528085019190915293830181905280830152608082015282527fffffffffffffffffffffffffffffffffffffffffffffffffffffffffffffffff9092019101816101c05790505090506102688561057d565b8160008151811061027b5761027b6117fd565b60200260200101819052506102928185858561089e565b5050505050565b60015460009073ffffffffffffffffffffffffffffffffffffffff1633146102c157336102c4565b60005b73ffffffffffffffffffffffffffffffffffffffff8084166000908152602081815260408083209385168352929052205490915060018111610332576040517f54a8917900000000000000000000000000000000000000000000000000000000815260040160405180910390fd5b73ffffffffffffffffffffffffffffffffffffffff8084166000818152602081815260408083209487168352939052919091206001905561039690337fffffffffffffffffffffffffffffffffffffffffffffffffffffffffffffffff8401610ab6565b505050565b60008467ffffffffffffffff8111156103b6576103b66117ce565b60405190808252806020026020018201604052801561047157816020015b6040805161016081018252600060a0820181815260c0830182905260e0830182905261010083018290526101208301829052606061014084018190529083528351808201855282815260208082018490528186018490528085019190915293830181905280830152608082015282527fffffffffffffffffffffffffffffffffffffffffffffffffffffffffffffffff9092019101816103d45790505b50905060005b858110156104d0576104ab878783818110610494576104946117fd565b90506020028101906104a6919061182c565b61057d565b8282815181106104bd576104bd6117fd565b6020908102919091010152600101610477565b506104dd8185858561089e565b505050505050565b60015473ffffffffffffffffffffffffffffffffffffffff163314610536576040517fcecea07500000000000000000000000000000000000000000000000000000000815260040160405180910390fd5b600180547fffffffffffffffffffffffff00000000000000000000000000000000000000001673ffffffffffffffffffffffffffffffffffffffff92909216919091179055565b6040805161016081018252600060a0820181815260c0830182905260e0830182905261010083018290526101208301829052606061014084018190529083528351808201855282815260208082018490528186018490528401529282018390528282019290925260808101829052906105f6838061186a565b8101906106039190611ab2565b905061060e81610b7a565b600081608001515167ffffffffffffffff81111561062e5761062e6117ce565b60405190808252806020026020018201604052801561069e57816020015b6040805160808101825260008082526020808301829052928201819052606082015282527fffffffffffffffffffffffffffffffffffffffffffffffffffffffffffffffff90920191018161064c5790505b50805190915060005b818110156107b5576000846080015182815181106106c7576106c76117fd565b60200260200101519050806040015181602001511015610713576040517f7c1f811300000000000000000000000000000000000000000000000000000000815260040160405180910390fd5b60006107318260200151836040015188602001518960400151610cf4565b90506040518060800160405280836000015173ffffffffffffffffffffffffffffffffffffffff168152602001828152602001836060015173ffffffffffffffffffffffffffffffffffffffff168152602001836080015115158152508584815181106107a0576107a06117fd565b602090810291909101015250506001016106a7565b5060006107dc84606001516020015185606001516040015186602001518760400151610cf4565b90506040518060a0016040528085600001518152602001604051806060016040528087606001516000015173ffffffffffffffffffffffffffffffffffffffff168152602001848152602001876060015160400151815250815260200184815260200187806020019061084f919061186a565b8080601f01602080910402602001604051908101604052809392919081815260200183838082843760009201919091525050509082525060200161089286610d6d565b90529695505050505050565b60005b84518110156108ee5760008582815181106108be576108be6117fd565b602002602001015190506108d181610ec6565b6108db8133610fe8565b6108e58186611172565b506001016108a1565b506040517f2213f3a900000000000000000000000000000000000000000000000000000000815273ffffffffffffffffffffffffffffffffffffffff841690632213f3a990610947908790339087908790600401611e2d565b600060405180830381600087803b15801561096157600080fd5b505af1158015610975573d6000803e3d6000fd5b5050505060005b8451811015610292576000858281518110610999576109996117fd565b6020026020010151905060005b816040015151811015610a17576000826040015182815181106109cb576109cb6117fd565b60200260200101519050610a0e8782604001518360200151846000015173ffffffffffffffffffffffffffffffffffffffff16611361909392919063ffffffff16565b506001016109a6565b5080600001516020015173ffffffffffffffffffffffffffffffffffffffff163373ffffffffffffffffffffffffffffffffffffffff16878481518110610a6057610a606117fd565b6020026020010151608001517f78ad7ec0e9f89e74012afa58738b6b661c024cb0fd185ee2f616c0a28924bd66846000015160400151604051610aa591815260200190565b60405180910390a45060010161097c565b60006040517fa9059cbb000000000000000000000000000000000000000000000000000000008152836004820152826024820152602060006044836000895af13d15601f3d1160016000511416171691505080610b74576040517f08c379a000000000000000000000000000000000000000000000000000000000815260206004820152600f60248201527f5452414e534645525f4641494c4544000000000000000000000000000000000060448201526064015b60405180910390fd5b50505050565b60408101518151606001511015610bbd576040517f773a618700000000000000000000000000000000000000000000000000000000815260040160405180910390fd5b806020015181604001511015610bff576040517f4313345300000000000000000000000000000000000000000000000000000000815260040160405180910390fd5b6060810151604081015160209091015114610cf157606081015160408101516020909101511115610c5c576040517f7c1f811300000000000000000000000000000000000000000000000000000000815260040160405180910390fd5b60005b816080015151811015610cef5781608001518181518110610c8257610c826117fd565b60200260200101516040015182608001518281518110610ca457610ca46117fd565b60200260200101516020015114610ce7576040517fd303758b00000000000000000000000000000000000000000000000000000000815260040160405180910390fd5b600101610c5f565b505b50565b600042821480610d0357508385145b15610d0f575082610d65565b428310610d1d575083610d65565b814210610d2b575082610d65565b4283900383830386861015610d5057610d478688038383611420565b87039250610d62565b610d5d8787038383611420565b870192505b50505b949350505050565b60006040518060a001604052806063815260200161233460639139604051602001610d989190611f2c565b604080517fffffffffffffffffffffffffffffffffffffffffffffffffffffffffffffffe0818403018152918152815160209283012084518051818501518285015160608085015160808087015160a0909701518051908b01208c8b01518d8b0151948e015180519c8101519b0151928e0151999b979a969995989397939691959094939290610e279061143f565b60408051602081019e909e5273ffffffffffffffffffffffffffffffffffffffff9c8d16908e0152998b1660608d015260808c019890985260a08b019690965293881660c08a015260e08901929092526101008801526101208701529093166101408501526101608401929092526101808301919091526101a08201526101c0015b604051602081830303815290604052805190602001209050919050565b60408101515160005b8181101561039657600083604001518281518110610eef57610eef6117fd565b60200260200101519050806060015115610fdf576020810151600090610f38907f0000000000000000000000000000000000000000000000000000000000000000612710611420565b602080840151845173ffffffffffffffffffffffffffffffffffffffff166000908152808352604080822082805290935291822080549394509084900392849290610f84908490612126565b9091555050825173ffffffffffffffffffffffffffffffffffffffff9081166000908152602081815260408083208188015190941683529290529081208054839290610fd1908490612126565b909155505030604084015250505b50600101610ecf565b81515173ffffffffffffffffffffffffffffffffffffffff163014611039576040517f4ddf4a6400000000000000000000000000000000000000000000000000000000815260040160405180910390fd5b815160600151421115611078576040517f70f65caa00000000000000000000000000000000000000000000000000000000815260040160405180910390fd5b81516080015173ffffffffffffffffffffffffffffffffffffffff161580159061113b57508151608001516040517f073523f900000000000000000000000000000000000000000000000000000000815273ffffffffffffffffffffffffffffffffffffffff9091169063073523f9906110f89084908690600401612160565b602060405180830381865afa158015611115573d6000803e3d6000fd5b505050506040513d601f19601f82011682018060405250810190611139919061218f565b155b15610cef576040517f0a0b0d7900000000000000000000000000000000000000000000000000000000815260040160405180910390fd5b7f000000000000000000000000000000000000000000000000000000000000000073ffffffffffffffffffffffffffffffffffffffff1663137c29fe611232846040805160a0810182526000606082018181526080830182905282526020820181905291810191909152506040805160a081018252602080840180515173ffffffffffffffffffffffffffffffffffffffff1660608085019182529151850151608085015283528451840151918301919091529251909201519082015290565b61123c858561150b565b85600001516020015186608001516040518060a0016040528060638152602001612334606391396040516020016112739190611f2c565b604080517fffffffffffffffffffffffffffffffffffffffffffffffffffffffffffffffe081840301815260608301909152602e80835290919061230660208301396040516020016112c69291906121ac565b604080517fffffffffffffffffffffffffffffffffffffffffffffffffffffffffffffffe08184030181529082905260608a01517fffffffff0000000000000000000000000000000000000000000000000000000060e089901b1683526113339695949392600401612207565b600060405180830381600087803b15801561134d57600080fd5b505af11580156104dd573d6000803e3d6000fd5b60006040517f23b872dd0000000000000000000000000000000000000000000000000000000081528460048201528360248201528260448201526020600060648360008a5af13d15601f3d1160016000511416171691505080610292576040517f08c379a000000000000000000000000000000000000000000000000000000000815260206004820152601460248201527f5452414e534645525f46524f4d5f4641494c45440000000000000000000000006044820152606401610b6b565b82820281151584158583048514171661143857600080fd5b0492915050565b600080825167ffffffffffffffff81111561145c5761145c6117ce565b604051908082528060200260200182016040528015611485578160200160208202803683370190505b50905060005b83518110156114db576114b68482815181106114a9576114a96117fd565b6020026020010151611552565b8282815181106114c8576114c86117fd565b602090810291909101015260010161148b565b50806040516020016114ed91906122cf565b60405160208183030381529060405280519060200120915050919050565b6040805180820182526000808252602091820152815180830190925273ffffffffffffffffffffffffffffffffffffffff8316825283810151810151908201525b92915050565b60006040518060a00160405280606381526020016123346063913980516020918201208351848301516040808701516060808901516080808b01518551998a019890985273ffffffffffffffffffffffffffffffffffffffff9687169489019490945290870193909352908501521660a0830152151560c082015260e001610ea9565b803573ffffffffffffffffffffffffffffffffffffffff811681146115f957600080fd5b919050565b60008083601f84011261161057600080fd5b50813567ffffffffffffffff81111561162857600080fd5b60208301915083602082850101111561164057600080fd5b9250929050565b6000806000806060858703121561165d57600080fd5b843567ffffffffffffffff8082111561167557600080fd5b908601906040828903121561168957600080fd5b819550611698602088016115d5565b945060408701359150808211156116ae57600080fd5b506116bb878288016115fe565b95989497509550505050565b6000602082840312156116d957600080fd5b6116e2826115d5565b9392505050565b60008060008060006060868803121561170157600080fd5b853567ffffffffffffffff8082111561171957600080fd5b818801915088601f83011261172d57600080fd5b81358181111561173c57600080fd5b8960208260051b850101111561175157600080fd5b60208301975080965050611767602089016115d5565b9450604088013591508082111561177d57600080fd5b5061178a888289016115fe565b969995985093965092949392505050565b600080604083850312156117ae57600080fd5b6117b7836115d5565b91506117c5602084016115d5565b90509250929050565b7f4e487b7100000000000000000000000000000000000000000000000000000000600052604160045260246000fd5b7f4e487b7100000000000000000000000000000000000000000000000000000000600052603260045260246000fd5b600082357fffffffffffffffffffffffffffffffffffffffffffffffffffffffffffffffc183360301811261186057600080fd5b9190910192915050565b60008083357fffffffffffffffffffffffffffffffffffffffffffffffffffffffffffffffe184360301811261189f57600080fd5b83018035915067ffffffffffffffff8211156118ba57600080fd5b60200191503681900382131561164057600080fd5b60405160a0810167ffffffffffffffff811182821017156118f2576118f26117ce565b60405290565b60405160c0810167ffffffffffffffff811182821017156118f2576118f26117ce565b604051601f82017fffffffffffffffffffffffffffffffffffffffffffffffffffffffffffffffe016810167ffffffffffffffff81118282101715611962576119626117ce565b604052919050565b60006060828403121561197c57600080fd5b6040516060810181811067ffffffffffffffff8211171561199f5761199f6117ce565b6040529050806119ae836115d5565b815260208301356020820152604083013560408201525092915050565b8015158114610cf157600080fd5b600082601f8301126119ea57600080fd5b8135602067ffffffffffffffff821115611a0657611a066117ce565b611a14818360051b0161191b565b82815260a09283028501820192828201919087851115611a3357600080fd5b8387015b85811015611aa55781818a031215611a4f5760008081fd5b611a576118cf565b611a60826115d5565b81528186013586820152604080830135908201526060611a818184016115d5565b90820152608082810135611a94816119cb565b908201528452928401928101611a37565b5090979650505050505050565b60006020808385031215611ac557600080fd5b823567ffffffffffffffff80821115611add57600080fd5b9084019060e08287031215611af157600080fd5b611af96118cf565b823582811115611b0857600080fd5b830160c08189031215611b1a57600080fd5b611b226118f8565b611b2b826115d5565b8152611b388683016115d5565b868201526040820135604082015260608201356060820152611b5c608083016115d5565b608082015260a082013584811115611b7357600080fd5b80830192505088601f830112611b8857600080fd5b813584811115611b9a57611b9a6117ce565b611bca877fffffffffffffffffffffffffffffffffffffffffffffffffffffffffffffffe0601f8401160161191b565b8181528a88838601011115611bde57600080fd5b8188850189830137600091810188019190915260a0820152825250828401358185015260408084013590820152611c18876060850161196a565b606082015260c0830135935081841115611c3157600080fd5b611c3d878585016119d9565b60808201529695505050505050565b60005b83811015611c67578181015183820152602001611c4f565b50506000910152565b60008151808452611c88816020860160208601611c4c565b601f017fffffffffffffffffffffffffffffffffffffffffffffffffffffffffffffffe0169290920160200192915050565b600081518084526020808501945080840160005b83811015611d27578151805173ffffffffffffffffffffffffffffffffffffffff908116895284820151858a01526040808301519091169089015260609081015115159088015260809096019590820190600101611cce565b509495945050505050565b6000815160e0845273ffffffffffffffffffffffffffffffffffffffff8082511660e08601528060208301511661010086015260408201516101208601526060820151610140860152806080830151166101608601525060a0810151905060c0610180850152611da66101a0850182611c70565b90506020830151611de46020860182805173ffffffffffffffffffffffffffffffffffffffff16825260208082015190830152604090810151910152565b5060408301518482036080860152611dfc8282611cba565b915050606083015184820360a0860152611e168282611c70565b915050608083015160c08501528091505092915050565b6000606082016060835280875180835260808501915060808160051b86010192506020808a0160005b83811015611ea2577fffffffffffffffffffffffffffffffffffffffffffffffffffffffffffffff80888703018552611e90868351611d32565b95509382019390820190600101611e56565b505073ffffffffffffffffffffffffffffffffffffffff89168187015285840360408701528684528688828601376000848801820152601f9096017fffffffffffffffffffffffffffffffffffffffffffffffffffffffffffffffe016909201909401979650505050505050565b60008151611f22818560208601611c4c565b9290920192915050565b7f44757463684c696d69744f72646572280000000000000000000000000000000081527f616464726573732072656163746f722c0000000000000000000000000000000060108201527f61646472657373206f6666657265722c0000000000000000000000000000000060208201527f75696e74323536206e6f6e63652c00000000000000000000000000000000000060308201527f75696e7432353620646561646c696e652c000000000000000000000000000000603e8201527f616464726573732076616c69646174696f6e436f6e74726163742c0000000000604f8201527f62797465732076616c69646174696f6e446174612c0000000000000000000000606a8201527f75696e7432353620737461727454696d652c0000000000000000000000000000607f8201527f75696e7432353620656e6454696d652c0000000000000000000000000000000060918201527f6164647265737320696e707574546f6b656e2c0000000000000000000000000060a18201527f75696e7432353620696e7075745374617274416d6f756e742c0000000000000060b48201527f75696e7432353620696e707574456e64416d6f756e742c00000000000000000060cd8201527f44757463684f75747075745b5d206f757470757473290000000000000000000060e482015260006116e260fa830184611f10565b8082018082111561154c577f4e487b7100000000000000000000000000000000000000000000000000000000600052601160045260246000fd5b73ffffffffffffffffffffffffffffffffffffffff83168152604060208201526000610d656040830184611d32565b6000602082840312156121a157600080fd5b81516116e2816119cb565b7f44757463684c696d69744f72646572207769746e6573732900000000000000008152600083516121e4816018850160208801611c4c565b8351908301906121fb816018840160208801611c4c565b01601801949350505050565b6000610140612237838a51805173ffffffffffffffffffffffffffffffffffffffff168252602090810151910152565b60208901516040840152604089015160608401526122786080840189805173ffffffffffffffffffffffffffffffffffffffff168252602090810151910152565b73ffffffffffffffffffffffffffffffffffffffff871660c08401528560e0840152806101008401526122ad81840186611c70565b90508281036101208401526122c28185611c70565b9998505050505050505050565b815160009082906020808601845b838110156122f9578151855293820193908201906001016122dd565b5092969550505050505056fe546f6b656e5065726d697373696f6e73286164647265737320746f6b656e2c75696e7432353620616d6f756e742944757463684f7574707574286164647265737320746f6b656e2c75696e74323536207374617274416d6f756e742c75696e7432353620656e64416d6f756e742c6164647265737320726563697069656e742c626f6f6c2069734665654f757470757429a2646970667358221220f972b15b0c26d769a6e40e8589abe915c7d6ff3caeaa1b3c924d7b6aa591635a64736f6c63430008110033",
    "linkReferences": {}
  },
  "methodIdentifiers": {
    "PROTOCOL_FEE_BPS()": "be378228",
    "claimFees(address)": "15a0ea6a",
    "execute((bytes,bytes),address,bytes)": "05afc977",
    "executeBatch((bytes,bytes)[],address,bytes)": "6f1d5f51",
    "feesOwed(address,address)": "ffecc085",
    "permit2()": "12261ee7",
    "protocolFeeRecipient()": "64df049e",
    "setProtocolFeeRecipient(address)": "e521cb92"
  },
  "id": 41
}