{
  "abi": [
    {
      "inputs": [
        {
          "internalType": "address",
          "name": "_permitPost",
          "type": "address"
        }
      ],
      "stateMutability": "nonpayable",
      "type": "constructor"
    },
    {
      "inputs": [],
      "name": "DeadlineBeforeEndTime",
      "type": "error"
    },
    {
      "inputs": [],
      "name": "DeadlinePassed",
      "type": "error"
    },
    {
      "inputs": [],
      "name": "EndTimeBeforeStart",
      "type": "error"
    },
    {
      "inputs": [],
      "name": "InvalidReactor",
      "type": "error"
    },
    {
      "inputs": [],
      "name": "OrderAlreadyFilled",
      "type": "error"
    },
    {
      "inputs": [],
      "name": "OrderCancelled",
      "type": "error"
    },
    {
      "anonymous": false,
      "inputs": [
        {
          "indexed": false,
          "internalType": "bytes32",
          "name": "orderHash",
          "type": "bytes32"
        },
        {
          "indexed": false,
          "internalType": "address",
          "name": "filler",
          "type": "address"
        }
      ],
      "name": "Fill",
      "type": "event"
    },
    {
      "inputs": [
        {
          "components": [
            {
              "internalType": "bytes",
              "name": "order",
              "type": "bytes"
            },
            {
              "components": [
                {
                  "internalType": "uint8",
                  "name": "v",
                  "type": "uint8"
                },
                {
                  "internalType": "bytes32",
                  "name": "r",
                  "type": "bytes32"
                },
                {
                  "internalType": "bytes32",
                  "name": "s",
                  "type": "bytes32"
                }
              ],
              "internalType": "struct Signature",
              "name": "sig",
              "type": "tuple"
            }
          ],
          "internalType": "struct SignedOrder",
          "name": "order",
          "type": "tuple"
        },
        {
          "internalType": "address",
          "name": "fillContract",
          "type": "address"
        },
        {
          "internalType": "bytes",
          "name": "fillData",
          "type": "bytes"
        }
      ],
      "name": "execute",
      "outputs": [],
      "stateMutability": "nonpayable",
      "type": "function"
    },
    {
      "inputs": [
        {
          "internalType": "bytes32",
          "name": "",
          "type": "bytes32"
        }
      ],
      "name": "orderStatus",
      "outputs": [
        {
          "internalType": "bool",
          "name": "isCancelled",
          "type": "bool"
        },
        {
          "internalType": "bool",
          "name": "isFilled",
          "type": "bool"
        }
      ],
      "stateMutability": "view",
      "type": "function"
    },
    {
      "inputs": [],
      "name": "permitPost",
      "outputs": [
        {
          "internalType": "address",
          "name": "",
          "type": "address"
        }
      ],
      "stateMutability": "view",
      "type": "function"
    },
    {
      "inputs": [
        {
          "internalType": "bytes",
          "name": "order",
          "type": "bytes"
        }
      ],
      "name": "resolve",
      "outputs": [
        {
          "components": [
            {
              "components": [
                {
                  "internalType": "address",
                  "name": "reactor",
                  "type": "address"
                },
                {
                  "internalType": "uint256",
                  "name": "nonce",
                  "type": "uint256"
                },
                {
                  "internalType": "uint256",
                  "name": "deadline",
                  "type": "uint256"
                }
              ],
              "internalType": "struct OrderInfo",
              "name": "info",
              "type": "tuple"
            },
            {
              "components": [
                {
                  "internalType": "address",
                  "name": "token",
                  "type": "address"
                },
                {
                  "internalType": "uint256",
                  "name": "amount",
                  "type": "uint256"
                }
              ],
              "internalType": "struct TokenAmount",
              "name": "input",
              "type": "tuple"
            },
            {
              "components": [
                {
                  "internalType": "address",
                  "name": "token",
                  "type": "address"
                },
                {
                  "internalType": "uint256",
                  "name": "amount",
                  "type": "uint256"
                },
                {
                  "internalType": "address",
                  "name": "recipient",
                  "type": "address"
                }
              ],
              "internalType": "struct Output[]",
              "name": "outputs",
              "type": "tuple[]"
            }
          ],
          "internalType": "struct ResolvedOrder",
          "name": "resolvedOrder",
          "type": "tuple"
        }
      ],
      "stateMutability": "view",
      "type": "function"
    }
  ],
  "bytecode": {
    "object": "0x60a060405234801561001057600080fd5b506040516111ae3803806111ae83398101604081905261002f91610040565b6001600160a01b0316608052610070565b60006020828403121561005257600080fd5b81516001600160a01b038116811461006957600080fd5b9392505050565b60805161111d6100916000396000818160d301526107ba015261111d6000f3fe608060405234801561001057600080fd5b506004361061004c5760003560e01c80632dff692d146100515780638bcaadbd14610099578063e4056186146100ae578063f45d6b23146100ce575b600080fd5b61007d61005f366004610924565b60006020819052908152604090205460ff8082169161010090041682565b6040805192151583529015156020830152015b60405180910390f35b6100ac6100a73660046109a2565b61010d565b005b6100c16100bc366004610a22565b61014f565b6040516100909190610b0c565b6100f57f000000000000000000000000000000000000000000000000000000000000000081565b6040516001600160a01b039091168152602001610090565b61014961011d6100bc8680610b26565b6020860161012b8780610b26565b604051610139929190610b6d565b604051809103902086868661033d565b50505050565b6101576108da565b600061016583850185610d50565b905061017081610529565b600081608001515167ffffffffffffffff81111561019057610190610b7d565b6040519080825280602002602001820160405280156101db57816020015b60408051606081018252600080825260208083018290529282015282526000199092019101816101ae5790505b50905060005b81518110156103195760008360800151828151811061020257610202610e27565b602002602001015190506000428560400151111580610228575081604001518260200151145b15610238575060408101516102b2565b4285602001511061024e575060208101516102b2565b60008560200151426102609190610e53565b90506000866020015187604001516102789190610e53565b90506000846040015185602001516102909190610e53565b905061029d818484610581565b85602001516102ac9190610e53565b93505050505b604051806060016040528083600001516001600160a01b0316815260200182815260200183606001516001600160a01b03168152508484815181106102f9576102f9610e27565b60200260200101819052505050808061031190610e6c565b9150506101e1565b50604080516060808201835284518252939093015160208401528201529392505050565b8551610348906105a0565b610351846105ef565b61035d86858588610683565b604080516001808252818301909252600091816020015b61037c6108da565b81526020019060019003908161037457905050905086816000815181106103a5576103a5610e27565b60209081029190910101526040516389930d2760e01b81526001600160a01b038516906389930d27906103e090849087908790600401610e85565b600060405180830381600087803b1580156103fa57600080fd5b505af115801561040e573d6000803e3d6000fd5b5050505060005b8760400151518110156104e75760008860400151828151811061043a5761043a610e27565b60209081029190910181015180516040808301519383015190516323b872dd60e01b81526001600160a01b038b811660048301529485166024820152604481019190915291935091909116906323b872dd906064016020604051808303816000875af11580156104ae573d6000803e3d6000fd5b505050506040513d601f19601f820116820180604052508101906104d29190610f0f565b505080806104df90610e6c565b915050610415565b50604080518681523360208201527fba7599121d7877246723714eb403e13928cdbebe980abf7c630c0f9bef83fce1910160405180910390a150505050505050565b806020015181604001511161055157604051630c0b96df60e21b815260040160405180910390fd5b8060400151816000015160400151101561057e5760405163773a618760e01b815260040160405180910390fd5b50565b82820281151584158583048514171661059957600080fd5b0492915050565b80516001600160a01b031630146105ca57604051631377d29960e21b815260040160405180910390fd5b806040015142111561057e5760405163387b2e5560e11b815260040160405180910390fd5b6000818152602081815260409182902082518084019093525460ff808216158015855261010090920416151591830191909152610642576040516001622a81af60e21b0319815260040160405180910390fd5b8060200151156106655760405163ee3b3d4b60e01b815260040160405180910390fd5b506000908152602081905260409020805461ff001916610100179055565b6000604051806080016040528061069d8760200151610834565b81523060208201528651604090810151818301526060909101869052805160018082528183019092529192506000919081602001602082028036833701905050905083816000815181106106f3576106f3610e27565b6001600160a01b03929092166020928302919091019091015260408051600180825281830190925260009181602001602082028036833701905050905060008160008151811061074557610745610e27565b60209081029190910101526040805160018082528183019092526000918160200160208202803683370190505090508760200151602001518160008151811061079057610790610e27565b6020908102919091018101919091528851015160405163771d599360e11b81526001600160a01b037f0000000000000000000000000000000000000000000000000000000000000000169163ee3ab326916107f8918891889188918891908d90600401610fcf565b600060405180830381600087803b15801561081257600080fd5b505af1158015610826573d6000803e3d6000fd5b505050505050505050505050565b604080516001808252818301909252606091816020015b60408051608081018252600080825260208083018290529282018190526060820152825260001990920191018161084b579050506040805160808101909152909150806000815260200183600001516001600160a01b03168152602001836020015181526020016000815250816000815181106108ca576108ca610e27565b6020026020010181905250919050565b6040805160c0810182526000606082018181526080830182905260a08301829052825282518084019093528083526020838101919091529091908201908152602001606081525090565b60006020828403121561093657600080fd5b5035919050565b80356001600160a01b038116811461095457600080fd5b919050565b60008083601f84011261096b57600080fd5b50813567ffffffffffffffff81111561098357600080fd5b60208301915083602082850101111561099b57600080fd5b9250929050565b600080600080606085870312156109b857600080fd5b843567ffffffffffffffff808211156109d057600080fd5b90860190608082890312156109e457600080fd5b8195506109f36020880161093d565b94506040870135915080821115610a0957600080fd5b50610a1687828801610959565b95989497509550505050565b60008060208385031215610a3557600080fd5b823567ffffffffffffffff811115610a4c57600080fd5b610a5885828601610959565b90969095509350505050565b600060c08301825160018060a01b038082511686526020808301518188015260408084015181890152818701519350606083855116818a01528285015160808a015281880151945060c060a08a015285855180885260e08b0191508487019750600096505b80871015610afe5787518051871683528581015186840152840151861684830152968401966001969096019590820190610ac9565b509998505050505050505050565b602081526000610b1f6020830184610a64565b9392505050565b6000808335601e19843603018112610b3d57600080fd5b83018035915067ffffffffffffffff821115610b5857600080fd5b60200191503681900382131561099b57600080fd5b8183823760009101908152919050565b634e487b7160e01b600052604160045260246000fd5b6040516080810167ffffffffffffffff81118282101715610bb657610bb6610b7d565b60405290565b60405160a0810167ffffffffffffffff81118282101715610bb657610bb6610b7d565b6040516060810167ffffffffffffffff81118282101715610bb657610bb6610b7d565b604051601f8201601f1916810167ffffffffffffffff81118282101715610c2b57610c2b610b7d565b604052919050565b600060408284031215610c4557600080fd5b6040516040810181811067ffffffffffffffff82111715610c6857610c68610b7d565b604052905080610c778361093d565b8152602083013560208201525092915050565b600082601f830112610c9b57600080fd5b8135602067ffffffffffffffff821115610cb757610cb7610b7d565b610cc5818360051b01610c02565b82815260079290921b84018101918181019086841115610ce457600080fd5b8286015b84811015610d455760808189031215610d015760008081fd5b610d09610b93565b610d128261093d565b81528185013585820152604080830135908201526060610d3381840161093d565b90820152835291830191608001610ce8565b509695505050505050565b600060208284031215610d6257600080fd5b813567ffffffffffffffff80821115610d7a57600080fd5b90830190818503610100811215610d9057600080fd5b610d98610bbc565b6060821215610da657600080fd5b610dae610bdf565b9150610db98461093d565b825260208401356020830152604084013560408301528181526060840135602082015260808401356040820152610df38760a08601610c33565b606082015260e0840135915082821115610e0c57600080fd5b610e1887838601610c8a565b60808201529695505050505050565b634e487b7160e01b600052603260045260246000fd5b634e487b7160e01b600052601160045260246000fd5b81810381811115610e6657610e66610e3d565b92915050565b600060018201610e7e57610e7e610e3d565b5060010190565b6000604082016040835280865180835260608501915060608160051b8601019250602080890160005b83811015610edc57605f19888703018552610eca868351610a64565b95509382019390820190600101610eae565b5050858403818701528684528688828601376000848801820152601f909601601f19169092019094019695505050505050565b600060208284031215610f2157600080fd5b81518015158114610b1f57600080fd5b600081518084526020808501945080840160005b83811015610f6a5781516001600160a01b031687529582019590820190600101610f45565b509495945050505050565b600081518084526020808501945080840160005b83811015610f6a57815187529582019590820190600101610f89565b803560ff8116808214610fb757600080fd5b83525060208181013590830152604090810135910152565b61010080825287516080918301829052805161018084018190526000926101a0850192602092908301919085805b8281101561105c57845180516003811061102557634e487b7160e01b84526021600452602484fd5b8852808701516001600160a01b03168789015260408082015190890152606090810151908801529583019593850193600101610ffd565b5050508b8301516001600160a01b038116610120880152915060408c015161014087015260608c01516101608701528584038387015261109c848c610f31565b935085840360408701526110b0848b610f75565b935085840360608701526110c4848a610f75565b94508781870152505050506110dc60a0830184610fa5565b97965050505050505056fea26469706673582212209203371c1c1f1687c63808e4b467e3971eeafec52771ad3c0b8c072deb2da03764736f6c63430008100033",
    "linkReferences": {}
  },
  "methodIdentifiers": {
    "execute((bytes,(uint8,bytes32,bytes32)),address,bytes)": "8bcaadbd",
    "orderStatus(bytes32)": "2dff692d",
    "permitPost()": "f45d6b23",
    "resolve(bytes)": "e4056186"
  },
  "id": 23
}