{
  "abi": [
    {
      "inputs": [
        {
          "internalType": "bytes",
          "name": "order",
          "type": "bytes"
        },
        {
          "components": [
            {
              "internalType": "uint8",
              "name": "v",
              "type": "uint8"
            },
            {
              "internalType": "bytes32",
              "name": "r",
              "type": "bytes32"
            },
            {
              "internalType": "bytes32",
              "name": "s",
              "type": "bytes32"
            }
          ],
          "internalType": "struct Signature",
          "name": "sig",
          "type": "tuple"
        }
      ],
      "name": "quote",
      "outputs": [
        {
          "components": [
            {
              "components": [
                {
                  "internalType": "address",
                  "name": "reactor",
                  "type": "address"
                },
                {
                  "internalType": "address",
                  "name": "offerer",
                  "type": "address"
                },
                {
                  "internalType": "uint256",
                  "name": "nonce",
                  "type": "uint256"
                },
                {
                  "internalType": "uint256",
                  "name": "deadline",
                  "type": "uint256"
                }
              ],
              "internalType": "struct OrderInfo",
              "name": "info",
              "type": "tuple"
            },
            {
              "components": [
                {
                  "internalType": "address",
                  "name": "token",
                  "type": "address"
                },
                {
                  "internalType": "uint256",
                  "name": "amount",
                  "type": "uint256"
                }
              ],
              "internalType": "struct InputToken",
              "name": "input",
              "type": "tuple"
            },
            {
              "components": [
                {
                  "internalType": "address",
                  "name": "token",
                  "type": "address"
                },
                {
                  "internalType": "uint256",
                  "name": "amount",
                  "type": "uint256"
                },
                {
                  "internalType": "address",
                  "name": "recipient",
                  "type": "address"
                }
              ],
              "internalType": "struct OutputToken[]",
              "name": "outputs",
              "type": "tuple[]"
            }
          ],
          "internalType": "struct ResolvedOrder",
          "name": "result",
          "type": "tuple"
        }
      ],
      "stateMutability": "nonpayable",
      "type": "function"
    },
    {
      "inputs": [
        {
          "components": [
            {
              "components": [
                {
                  "internalType": "address",
                  "name": "reactor",
                  "type": "address"
                },
                {
                  "internalType": "address",
                  "name": "offerer",
                  "type": "address"
                },
                {
                  "internalType": "uint256",
                  "name": "nonce",
                  "type": "uint256"
                },
                {
                  "internalType": "uint256",
                  "name": "deadline",
                  "type": "uint256"
                }
              ],
              "internalType": "struct OrderInfo",
              "name": "info",
              "type": "tuple"
            },
            {
              "components": [
                {
                  "internalType": "address",
                  "name": "token",
                  "type": "address"
                },
                {
                  "internalType": "uint256",
                  "name": "amount",
                  "type": "uint256"
                }
              ],
              "internalType": "struct InputToken",
              "name": "input",
              "type": "tuple"
            },
            {
              "components": [
                {
                  "internalType": "address",
                  "name": "token",
                  "type": "address"
                },
                {
                  "internalType": "uint256",
                  "name": "amount",
                  "type": "uint256"
                },
                {
                  "internalType": "address",
                  "name": "recipient",
                  "type": "address"
                }
              ],
              "internalType": "struct OutputToken[]",
              "name": "outputs",
              "type": "tuple[]"
            }
          ],
          "internalType": "struct ResolvedOrder[]",
          "name": "resolvedOrders",
          "type": "tuple[]"
        },
        {
          "internalType": "address",
          "name": "filler",
          "type": "address"
        },
        {
          "internalType": "bytes",
          "name": "",
          "type": "bytes"
        }
      ],
      "name": "reactorCallback",
      "outputs": [],
      "stateMutability": "view",
      "type": "function"
    }
  ],
  "bytecode": {
    "object": "0x608060405234801561001057600080fd5b506109e7806100206000396000f3fe608060405234801561001057600080fd5b50600436106100365760003560e01c8063b030bac31461003b578063ed33913214610064575b600080fd5b61004e610049366004610348565b610079565b60405161005b91906103d2565b60405180910390f35b6100776100723660046105bc565b610143565b005b6100816101d1565b60408381015181518083018352858152602080820186905283519081018452600081529251638bcaadbd60e01b81526001600160a01b0390921692638bcaadbd926100d192913091600401610782565b600060405180830381600087803b1580156100eb57600080fd5b505af19250505080156100fc575060015b61013d573d80801561012a576040519150601f19603f3d011682016040523d82523d6000602084013e61012f565b606091505b506101398161019e565b9150505b92915050565b6001600160a01b038216301461015857600080fd5b60008360008151811061016d5761016d6107ee565b602002602001015160405160200161018591906103d2565b6040516020818303038152906040529050805181602001fd5b6101a66101d1565b60c0825110156101b857815182602001fd5b8180602001905181019061013d91906108d8565b919050565b6040805160e0810182526000606082018181526080830182905260a0830182905260c08301829052825282518084019093528083526020838101919091529091908201908152602001606081525090565b634e487b7160e01b600052604160045260246000fd5b6040516060810167ffffffffffffffff8111828210171561025b5761025b610222565b60405290565b6040805190810167ffffffffffffffff8111828210171561025b5761025b610222565b6040516080810167ffffffffffffffff8111828210171561025b5761025b610222565b604051601f8201601f1916810167ffffffffffffffff811182821017156102d0576102d0610222565b604052919050565b600082601f8301126102e957600080fd5b813567ffffffffffffffff81111561030357610303610222565b610316601f8201601f19166020016102a7565b81815284602083860101111561032b57600080fd5b816020850160208301376000918101602001919091529392505050565b600080828403608081121561035c57600080fd5b833567ffffffffffffffff81111561037357600080fd5b61037f868287016102d8565b9350506060601f198201121561039457600080fd5b5061039d610238565b602084013560ff811681146103b157600080fd5b81526040848101356020830152606090940135938101939093525092909150565b6020808252825180516001600160a01b039081168484015281830151811660408086019190915280830151606080870191909152928301516080860152858401518051831660a087015284015160c08601528086015160e080870152805161010087018190526000959491850193869390926101208901925b80861015610480578651805186168552888101518986015283015185168385015295870195600195909501949281019261044b565b50919998505050505050505050565b600067ffffffffffffffff8211156104a9576104a9610222565b5060051b60200190565b6001600160a01b03811681146104c857600080fd5b50565b80356101cc816104b3565b6000604082840312156104e857600080fd5b6104f0610261565b905081356104fd816104b3565b808252506020820135602082015292915050565b600082601f83011261052257600080fd5b813560206105376105328361048f565b6102a7565b8281526060928302850182019282820191908785111561055657600080fd5b8387015b858110156105af5781818a0312156105725760008081fd5b61057a610238565b8135610585816104b3565b8152818601358682015260408083013561059e816104b3565b90820152845292840192810161055a565b5090979650505050505050565b6000806000606084860312156105d157600080fd5b833567ffffffffffffffff808211156105e957600080fd5b818601915086601f8301126105fd57600080fd5b8135602061060d6105328361048f565b82815260059290921b8401810191818101908a84111561062c57600080fd5b8286015b848110156106fd5780358681111561064757600080fd5b8701808d03601f190160e081121561065e57600080fd5b610666610238565b608082121561067457600080fd5b61067c610284565b91508683013561068b816104b3565b8252604083013561069b816104b3565b8288015260608381013560408401526080840135908301528181526106c38f60a085016104d6565b8782015260e08301359150888211156106db57600080fd5b6106e98f8884860101610511565b604082015285525050918301918301610630565b50975061070d90508882016104cb565b95505050604086013591508082111561072557600080fd5b50610732868287016102d8565b9150509250925092565b6000815180845260005b8181101561076257602081850181015186830182015201610746565b506000602082860101526020601f19601f83011685010191505092915050565b60608152600084516080606084015261079e60e084018261073c565b9050602086015160ff8151166080850152602081015160a0850152604081015160c08501525060018060a01b038516602084015282810360408401526107e4818561073c565b9695505050505050565b634e487b7160e01b600052603260045260246000fd5b60006040828403121561081657600080fd5b61081e610261565b9050815161082b816104b3565b808252506020820151602082015292915050565b600082601f83011261085057600080fd5b815160206108606105328361048f565b8281526060928302850182019282820191908785111561087f57600080fd5b8387015b858110156105af5781818a03121561089b5760008081fd5b6108a3610238565b81516108ae816104b3565b815281860151868201526040808301516108c7816104b3565b908201528452928401928101610883565b6000602082840312156108ea57600080fd5b815167ffffffffffffffff8082111561090257600080fd5b9083019081850360e081121561091757600080fd5b61091f610238565b608082121561092d57600080fd5b610935610284565b91508351610942816104b3565b82526020840151610952816104b3565b80602084015250604084015160408301526060840151606083015281815261097d8760808601610804565b602082015260c084015191508282111561099657600080fd5b6109a28783860161083f565b6040820152969550505050505056fea26469706673582212204f16fbd9f01101a3a171bd54a71d2ad9bf01a7a296ef6c44766172d52bd7e83564736f6c63430008100033",
    "linkReferences": {}
  },
  "methodIdentifiers": {
    "quote(bytes,(uint8,bytes32,bytes32))": "b030bac3",
    "reactorCallback(((address,address,uint256,uint256),(address,uint256),(address,uint256,address)[])[],address,bytes)": "ed339132"
  },
  "id": 25
}