{
  "abi": [
    {
      "inputs": [
        {
          "internalType": "bytes",
          "name": "order",
          "type": "bytes"
        },
        {
          "components": [
            {
              "internalType": "uint8",
              "name": "v",
              "type": "uint8"
            },
            {
              "internalType": "bytes32",
              "name": "r",
              "type": "bytes32"
            },
            {
              "internalType": "bytes32",
              "name": "s",
              "type": "bytes32"
            }
          ],
          "internalType": "struct Signature",
          "name": "sig",
          "type": "tuple"
        }
      ],
      "name": "quote",
      "outputs": [
        {
          "components": [
            {
              "components": [
                {
                  "internalType": "address",
                  "name": "reactor",
                  "type": "address"
                },
                {
                  "internalType": "address",
                  "name": "offerer",
                  "type": "address"
                },
                {
                  "internalType": "uint256",
                  "name": "nonce",
                  "type": "uint256"
                },
                {
                  "internalType": "uint256",
                  "name": "deadline",
                  "type": "uint256"
                }
              ],
              "internalType": "struct OrderInfo",
              "name": "info",
              "type": "tuple"
            },
            {
              "components": [
                {
                  "internalType": "address",
                  "name": "token",
                  "type": "address"
                },
                {
                  "internalType": "uint256",
                  "name": "amount",
                  "type": "uint256"
                }
              ],
              "internalType": "struct InputToken",
              "name": "input",
              "type": "tuple"
            },
            {
              "components": [
                {
                  "internalType": "address",
                  "name": "token",
                  "type": "address"
                },
                {
                  "internalType": "uint256",
                  "name": "amount",
                  "type": "uint256"
                },
                {
                  "internalType": "address",
                  "name": "recipient",
                  "type": "address"
                }
              ],
              "internalType": "struct OutputToken[]",
              "name": "outputs",
              "type": "tuple[]"
            }
          ],
          "internalType": "struct ResolvedOrder",
          "name": "result",
          "type": "tuple"
        }
      ],
      "stateMutability": "nonpayable",
      "type": "function"
    },
    {
      "inputs": [
        {
          "components": [
            {
              "components": [
                {
                  "internalType": "address",
                  "name": "reactor",
                  "type": "address"
                },
                {
                  "internalType": "address",
                  "name": "offerer",
                  "type": "address"
                },
                {
                  "internalType": "uint256",
                  "name": "nonce",
                  "type": "uint256"
                },
                {
                  "internalType": "uint256",
                  "name": "deadline",
                  "type": "uint256"
                }
              ],
              "internalType": "struct OrderInfo",
              "name": "info",
              "type": "tuple"
            },
            {
              "components": [
                {
                  "internalType": "address",
                  "name": "token",
                  "type": "address"
                },
                {
                  "internalType": "uint256",
                  "name": "amount",
                  "type": "uint256"
                }
              ],
              "internalType": "struct InputToken",
              "name": "input",
              "type": "tuple"
            },
            {
              "components": [
                {
                  "internalType": "address",
                  "name": "token",
                  "type": "address"
                },
                {
                  "internalType": "uint256",
                  "name": "amount",
                  "type": "uint256"
                },
                {
                  "internalType": "address",
                  "name": "recipient",
                  "type": "address"
                }
              ],
              "internalType": "struct OutputToken[]",
              "name": "outputs",
              "type": "tuple[]"
            }
          ],
          "internalType": "struct ResolvedOrder[]",
          "name": "resolvedOrders",
          "type": "tuple[]"
        },
        {
          "internalType": "address",
          "name": "filler",
          "type": "address"
        },
        {
          "internalType": "bytes",
          "name": "",
          "type": "bytes"
        }
      ],
      "name": "reactorCallback",
      "outputs": [],
      "stateMutability": "view",
      "type": "function"
    }
  ],
  "bytecode": {
    "object": "0x608060405234801561001057600080fd5b50610b3d806100206000396000f3fe608060405234801561001057600080fd5b50600436106100365760003560e01c8063b030bac31461003b578063ed33913214610064575b600080fd5b61004e610049366004610403565b610079565b60405161005b91906104ab565b60405180910390f35b6100776100723660046106af565b6101a9565b005b6040805160e081018252600060608083018281526080840183905260a0840183905260c084018390528352835180850185528281526020808201849052808501919091528385019190915285840151845180860186528781528083018790528551928301865292825293517f8bcaadbd000000000000000000000000000000000000000000000000000000008152929373ffffffffffffffffffffffffffffffffffffffff1692638bcaadbd926101379290913091906004016108b1565b600060405180830381600087803b15801561015157600080fd5b505af1925050508015610162575060015b6101a3573d808015610190576040519150601f19603f3d011682016040523d82523d6000602084013e610195565b606091505b5061019f81610211565b9150505b92915050565b73ffffffffffffffffffffffffffffffffffffffff821630146101cb57600080fd5b6000836000815181106101e0576101e061092b565b60200260200101516040516020016101f891906104ab565b6040516020818303038152906040529050805181602001fd5b6040805160e081018252600060608083018281526080840183905260a0840183905260c08401839052835283518085018552828152602080820193909352918301919091529181019190915260c08251101561026f57815182602001fd5b818060200190518101906101a39190610a2e565b919050565b7f4e487b7100000000000000000000000000000000000000000000000000000000600052604160045260246000fd5b6040516060810167ffffffffffffffff811182821017156102da576102da610288565b60405290565b6040805190810167ffffffffffffffff811182821017156102da576102da610288565b6040516080810167ffffffffffffffff811182821017156102da576102da610288565b604051601f82017fffffffffffffffffffffffffffffffffffffffffffffffffffffffffffffffe016810167ffffffffffffffff8111828210171561036d5761036d610288565b604052919050565b600082601f83011261038657600080fd5b813567ffffffffffffffff8111156103a0576103a0610288565b6103d160207fffffffffffffffffffffffffffffffffffffffffffffffffffffffffffffffe0601f84011601610326565b8181528460208386010111156103e657600080fd5b816020850160208301376000918101602001919091529392505050565b600080828403608081121561041757600080fd5b833567ffffffffffffffff81111561042e57600080fd5b61043a86828701610375565b93505060607fffffffffffffffffffffffffffffffffffffffffffffffffffffffffffffffe08201121561046d57600080fd5b506104766102b7565b602084013560ff8116811461048a57600080fd5b81526040848101356020830152606090940135938101939093525092909150565b60208082528251805173ffffffffffffffffffffffffffffffffffffffff9081168484015281830151811660408086019190915280830151606080870191909152928301516080860152858401518051831660a087015284015160c08601528086015160e080870152805161010087018190526000959491850193869390926101208901925b808610156105665786518051861685528881015189860152830151851683850152958701956001959095019492810192610531565b50919998505050505050505050565b600067ffffffffffffffff82111561058f5761058f610288565b5060051b60200190565b73ffffffffffffffffffffffffffffffffffffffff811681146105bb57600080fd5b50565b803561028381610599565b6000604082840312156105db57600080fd5b6105e36102e0565b905081356105f081610599565b808252506020820135602082015292915050565b600082601f83011261061557600080fd5b8135602061062a61062583610575565b610326565b8281526060928302850182019282820191908785111561064957600080fd5b8387015b858110156106a25781818a0312156106655760008081fd5b61066d6102b7565b813561067881610599565b8152818601358682015260408083013561069181610599565b90820152845292840192810161064d565b5090979650505050505050565b6000806000606084860312156106c457600080fd5b833567ffffffffffffffff808211156106dc57600080fd5b818601915086601f8301126106f057600080fd5b8135602061070061062583610575565b82815260059290921b8401810191818101908a84111561071f57600080fd5b8286015b8481101561080e5780358681111561073a57600080fd5b8701808d037fffffffffffffffffffffffffffffffffffffffffffffffffffffffffffffffe00160e081121561076f57600080fd5b6107776102b7565b608082121561078557600080fd5b61078d610303565b91508683013561079c81610599565b825260408301356107ac81610599565b8288015260608381013560408401526080840135908301528181526107d48f60a085016105c9565b8782015260e08301359150888211156107ec57600080fd5b6107fa8f8884860101610604565b604082015285525050918301918301610723565b50975061081e90508882016105be565b95505050604086013591508082111561083657600080fd5b5061084386828701610375565b9150509250925092565b6000815180845260005b8181101561087357602081850181015186830182015201610857565b5060006020828601015260207fffffffffffffffffffffffffffffffffffffffffffffffffffffffffffffffe0601f83011685010191505092915050565b6060815260008451608060608401526108cd60e084018261084d565b9050602086015160ff8151166080850152602081015160a0850152604081015160c08501525073ffffffffffffffffffffffffffffffffffffffff851660208401528281036040840152610921818561084d565b9695505050505050565b7f4e487b7100000000000000000000000000000000000000000000000000000000600052603260045260246000fd5b60006040828403121561096c57600080fd5b6109746102e0565b9050815161098181610599565b808252506020820151602082015292915050565b600082601f8301126109a657600080fd5b815160206109b661062583610575565b828152606092830285018201928282019190878511156109d557600080fd5b8387015b858110156106a25781818a0312156109f15760008081fd5b6109f96102b7565b8151610a0481610599565b81528186015186820152604080830151610a1d81610599565b9082015284529284019281016109d9565b600060208284031215610a4057600080fd5b815167ffffffffffffffff80821115610a5857600080fd5b9083019081850360e0811215610a6d57600080fd5b610a756102b7565b6080821215610a8357600080fd5b610a8b610303565b91508351610a9881610599565b82526020840151610aa881610599565b806020840152506040840151604083015260608401516060830152818152610ad3876080860161095a565b602082015260c0840151915082821115610aec57600080fd5b610af887838601610995565b6040820152969550505050505056fea2646970667358221220e9e37a889bee04115db8557d40315f386616595095179290fae34c1a44365f9b64736f6c63430008100033",
    "linkReferences": {}
  },
  "methodIdentifiers": {
    "quote(bytes,(uint8,bytes32,bytes32))": "b030bac3",
    "reactorCallback(((address,address,uint256,uint256),(address,uint256),(address,uint256,address)[])[],address,bytes)": "ed339132"
  },
  "id": 26
}