{
  "abi": [
    {
      "inputs": [
        {
          "internalType": "bytes",
          "name": "order",
          "type": "bytes"
        },
        {
          "internalType": "bytes",
          "name": "sig",
          "type": "bytes"
        }
      ],
      "name": "quote",
      "outputs": [
        {
          "components": [
            {
              "components": [
                {
                  "internalType": "address",
                  "name": "reactor",
                  "type": "address"
                },
                {
                  "internalType": "address",
                  "name": "offerer",
                  "type": "address"
                },
                {
                  "internalType": "uint256",
                  "name": "nonce",
                  "type": "uint256"
                },
                {
                  "internalType": "uint256",
                  "name": "deadline",
                  "type": "uint256"
                }
              ],
              "internalType": "struct OrderInfo",
              "name": "info",
              "type": "tuple"
            },
            {
              "components": [
                {
                  "internalType": "address",
                  "name": "token",
                  "type": "address"
                },
                {
                  "internalType": "uint256",
                  "name": "amount",
                  "type": "uint256"
                },
                {
                  "internalType": "uint256",
                  "name": "maxAmount",
                  "type": "uint256"
                }
              ],
              "internalType": "struct InputToken",
              "name": "input",
              "type": "tuple"
            },
            {
              "components": [
                {
                  "internalType": "address",
                  "name": "token",
                  "type": "address"
                },
                {
                  "internalType": "uint256",
                  "name": "amount",
                  "type": "uint256"
                },
                {
                  "internalType": "address",
                  "name": "recipient",
                  "type": "address"
                }
              ],
              "internalType": "struct OutputToken[]",
              "name": "outputs",
              "type": "tuple[]"
            },
            {
              "internalType": "bytes",
              "name": "sig",
              "type": "bytes"
            },
            {
              "internalType": "bytes32",
              "name": "hash",
              "type": "bytes32"
            }
          ],
          "internalType": "struct ResolvedOrder",
          "name": "result",
          "type": "tuple"
        }
      ],
      "stateMutability": "nonpayable",
      "type": "function"
    },
    {
      "inputs": [
        {
          "components": [
            {
              "components": [
                {
                  "internalType": "address",
                  "name": "reactor",
                  "type": "address"
                },
                {
                  "internalType": "address",
                  "name": "offerer",
                  "type": "address"
                },
                {
                  "internalType": "uint256",
                  "name": "nonce",
                  "type": "uint256"
                },
                {
                  "internalType": "uint256",
                  "name": "deadline",
                  "type": "uint256"
                }
              ],
              "internalType": "struct OrderInfo",
              "name": "info",
              "type": "tuple"
            },
            {
              "components": [
                {
                  "internalType": "address",
                  "name": "token",
                  "type": "address"
                },
                {
                  "internalType": "uint256",
                  "name": "amount",
                  "type": "uint256"
                },
                {
                  "internalType": "uint256",
                  "name": "maxAmount",
                  "type": "uint256"
                }
              ],
              "internalType": "struct InputToken",
              "name": "input",
              "type": "tuple"
            },
            {
              "components": [
                {
                  "internalType": "address",
                  "name": "token",
                  "type": "address"
                },
                {
                  "internalType": "uint256",
                  "name": "amount",
                  "type": "uint256"
                },
                {
                  "internalType": "address",
                  "name": "recipient",
                  "type": "address"
                }
              ],
              "internalType": "struct OutputToken[]",
              "name": "outputs",
              "type": "tuple[]"
            },
            {
              "internalType": "bytes",
              "name": "sig",
              "type": "bytes"
            },
            {
              "internalType": "bytes32",
              "name": "hash",
              "type": "bytes32"
            }
          ],
          "internalType": "struct ResolvedOrder[]",
          "name": "resolvedOrders",
          "type": "tuple[]"
        },
        {
          "internalType": "address",
          "name": "filler",
          "type": "address"
        },
        {
          "internalType": "bytes",
          "name": "",
          "type": "bytes"
        }
      ],
      "name": "reactorCallback",
      "outputs": [],
      "stateMutability": "view",
      "type": "function"
    }
  ],
  "bytecode": {
    "object": "0x6080806040523461001657610c61908161001c8239f35b600080fdfe60806040526004361015610013575b600080fd5b6000803560e01c90816341d88d691461003e57506356d6d0211461003657600080fd5b61000e61064b565b3461018b5760407ffffffffffffffffffffffffffffffffffffffffffffffffffffffffffffffffc36011261018b5767ffffffffffffffff906004358281116101875761008f9036906004016102e1565b91602435908111610187576100a89036906004016102e1565b906100b16107cd565b604084015190929073ffffffffffffffffffffffffffffffffffffffff16906100d8610258565b94855260208501526100e861086a565b90803b156101835761012d9394836040518096819582947f05afc9770000000000000000000000000000000000000000000000000000000084523090600485016108a7565b03925af1908161016a575b50610161575061015d61015161014c610929565b610ac3565b604051918291826103f1565b0390f35b61015d90610151565b8061017761017d926101be565b8061089c565b82610138565b8280fd5b5080fd5b80fd5b507f4e487b7100000000000000000000000000000000000000000000000000000000600052604160045260246000fd5b67ffffffffffffffff81116101d257604052565b6101da61018e565b604052565b6080810190811067ffffffffffffffff8211176101d257604052565b6060810190811067ffffffffffffffff8211176101d257604052565b90601f7fffffffffffffffffffffffffffffffffffffffffffffffffffffffffffffffe0910116810190811067ffffffffffffffff8211176101d257604052565b604051906040820182811067ffffffffffffffff8211176101d257604052565b6040519060a0820182811067ffffffffffffffff8211176101d257604052565b7fffffffffffffffffffffffffffffffffffffffffffffffffffffffffffffffe0601f60209267ffffffffffffffff81116102d4575b01160190565b6102dc61018e565b6102ce565b81601f8201121561000e578035906102f882610298565b926103066040519485610217565b8284526020838301011161000e57816000926020809301838601378301015290565b90815180825260208080930193019160005b828110610348575050505090565b8351805173ffffffffffffffffffffffffffffffffffffffff9081168752818401518785015260409182015116908601526060909401939281019260010161033a565b60005b83811061039e5750506000910152565b818101518382015260200161038e565b907fffffffffffffffffffffffffffffffffffffffffffffffffffffffffffffffe0601f6020936103ea8151809281875287808801910161038b565b0116010190565b602081526060825173ffffffffffffffffffffffffffffffffffffffff80825116602085015260208201511660408401526040810151828401520151608082015261046e602083015160a08301906040809173ffffffffffffffffffffffffffffffffffffffff8151168452602081015160208501520151910152565b604082015160806104c66104916101409384610100870152610160860190610328565b60608601517fffffffffffffffffffffffffffffffffffffffffffffffffffffffffffffffe0868303016101208701526103ae565b93015191015290565b60209067ffffffffffffffff81116104e9575b60051b0190565b6104f161018e565b6104e2565b73ffffffffffffffffffffffffffffffffffffffff81160361000e57565b60243590610521826104f6565b565b919082608091031261000e5760405161053b816101df565b6060808294803561054b816104f6565b8452602081013561055b816104f6565b6020850152604081013560408501520135910152565b919082606091031261000e57604051610589816101fb565b60408082948035610599816104f6565b8452602081013560208501520135910152565b81601f8201121561000e578035906105c3826104cf565b926040906105d382519586610217565b838552602091828601918360608097028601019481861161000e578401925b858410610603575050505050505090565b868483031261000e57848791845161061a816101fb565b8635610625816104f6565b815282870135838201528587013561063c816104f6565b868201528152019301926105f2565b3461000e576060807ffffffffffffffffffffffffffffffffffffffffffffffffffffffffffffffffc36011261000e5760043567ffffffffffffffff9182821161000e573660238301121561000e578160040135916106a9836104cf565b926040926106b984519586610217565b818552602093848601916024809460051b8601019436861161000e57848101935b8685106107135750505050505050506106f1610514565b9060443592831161000e5761070d6105219336906004016102e1565b50610b88565b84358a811161000e5782016101407fffffffffffffffffffffffffffffffffffffffffffffffffffffffffffffffdc823603011261000e57610753610278565b9161076036898401610523565b835261076f3660a48401610571565b8a8401526101048201358c811161000e5761078f908936918501016105ac565b86840152610124820135928c841161000e576101448b94936107b786958c36918401016102e1565b88840152013560808201528152019401936106da565b6040908151608060a0820191606067ffffffffffffffff958285108786111761085d575b848152829661012084019086821090821117610850575b81526000948581528560c08501528560e08501528561010085015283528051610830816101fb565b858152856020820152858282015260208401528201526060808201520152565b61085861018e565b610808565b61086561018e565b6107f1565b604051906020820182811067ffffffffffffffff82111761088f575b60405260008252565b61089761018e565b610886565b600091031261000e57565b73ffffffffffffffffffffffffffffffffffffffff61091261092695936060845260206108e082516040606088015260a08701906103ae565b9101517fffffffffffffffffffffffffffffffffffffffffffffffffffffffffffffffa08583030160808601526103ae565b9316602082015260408184039101526103ae565b90565b3d15610954573d9061093a82610298565b916109486040519384610217565b82523d6000602084013e565b606090565b919082608091031261000e57604051610971816101df565b60608082948051610981816104f6565b84526020810151610991816104f6565b6020850152604081015160408501520151910152565b919082606091031261000e576040516109bf816101fb565b604080829480516109cf816104f6565b8452602081015160208501520151910152565b81601f8201121561000e578051906109f9826104cf565b92604090610a0982519586610217565b838552602091828601918360608097028601019481861161000e578401925b858410610a39575050505050505090565b868483031261000e578487918451610a50816101fb565b8651610a5b816104f6565b8152828701518382015285870151610a72816104f6565b86820152815201930192610a28565b81601f8201121561000e578051610a9781610298565b92610aa56040519485610217565b8184526020828401011161000e57610926916020808501910161038b565b610acb6107cd565b50805160c0811015610ae05750805190602001fd5b81019060209182810191838183031261000e578381015167ffffffffffffffff9182821161000e5701928392610140948591031261000e57610b20610278565b94610b2d82828601610959565b8652610b3c8260a086016109a7565b8187015261010084015183811161000e578282610b5b928701016109e2565b604087015261012084015192831161000e57610b7992840101610a81565b60608401520151608082015290565b915073ffffffffffffffffffffffffffffffffffffffff3091160361000e57805115610bfc57610bf46020610bc8920151604051928391602083016103f1565b037fffffffffffffffffffffffffffffffffffffffffffffffffffffffffffffffe08101835282610217565b805190602001fd5b7f4e487b7100000000000000000000000000000000000000000000000000000000600052603260045260246000fdfea264697066735822122019a395ce5c028e7c004cfb77ea0ef311b8d07c159ded91128384482fab6461a164736f6c63430008110033",
    "linkReferences": {}
  },
  "methodIdentifiers": {
    "quote(bytes,bytes)": "41d88d69",
    "reactorCallback(((address,address,uint256,uint256),(address,uint256,uint256),(address,uint256,address)[],bytes,bytes32)[],address,bytes)": "56d6d021"
  },
  "id": 43
}