{
  "abi": [
    {
      "inputs": [],
      "stateMutability": "nonpayable",
      "type": "constructor"
    },
    {
      "inputs": [],
      "name": "DeadlinePassed",
      "type": "error"
    },
    {
      "inputs": [],
      "name": "InvalidAmount",
      "type": "error"
    },
    {
      "inputs": [],
      "name": "InvalidId",
      "type": "error"
    },
    {
      "inputs": [],
      "name": "InvalidSignature",
      "type": "error"
    },
    {
      "inputs": [],
      "name": "NonceUsed",
      "type": "error"
    },
    {
      "inputs": [],
      "name": "NotSpender",
      "type": "error"
    },
    {
      "inputs": [],
      "name": "_PERMIT_TYPEHASH",
      "outputs": [
        {
          "internalType": "bytes32",
          "name": "",
          "type": "bytes32"
        }
      ],
      "stateMutability": "view",
      "type": "function"
    },
    {
      "inputs": [],
      "name": "_TOKEN_DETAILS_TYPEHASH",
      "outputs": [
        {
          "internalType": "bytes32",
          "name": "",
          "type": "bytes32"
        }
      ],
      "stateMutability": "view",
      "type": "function"
    },
    {
      "inputs": [
        {
          "internalType": "uint256",
          "name": "nonce",
          "type": "uint256"
        }
      ],
      "name": "bitmapPositions",
      "outputs": [
        {
          "internalType": "uint248",
          "name": "wordPos",
          "type": "uint248"
        },
        {
          "internalType": "uint8",
          "name": "bitPos",
          "type": "uint8"
        }
      ],
      "stateMutability": "pure",
      "type": "function"
    },
    {
      "inputs": [
        {
          "internalType": "uint256",
          "name": "amount",
          "type": "uint256"
        }
      ],
      "name": "invalidateNonces",
      "outputs": [],
      "stateMutability": "nonpayable",
      "type": "function"
    },
    {
      "inputs": [
        {
          "internalType": "uint248",
          "name": "wordPos",
          "type": "uint248"
        },
        {
          "internalType": "uint256",
          "name": "mask",
          "type": "uint256"
        }
      ],
      "name": "invalidateUnorderedNonces",
      "outputs": [],
      "stateMutability": "nonpayable",
      "type": "function"
    },
    {
      "inputs": [
        {
          "internalType": "address",
          "name": "from",
          "type": "address"
        },
        {
          "internalType": "uint256",
          "name": "nonce",
          "type": "uint256"
        }
      ],
      "name": "isUsedUnorderedNonce",
      "outputs": [
        {
          "internalType": "bool",
          "name": "used",
          "type": "bool"
        }
      ],
      "stateMutability": "view",
      "type": "function"
    },
    {
      "inputs": [
        {
          "internalType": "address",
          "name": "",
          "type": "address"
        },
        {
          "internalType": "uint248",
          "name": "",
          "type": "uint248"
        }
      ],
      "name": "nonceBitmap",
      "outputs": [
        {
          "internalType": "uint256",
          "name": "",
          "type": "uint256"
        }
      ],
      "stateMutability": "view",
      "type": "function"
    },
    {
      "inputs": [
        {
          "internalType": "address",
          "name": "",
          "type": "address"
        }
      ],
      "name": "nonces",
      "outputs": [
        {
          "internalType": "uint256",
          "name": "",
          "type": "uint256"
        }
      ],
      "stateMutability": "view",
      "type": "function"
    },
    {
      "inputs": [
        {
          "components": [
            {
              "components": [
                {
                  "internalType": "enum TokenType",
                  "name": "tokenType",
                  "type": "uint8"
                },
                {
                  "internalType": "address",
                  "name": "token",
                  "type": "address"
                },
                {
                  "internalType": "uint256",
                  "name": "maxAmount",
                  "type": "uint256"
                },
                {
                  "internalType": "uint256",
                  "name": "id",
                  "type": "uint256"
                }
              ],
              "internalType": "struct TokenDetails[]",
              "name": "tokens",
              "type": "tuple[]"
            },
            {
              "internalType": "address",
              "name": "spender",
              "type": "address"
            },
            {
              "internalType": "uint256",
              "name": "deadline",
              "type": "uint256"
            },
            {
              "internalType": "bytes32",
              "name": "witness",
              "type": "bytes32"
            }
          ],
          "internalType": "struct Permit",
          "name": "permit",
          "type": "tuple"
        },
        {
          "internalType": "address",
          "name": "from",
          "type": "address"
        },
        {
          "internalType": "address[]",
          "name": "to",
          "type": "address[]"
        },
        {
          "internalType": "uint256[]",
          "name": "ids",
          "type": "uint256[]"
        },
        {
          "internalType": "uint256[]",
          "name": "amounts",
          "type": "uint256[]"
        },
        {
          "components": [
            {
              "internalType": "uint8",
              "name": "v",
              "type": "uint8"
            },
            {
              "internalType": "bytes32",
              "name": "r",
              "type": "bytes32"
            },
            {
              "internalType": "bytes32",
              "name": "s",
              "type": "bytes32"
            }
          ],
          "internalType": "struct Signature",
          "name": "sig",
          "type": "tuple"
        }
      ],
      "name": "transferFrom",
      "outputs": [
        {
          "internalType": "address",
          "name": "signer",
          "type": "address"
        }
      ],
      "stateMutability": "nonpayable",
      "type": "function"
    },
    {
      "inputs": [
        {
          "components": [
            {
              "components": [
                {
                  "internalType": "enum TokenType",
                  "name": "tokenType",
                  "type": "uint8"
                },
                {
                  "internalType": "address",
                  "name": "token",
                  "type": "address"
                },
                {
                  "internalType": "uint256",
                  "name": "maxAmount",
                  "type": "uint256"
                },
                {
                  "internalType": "uint256",
                  "name": "id",
                  "type": "uint256"
                }
              ],
              "internalType": "struct TokenDetails[]",
              "name": "tokens",
              "type": "tuple[]"
            },
            {
              "internalType": "address",
              "name": "spender",
              "type": "address"
            },
            {
              "internalType": "uint256",
              "name": "deadline",
              "type": "uint256"
            },
            {
              "internalType": "bytes32",
              "name": "witness",
              "type": "bytes32"
            }
          ],
          "internalType": "struct Permit",
          "name": "permit",
          "type": "tuple"
        },
        {
          "internalType": "address[]",
          "name": "to",
          "type": "address[]"
        },
        {
          "internalType": "uint256[]",
          "name": "ids",
          "type": "uint256[]"
        },
        {
          "internalType": "uint256[]",
          "name": "amounts",
          "type": "uint256[]"
        },
        {
          "internalType": "uint256",
          "name": "nonce",
          "type": "uint256"
        },
        {
          "components": [
            {
              "internalType": "uint8",
              "name": "v",
              "type": "uint8"
            },
            {
              "internalType": "bytes32",
              "name": "r",
              "type": "bytes32"
            },
            {
              "internalType": "bytes32",
              "name": "s",
              "type": "bytes32"
            }
          ],
          "internalType": "struct Signature",
          "name": "sig",
          "type": "tuple"
        }
      ],
      "name": "unorderedTransferFrom",
      "outputs": [
        {
          "internalType": "address",
          "name": "signer",
          "type": "address"
        }
      ],
      "stateMutability": "nonpayable",
      "type": "function"
    }
  ],
  "bytecode": {
    "object": "0x61014060405234801561001157600080fd5b50604080518082018252600a81526914195c9b5a5d141bdcdd60b21b6020808301918252835180850190945260018452603160f81b908401528151902060e08190527fc89efdaa54c0f20c7adf612882df0950f5a951637e0307cdcb4c672f298b8bc66101008190524660a0529192917f8b73c3c69bb8fe3d512ecc4cf759cc79239f7b179b0ffacaa9a75d522b39400f6100f18184846040805160208101859052908101839052606081018290524660808201523060a082015260009060c0016040516020818303038152906040528051906020012090509392505050565b6080523060c052610120525061010692505050565b60805160a05160c05160e05161010051610120516113e76101556000396000610bb001526000610bff01526000610bda01526000610b3301526000610b5d01526000610b8701526113e76000f3fe608060405234801561001057600080fd5b506004361061009e5760003560e01c80637ecebe00116100665780637ecebe00146101a7578063982aaf6b146101c7578063a44ba4ef146101ee578063b2a2ee671461022b578063ee3ab3261461025657600080fd5b80631e459b98146100a357806322f888e7146100fa578063350a62b41461010f57806364eb31841461014a5780636a9009ae1461017f575b600080fd5b6100e56100b1366004610e7a565b6001600160a01b0391909116600090815260208181526040808320600885901c845290915290205460ff9091161c60011690565b60405190151581526020015b60405180910390f35b61010d610108366004610ea4565b610269565b005b61010d61011d366004610ed4565b336000908152602081815260408083206001600160f81b0390951683529390529190912080549091179055565b6101717f15d73fd3389658d5d3b3e32a847b53c30a229bdcd21f7078cde26cc4d0d3f1cc81565b6040519081526020016100f1565b61017161018d366004610ef0565b600060208181529281526040808220909352908152205481565b6101716101b5366004610f23565b60016020526000908152604090205481565b6101717f0eb37ebaa42bd9140c20b84947b8f4faa6c3bb28b233e2f3acd91fec0317fe2681565b61020a6101fc366004610ea4565b600881901c9160ff90911690565b604080516001600160f81b03909316835260ff9091166020830152016100f1565b61023e610239366004610fbb565b610290565b6040516001600160a01b0390911681526020016100f1565b61023e61026436600461109c565b6103dc565b336000908152600160205260408120805483929061028890849061117c565b909155505050565b600061029f8a85858989610531565b6102d38a8360016102ce8d6001600160a01b031660009081526001602081905260409091208054918201905590565b6106a3565b9050886001600160a01b0316816001600160a01b03161461030757604051638baa579f60e01b815260040160405180910390fd5b60005b6103148b8061118f565b90508110156103ce5760006103298c8061118f565b83818110610339576103396111d9565b90506080020180360381019061034f9190611205565b90506103bd816000015182602001518d8d8d87818110610371576103716111d9565b90506020020160208101906103869190610f23565b8c8c88818110610398576103986111d9565b905060200201358b8b898181106103b1576103b16111d9565b9050602002013561086e565b506103c78161128b565b905061030a565b509998505050505050505050565b60006103eb8a86868a8a610531565b6103f88a836000866106a3565b6001600160a01b038116600090815260208181526040808320600888901c845290915290205490915060ff84161c6001161561044757604051631f6d5aef60e01b815260040160405180910390fd5b6001600160a01b038116600090815260208181526040808320600887901c845290915281208054600160ff87161b1790555b6104838b8061118f565b90508110156103ce5760006104988c8061118f565b838181106104a8576104a86111d9565b9050608002018036038101906104be9190611205565b905061052081600001518260200151858e8e878181106104e0576104e06111d9565b90506020020160208101906104f59190610f23565b8d8d88818110610507576105076111d9565b905060200201358c8c898181106103b1576103b16111d9565b5061052a8161128b565b9050610479565b6105416040860160208701610f23565b6001600160a01b0316336001600160a01b0316146105725760405163e79dd39160e01b815260040160405180910390fd5b84604001354211156105975760405163387b2e5560e11b815260040160405180910390fd5b60005b6105a4868061118f565b9050811015610619576105b7868061118f565b828181106105c7576105c76111d9565b905060800201604001358585838181106105e3576105e36111d9565b9050602002013511156106095760405163162908e360e11b815260040160405180910390fd5b6106128161128b565b905061059a565b5060005b610627868061118f565b905081101561069b5761063a868061118f565b8281811061064a5761064a6111d9565b90506080020160600135838383818110610666576106666111d9565b905060200201351461068b57604051631bf4348160e31b815260040160405180910390fd5b6106948161128b565b905061061d565b505050505050565b6000806106b0868061118f565b905067ffffffffffffffff8111156106ca576106ca6111ef565b6040519080825280602002602001820160405280156106f3578160200160208202803683370190505b50905060005b610703878061118f565b905081101561077157610744610719888061118f565b83818110610729576107296111d9565b90506080020180360381019061073f9190611205565b6109c9565b828281518110610756576107566111d9565b602090810291909101015261076a8161128b565b90506106f9565b50600061080f7f0eb37ebaa42bd9140c20b84947b8f4faa6c3bb28b233e2f3acd91fec0317fe2686846040516020016107aa91906112a4565b604051602081830303815290604052805190602001208a60200160208101906107d39190610f23565b8b604001358c606001358a6040516020016107f497969594939291906112f0565b60405160208183030381529060405280519060200120610a1b565b905060006108338261082460208a018a611340565b89602001358a60400135610a6f565b90506001600160a01b03811661085c57604051638baa579f60e01b815260040160405180910390fd5b9250610866915050565b949350505050565b6000866002811115610882576108826112da565b036108a15761089c6001600160a01b038616858584610a97565b61069b565b60018660028111156108b5576108b56112da565b03610929576040516323b872dd60e01b81526001600160a01b0385811660048301528481166024830152604482018490528616906323b872dd90606401600060405180830381600087803b15801561090c57600080fd5b505af1158015610920573d6000803e3d6000fd5b5050505061069b565b600286600281111561093d5761093d6112da565b0361069b57604051637921219560e11b81526001600160a01b0385811660048301528481166024830152604482018490526064820183905260a06084830152600060a483015286169063f242432a9060c401600060405180830381600087803b1580156109a957600080fd5b505af11580156109bd573d6000803e3d6000fd5b50505050505050505050565b60007f15d73fd3389658d5d3b3e32a847b53c30a229bdcd21f7078cde26cc4d0d3f1cc826040516020016109fe929190611363565b604051602081830303815290604052805190602001209050919050565b6000610a69610a28610b26565b8360405161190160f01b6020820152602281018390526042810182905260009060620160405160208183030381529060405280519060200120905092915050565b92915050565b6000806000610a8087878787610c4d565b91509150610a8d81610d11565b5095945050505050565b60006040516323b872dd60e01b81528460048201528360248201528260448201526020600060648360008a5af13d15601f3d1160016000511416171691505080610b1f5760405162461bcd60e51b81526020600482015260146024820152731514905394d1915497d19493d357d1905253115160621b60448201526064015b60405180910390fd5b5050505050565b6000306001600160a01b037f000000000000000000000000000000000000000000000000000000000000000016148015610b7f57507f000000000000000000000000000000000000000000000000000000000000000046145b15610ba957507f000000000000000000000000000000000000000000000000000000000000000090565b50604080517f00000000000000000000000000000000000000000000000000000000000000006020808301919091527f0000000000000000000000000000000000000000000000000000000000000000828401527f000000000000000000000000000000000000000000000000000000000000000060608301524660808301523060a0808401919091528351808403909101815260c0909201909252805191012090565b6000807f7fffffffffffffffffffffffffffffff5d576e7357a4501ddfe92f46681b20a0831115610c845750600090506003610d08565b6040805160008082526020820180845289905260ff881692820192909252606081018690526080810185905260019060a0016020604051602081039080840390855afa158015610cd8573d6000803e3d6000fd5b5050604051601f1901519150506001600160a01b038116610d0157600060019250925050610d08565b9150600090505b94509492505050565b6000816004811115610d2557610d256112da565b03610d2d5750565b6001816004811115610d4157610d416112da565b03610d8e5760405162461bcd60e51b815260206004820152601860248201527f45434453413a20696e76616c6964207369676e617475726500000000000000006044820152606401610b16565b6002816004811115610da257610da26112da565b03610def5760405162461bcd60e51b815260206004820152601f60248201527f45434453413a20696e76616c6964207369676e6174757265206c656e677468006044820152606401610b16565b6003816004811115610e0357610e036112da565b03610e5b5760405162461bcd60e51b815260206004820152602260248201527f45434453413a20696e76616c6964207369676e6174757265202773272076616c604482015261756560f01b6064820152608401610b16565b50565b80356001600160a01b0381168114610e7557600080fd5b919050565b60008060408385031215610e8d57600080fd5b610e9683610e5e565b946020939093013593505050565b600060208284031215610eb657600080fd5b5035919050565b80356001600160f81b0381168114610e7557600080fd5b60008060408385031215610ee757600080fd5b610e9683610ebd565b60008060408385031215610f0357600080fd5b610f0c83610e5e565b9150610f1a60208401610ebd565b90509250929050565b600060208284031215610f3557600080fd5b610f3e82610e5e565b9392505050565b600060808284031215610f5757600080fd5b50919050565b60008083601f840112610f6f57600080fd5b50813567ffffffffffffffff811115610f8757600080fd5b6020830191508360208260051b8501011115610fa257600080fd5b9250929050565b600060608284031215610f5757600080fd5b60008060008060008060008060006101008a8c031215610fda57600080fd5b893567ffffffffffffffff80821115610ff257600080fd5b610ffe8d838e01610f45565b9a5061100c60208d01610e5e565b995060408c013591508082111561102257600080fd5b61102e8d838e01610f5d565b909950975060608c013591508082111561104757600080fd5b6110538d838e01610f5d565b909750955060808c013591508082111561106c57600080fd5b506110798c828d01610f5d565b909450925061108d90508b60a08c01610fa9565b90509295985092959850929598565b60008060008060008060008060006101008a8c0312156110bb57600080fd5b893567ffffffffffffffff808211156110d357600080fd5b6110df8d838e01610f45565b9a5060208c01359150808211156110f557600080fd5b6111018d838e01610f5d565b909a50985060408c013591508082111561111a57600080fd5b6111268d838e01610f5d565b909850965060608c013591508082111561113f57600080fd5b5061114c8c828d01610f5d565b90955093505060808a0135915061108d8b60a08c01610fa9565b634e487b7160e01b600052601160045260246000fd5b80820180821115610a6957610a69611166565b6000808335601e198436030181126111a657600080fd5b83018035915067ffffffffffffffff8211156111c157600080fd5b6020019150600781901b3603821315610fa257600080fd5b634e487b7160e01b600052603260045260246000fd5b634e487b7160e01b600052604160045260246000fd5b60006080828403121561121757600080fd5b6040516080810181811067ffffffffffffffff8211171561124857634e487b7160e01b600052604160045260246000fd5b60405282356003811061125a57600080fd5b815261126860208401610e5e565b602082015260408301356040820152606083013560608201528091505092915050565b60006001820161129d5761129d611166565b5060010190565b815160009082906020808601845b838110156112ce578151855293820193908201906001016112b2565b50929695505050505050565b634e487b7160e01b600052602160045260246000fd5b87815260e0810160028810611307576113076112da565b602082019790975260408101959095526001600160a01b03939093166060850152608084019190915260a083015260c090910152919050565b60006020828403121561135257600080fd5b813560ff81168114610f3e57600080fd5b828152815160a08201906003811061137d5761137d6112da565b8060208401525060018060a01b0360208401511660408301526040830151606083015260608301516080830152939250505056fea2646970667358221220dfadb7037e2b1b2d3bc226e5be5f77bbe297f8a9e479f1bb57169e8cbd915ed664736f6c63430008100033",
    "linkReferences": {}
  },
  "methodIdentifiers": {
    "_PERMIT_TYPEHASH()": "982aaf6b",
    "_TOKEN_DETAILS_TYPEHASH()": "64eb3184",
    "bitmapPositions(uint256)": "a44ba4ef",
    "invalidateNonces(uint256)": "22f888e7",
    "invalidateUnorderedNonces(uint248,uint256)": "350a62b4",
    "isUsedUnorderedNonce(address,uint256)": "1e459b98",
    "nonceBitmap(address,uint248)": "6a9009ae",
    "nonces(address)": "7ecebe00",
    "transferFrom(((uint8,address,uint256,uint256)[],address,uint256,bytes32),address,address[],uint256[],uint256[],(uint8,bytes32,bytes32))": "b2a2ee67",
    "unorderedTransferFrom(((uint8,address,uint256,uint256)[],address,uint256,bytes32),address[],uint256[],uint256[],uint256,(uint8,bytes32,bytes32))": "ee3ab326"
  },
  "id": 11
}