{
  "abi": [
    {
      "inputs": [],
      "stateMutability": "nonpayable",
      "type": "constructor"
    },
    {
      "inputs": [],
      "name": "DeadlinePassed",
      "type": "error"
    },
    {
      "inputs": [],
      "name": "InvalidAmount",
      "type": "error"
    },
    {
      "inputs": [],
      "name": "InvalidId",
      "type": "error"
    },
    {
      "inputs": [],
      "name": "InvalidSignature",
      "type": "error"
    },
    {
      "inputs": [],
      "name": "NonceUsed",
      "type": "error"
    },
    {
      "inputs": [],
      "name": "NotSpender",
      "type": "error"
    },
    {
      "inputs": [],
      "name": "_PERMIT_TYPEHASH",
      "outputs": [
        {
          "internalType": "bytes32",
          "name": "",
          "type": "bytes32"
        }
      ],
      "stateMutability": "view",
      "type": "function"
    },
    {
      "inputs": [],
      "name": "_TOKEN_DETAILS_TYPEHASH",
      "outputs": [
        {
          "internalType": "bytes32",
          "name": "",
          "type": "bytes32"
        }
      ],
      "stateMutability": "view",
      "type": "function"
    },
    {
      "inputs": [
        {
          "internalType": "uint256",
          "name": "nonce",
          "type": "uint256"
        }
      ],
      "name": "bitmapPositions",
      "outputs": [
        {
          "internalType": "uint248",
          "name": "wordPos",
          "type": "uint248"
        },
        {
          "internalType": "uint8",
          "name": "bitPos",
          "type": "uint8"
        }
      ],
      "stateMutability": "pure",
      "type": "function"
    },
    {
      "inputs": [
        {
          "internalType": "uint256",
          "name": "amount",
          "type": "uint256"
        }
      ],
      "name": "invalidateNonces",
      "outputs": [],
      "stateMutability": "nonpayable",
      "type": "function"
    },
    {
      "inputs": [
        {
          "internalType": "uint248",
          "name": "wordPos",
          "type": "uint248"
        },
        {
          "internalType": "uint256",
          "name": "mask",
          "type": "uint256"
        }
      ],
      "name": "invalidateUnorderedNonces",
      "outputs": [],
      "stateMutability": "nonpayable",
      "type": "function"
    },
    {
      "inputs": [
        {
          "internalType": "address",
          "name": "from",
          "type": "address"
        },
        {
          "internalType": "uint256",
          "name": "nonce",
          "type": "uint256"
        }
      ],
      "name": "isUsedUnorderedNonce",
      "outputs": [
        {
          "internalType": "bool",
          "name": "used",
          "type": "bool"
        }
      ],
      "stateMutability": "view",
      "type": "function"
    },
    {
      "inputs": [
        {
          "internalType": "address",
          "name": "",
          "type": "address"
        },
        {
          "internalType": "uint248",
          "name": "",
          "type": "uint248"
        }
      ],
      "name": "nonceBitmap",
      "outputs": [
        {
          "internalType": "uint256",
          "name": "",
          "type": "uint256"
        }
      ],
      "stateMutability": "view",
      "type": "function"
    },
    {
      "inputs": [
        {
          "internalType": "address",
          "name": "",
          "type": "address"
        }
      ],
      "name": "nonces",
      "outputs": [
        {
          "internalType": "uint256",
          "name": "",
          "type": "uint256"
        }
      ],
      "stateMutability": "view",
      "type": "function"
    },
    {
      "inputs": [
        {
          "components": [
            {
              "components": [
                {
                  "internalType": "enum TokenType",
                  "name": "tokenType",
                  "type": "uint8"
                },
                {
                  "internalType": "address",
                  "name": "token",
                  "type": "address"
                },
                {
                  "internalType": "uint256",
                  "name": "maxAmount",
                  "type": "uint256"
                },
                {
                  "internalType": "uint256",
                  "name": "id",
                  "type": "uint256"
                }
              ],
              "internalType": "struct TokenDetails[]",
              "name": "tokens",
              "type": "tuple[]"
            },
            {
              "internalType": "address",
              "name": "spender",
              "type": "address"
            },
            {
              "internalType": "uint256",
              "name": "deadline",
              "type": "uint256"
            },
            {
              "internalType": "bytes32",
              "name": "witness",
              "type": "bytes32"
            }
          ],
          "internalType": "struct Permit",
          "name": "permit",
          "type": "tuple"
        },
        {
          "internalType": "address",
          "name": "from",
          "type": "address"
        },
        {
          "internalType": "address[]",
          "name": "to",
          "type": "address[]"
        },
        {
          "internalType": "uint256[]",
          "name": "ids",
          "type": "uint256[]"
        },
        {
          "internalType": "uint256[]",
          "name": "amounts",
          "type": "uint256[]"
        },
        {
          "components": [
            {
              "internalType": "uint8",
              "name": "v",
              "type": "uint8"
            },
            {
              "internalType": "bytes32",
              "name": "r",
              "type": "bytes32"
            },
            {
              "internalType": "bytes32",
              "name": "s",
              "type": "bytes32"
            }
          ],
          "internalType": "struct Signature",
          "name": "sig",
          "type": "tuple"
        }
      ],
      "name": "transferFrom",
      "outputs": [],
      "stateMutability": "nonpayable",
      "type": "function"
    },
    {
      "inputs": [
        {
          "components": [
            {
              "components": [
                {
                  "internalType": "enum TokenType",
                  "name": "tokenType",
                  "type": "uint8"
                },
                {
                  "internalType": "address",
                  "name": "token",
                  "type": "address"
                },
                {
                  "internalType": "uint256",
                  "name": "maxAmount",
                  "type": "uint256"
                },
                {
                  "internalType": "uint256",
                  "name": "id",
                  "type": "uint256"
                }
              ],
              "internalType": "struct TokenDetails[]",
              "name": "tokens",
              "type": "tuple[]"
            },
            {
              "internalType": "address",
              "name": "spender",
              "type": "address"
            },
            {
              "internalType": "uint256",
              "name": "deadline",
              "type": "uint256"
            },
            {
              "internalType": "bytes32",
              "name": "witness",
              "type": "bytes32"
            }
          ],
          "internalType": "struct Permit",
          "name": "permit",
          "type": "tuple"
        },
        {
          "internalType": "address[]",
          "name": "to",
          "type": "address[]"
        },
        {
          "internalType": "uint256[]",
          "name": "ids",
          "type": "uint256[]"
        },
        {
          "internalType": "uint256[]",
          "name": "amounts",
          "type": "uint256[]"
        },
        {
          "internalType": "uint256",
          "name": "nonce",
          "type": "uint256"
        },
        {
          "components": [
            {
              "internalType": "uint8",
              "name": "v",
              "type": "uint8"
            },
            {
              "internalType": "bytes32",
              "name": "r",
              "type": "bytes32"
            },
            {
              "internalType": "bytes32",
              "name": "s",
              "type": "bytes32"
            }
          ],
          "internalType": "struct Signature",
          "name": "sig",
          "type": "tuple"
        }
      ],
      "name": "unorderedTransferFrom",
      "outputs": [],
      "stateMutability": "nonpayable",
      "type": "function"
    }
  ],
  "bytecode": {
    "object": "0x61014060405234801561001157600080fd5b50604080518082018252600a81526914195c9b5a5d141bdcdd60b21b6020808301918252835180850190945260018452603160f81b908401528151902060e08190527fc89efdaa54c0f20c7adf612882df0950f5a951637e0307cdcb4c672f298b8bc66101008190524660a0529192917f8b73c3c69bb8fe3d512ecc4cf759cc79239f7b179b0ffacaa9a75d522b39400f6100f18184846040805160208101859052908101839052606081018290524660808201523060a082015260009060c0016040516020818303038152906040528051906020012090509392505050565b6080523060c052610120525061010692505050565b60805160a05160c05160e05161010051610120516113ce6101556000396000610b9701526000610be601526000610bc101526000610b1a01526000610b4401526000610b6e01526113ce6000f3fe608060405234801561001057600080fd5b506004361061009e5760003560e01c80637ecebe00116100665780637ecebe00146101a7578063982aaf6b146101c7578063a44ba4ef146101ee578063b2a2ee671461022b578063ee3ab3261461023e57600080fd5b80631e459b98146100a357806322f888e7146100fa578063350a62b41461010f57806364eb31841461014a5780636a9009ae1461017f575b600080fd5b6100e56100b1366004610e61565b6001600160a01b0391909116600090815260208181526040808320600885901c845290915290205460ff9091161c60011690565b60405190151581526020015b60405180910390f35b61010d610108366004610e8b565b610251565b005b61010d61011d366004610ebb565b336000908152602081815260408083206001600160f81b0390951683529390529190912080549091179055565b6101717f15d73fd3389658d5d3b3e32a847b53c30a229bdcd21f7078cde26cc4d0d3f1cc81565b6040519081526020016100f1565b61017161018d366004610ed7565b600060208181529281526040808220909352908152205481565b6101716101b5366004610f0a565b60016020526000908152604090205481565b6101717f0eb37ebaa42bd9140c20b84947b8f4faa6c3bb28b233e2f3acd91fec0317fe2681565b61020a6101fc366004610e8b565b600881901c9160ff90911690565b604080516001600160f81b03909316835260ff9091166020830152016100f1565b61010d610239366004610fa2565b610278565b61010d61024c366004611083565b6103c3565b3360009081526001602052604081208054839290610270908490611163565b909155505050565b6102858984848888610518565b60006102bb8a8360016102b68d6001600160a01b031660009081526001602081905260409091208054918201905590565b61068a565b9050886001600160a01b0316816001600160a01b0316146102ef57604051638baa579f60e01b815260040160405180910390fd5b60005b6102fc8b80611176565b90508110156103b65760006103118c80611176565b83818110610321576103216111c0565b90506080020180360381019061033791906111ec565b90506103a5816000015182602001518d8d8d87818110610359576103596111c0565b905060200201602081019061036e9190610f0a565b8c8c88818110610380576103806111c0565b905060200201358b8b89818110610399576103996111c0565b90506020020135610855565b506103af81611272565b90506102f2565b5050505050505050505050565b6103d08985858989610518565b60006103df8a8360008661068a565b6001600160a01b038116600090815260208181526040808320600888901c845290915290205490915060ff84161c6001161561042e57604051631f6d5aef60e01b815260040160405180910390fd5b6001600160a01b038116600090815260208181526040808320600887901c845290915281208054600160ff87161b1790555b61046a8b80611176565b90508110156103b657600061047f8c80611176565b8381811061048f5761048f6111c0565b9050608002018036038101906104a591906111ec565b905061050781600001518260200151858e8e878181106104c7576104c76111c0565b90506020020160208101906104dc9190610f0a565b8d8d888181106104ee576104ee6111c0565b905060200201358c8c89818110610399576103996111c0565b5061051181611272565b9050610460565b6105286040860160208701610f0a565b6001600160a01b0316336001600160a01b0316146105595760405163e79dd39160e01b815260040160405180910390fd5b846040013542111561057e5760405163387b2e5560e11b815260040160405180910390fd5b60005b61058b8680611176565b90508110156106005761059e8680611176565b828181106105ae576105ae6111c0565b905060800201604001358585838181106105ca576105ca6111c0565b9050602002013511156105f05760405163162908e360e11b815260040160405180910390fd5b6105f981611272565b9050610581565b5060005b61060e8680611176565b9050811015610682576106218680611176565b82818110610631576106316111c0565b9050608002016060013583838381811061064d5761064d6111c0565b905060200201351461067257604051631bf4348160e31b815260040160405180910390fd5b61067b81611272565b9050610604565b505050505050565b6000806106978680611176565b905067ffffffffffffffff8111156106b1576106b16111d6565b6040519080825280602002602001820160405280156106da578160200160208202803683370190505b50905060005b6106ea8780611176565b90508110156107585761072b6107008880611176565b83818110610710576107106111c0565b90506080020180360381019061072691906111ec565b6109b0565b82828151811061073d5761073d6111c0565b602090810291909101015261075181611272565b90506106e0565b5060006107f67f0eb37ebaa42bd9140c20b84947b8f4faa6c3bb28b233e2f3acd91fec0317fe268684604051602001610791919061128b565b604051602081830303815290604052805190602001208a60200160208101906107ba9190610f0a565b8b604001358c606001358a6040516020016107db97969594939291906112d7565b60405160208183030381529060405280519060200120610a02565b9050600061081a8261080b60208a018a611327565b89602001358a60400135610a56565b90506001600160a01b03811661084357604051638baa579f60e01b815260040160405180910390fd5b925061084d915050565b949350505050565b6000866002811115610869576108696112c1565b03610888576108836001600160a01b038616858584610a7e565b610682565b600186600281111561089c5761089c6112c1565b03610910576040516323b872dd60e01b81526001600160a01b0385811660048301528481166024830152604482018490528616906323b872dd90606401600060405180830381600087803b1580156108f357600080fd5b505af1158015610907573d6000803e3d6000fd5b50505050610682565b6002866002811115610924576109246112c1565b0361068257604051637921219560e11b81526001600160a01b0385811660048301528481166024830152604482018490526064820183905260a06084830152600060a483015286169063f242432a9060c401600060405180830381600087803b15801561099057600080fd5b505af11580156109a4573d6000803e3d6000fd5b50505050505050505050565b60007f15d73fd3389658d5d3b3e32a847b53c30a229bdcd21f7078cde26cc4d0d3f1cc826040516020016109e592919061134a565b604051602081830303815290604052805190602001209050919050565b6000610a50610a0f610b0d565b8360405161190160f01b6020820152602281018390526042810182905260009060620160405160208183030381529060405280519060200120905092915050565b92915050565b6000806000610a6787878787610c34565b91509150610a7481610cf8565b5095945050505050565b60006040516323b872dd60e01b81528460048201528360248201528260448201526020600060648360008a5af13d15601f3d1160016000511416171691505080610b065760405162461bcd60e51b81526020600482015260146024820152731514905394d1915497d19493d357d1905253115160621b60448201526064015b60405180910390fd5b5050505050565b6000306001600160a01b037f000000000000000000000000000000000000000000000000000000000000000016148015610b6657507f000000000000000000000000000000000000000000000000000000000000000046145b15610b9057507f000000000000000000000000000000000000000000000000000000000000000090565b50604080517f00000000000000000000000000000000000000000000000000000000000000006020808301919091527f0000000000000000000000000000000000000000000000000000000000000000828401527f000000000000000000000000000000000000000000000000000000000000000060608301524660808301523060a0808401919091528351808403909101815260c0909201909252805191012090565b6000807f7fffffffffffffffffffffffffffffff5d576e7357a4501ddfe92f46681b20a0831115610c6b5750600090506003610cef565b6040805160008082526020820180845289905260ff881692820192909252606081018690526080810185905260019060a0016020604051602081039080840390855afa158015610cbf573d6000803e3d6000fd5b5050604051601f1901519150506001600160a01b038116610ce857600060019250925050610cef565b9150600090505b94509492505050565b6000816004811115610d0c57610d0c6112c1565b03610d145750565b6001816004811115610d2857610d286112c1565b03610d755760405162461bcd60e51b815260206004820152601860248201527f45434453413a20696e76616c6964207369676e617475726500000000000000006044820152606401610afd565b6002816004811115610d8957610d896112c1565b03610dd65760405162461bcd60e51b815260206004820152601f60248201527f45434453413a20696e76616c6964207369676e6174757265206c656e677468006044820152606401610afd565b6003816004811115610dea57610dea6112c1565b03610e425760405162461bcd60e51b815260206004820152602260248201527f45434453413a20696e76616c6964207369676e6174757265202773272076616c604482015261756560f01b6064820152608401610afd565b50565b80356001600160a01b0381168114610e5c57600080fd5b919050565b60008060408385031215610e7457600080fd5b610e7d83610e45565b946020939093013593505050565b600060208284031215610e9d57600080fd5b5035919050565b80356001600160f81b0381168114610e5c57600080fd5b60008060408385031215610ece57600080fd5b610e7d83610ea4565b60008060408385031215610eea57600080fd5b610ef383610e45565b9150610f0160208401610ea4565b90509250929050565b600060208284031215610f1c57600080fd5b610f2582610e45565b9392505050565b600060808284031215610f3e57600080fd5b50919050565b60008083601f840112610f5657600080fd5b50813567ffffffffffffffff811115610f6e57600080fd5b6020830191508360208260051b8501011115610f8957600080fd5b9250929050565b600060608284031215610f3e57600080fd5b60008060008060008060008060006101008a8c031215610fc157600080fd5b893567ffffffffffffffff80821115610fd957600080fd5b610fe58d838e01610f2c565b9a50610ff360208d01610e45565b995060408c013591508082111561100957600080fd5b6110158d838e01610f44565b909950975060608c013591508082111561102e57600080fd5b61103a8d838e01610f44565b909750955060808c013591508082111561105357600080fd5b506110608c828d01610f44565b909450925061107490508b60a08c01610f90565b90509295985092959850929598565b60008060008060008060008060006101008a8c0312156110a257600080fd5b893567ffffffffffffffff808211156110ba57600080fd5b6110c68d838e01610f2c565b9a5060208c01359150808211156110dc57600080fd5b6110e88d838e01610f44565b909a50985060408c013591508082111561110157600080fd5b61110d8d838e01610f44565b909850965060608c013591508082111561112657600080fd5b506111338c828d01610f44565b90955093505060808a013591506110748b60a08c01610f90565b634e487b7160e01b600052601160045260246000fd5b80820180821115610a5057610a5061114d565b6000808335601e1984360301811261118d57600080fd5b83018035915067ffffffffffffffff8211156111a857600080fd5b6020019150600781901b3603821315610f8957600080fd5b634e487b7160e01b600052603260045260246000fd5b634e487b7160e01b600052604160045260246000fd5b6000608082840312156111fe57600080fd5b6040516080810181811067ffffffffffffffff8211171561122f57634e487b7160e01b600052604160045260246000fd5b60405282356003811061124157600080fd5b815261124f60208401610e45565b602082015260408301356040820152606083013560608201528091505092915050565b6000600182016112845761128461114d565b5060010190565b815160009082906020808601845b838110156112b557815185529382019390820190600101611299565b50929695505050505050565b634e487b7160e01b600052602160045260246000fd5b87815260e08101600288106112ee576112ee6112c1565b602082019790975260408101959095526001600160a01b03939093166060850152608084019190915260a083015260c090910152919050565b60006020828403121561133957600080fd5b813560ff81168114610f2557600080fd5b828152815160a082019060038110611364576113646112c1565b8060208401525060018060a01b0360208401511660408301526040830151606083015260608301516080830152939250505056fea2646970667358221220c73380fe553c2742f9f7a900d083ac8df57285b022c85d7973d649a06209920364736f6c63430008100033",
    "linkReferences": {}
  },
  "methodIdentifiers": {
    "_PERMIT_TYPEHASH()": "982aaf6b",
    "_TOKEN_DETAILS_TYPEHASH()": "64eb3184",
    "bitmapPositions(uint256)": "a44ba4ef",
    "invalidateNonces(uint256)": "22f888e7",
    "invalidateUnorderedNonces(uint248,uint256)": "350a62b4",
    "isUsedUnorderedNonce(address,uint256)": "1e459b98",
    "nonceBitmap(address,uint248)": "6a9009ae",
    "nonces(address)": "7ecebe00",
    "transferFrom(((uint8,address,uint256,uint256)[],address,uint256,bytes32),address,address[],uint256[],uint256[],(uint8,bytes32,bytes32))": "b2a2ee67",
    "unorderedTransferFrom(((uint8,address,uint256,uint256)[],address,uint256,bytes32),address[],uint256[],uint256[],uint256,(uint8,bytes32,bytes32))": "ee3ab326"
  },
  "id": 9
}