{
  "abi": [
    {
      "inputs": [],
      "stateMutability": "nonpayable",
      "type": "constructor"
    },
    {
      "inputs": [],
      "name": "DeadlinePassed",
      "type": "error"
    },
    {
      "inputs": [],
      "name": "InvalidAmount",
      "type": "error"
    },
    {
      "inputs": [],
      "name": "InvalidId",
      "type": "error"
    },
    {
      "inputs": [],
      "name": "InvalidSignature",
      "type": "error"
    },
    {
      "inputs": [],
      "name": "NonceUsed",
      "type": "error"
    },
    {
      "inputs": [],
      "name": "NotSpender",
      "type": "error"
    },
    {
      "inputs": [],
      "name": "_PERMIT_TYPEHASH",
      "outputs": [
        {
          "internalType": "bytes32",
          "name": "",
          "type": "bytes32"
        }
      ],
      "stateMutability": "view",
      "type": "function"
    },
    {
      "inputs": [],
      "name": "_TOKEN_DETAILS_TYPEHASH",
      "outputs": [
        {
          "internalType": "bytes32",
          "name": "",
          "type": "bytes32"
        }
      ],
      "stateMutability": "view",
      "type": "function"
    },
    {
      "inputs": [
        {
          "internalType": "uint256",
          "name": "nonce",
          "type": "uint256"
        }
      ],
      "name": "bitmapPositions",
      "outputs": [
        {
          "internalType": "uint248",
          "name": "wordPos",
          "type": "uint248"
        },
        {
          "internalType": "uint8",
          "name": "bitPos",
          "type": "uint8"
        }
      ],
      "stateMutability": "pure",
      "type": "function"
    },
    {
      "inputs": [
        {
          "internalType": "address",
          "name": "from",
          "type": "address"
        },
        {
          "internalType": "uint256",
          "name": "nonce",
          "type": "uint256"
        }
      ],
      "name": "isUsedUnorderedNonce",
      "outputs": [
        {
          "internalType": "bool",
          "name": "used",
          "type": "bool"
        }
      ],
      "stateMutability": "view",
      "type": "function"
    },
    {
      "inputs": [
        {
          "internalType": "address",
          "name": "",
          "type": "address"
        },
        {
          "internalType": "uint248",
          "name": "",
          "type": "uint248"
        }
      ],
      "name": "nonceBitmap",
      "outputs": [
        {
          "internalType": "uint256",
          "name": "",
          "type": "uint256"
        }
      ],
      "stateMutability": "view",
      "type": "function"
    },
    {
      "inputs": [
        {
          "internalType": "address",
          "name": "",
          "type": "address"
        }
      ],
      "name": "nonces",
      "outputs": [
        {
          "internalType": "uint256",
          "name": "",
          "type": "uint256"
        }
      ],
      "stateMutability": "view",
      "type": "function"
    },
    {
      "inputs": [
        {
          "components": [
            {
              "components": [
                {
                  "internalType": "enum TokenType",
                  "name": "tokenType",
                  "type": "uint8"
                },
                {
                  "internalType": "address",
                  "name": "token",
                  "type": "address"
                },
                {
                  "internalType": "uint256",
                  "name": "maxAmount",
                  "type": "uint256"
                },
                {
                  "internalType": "uint256",
                  "name": "id",
                  "type": "uint256"
                }
              ],
              "internalType": "struct TokenDetails[]",
              "name": "tokens",
              "type": "tuple[]"
            },
            {
              "internalType": "address",
              "name": "spender",
              "type": "address"
            },
            {
              "internalType": "uint256",
              "name": "deadline",
              "type": "uint256"
            },
            {
              "internalType": "bytes32",
              "name": "witness",
              "type": "bytes32"
            }
          ],
          "internalType": "struct Permit",
          "name": "permit",
          "type": "tuple"
        },
        {
          "internalType": "address",
          "name": "from",
          "type": "address"
        },
        {
          "internalType": "address[]",
          "name": "to",
          "type": "address[]"
        },
        {
          "internalType": "uint256[]",
          "name": "ids",
          "type": "uint256[]"
        },
        {
          "internalType": "uint256[]",
          "name": "amounts",
          "type": "uint256[]"
        },
        {
          "components": [
            {
              "internalType": "uint8",
              "name": "v",
              "type": "uint8"
            },
            {
              "internalType": "bytes32",
              "name": "r",
              "type": "bytes32"
            },
            {
              "internalType": "bytes32",
              "name": "s",
              "type": "bytes32"
            }
          ],
          "internalType": "struct Signature",
          "name": "sig",
          "type": "tuple"
        }
      ],
      "name": "transferFrom",
      "outputs": [],
      "stateMutability": "nonpayable",
      "type": "function"
    },
    {
      "inputs": [
        {
          "components": [
            {
              "components": [
                {
                  "internalType": "enum TokenType",
                  "name": "tokenType",
                  "type": "uint8"
                },
                {
                  "internalType": "address",
                  "name": "token",
                  "type": "address"
                },
                {
                  "internalType": "uint256",
                  "name": "maxAmount",
                  "type": "uint256"
                },
                {
                  "internalType": "uint256",
                  "name": "id",
                  "type": "uint256"
                }
              ],
              "internalType": "struct TokenDetails[]",
              "name": "tokens",
              "type": "tuple[]"
            },
            {
              "internalType": "address",
              "name": "spender",
              "type": "address"
            },
            {
              "internalType": "uint256",
              "name": "deadline",
              "type": "uint256"
            },
            {
              "internalType": "bytes32",
              "name": "witness",
              "type": "bytes32"
            }
          ],
          "internalType": "struct Permit",
          "name": "permit",
          "type": "tuple"
        },
        {
          "internalType": "address[]",
          "name": "to",
          "type": "address[]"
        },
        {
          "internalType": "uint256[]",
          "name": "ids",
          "type": "uint256[]"
        },
        {
          "internalType": "uint256[]",
          "name": "amounts",
          "type": "uint256[]"
        },
        {
          "internalType": "uint256",
          "name": "nonce",
          "type": "uint256"
        },
        {
          "components": [
            {
              "internalType": "uint8",
              "name": "v",
              "type": "uint8"
            },
            {
              "internalType": "bytes32",
              "name": "r",
              "type": "bytes32"
            },
            {
              "internalType": "bytes32",
              "name": "s",
              "type": "bytes32"
            }
          ],
          "internalType": "struct Signature",
          "name": "sig",
          "type": "tuple"
        }
      ],
      "name": "unorderedTransferFrom",
      "outputs": [],
      "stateMutability": "nonpayable",
      "type": "function"
    }
  ],
  "bytecode": {
    "object": "0x61014060405234801561001157600080fd5b50604080518082018252600a81526914195c9b5a5d141bdcdd60b21b6020808301918252835180850190945260018452603160f81b908401528151902060e08190527fc89efdaa54c0f20c7adf612882df0950f5a951637e0307cdcb4c672f298b8bc66101008190524660a0529192917f8b73c3c69bb8fe3d512ecc4cf759cc79239f7b179b0ffacaa9a75d522b39400f6100f18184846040805160208101859052908101839052606081018290524660808201523060a082015260009060c0016040516020818303038152906040528051906020012090509392505050565b6080523060c052610120525061010692505050565b60805160a05160c05160e051610100516101205161139a6101556000396000610b0c01526000610b5b01526000610b3601526000610a8f01526000610ab901526000610ae3015261139a6000f3fe608060405234801561001057600080fd5b50600436106100885760003560e01c8063982aaf6b1161005b578063982aaf6b14610161578063a44ba4ef14610188578063b2a2ee67146101c5578063ee3ab326146101da57600080fd5b80631e459b981461008d57806364eb3184146100e45780636a9009ae146101195780637ecebe0014610141575b600080fd5b6100cf61009b366004610e6b565b6001600160a01b0391909116600090815260208181526040808320600885901c845290915290205460ff9091161c60011690565b60405190151581526020015b60405180910390f35b61010b7f15d73fd3389658d5d3b3e32a847b53c30a229bdcd21f7078cde26cc4d0d3f1cc81565b6040519081526020016100db565b61010b610127366004610e95565b600060208181529281526040808220909352908152205481565b61010b61014f366004610ed8565b60016020526000908152604090205481565b61010b7f0eb37ebaa42bd9140c20b84947b8f4faa6c3bb28b233e2f3acd91fec0317fe2681565b6101a4610196366004610efa565b600881901c9160ff90911690565b604080516001600160f81b03909316835260ff9091166020830152016100db565b6101d86101d3366004610f89565b6101ed565b005b6101d86101e836600461106a565b610338565b6101fa898484888861048d565b60006102308a83600161022b8d6001600160a01b031660009081526001602081905260409091208054918201905590565b6105ff565b9050886001600160a01b0316816001600160a01b03161461026457604051638baa579f60e01b815260040160405180910390fd5b60005b6102718b80611134565b905081101561032b5760006102868c80611134565b838181106102965761029661117e565b9050608002018036038101906102ac91906111aa565b905061031a816000015182602001518d8d8d878181106102ce576102ce61117e565b90506020020160208101906102e39190610ed8565b8c8c888181106102f5576102f561117e565b905060200201358b8b8981811061030e5761030e61117e565b905060200201356107ca565b5061032481611230565b9050610267565b5050505050505050505050565b610345898585898961048d565b60006103548a836000866105ff565b6001600160a01b038116600090815260208181526040808320600888901c845290915290205490915060ff84161c600116156103a357604051631f6d5aef60e01b815260040160405180910390fd5b6001600160a01b038116600090815260208181526040808320600887901c845290915281208054600160ff87161b1790555b6103df8b80611134565b905081101561032b5760006103f48c80611134565b838181106104045761040461117e565b90506080020180360381019061041a91906111aa565b905061047c81600001518260200151858e8e8781811061043c5761043c61117e565b90506020020160208101906104519190610ed8565b8d8d888181106104635761046361117e565b905060200201358c8c8981811061030e5761030e61117e565b5061048681611230565b90506103d5565b61049d6040860160208701610ed8565b6001600160a01b0316336001600160a01b0316146104ce5760405163e79dd39160e01b815260040160405180910390fd5b84604001354211156104f35760405163387b2e5560e11b815260040160405180910390fd5b60005b6105008680611134565b9050811015610575576105138680611134565b828181106105235761052361117e565b9050608002016040013585858381811061053f5761053f61117e565b9050602002013511156105655760405163162908e360e11b815260040160405180910390fd5b61056e81611230565b90506104f6565b5060005b6105838680611134565b90508110156105f7576105968680611134565b828181106105a6576105a661117e565b905060800201606001358383838181106105c2576105c261117e565b90506020020135146105e757604051631bf4348160e31b815260040160405180910390fd5b6105f081611230565b9050610579565b505050505050565b60008061060c8680611134565b905067ffffffffffffffff81111561062657610626611194565b60405190808252806020026020018201604052801561064f578160200160208202803683370190505b50905060005b61065f8780611134565b90508110156106cd576106a06106758880611134565b838181106106855761068561117e565b90506080020180360381019061069b91906111aa565b610925565b8282815181106106b2576106b261117e565b60209081029190910101526106c681611230565b9050610655565b50600061076b7f0eb37ebaa42bd9140c20b84947b8f4faa6c3bb28b233e2f3acd91fec0317fe2686846040516020016107069190611257565b604051602081830303815290604052805190602001208a602001602081019061072f9190610ed8565b8b604001358c606001358a60405160200161075097969594939291906112a3565b60405160208183030381529060405280519060200120610977565b9050600061078f8261078060208a018a6112f3565b89602001358a604001356109cb565b90506001600160a01b0381166107b857604051638baa579f60e01b815260040160405180910390fd5b92506107c2915050565b949350505050565b60008660028111156107de576107de61128d565b036107fd576107f86001600160a01b0386168585846109f3565b6105f7565b60018660028111156108115761081161128d565b03610885576040516323b872dd60e01b81526001600160a01b0385811660048301528481166024830152604482018490528616906323b872dd90606401600060405180830381600087803b15801561086857600080fd5b505af115801561087c573d6000803e3d6000fd5b505050506105f7565b60028660028111156108995761089961128d565b036105f757604051637921219560e11b81526001600160a01b0385811660048301528481166024830152604482018490526064820183905260a06084830152600060a483015286169063f242432a9060c401600060405180830381600087803b15801561090557600080fd5b505af1158015610919573d6000803e3d6000fd5b50505050505050505050565b60007f15d73fd3389658d5d3b3e32a847b53c30a229bdcd21f7078cde26cc4d0d3f1cc8260405160200161095a929190611316565b604051602081830303815290604052805190602001209050919050565b60006109c5610984610a82565b8360405161190160f01b6020820152602281018390526042810182905260009060620160405160208183030381529060405280519060200120905092915050565b92915050565b60008060006109dc87878787610ba9565b915091506109e981610c96565b5095945050505050565b60006040516323b872dd60e01b81528460048201528360248201528260448201526020600060648360008a5af13d15601f3d1160016000511416171691505080610a7b5760405162461bcd60e51b81526020600482015260146024820152731514905394d1915497d19493d357d1905253115160621b60448201526064015b60405180910390fd5b5050505050565b6000306001600160a01b037f000000000000000000000000000000000000000000000000000000000000000016148015610adb57507f000000000000000000000000000000000000000000000000000000000000000046145b15610b0557507f000000000000000000000000000000000000000000000000000000000000000090565b50604080517f00000000000000000000000000000000000000000000000000000000000000006020808301919091527f0000000000000000000000000000000000000000000000000000000000000000828401527f000000000000000000000000000000000000000000000000000000000000000060608301524660808301523060a0808401919091528351808403909101815260c0909201909252805191012090565b6000807f7fffffffffffffffffffffffffffffff5d576e7357a4501ddfe92f46681b20a0831115610be05750600090506003610c8d565b8460ff16601b14158015610bf857508460ff16601c14155b15610c095750600090506004610c8d565b6040805160008082526020820180845289905260ff881692820192909252606081018690526080810185905260019060a0016020604051602081039080840390855afa158015610c5d573d6000803e3d6000fd5b5050604051601f1901519150506001600160a01b038116610c8657600060019250925050610c8d565b9150600090505b94509492505050565b6000816004811115610caa57610caa61128d565b03610cb25750565b6001816004811115610cc657610cc661128d565b03610d135760405162461bcd60e51b815260206004820152601860248201527f45434453413a20696e76616c6964207369676e617475726500000000000000006044820152606401610a72565b6002816004811115610d2757610d2761128d565b03610d745760405162461bcd60e51b815260206004820152601f60248201527f45434453413a20696e76616c6964207369676e6174757265206c656e677468006044820152606401610a72565b6003816004811115610d8857610d8861128d565b03610de05760405162461bcd60e51b815260206004820152602260248201527f45434453413a20696e76616c6964207369676e6174757265202773272076616c604482015261756560f01b6064820152608401610a72565b6004816004811115610df457610df461128d565b03610e4c5760405162461bcd60e51b815260206004820152602260248201527f45434453413a20696e76616c6964207369676e6174757265202776272076616c604482015261756560f01b6064820152608401610a72565b50565b80356001600160a01b0381168114610e6657600080fd5b919050565b60008060408385031215610e7e57600080fd5b610e8783610e4f565b946020939093013593505050565b60008060408385031215610ea857600080fd5b610eb183610e4f565b915060208301356001600160f81b0381168114610ecd57600080fd5b809150509250929050565b600060208284031215610eea57600080fd5b610ef382610e4f565b9392505050565b600060208284031215610f0c57600080fd5b5035919050565b600060808284031215610f2557600080fd5b50919050565b60008083601f840112610f3d57600080fd5b50813567ffffffffffffffff811115610f5557600080fd5b6020830191508360208260051b8501011115610f7057600080fd5b9250929050565b600060608284031215610f2557600080fd5b60008060008060008060008060006101008a8c031215610fa857600080fd5b893567ffffffffffffffff80821115610fc057600080fd5b610fcc8d838e01610f13565b9a50610fda60208d01610e4f565b995060408c0135915080821115610ff057600080fd5b610ffc8d838e01610f2b565b909950975060608c013591508082111561101557600080fd5b6110218d838e01610f2b565b909750955060808c013591508082111561103a57600080fd5b506110478c828d01610f2b565b909450925061105b90508b60a08c01610f77565b90509295985092959850929598565b60008060008060008060008060006101008a8c03121561108957600080fd5b893567ffffffffffffffff808211156110a157600080fd5b6110ad8d838e01610f13565b9a5060208c01359150808211156110c357600080fd5b6110cf8d838e01610f2b565b909a50985060408c01359150808211156110e857600080fd5b6110f48d838e01610f2b565b909850965060608c013591508082111561110d57600080fd5b5061111a8c828d01610f2b565b90955093505060808a0135915061105b8b60a08c01610f77565b6000808335601e1984360301811261114b57600080fd5b83018035915067ffffffffffffffff82111561116657600080fd5b6020019150600781901b3603821315610f7057600080fd5b634e487b7160e01b600052603260045260246000fd5b634e487b7160e01b600052604160045260246000fd5b6000608082840312156111bc57600080fd5b6040516080810181811067ffffffffffffffff821117156111ed57634e487b7160e01b600052604160045260246000fd5b6040528235600381106111ff57600080fd5b815261120d60208401610e4f565b602082015260408301356040820152606083013560608201528091505092915050565b60006001820161125057634e487b7160e01b600052601160045260246000fd5b5060010190565b815160009082906020808601845b8381101561128157815185529382019390820190600101611265565b50929695505050505050565b634e487b7160e01b600052602160045260246000fd5b87815260e08101600288106112ba576112ba61128d565b602082019790975260408101959095526001600160a01b03939093166060850152608084019190915260a083015260c090910152919050565b60006020828403121561130557600080fd5b813560ff81168114610ef357600080fd5b828152815160a0820190600381106113305761133061128d565b8060208401525060018060a01b0360208401511660408301526040830151606083015260608301516080830152939250505056fea264697066735822122097ec264fcaf21fbfa20028eef13664e1afb021abb582e2ef802b5d5610f3b5bc64736f6c63430008100033",
    "linkReferences": {}
  },
  "methodIdentifiers": {
    "_PERMIT_TYPEHASH()": "982aaf6b",
    "_TOKEN_DETAILS_TYPEHASH()": "64eb3184",
    "bitmapPositions(uint256)": "a44ba4ef",
    "isUsedUnorderedNonce(address,uint256)": "1e459b98",
    "nonceBitmap(address,uint248)": "6a9009ae",
    "nonces(address)": "7ecebe00",
    "transferFrom(((uint8,address,uint256,uint256)[],address,uint256,bytes32),address,address[],uint256[],uint256[],(uint8,bytes32,bytes32))": "b2a2ee67",
    "unorderedTransferFrom(((uint8,address,uint256,uint256)[],address,uint256,bytes32),address[],uint256[],uint256[],uint256,(uint8,bytes32,bytes32))": "ee3ab326"
  },
  "id": 8
}