{
    "abi": [
        {
            "type": "constructor",
            "inputs": [
                {
                    "name": "_universalRouter",
                    "type": "address",
                    "internalType": "address"
                }
            ],
            "stateMutability": "nonpayable"
        },
        {
            "type": "function",
            "name": "PERMIT2",
            "inputs": [],
            "outputs": [
                {
                    "name": "",
                    "type": "address",
                    "internalType": "contract IPermit2"
                }
            ],
            "stateMutability": "view"
        },
        {
            "type": "function",
            "name": "execute",
            "inputs": [
                {
                    "name": "signedOrder",
                    "type": "tuple",
                    "internalType": "struct SignedOrder",
                    "components": [
                        {
                            "name": "order",
                            "type": "bytes",
                            "internalType": "bytes"
                        },
                        {
                            "name": "sig",
                            "type": "bytes",
                            "internalType": "bytes"
                        }
                    ]
                }
            ],
            "outputs": [],
            "stateMutability": "nonpayable"
        },
        {
            "type": "function",
            "name": "execute",
            "inputs": [
                {
                    "name": "signedOrder",
                    "type": "tuple",
                    "internalType": "struct SignedOrder",
                    "components": [
                        {
                            "name": "order",
                            "type": "bytes",
                            "internalType": "bytes"
                        },
                        {
                            "name": "sig",
                            "type": "bytes",
                            "internalType": "bytes"
                        }
                    ]
                },
                {
                    "name": "feeRecipient",
                    "type": "address",
                    "internalType": "address"
                }
            ],
            "outputs": [],
            "stateMutability": "nonpayable"
        },
        {
            "type": "function",
            "name": "multicall",
            "inputs": [
                {
                    "name": "data",
                    "type": "bytes[]",
                    "internalType": "bytes[]"
                }
            ],
            "outputs": [
                {
                    "name": "results",
                    "type": "bytes[]",
                    "internalType": "bytes[]"
                }
            ],
            "stateMutability": "nonpayable"
        },
        {
            "type": "function",
            "name": "permit",
            "inputs": [
                {
                    "name": "token",
                    "type": "address",
                    "internalType": "contract ERC20"
                },
                {
                    "name": "owner",
                    "type": "address",
                    "internalType": "address"
                },
                {
                    "name": "spender",
                    "type": "address",
                    "internalType": "address"
                },
                {
                    "name": "amount",
                    "type": "uint256",
                    "internalType": "uint256"
                },
                {
                    "name": "deadline",
                    "type": "uint256",
                    "internalType": "uint256"
                },
                {
                    "name": "v",
                    "type": "uint8",
                    "internalType": "uint8"
                },
                {
                    "name": "r",
                    "type": "bytes32",
                    "internalType": "bytes32"
                },
                {
                    "name": "s",
                    "type": "bytes32",
                    "internalType": "bytes32"
                }
            ],
            "outputs": [],
            "stateMutability": "nonpayable"
        },
        {
            "type": "function",
            "name": "universalRouter",
            "inputs": [],
            "outputs": [
                {
                    "name": "",
                    "type": "address",
                    "internalType": "address"
                }
            ],
            "stateMutability": "view"
        },
        {
            "type": "event",
            "name": "Fill",
            "inputs": [
                {
                    "name": "orderHash",
                    "type": "bytes32",
                    "indexed": true,
                    "internalType": "bytes32"
                },
                {
                    "name": "filler",
                    "type": "address",
                    "indexed": true,
                    "internalType": "address"
                },
                {
                    "name": "swapper",
                    "type": "address",
                    "indexed": true,
                    "internalType": "address"
                },
                {
                    "name": "nonce",
                    "type": "uint256",
                    "indexed": false,
                    "internalType": "uint256"
                }
            ],
            "anonymous": false
        },
        {
            "type": "error",
            "name": "DeadlineBeforeEndTime",
            "inputs": []
        },
        {
            "type": "error",
            "name": "DeadlinePassed",
            "inputs": []
        },
        {
            "type": "error",
            "name": "EndTimeBeforeStartTime",
            "inputs": []
        },
        {
            "type": "error",
            "name": "InvalidAmounts",
            "inputs": []
        },
        {
            "type": "error",
            "name": "InvalidReactor",
            "inputs": []
        },
        {
            "type": "error",
            "name": "UnsafeCast",
            "inputs": []
        }
    ],
    "bytecode": {
        "object": "0x60a060405234801561001057600080fd5b506040516200245a3803806200245a83398101604081905261003191610042565b6001600160a01b0316608052610072565b60006020828403121561005457600080fd5b81516001600160a01b038116811461006b57600080fd5b9392505050565b6080516123c66200009460003960008181607c01526102f701526123c66000f3fe608060405234801561001057600080fd5b50600436106100725760003560e01c8063ac9650d811610050578063ac9650d8146100f3578063d339056d14610113578063e956bbdf1461012657600080fd5b806335a9e4df146100775780633f62192e146100c85780636afdd850146100dd575b600080fd5b61009e7f000000000000000000000000000000000000000000000000000000000000000081565b60405173ffffffffffffffffffffffffffffffffffffffff90911681526020015b60405180910390f35b6100db6100d636600461198a565b610139565b005b61009e6e22d473030f116ddee9f6b43ac78ba381565b6101066101013660046119bf565b610146565b6040516100bf9190611aa2565b6100db610121366004611b46565b610259565b6100db610134366004611bcf565b610289565b6101438133610289565b50565b60608167ffffffffffffffff81111561016157610161611c21565b60405190808252806020026020018201604052801561019457816020015b606081526020019060019003908161017f5790505b50905060005b8281101561025257600080308686858181106101b8576101b8611c50565b90506020028101906101ca9190611c7f565b6040516101d8929190611ceb565b600060405180830381855af49150503d8060008114610213576040519150601f19603f3d011682016040523d82523d6000602084013e610218565b606091505b50915091508161022a57805160208201fd5b8084848151811061023d5761023d611c50565b6020908102919091010152505060010161019a565b5092915050565b61027f73ffffffffffffffffffffffffffffffffffffffff8916888888888888886103f4565b5050505050505050565b60006102958380611c7f565b8101906102a29190611eb5565b90506102ad81610731565b60006102b8826107c9565b90506102e7816e22d473030f116ddee9f6b43ac78ba3856102dc6020890189611c7f565b879493929190610b9d565b60608201515115610395576000807f000000000000000000000000000000000000000000000000000000000000000073ffffffffffffffffffffffffffffffffffffffff16846060015160405161033e9190611fa2565b6000604051808303816000865af19150503d806000811461037b576040519150601f19603f3d011682016040523d82523d6000602084013e610380565b606091505b50915091508161039257805160208201fd5b50505b8151602080820151604092830151925192835273ffffffffffffffffffffffffffffffffffffffff1691339184917f78ad7ec0e9f89e74012afa58738b6b661c024cb0fd185ee2f616c0a28924bd66910160405180910390a450505050565b6040805160048152602481019091526020810180517bffffffffffffffffffffffffffffffffffffffffffffffffffffffff167f3644e5150000000000000000000000000000000000000000000000000000000017905260008073ffffffffffffffffffffffffffffffffffffffff8b1673c02aaa39b223fe8d0a0e5c4f27ead9083c756cc2146104a157602060008451602086018e611388fa60203d1460005115151616915060005190505b811561070f577fdbb8cf42e1ecb028be3f3dbc922e1d878b963f411dc388ced501601c60f7c6f781146105995760405173ffffffffffffffffffffffffffffffffffffffff808c1660248301528a166044820152606481018990526084810188905260ff871660a482015260c4810186905260e4810185905261010401604080517fffffffffffffffffffffffffffffffffffffffffffffffffffffffffffffffe08184030181529190526020810180517bffffffffffffffffffffffffffffffffffffffffffffffffffffffff167fd505accf000000000000000000000000000000000000000000000000000000001790526106fc565b6040517f7ecebe0000000000000000000000000000000000000000000000000000000000815273ffffffffffffffffffffffffffffffffffffffff808c1660048301528b918b918e1690637ecebe0090602401602060405180830381865afa158015610609573d6000803e3d6000fd5b505050506040513d601f19601f8201168201806040525081019061062d9190611fbe565b60405173ffffffffffffffffffffffffffffffffffffffff9384166024820152929091166044830152606482015260848101889052600160a482015260ff871660c482015260e48101869052610104810185905261012401604080517fffffffffffffffffffffffffffffffffffffffffffffffffffffffffffffffe08184030181529190526020810180517bffffffffffffffffffffffffffffffffffffffffffffffffffffffff167f8fcbaf0c000000000000000000000000000000000000000000000000000000001790525b925060008084516020860160008f5af191505b81610724576107248b8b8b8b8b8b8b8b611010565b5050505050505050505050565b6040810151608001518151606001511015610778576040517f773a618700000000000000000000000000000000000000000000000000000000815260040160405180910390fd5b80515173ffffffffffffffffffffffffffffffffffffffff163014610143576040517f4ddf4a6400000000000000000000000000000000000000000000000000000000815260040160405180910390fd5b604080517f52656c61794f726465722800000000000000000000000000000000000000000060208201527f4f72646572496e666f20696e666f2c0000000000000000000000000000000000602b8201527f496e70757420696e7075742c0000000000000000000000000000000000000000603a8201527f466565457363616c61746f72206665652c00000000000000000000000000000060468201527f627974657320756e6976657273616c526f7574657243616c6c646174612900006057820152815160558183030181526075820183527f466565457363616c61746f72280000000000000000000000000000000000000060958301527f6164647265737320746f6b656e2c00000000000000000000000000000000000060a283018190527f75696e74323536207374617274416d6f756e742c00000000000000000000000060b08401527f75696e7432353620656e64416d6f756e742c000000000000000000000000000060c48401527f75696e7432353620737461727454696d652c000000000000000000000000000060d68401527f75696e7432353620656e6454696d65290000000000000000000000000000000060e8840152835160d881850301815260f8840185527f496e70757428000000000000000000000000000000000000000000000000000061011885015261011e8401919091527f75696e7432353620616d6f756e742c000000000000000000000000000000000061012c8401527f6164647265737320726563697069656e7429000000000000000000000000000061013b840152835161012d81850301815261014d840185527f4f72646572496e666f280000000000000000000000000000000000000000000061016d8501527f616464726573732072656163746f722c000000000000000000000000000000006101778501527f6164647265737320737761707065722c000000000000000000000000000000006101878501527f75696e74323536206e6f6e63652c0000000000000000000000000000000000006101978501527f75696e7432353620646561646c696e65290000000000000000000000000000006101a585015284516101968186030181526101b68501909552600094610b07946101d601611fd7565b60405160208183030381529060405280519060200120610b2a8360000151611213565b610b378460200151611360565b610b44856040015161147a565b60608601518051602091820120604051610b80969594939201948552602085019390935260408401919091526060830152608082015260a00190565b604051602081830303815290604052805190602001209050919050565b6000610ba8876115f9565b90506000610bb688866116ff565b90508573ffffffffffffffffffffffffffffffffffffffff1663fe8ec1a760405180606001604052808581526020018b600001516040015181526020018b6000015160600151815250838b60000151602001518b604051602001610cfb907f466565457363616c61746f72280000000000000000000000000000000000000081527f6164647265737320746f6b656e2c000000000000000000000000000000000000600d8201527f75696e74323536207374617274416d6f756e742c000000000000000000000000601b8201527f75696e7432353620656e64416d6f756e742c0000000000000000000000000000602f8201527f75696e7432353620737461727454696d652c000000000000000000000000000060418201527f75696e7432353620656e6454696d652900000000000000000000000000000000605382015260630190565b604080518083037fffffffffffffffffffffffffffffffffffffffffffffffffffffffffffffffe00181528282527f496e70757428000000000000000000000000000000000000000000000000000060208401527f6164647265737320746f6b656e2c00000000000000000000000000000000000060268401527f75696e7432353620616d6f756e742c000000000000000000000000000000000060348401527f6164647265737320726563697069656e742900000000000000000000000000006043840152815160358185030181526055840183527f4f72646572496e666f280000000000000000000000000000000000000000000060758501527f616464726573732072656163746f722c00000000000000000000000000000000607f8501527f6164647265737320737761707065722c00000000000000000000000000000000608f8501527f75696e74323536206e6f6e63652c000000000000000000000000000000000000609f8501527f75696e7432353620646561646c696e652900000000000000000000000000000060ad8501528251609e81860301815260be850184527f52656c61794f726465722800000000000000000000000000000000000000000060de8601527f4f72646572496e666f20696e666f2c000000000000000000000000000000000060e98601527f496e70757420696e7075742c000000000000000000000000000000000000000060f88601527f466565457363616c61746f72206665652c0000000000000000000000000000006101048601527f627974657320756e6976657273616c526f7574657243616c6c6461746129000061011586015283516101138187030181526101938601909452602e61013386018181529395929491939192612363906101530139604051602001610fa195949392919061202e565b6040516020818303038152906040528a8a6040518863ffffffff1660e01b8152600401610fd49796959493929190612178565b600060405180830381600087803b158015610fee57600080fd5b505af1158015611002573d6000803e3d6000fd5b505050505050505050505050565b6040517f927da10500000000000000000000000000000000000000000000000000000000815273ffffffffffffffffffffffffffffffffffffffff8089166004830152808a166024830152871660448201526000906e22d473030f116ddee9f6b43ac78ba39063927da10590606401606060405180830381865afa15801561109c573d6000803e3d6000fd5b505050506040513d601f19601f820116820180604052508101906110c09190612291565b925050506e22d473030f116ddee9f6b43ac78ba373ffffffffffffffffffffffffffffffffffffffff16632b67b57089604051806060016040528060405180608001604052808f73ffffffffffffffffffffffffffffffffffffffff16815260200161112b8d6117ca565b73ffffffffffffffffffffffffffffffffffffffff908116825265ffffffffffff6020808401829052908a166040938401529284528e16838301529182018b905281519081018990529081018790527fff0000000000000000000000000000000000000000000000000000000000000060f88a901b1660608201526061016040516020818303038152906040526040518463ffffffff1660e01b81526004016111d6939291906122d6565b600060405180830381600087803b1580156111f057600080fd5b505af1158015611204573d6000803e3d6000fd5b50505050505050505050505050565b6040517f4f72646572496e666f280000000000000000000000000000000000000000000060208201527f616464726573732072656163746f722c00000000000000000000000000000000602a8201527f6164647265737320737761707065722c00000000000000000000000000000000603a8201527f75696e74323536206e6f6e63652c000000000000000000000000000000000000604a8201527f75696e7432353620646561646c696e65290000000000000000000000000000006058820152600090606901604080517fffffffffffffffffffffffffffffffffffffffffffffffffffffffffffffffe08184030181528282528051602091820120855186830151878501516060808a01519588019490945273ffffffffffffffffffffffffffffffffffffffff928316958701959095521690840152608083019190915260a082015260c001610b80565b6040517f496e70757428000000000000000000000000000000000000000000000000000060208201527f6164647265737320746f6b656e2c00000000000000000000000000000000000060268201527f75696e7432353620616d6f756e742c000000000000000000000000000000000060348201527f6164647265737320726563697069656e742900000000000000000000000000006043820152600090605501604080517fffffffffffffffffffffffffffffffffffffffffffffffffffffffffffffffe08184030181528282528051602091820120855186830151878501519386019290925273ffffffffffffffffffffffffffffffffffffffff90811693850193909352606084015216608082015260a001610b80565b6040517f466565457363616c61746f72280000000000000000000000000000000000000060208201527f6164647265737320746f6b656e2c000000000000000000000000000000000000602d8201527f75696e74323536207374617274416d6f756e742c000000000000000000000000603b8201527f75696e7432353620656e64416d6f756e742c0000000000000000000000000000604f8201527f75696e7432353620737461727454696d652c000000000000000000000000000060618201527f75696e7432353620656e6454696d6529000000000000000000000000000000006073820152600090608301604080517fffffffffffffffffffffffffffffffffffffffffffffffffffffffffffffffe08184030181528282528051602091820120855186830151878501516060808a01516080808c0151978a019690965273ffffffffffffffffffffffffffffffffffffffff90941696880196909652948601529084019290925260a083019190915260c082015260e001610b80565b6040805160028082526060828101909352816020015b604080518082019091526000808252602082015281526020019060019003908161160f579050509050604051806040016040528083602001516000015173ffffffffffffffffffffffffffffffffffffffff1681526020018360200151602001518152508160008151811061168657611686611c50565b60200260200101819052506116dc8260400151604080518082019091526000808252602082015250604080518082018252825173ffffffffffffffffffffffffffffffffffffffff168152910151602082015290565b816001815181106116ef576116ef611c50565b6020026020010181905250919050565b6040805160028082526060828101909352816020015b6040805180820190915260008082526020820152815260200190600190039081611715579050509050604051806040016040528084602001516040015173ffffffffffffffffffffffffffffffffffffffff1681526020018460200151602001518152508160008151811061178c5761178c611c50565b602090810291909101015260408301516117a6908361181e565b816001815181106117b9576117b9611c50565b602002602001018190525092915050565b600073ffffffffffffffffffffffffffffffffffffffff82111561181a576040517fc4bd89a900000000000000000000000000000000000000000000000000000000815260040160405180910390fd5b5090565b604080518082019091526000808252602082015260006118508460200151856040015186606001518760800151611881565b6040805180820190915273ffffffffffffffffffffffffffffffffffffffff90941684526020840152509092915050565b6000838511156118bd576040517fd856fc5a00000000000000000000000000000000000000000000000000000000815260040160405180910390fd5b828210156118f7576040517f4313345300000000000000000000000000000000000000000000000000000000815260040160405180910390fd5b42821161190557508261192e565b42831061191357508361192e565b428390038383036119278787038383611936565b8701925050505b949350505050565b6000827fffffffffffffffffffffffffffffffffffffffffffffffffffffffffffffffff048411830215820261196b57600080fd5b5091020490565b60006040828403121561198457600080fd5b50919050565b60006020828403121561199c57600080fd5b813567ffffffffffffffff8111156119b357600080fd5b61192e84828501611972565b600080602083850312156119d257600080fd5b823567ffffffffffffffff808211156119ea57600080fd5b818501915085601f8301126119fe57600080fd5b813581811115611a0d57600080fd5b8660208260051b8501011115611a2257600080fd5b60209290920196919550909350505050565b60005b83811015611a4f578181015183820152602001611a37565b50506000910152565b60008151808452611a70816020860160208601611a34565b601f017fffffffffffffffffffffffffffffffffffffffffffffffffffffffffffffffe0169290920160200192915050565b600060208083016020845280855180835260408601915060408160051b87010192506020870160005b82811015611b17577fffffffffffffffffffffffffffffffffffffffffffffffffffffffffffffffc0888603018452611b05858351611a58565b94509285019290850190600101611acb565b5092979650505050505050565b73ffffffffffffffffffffffffffffffffffffffff8116811461014357600080fd5b600080600080600080600080610100898b031215611b6357600080fd5b8835611b6e81611b24565b97506020890135611b7e81611b24565b96506040890135611b8e81611b24565b9550606089013594506080890135935060a089013560ff81168114611bb257600080fd5b979a969950949793969295929450505060c08201359160e0013590565b60008060408385031215611be257600080fd5b823567ffffffffffffffff811115611bf957600080fd5b611c0585828601611972565b9250506020830135611c1681611b24565b809150509250929050565b7f4e487b7100000000000000000000000000000000000000000000000000000000600052604160045260246000fd5b7f4e487b7100000000000000000000000000000000000000000000000000000000600052603260045260246000fd5b60008083357fffffffffffffffffffffffffffffffffffffffffffffffffffffffffffffffe1843603018112611cb457600080fd5b83018035915067ffffffffffffffff821115611ccf57600080fd5b602001915036819003821315611ce457600080fd5b9250929050565b8183823760009101908152919050565b6040516080810167ffffffffffffffff81118282101715611d1e57611d1e611c21565b60405290565b600060608284031215611d3657600080fd5b6040516060810181811067ffffffffffffffff82111715611d5957611d59611c21565b6040529050808235611d6a81611b24565b8152602083810135908201526040830135611d8481611b24565b6040919091015292915050565b600060a08284031215611da357600080fd5b60405160a0810181811067ffffffffffffffff82111715611dc657611dc6611c21565b6040529050808235611dd781611b24565b80825250602083013560208201526040830135604082015260608301356060820152608083013560808201525092915050565b600082601f830112611e1b57600080fd5b813567ffffffffffffffff80821115611e3657611e36611c21565b604051601f83017fffffffffffffffffffffffffffffffffffffffffffffffffffffffffffffffe0908116603f01168101908282118183101715611e7c57611e7c611c21565b81604052838152866020858801011115611e9557600080fd5b836020870160208301376000602085830101528094505050505092915050565b600060208284031215611ec757600080fd5b813567ffffffffffffffff80821115611edf57600080fd5b908301908185036101a0811215611ef557600080fd5b611efd611cfb565b6080821215611f0b57600080fd5b611f13611cfb565b91508335611f2081611b24565b82526020840135611f3081611b24565b806020840152506040840135604083015260608401356060830152818152611f5b8760808601611d24565b6020820152611f6d8760e08601611d91565b6040820152610180840135915082821115611f8757600080fd5b611f9387838601611e0a565b60608201529695505050505050565b60008251611fb4818460208701611a34565b9190910192915050565b600060208284031215611fd057600080fd5b5051919050565b60008551611fe9818460208a01611a34565b855190830190611ffd818360208a01611a34565b8551910190612010818360208901611a34565b8451910190612023818360208801611a34565b019695505050505050565b7f52656c61794f72646572207769746e657373290000000000000000000000000081526000601387516120678183860160208c01611a34565b87519084019061207d8184840160208c01611a34565b87519101906120928184840160208b01611a34565b86519101906120a78184840160208a01611a34565b85519101906120bc8184840160208901611a34565b0101979650505050505050565b60008151808452602080850194506020840160005b8381101561212457612111878351805173ffffffffffffffffffffffffffffffffffffffff168252602090810151910152565b60409690960195908201906001016120de565b509495945050505050565b8183528181602085013750600060208284010152600060207fffffffffffffffffffffffffffffffffffffffffffffffffffffffffffffffe0601f840116840101905092915050565b60c08152600061012082018951606060c0850152818151808452610140860191506020935060208301925060005b818110156121ec576121d9838551805173ffffffffffffffffffffffffffffffffffffffff168252602090810151910152565b92840192604092909201916001016121a6565b505060208c015160e086015260408c01516101008601528481036020860152612215818c6120c9565b9250505061223b604084018973ffffffffffffffffffffffffffffffffffffffff169052565b86606084015282810360808401526122538187611a58565b905082810360a084015261226881858761212f565b9a9950505050505050505050565b805165ffffffffffff8116811461228c57600080fd5b919050565b6000806000606084860312156122a657600080fd5b83516122b181611b24565b92506122bf60208501612276565b91506122cd60408501612276565b90509250925092565b600061010073ffffffffffffffffffffffffffffffffffffffff80871684528551818151166020860152816020820151166040860152604081015165ffffffffffff80821660608801528060608401511660808801525050508060208701511660a085015250604085015160c08401528060e084015261235881840185611a58565b969550505050505056fe546f6b656e5065726d697373696f6e73286164647265737320746f6b656e2c75696e7432353620616d6f756e7429a2646970667358221220191750f7cbc0a11c2324ec4b5b412d4c86e19898b85c0c83b8ce00f8a6f9a15e64736f6c63430008180033",
        "linkReferences": {}
    },
    "methodIdentifiers": {
        "PERMIT2()": "6afdd850",
        "execute((bytes,bytes))": "3f62192e",
        "execute((bytes,bytes),address)": "e956bbdf",
        "multicall(bytes[])": "ac9650d8",
        "permit(address,address,address,uint256,uint256,uint8,bytes32,bytes32)": "d339056d",
        "universalRouter()": "35a9e4df"
    },
    "id": 63
}