{"abi":[{"type":"constructor","inputs":[],"stateMutability":"nonpayable"},{"type":"function","name":"BASE_SCALING_FACTOR","inputs":[],"outputs":[{"name":"","type":"uint256","internalType":"uint256"}],"stateMutability":"view"},{"type":"function","name":"getPermit2OrderType","inputs":[],"outputs":[{"name":"","type":"string","internalType":"string"}],"stateMutability":"pure"},{"type":"function","name":"resolve","inputs":[{"name":"signedOrder","type":"tuple","internalType":"struct SignedOrder","components":[{"name":"order","type":"bytes","internalType":"bytes"},{"name":"sig","type":"bytes","internalType":"bytes"}]}],"outputs":[{"name":"resolvedOrder","type":"tuple","internalType":"struct ResolvedOrder","components":[{"name":"info","type":"tuple","internalType":"struct OrderInfo","components":[{"name":"reactor","type":"address","internalType":"contract IReactor"},{"name":"swapper","type":"address","internalType":"address"},{"name":"nonce","type":"uint256","internalType":"uint256"},{"name":"deadline","type":"uint256","internalType":"uint256"},{"name":"preExecutionHook","type":"address","internalType":"contract IPreExecutionHook"},{"name":"preExecutionHookData","type":"bytes","internalType":"bytes"},{"name":"postExecutionHook","type":"address","internalType":"contract IPostExecutionHook"},{"name":"postExecutionHookData","type":"bytes","internalType":"bytes"},{"name":"auctionResolver","type":"address","internalType":"contract IAuctionResolver"}]},{"name":"input","type":"tuple","internalType":"struct InputToken","components":[{"name":"token","type":"address","internalType":"contract ERC20"},{"name":"amount","type":"uint256","internalType":"uint256"},{"name":"maxAmount","type":"uint256","internalType":"uint256"}]},{"name":"outputs","type":"tuple[]","internalType":"struct OutputToken[]","components":[{"name":"token","type":"address","internalType":"address"},{"name":"amount","type":"uint256","internalType":"uint256"},{"name":"recipient","type":"address","internalType":"address"}]},{"name":"sig","type":"bytes","internalType":"bytes"},{"name":"hash","type":"bytes32","internalType":"bytes32"},{"name":"auctionResolver","type":"address","internalType":"address"},{"name":"witnessTypeString","type":"string","internalType":"string"}]}],"stateMutability":"view"},{"type":"error","name":"InvalidAuctionBlock","inputs":[]},{"type":"error","name":"InvalidCosignature","inputs":[]},{"type":"error","name":"InvalidExclusivityEndBlock","inputs":[]},{"type":"error","name":"InvalidGasPrice","inputs":[]},{"type":"error","name":"InvalidPriceCurveParameters","inputs":[]},{"type":"error","name":"InvalidTargetBlock","inputs":[{"name":"blockNumber","type":"uint256","internalType":"uint256"},{"name":"targetBlockNumber","type":"uint256","internalType":"uint256"}]},{"type":"error","name":"InvalidTargetBlockDesignation","inputs":[]},{"type":"error","name":"NoExclusiveOverride","inputs":[]},{"type":"error","name":"PriceCurveBlocksExceeded","inputs":[]}],"bytecode":{"object":"0x6080604052348015600e575f5ffd5b506136dc8061001c5f395ff3fe608060405234801561000f575f5ffd5b506004361061003f575f3560e01c806345e914a714610043578063542c07921461006c578063e01af54d14610089575b5f5ffd5b6100566100513660046129bc565b61009e565b6040516100639190612ac8565b60405180910390f35b61007b670de0b6b3a764000081565b604051908152602001610063565b610091610fcf565b6040516100639190612d14565b60408051610200810182525f60e082018181526101008301829052610120830182905261014083018290526101608301829052606061018084018190526101a084018390526101c084018190526101e084018390529083528351808201855282815260208082018490528186018490528401529282018390528282018390526080820181905260a082015260c08101919091525f61013c8380612d26565b8101906101499190613226565b608081015160e0820151602083015192935090915f9073ffffffffffffffffffffffffffffffffffffffff1615610244575f610184856114b7565b60208601519091506101a59061019a87846119f1565b876101200151611a66565b61010085015151156101bb576101008501515193505b6101008501516020015151156101e6576101008501516020015160e08601516101e391611b89565b92505b610100850151608001519150811580159061020057508315155b801561020b57508382105b15610242576040517fa1560c2600000000000000000000000000000000000000000000000000000000815260040160405180910390fd5b505b5f61024d611da3565b9050831580159061025d57508381105b15610294576040517f36355cb000000000000000000000000000000000000000000000000000000000815260040160405180910390fd5b5f6102a186858785611ddc565b90505f5f670de0b6b3a76400008860c0015111806102dd5750670de0b6b3a76400008860c001511480156102dd5750670de0b6b3a76400008310155b90505f6102ed8960a00151611edc565b905081156108a05780670de0b6b3a76400008a60c0015161030e91906133b5565b61031891906133c8565b61032290856133df565b6040805160e0810182528b5181528151606080820184528d840180515173ffffffffffffffffffffffffffffffffffffffff1683528051602090810151848201529051810151838601528301919091528c015192955091908201906103879086611f2f565b81526020018c806020019061039c9190612d26565b8080601f0160208091040260200160405190810160405280939291908181526020018383808284375f920191909152505050908252506020016103de8b6114b7565b81526020013073ffffffffffffffffffffffffffffffffffffffff16815260200160405160200161047e907f487962726964496e70757428000000000000000000000000000000000000000081527f6164647265737320746f6b656e2c000000000000000000000000000000000000600c8201527f75696e74323536206d6178416d6f756e74290000000000000000000000000000601a820152602c0190565b604080518083037fffffffffffffffffffffffffffffffffffffffffffffffffffffffffffffffe00181528282527f4879627269644f7264657228000000000000000000000000000000000000000060208401527f4f72646572496e666f20696e666f2c0000000000000000000000000000000000602c8401527f6164647265737320636f7369676e65722c000000000000000000000000000000603b8401527f487962726964496e70757420696e7075742c0000000000000000000000000000604c8401527f4879627269644f75747075745b5d206f7574707574732c000000000000000000605e8401527f75696e743235362061756374696f6e5374617274426c6f636b2c00000000000060758401527f75696e7432353620626173656c696e655072696f726974794665652c00000000608f8401527f75696e74323536207363616c696e67466163746f722c0000000000000000000060ab8401527f75696e743235365b5d207072696365437572766529000000000000000000000060c1840152815160b681850301815260d6840183527f4879627269644f7574707574280000000000000000000000000000000000000060f68501527f6164647265737320746f6b656e2c0000000000000000000000000000000000006101038501527f75696e74323536206d696e416d6f756e742c00000000000000000000000000006101118501527f6164647265737320726563697069656e742900000000000000000000000000006101238501528251610115818603018152610135850184527f4f72646572496e666f28000000000000000000000000000000000000000000006101558601527f616464726573732072656163746f722c0000000000000000000000000000000061015f8601527f6164647265737320737761707065722c0000000000000000000000000000000061016f8601527f75696e74323536206e6f6e63652c00000000000000000000000000000000000061017f8601527f75696e7432353620646561646c696e652c00000000000000000000000000000061018d8601527f6164647265737320707265457865637574696f6e486f6f6b2c0000000000000061019e8601527f627974657320707265457865637574696f6e486f6f6b446174612c00000000006101b78601527f6164647265737320706f7374457865637574696f6e486f6f6b2c0000000000006101d28601527f627974657320706f7374457865637574696f6e486f6f6b446174612c000000006101ec8601527f616464726573732061756374696f6e5265736f6c76657229000000000000000061020886015283516102008187030181526102808601909452602e610220860181815293959294919391926135ae906102400139604051602001610887959493929190613409565b6040516020818303038152906040528152509950610f74565b808960c00151670de0b6b3a76400006108b991906133b5565b6108c391906133c8565b6108cd90856133b5565b92505f89606001515167ffffffffffffffff8111156108ee576108ee612d8e565b60405190808252806020026020018201604052801561095657816020015b604080516060810182525f80825260208083018290529282015282527fffffffffffffffffffffffffffffffffffffffffffffffffffffffffffffffff90920191018161090c5790505b5090505f5b8a6060015151811015610a365760405180606001604052808c60600151838151811061098957610989613469565b60200260200101515f015173ffffffffffffffffffffffffffffffffffffffff1681526020018c6060015183815181106109c5576109c5613469565b60200260200101516020015181526020018c6060015183815181106109ec576109ec613469565b60200260200101516040015173ffffffffffffffffffffffffffffffffffffffff16815250828281518110610a2357610a23613469565b602090810291909101015260010161095b565b506040805160e0810182528b518152908b01516020820190610a58908761209e565b81526020018281526020018d8060200190610a739190612d26565b8080601f0160208091040260200160405190810160405280939291908181526020018383808284375f92019190915250505090825250602001610ab58c6114b7565b81526020013073ffffffffffffffffffffffffffffffffffffffff168152602001604051602001610b55907f487962726964496e70757428000000000000000000000000000000000000000081527f6164647265737320746f6b656e2c000000000000000000000000000000000000600c8201527f75696e74323536206d6178416d6f756e74290000000000000000000000000000601a820152602c0190565b604080518083037fffffffffffffffffffffffffffffffffffffffffffffffffffffffffffffffe00181528282527f4879627269644f7264657228000000000000000000000000000000000000000060208401527f4f72646572496e666f20696e666f2c0000000000000000000000000000000000602c8401527f6164647265737320636f7369676e65722c000000000000000000000000000000603b8401527f487962726964496e70757420696e7075742c0000000000000000000000000000604c8401527f4879627269644f75747075745b5d206f7574707574732c000000000000000000605e8401527f75696e743235362061756374696f6e5374617274426c6f636b2c00000000000060758401527f75696e7432353620626173656c696e655072696f726974794665652c00000000608f8401527f75696e74323536207363616c696e67466163746f722c0000000000000000000060ab8401527f75696e743235365b5d207072696365437572766529000000000000000000000060c1840152815160b681850301815260d6840183527f4879627269644f7574707574280000000000000000000000000000000000000060f68501527f6164647265737320746f6b656e2c0000000000000000000000000000000000006101038501527f75696e74323536206d696e416d6f756e742c00000000000000000000000000006101118501527f6164647265737320726563697069656e742900000000000000000000000000006101238501528251610115818603018152610135850184527f4f72646572496e666f28000000000000000000000000000000000000000000006101558601527f616464726573732072656163746f722c0000000000000000000000000000000061015f8601527f6164647265737320737761707065722c0000000000000000000000000000000061016f8601527f75696e74323536206e6f6e63652c00000000000000000000000000000000000061017f8601527f75696e7432353620646561646c696e652c00000000000000000000000000000061018d8601527f6164647265737320707265457865637574696f6e486f6f6b2c0000000000000061019e8601527f627974657320707265457865637574696f6e486f6f6b446174612c00000000006101b78601527f6164647265737320706f7374457865637574696f6e486f6f6b2c0000000000006101d28601527f627974657320706f7374457865637574696f6e486f6f6b446174612c000000006101ec8601527f616464726573732061756374696f6e5265736f6c76657229000000000000000061020886015283516102008187030181526102808601909452602e610220860181815293959294919391926135ae906102400139604051602001610f5e959493929190613409565b6040516020818303038152906040528152509a50505b602089015173ffffffffffffffffffffffffffffffffffffffff1615801590610f9c57508515155b15610fc157610fc18a8a610100015160400151888c6101000151606001518932612129565b505050505050505050919050565b6040517f487962726964496e70757428000000000000000000000000000000000000000060208201527f6164647265737320746f6b656e2c000000000000000000000000000000000000602c8201527f75696e74323536206d6178416d6f756e74290000000000000000000000000000603a820152606090604c01604080517fffffffffffffffffffffffffffffffffffffffffffffffffffffffffffffffe0818403018152908290527f4879627269644f7264657228000000000000000000000000000000000000000060208301527f4f72646572496e666f20696e666f2c0000000000000000000000000000000000602c8301527f6164647265737320636f7369676e65722c000000000000000000000000000000603b8301527f487962726964496e70757420696e7075742c0000000000000000000000000000604c8301527f4879627269644f75747075745b5d206f7574707574732c000000000000000000605e8301527f75696e743235362061756374696f6e5374617274426c6f636b2c00000000000060758301527f75696e7432353620626173656c696e655072696f726974794665652c00000000608f8301527f75696e74323536207363616c696e67466163746f722c0000000000000000000060ab8301527f75696e743235365b5d207072696365437572766529000000000000000000000060c18301529060d601604080517fffffffffffffffffffffffffffffffffffffffffffffffffffffffffffffffe0818403018152908290527f4879627269644f7574707574280000000000000000000000000000000000000060208301527f6164647265737320746f6b656e2c000000000000000000000000000000000000602d8301527f75696e74323536206d696e416d6f756e742c0000000000000000000000000000603b8301527f6164647265737320726563697069656e74290000000000000000000000000000604d83015290605f01604080517fffffffffffffffffffffffffffffffffffffffffffffffffffffffffffffffe0818403018152908290527f4f72646572496e666f280000000000000000000000000000000000000000000060208301527f616464726573732072656163746f722c00000000000000000000000000000000602a8301527f6164647265737320737761707065722c00000000000000000000000000000000603a8301527f75696e74323536206e6f6e63652c000000000000000000000000000000000000604a8301527f75696e7432353620646561646c696e652c00000000000000000000000000000060588301527f6164647265737320707265457865637574696f6e486f6f6b2c0000000000000060698301527f627974657320707265457865637574696f6e486f6f6b446174612c000000000060828301527f6164647265737320706f7374457865637574696f6e486f6f6b2c000000000000609d8301527f627974657320706f7374457865637574696f6e486f6f6b446174612c0000000060b78301527f616464726573732061756374696f6e5265736f6c76657229000000000000000060d38301529060eb01604080517fffffffffffffffffffffffffffffffffffffffffffffffffffffffffffffffe081840301815260608301909152602e8083529091906135ae60208301396040516020016114a3959493929190613409565b604051602081830303815290604052905090565b604080517f4879627269644f7264657228000000000000000000000000000000000000000060208201527f4f72646572496e666f20696e666f2c0000000000000000000000000000000000602c8201527f6164647265737320636f7369676e65722c000000000000000000000000000000603b8201527f487962726964496e70757420696e7075742c0000000000000000000000000000604c8201527f4879627269644f75747075745b5d206f7574707574732c000000000000000000605e8201527f75696e743235362061756374696f6e5374617274426c6f636b2c00000000000060758201527f75696e7432353620626173656c696e655072696f726974794665652c00000000608f8201527f75696e74323536207363616c696e67466163746f722c0000000000000000000060ab8201527f75696e743235365b5d207072696365437572766529000000000000000000000060c1820152815160b681830301815260d6820183527f487962726964496e70757428000000000000000000000000000000000000000060f68301527f6164647265737320746f6b656e2c0000000000000000000000000000000000006101028084018290527f75696e74323536206d6178416d6f756e7429000000000000000000000000000061011085015284518085039091018152610122840185527f4879627269644f7574707574280000000000000000000000000000000000000061014285015261014f8401919091527f75696e74323536206d696e416d6f756e742c000000000000000000000000000061015d8401527f6164647265737320726563697069656e7429000000000000000000000000000061016f8401528351610161818503018152610181840185527f4f72646572496e666f28000000000000000000000000000000000000000000006101a18501527f616464726573732072656163746f722c000000000000000000000000000000006101ab8501527f6164647265737320737761707065722c000000000000000000000000000000006101bb8501527f75696e74323536206e6f6e63652c0000000000000000000000000000000000006101cb8501527f75696e7432353620646561646c696e652c0000000000000000000000000000006101d98501527f6164647265737320707265457865637574696f6e486f6f6b2c000000000000006101ea8501527f627974657320707265457865637574696f6e486f6f6b446174612c00000000006102038501527f6164647265737320706f7374457865637574696f6e486f6f6b2c00000000000061021e8501527f627974657320706f7374457865637574696f6e486f6f6b446174612c000000006102388501527f616464726573732061756374696f6e5265736f6c766572290000000000000000610254850152845161024c81860301815261026c85019095525f946118e19461028c01613496565b60405160208183030381529060405280519060200120611903835f015161213f565b83602001516119158560400151612210565b61192286606001516122f7565b86608001518760a001518860c001518960e0015160405160200161194691906134aa565b604080517fffffffffffffffffffffffffffffffffffffffffffffffffffffffffffffffe081840301815282825280516020918201209083019a909a5281019790975273ffffffffffffffffffffffffffffffffffffffff9095166060870152608086019390935260a085019190915260c084015260e0830152610100820152610120810191909152610140015b604051602081830303815290604052805190602001209050919050565b5f8146846101000151604051602001611a0a91906134df565b604080517fffffffffffffffffffffffffffffffffffffffffffffffffffffffffffffffe081840301815290829052611a47939291602001613574565b6040516020818303038152906040528051906020012090505b92915050565b5f5f82806020019051810190611a7c919061358b565b915091505f83604081518110611a9457611a94613469565b01602090810151604080515f80825293810180835289905260f89290921c9082018190526060820186905260808201859052925060019060a0016020604051602081039080840390855afa158015611aee573d5f5f3e3d5ffd5b5050506020604051035190508073ffffffffffffffffffffffffffffffffffffffff168773ffffffffffffffffffffffffffffffffffffffff16141580611b49575073ffffffffffffffffffffffffffffffffffffffff8116155b15611b80576040517fd7815be100000000000000000000000000000000000000000000000000000000815260040160405180910390fd5b50505050505050565b6060825167ffffffffffffffff811115611ba557611ba5612d8e565b604051908082528060200260200182016040528015611bce578160200160208202803683370190505b50825184519192505f918082189181119190910218815b81811015611d17575f5f611c11888481518110611c0457611c04613469565b6020026020010151612504565b915091505f878481518110611c2857611c28613469565b602002602001015190505f670de0b6b3a76400008284611c4891906133df565b611c5291906133b5565b90507dffffffffffffffffffffffffffffffffffffffffffffffffffffffffffff8111611c9b611c978585670de0b6b3a7640000828114828214179281109111141790565b1590565b1796909617957fffff00000000000000000000000000000000000000000000000000000000000060f085901b167dffffffffffffffffffffffffffffffffffffffffffffffffffffffffffff821617888681518110611cfc57611cfc613469565b60200260200101818152505050505050806001019050611be5565b508115611d50576040517fe80f248200000000000000000000000000000000000000000000000000000000815260040160405180910390fd5b805b8551811015611d9a57858181518110611d6d57611d6d613469565b6020026020010151848281518110611d8757611d87613469565b6020908102919091010152600101611d52565b50505092915050565b5f61a4b14603611dd75763a3b1b31d5f5260205f6004601c60645afa60203d141581151715611dd0575f5ffd5b50505f5190565b504390565b670de0b6b3a76400008215611e485781831115611e33576040517f97417ef2000000000000000000000000000000000000000000000000000000008152600481018490526024810183905260440160405180910390fd5b828203611e40858261253e565b915050611e81565b835115611e81576040517f97206b5600000000000000000000000000000000000000000000000000000000815260040160405180910390fd5b60c0850151670de0b6b3a7640000808214838214179181109083111417611ed4576040517fe80f248200000000000000000000000000000000000000000000000000000000815260040160405180910390fd5b949350505050565b5f483a1015611f17576040517ff3eb44e500000000000000000000000000000000000000000000000000000000815260040160405180910390fd5b50483a0381811115611f27570390565b505f5b919050565b60605f835167ffffffffffffffff811115611f4c57611f4c612d8e565b604051908082528060200260200182016040528015611fb457816020015b604080516060810182525f80825260208083018290529282015282527fffffffffffffffffffffffffffffffffffffffffffffffffffffffffffffffff909201910181611f6a5790505b5090505f5b8451811015612096576040518060600160405280868381518110611fdf57611fdf613469565b60200260200101515f015173ffffffffffffffffffffffffffffffffffffffff1681526020016120358688858151811061201b5761201b613469565b6020026020010151602001516127b390919063ffffffff16565b815260200186838151811061204c5761204c613469565b60200260200101516040015173ffffffffffffffffffffffffffffffffffffffff1681525082828151811061208357612083613469565b6020908102919091010152600101611fb9565b509392505050565b6120d560405180606001604052805f73ffffffffffffffffffffffffffffffffffffffff1681526020015f81526020015f81525090565b6040518060600160405280845f015173ffffffffffffffffffffffffffffffffffffffff1681526020016121168486602001516127e990919063ffffffff16565b8152602085810151910152905092915050565b612137868686868686612818565b505050505050565b5f60405180610100016040528060cb81526020016135dc60cb913980519060200120825f015183602001518460400151856060015186608001518760a00151805190602001208860c001518960e00151805190602001208a61010001516040516020016119d49a99989796959493929190998a5273ffffffffffffffffffffffffffffffffffffffff98891660208b015296881660408a01526060890195909552608088019390935290851660a087015260c0860152831660e0850152610100840152166101208201526101400190565b6040517f487962726964496e70757428000000000000000000000000000000000000000060208201527f6164647265737320746f6b656e2c000000000000000000000000000000000000602c8201527f75696e74323536206d6178416d6f756e74290000000000000000000000000000603a8201525f90604c01604080517fffffffffffffffffffffffffffffffffffffffffffffffffffffffffffffffe081840301815282825280516020918201208551868301519285019190915273ffffffffffffffffffffffffffffffffffffffff169183019190915260608201526080016119d4565b5f5f825167ffffffffffffffff81111561231357612313612d8e565b60405190808252806020026020018201604052801561233c578160200160208202803683370190505b5090505f5b83518110156124d4576040517f4879627269644f7574707574280000000000000000000000000000000000000060208201527f6164647265737320746f6b656e2c000000000000000000000000000000000000602d8201527f75696e74323536206d696e416d6f756e742c0000000000000000000000000000603b8201527f6164647265737320726563697069656e74290000000000000000000000000000604d820152605f016040516020818303038152906040528051906020012084828151811061241057612410613469565b60200260200101515f015185838151811061242d5761242d613469565b60200260200101516020015186848151811061244b5761244b613469565b602002602001015160400151604051602001612499949392919093845273ffffffffffffffffffffffffffffffffffffffff9283166020850152604084019190915216606082015260800190565b604051602081830303815290604052805190602001208282815181106124c1576124c1613469565b6020908102919091010152600101612341565b50806040516020016124e691906134aa565b60405160208183030381529060405280519060200120915050919050565b60f081901c5f8261253560017e010000000000000000000000000000000000000000000000000000000000006133b5565b92949216925050565b5f82515f036125565750670de0b6b3a7640000611a60565b5f80805b855181101561276f575f5f61257a888481518110611c0457611c04613469565b91509150815f036125ad578487106125a657809550600193508487036125a6579450611a609350505050565b5050612767565b6125b782866133df565b871015612758578380156125f557506125f3886125d56001866133b5565b815181106125e5576125e5613469565b602002602001015160f01c90565b155b1561269c575f61261a8961260a6001876133b5565b81518110611c0457611c04613469565b915061263d90508183670de0b6b3a7640000828114828214179281109111141790565b612673576040517fe80f248200000000000000000000000000000000000000000000000000000000815260040160405180910390fd5b6126948183888b61268488836133df565b670de0b6b3a764000087116128c3565b96505061274e565b87515f906126ab8560016133df565b10156126c9576126c08961260a8660016133df565b91506126d49050565b50670de0b6b3a76400005b6126f38282670de0b6b3a7640000828114828214179281109111141790565b612729576040517fe80f248200000000000000000000000000000000000000000000000000000000815260040160405180910390fd5b61274a8282888b61273a88836133df565b670de0b6b3a764000088116128c3565b9650505b5050505050611a60565b61276282866133df565b945050505b60010161255a565b508184106127a9576040517f89cc995200000000000000000000000000000000000000000000000000000000815260040160405180910390fd5b505f949350505050565b81810281810483146127d25781156127d25763bac65e5b5f526004601cfd5b670de0b6b3a7640000808206151591040192915050565b5f815f19048311156128085781156128085763bac65e5b5f526004601cfd5b50670de0b6b3a764000091020490565b61282485858484612918565b612137578261285f576040517fb9ec1e9600000000000000000000000000000000000000000000000000000000815260040160405180910390fd5b60408601515f5b81518110156128b9575f82828151811061288257612882613469565b602002602001015190506128ab8661271061289d91906133df565b60208301519061271061297a565b602090910152600101612866565b5050505050505050565b5f85871461290b578483038585038082035f6128df838b6133c8565b6128e9838d6133c8565b6128f391906133df565b9050858487830304018115150294505050505061290e565b50845b9695505050505050565b5f73ffffffffffffffffffffffffffffffffffffffff8516158061293b57508383115b8061297157508173ffffffffffffffffffffffffffffffffffffffff168573ffffffffffffffffffffffffffffffffffffffff16145b95945050505050565b5f827fffffffffffffffffffffffffffffffffffffffffffffffffffffffffffffffff04841183021582026129ad575f5ffd5b50910281810615159190040190565b5f602082840312156129cc575f5ffd5b813567ffffffffffffffff8111156129e2575f5ffd5b8201604081850312156129f3575f5ffd5b9392505050565b5f81518084528060208401602086015e5f6020828601015260207fffffffffffffffffffffffffffffffffffffffffffffffffffffffffffffffe0601f83011685010191505092915050565b5f8151808452602084019350602083015f5b82811015612abe57815173ffffffffffffffffffffffffffffffffffffffff81511687526020810151602088015273ffffffffffffffffffffffffffffffffffffffff604082015116604088015250606086019550602082019150600181019050612a58565b5093949350505050565b602081525f82516101206020840152612afb6101408401825173ffffffffffffffffffffffffffffffffffffffff169052565b602081015173ffffffffffffffffffffffffffffffffffffffff908116610160850152604082015161018085015260608201516101a08501526080820151166101c084015260a08101516101206101e0850152612b5c6102608501826129fa565b905060c0820151612b8661020086018273ffffffffffffffffffffffffffffffffffffffff169052565b5060e08201517ffffffffffffffffffffffffffffffffffffffffffffffffffffffffffffffec085830301610220860152612bc182826129fa565b9150506101008201519150612bef61024085018373ffffffffffffffffffffffffffffffffffffffff169052565b60208501519150612c2d6040850183805173ffffffffffffffffffffffffffffffffffffffff16825260208082015190830152604090810151910152565b604085015191507fffffffffffffffffffffffffffffffffffffffffffffffffffffffffffffffe08482030160a0850152612c688183612a46565b91505060608401517fffffffffffffffffffffffffffffffffffffffffffffffffffffffffffffffe08483030160c0850152612ca482826129fa565b915050608084015160e084015260a0840151612cd961010085018273ffffffffffffffffffffffffffffffffffffffff169052565b5060c08401517fffffffffffffffffffffffffffffffffffffffffffffffffffffffffffffffe08483030161012085015261297182826129fa565b602081525f6129f360208301846129fa565b5f5f83357fffffffffffffffffffffffffffffffffffffffffffffffffffffffffffffffe1843603018112612d59575f5ffd5b83018035915067ffffffffffffffff821115612d73575f5ffd5b602001915036819003821315612d87575f5ffd5b9250929050565b7f4e487b71000000000000000000000000000000000000000000000000000000005f52604160045260245ffd5b604051610120810167ffffffffffffffff81118282101715612ddf57612ddf612d8e565b60405290565b6040516060810167ffffffffffffffff81118282101715612ddf57612ddf612d8e565b604051610140810167ffffffffffffffff81118282101715612ddf57612ddf612d8e565b604051601f82017fffffffffffffffffffffffffffffffffffffffffffffffffffffffffffffffe016810167ffffffffffffffff81118282101715612e7357612e73612d8e565b604052919050565b73ffffffffffffffffffffffffffffffffffffffff81168114612e9c575f5ffd5b50565b8035611f2a81612e7b565b5f82601f830112612eb9575f5ffd5b813567ffffffffffffffff811115612ed357612ed3612d8e565b612f0460207fffffffffffffffffffffffffffffffffffffffffffffffffffffffffffffffe0601f84011601612e2c565b818152846020838601011115612f18575f5ffd5b816020850160208301375f918101602001919091529392505050565b5f6101208284031215612f45575f5ffd5b612f4d612dbb565b9050612f5882612e9f565b8152612f6660208301612e9f565b60208201526040828101359082015260608083013590820152612f8b60808301612e9f565b608082015260a082013567ffffffffffffffff811115612fa9575f5ffd5b612fb584828501612eaa565b60a083015250612fc760c08301612e9f565b60c082015260e082013567ffffffffffffffff811115612fe5575f5ffd5b612ff184828501612eaa565b60e0830152506130046101008301612e9f565b61010082015292915050565b5f60408284031215613020575f5ffd5b6040805190810167ffffffffffffffff8111828210171561304357613043612d8e565b604052905080823561305481612e7b565b8152602092830135920191909152919050565b5f67ffffffffffffffff82111561308057613080612d8e565b5060051b60200190565b5f82601f830112613099575f5ffd5b81356130ac6130a782613067565b612e2c565b808282526020820191506020606084028601019250858311156130cd575f5ffd5b602085015b8381101561312b57606081880312156130e9575f5ffd5b6130f1612de5565b81356130fc81612e7b565b815260208281013590820152604082013561311681612e7b565b604082015283526020909201916060016130d2565b5095945050505050565b5f82601f830112613144575f5ffd5b81356131526130a782613067565b8082825260208201915060208360051b860101925085831115613173575f5ffd5b602085015b8381101561312b578035835260209283019201613178565b5f60a082840312156131a0575f5ffd5b60405160a0810167ffffffffffffffff811182821017156131c3576131c3612d8e565b60405282358152905080602083013567ffffffffffffffff8111156131e6575f5ffd5b6131f285828601613135565b602083015250604083013561320681612e7b565b604082015260608381013590820152608092830135920191909152919050565b5f60208284031215613236575f5ffd5b813567ffffffffffffffff81111561324c575f5ffd5b8201610160818503121561325e575f5ffd5b613266612e08565b813567ffffffffffffffff81111561327c575f5ffd5b61328886828501612f34565b82525061329760208301612e9f565b60208201526132a98560408401613010565b6040820152608082013567ffffffffffffffff8111156132c7575f5ffd5b6132d38682850161308a565b60608301525060a082810135608083015260c0808401359183019190915260e08301359082015261010082013567ffffffffffffffff811115613314575f5ffd5b61332086828501613135565b60e08301525061012082013567ffffffffffffffff811115613340575f5ffd5b61334c86828501613190565b6101008301525061014082013567ffffffffffffffff81111561336d575f5ffd5b61337986828501612eaa565b61012083015250949350505050565b7f4e487b71000000000000000000000000000000000000000000000000000000005f52601160045260245ffd5b81810381811115611a6057611a60613388565b8082028115828204841417611a6057611a60613388565b80820180821115611a6057611a60613388565b5f81518060208401855e5f93019283525090919050565b7f4879627269644f72646572207769746e6573732900000000000000000000000081525f61345e61345861345261344c613446601487018c6133f2565b8a6133f2565b886133f2565b866133f2565b846133f2565b979650505050505050565b7f4e487b71000000000000000000000000000000000000000000000000000000005f52603260045260245ffd5b5f61290e61345861345261344c858a6133f2565b81515f90829060208501835b828110156134d45781518452602093840193909101906001016134b6565b509195945050505050565b60208082528251828201528281015160a06040840152805160c084018190525f929190910190829060e08501905b80831015613530578351825260208201915060208401935060018301925061350d565b50604086015173ffffffffffffffffffffffffffffffffffffffff81166060870152925060608601516080860152608086015160a086015280935050505092915050565b8381528260208201525f61297160408301846133f2565b5f5f6040838503121561359c575f5ffd5b50508051602090910151909290915056fe546f6b656e5065726d697373696f6e73286164647265737320746f6b656e2c75696e7432353620616d6f756e74294f72646572496e666f28616464726573732072656163746f722c6164647265737320737761707065722c75696e74323536206e6f6e63652c75696e7432353620646561646c696e652c6164647265737320707265457865637574696f6e486f6f6b2c627974657320707265457865637574696f6e486f6f6b446174612c6164647265737320706f7374457865637574696f6e486f6f6b2c627974657320706f7374457865637574696f6e486f6f6b446174612c616464726573732061756374696f6e5265736f6c76657229a2646970667358221220fe0b9ecd6acbefcf30049d544d8a73e406f9957f1debdf6a93f63d3cff5a4dca64736f6c634300081e0033","linkReferences":{}},"methodIdentifiers":{"BASE_SCALING_FACTOR()":"542c0792","getPermit2OrderType()":"e01af54d","resolve((bytes,bytes))":"45e914a7"},"id":79}