{"abi":[{"type":"constructor","inputs":[],"stateMutability":"nonpayable"},{"type":"function","name":"BASE_SCALING_FACTOR","inputs":[],"outputs":[{"name":"","type":"uint256","internalType":"uint256"}],"stateMutability":"view"},{"type":"function","name":"getPermit2OrderType","inputs":[],"outputs":[{"name":"","type":"string","internalType":"string"}],"stateMutability":"pure"},{"type":"function","name":"resolve","inputs":[{"name":"signedOrder","type":"tuple","internalType":"struct SignedOrder","components":[{"name":"order","type":"bytes","internalType":"bytes"},{"name":"sig","type":"bytes","internalType":"bytes"}]}],"outputs":[{"name":"resolvedOrder","type":"tuple","internalType":"struct ResolvedOrder","components":[{"name":"info","type":"tuple","internalType":"struct OrderInfo","components":[{"name":"reactor","type":"address","internalType":"contract IReactor"},{"name":"swapper","type":"address","internalType":"address"},{"name":"nonce","type":"uint256","internalType":"uint256"},{"name":"deadline","type":"uint256","internalType":"uint256"},{"name":"preExecutionHook","type":"address","internalType":"contract IPreExecutionHook"},{"name":"preExecutionHookData","type":"bytes","internalType":"bytes"},{"name":"postExecutionHook","type":"address","internalType":"contract IPostExecutionHook"},{"name":"postExecutionHookData","type":"bytes","internalType":"bytes"},{"name":"auctionResolver","type":"address","internalType":"contract IAuctionResolver"}]},{"name":"input","type":"tuple","internalType":"struct InputToken","components":[{"name":"token","type":"address","internalType":"contract ERC20"},{"name":"amount","type":"uint256","internalType":"uint256"},{"name":"maxAmount","type":"uint256","internalType":"uint256"}]},{"name":"outputs","type":"tuple[]","internalType":"struct OutputToken[]","components":[{"name":"token","type":"address","internalType":"address"},{"name":"amount","type":"uint256","internalType":"uint256"},{"name":"recipient","type":"address","internalType":"address"}]},{"name":"sig","type":"bytes","internalType":"bytes"},{"name":"hash","type":"bytes32","internalType":"bytes32"},{"name":"auctionResolver","type":"address","internalType":"address"},{"name":"witnessTypeString","type":"string","internalType":"string"}]}],"stateMutability":"view"},{"type":"error","name":"InvalidAuctionBlock","inputs":[]},{"type":"error","name":"InvalidCosignature","inputs":[]},{"type":"error","name":"InvalidGasPrice","inputs":[]},{"type":"error","name":"InvalidPriceCurveParameters","inputs":[]},{"type":"error","name":"InvalidTargetBlock","inputs":[{"name":"blockNumber","type":"uint256","internalType":"uint256"},{"name":"targetBlockNumber","type":"uint256","internalType":"uint256"}]},{"type":"error","name":"InvalidTargetBlockDesignation","inputs":[]},{"type":"error","name":"PriceCurveBlocksExceeded","inputs":[]}],"bytecode":{"object":"0x60a060405234801561000f575f5ffd5b5061a4b14603610034576001600160401b0361142f61004f60201b17166080526100d1565b6001600160401b036114a36100b660201b17166080526100d1565b5f60646001600160a01b031663a3b1b31d6040518163ffffffff1660e01b8152600401602060405180830381865afa15801561008d573d5f5f3e3d5ffd5b505050506040513d601f19601f820116820180604052508101906100b191906100ba565b905090565b4390565b5f602082840312156100ca575f5ffd5b5051919050565b6080516134c76100e95f395f6101ec01526134c75ff3fe608060405234801561000f575f5ffd5b506004361061003f575f3560e01c806345e914a714610043578063542c07921461006c578063e01af54d14610089575b5f5ffd5b61005661005136600461280e565b61009e565b604051610063919061291a565b60405180910390f35b61007b670de0b6b3a764000081565b604051908152602001610063565b610091610f47565b6040516100639190612b6f565b60408051610200810182525f60e082018181526101008301829052610120830182905261014083018290526101608301829052606061018084018190526101a084018390526101c084018190526101e084018390529083528351808201855282815260208082018490528186018490528401529282018390528282018390526080820181905260a082015260c08101919091525f61013c8380612b81565b810190610149919061303f565b608081015160e08201516020830151929350909173ffffffffffffffffffffffffffffffffffffffff16156101e6575f610182846114a7565b60208501519091506101a39061019886846119e1565b866101200151611a56565b61010084015151156101b9576101008401515192505b6101008401516020015151156101e4576101008401516020015160e08501516101e191611b79565b91505b505b5f6102137f000000000000000000000000000000000000000000000000000000000000000063ffffffff16565b9050821580159061022357508281105b1561025a576040517f36355cb000000000000000000000000000000000000000000000000000000000815260040160405180910390fd5b5f61026785848685611d93565b90505f5f670de0b6b3a76400008760c0015111806102a35750670de0b6b3a76400008760c001511480156102a35750670de0b6b3a76400008310155b90505f6102b38860a00151611e93565b905081156108665780670de0b6b3a76400008960c001516102d491906131ce565b6102de91906131e1565b6102e890856131f8565b6040805160e0810182528a5181528151606080820184528c840180515173ffffffffffffffffffffffffffffffffffffffff1683528051602090810151848201529051810151838601528301919091528b0151929550919082019061034d9086611ee6565b81526020018b80602001906103629190612b81565b8080601f0160208091040260200160405190810160405280939291908181526020018383808284375f920191909152505050908252506020016103a48a6114a7565b81526020013073ffffffffffffffffffffffffffffffffffffffff168152602001604051602001610444907f487962726964496e70757428000000000000000000000000000000000000000081527f6164647265737320746f6b656e2c000000000000000000000000000000000000600c8201527f75696e74323536206d6178416d6f756e74290000000000000000000000000000601a820152602c0190565b604080518083037fffffffffffffffffffffffffffffffffffffffffffffffffffffffffffffffe00181528282527f4879627269644f7264657228000000000000000000000000000000000000000060208401527f4f72646572496e666f20696e666f2c0000000000000000000000000000000000602c8401527f6164647265737320636f7369676e65722c000000000000000000000000000000603b8401527f487962726964496e70757420696e7075742c0000000000000000000000000000604c8401527f4879627269644f75747075745b5d206f7574707574732c000000000000000000605e8401527f75696e743235362061756374696f6e5374617274426c6f636b2c00000000000060758401527f75696e7432353620626173656c696e655072696f726974794665652c00000000608f8401527f75696e74323536207363616c696e67466163746f722c0000000000000000000060ab8401527f75696e743235365b5d207072696365437572766529000000000000000000000060c1840152815160b681850301815260d6840183527f4879627269644f7574707574280000000000000000000000000000000000000060f68501527f6164647265737320746f6b656e2c0000000000000000000000000000000000006101038501527f75696e74323536206d696e416d6f756e742c00000000000000000000000000006101118501527f6164647265737320726563697069656e742900000000000000000000000000006101238501528251610115818603018152610135850184527f4f72646572496e666f28000000000000000000000000000000000000000000006101558601527f616464726573732072656163746f722c0000000000000000000000000000000061015f8601527f6164647265737320737761707065722c0000000000000000000000000000000061016f8601527f75696e74323536206e6f6e63652c00000000000000000000000000000000000061017f8601527f75696e7432353620646561646c696e652c00000000000000000000000000000061018d8601527f6164647265737320707265457865637574696f6e486f6f6b2c0000000000000061019e8601527f627974657320707265457865637574696f6e486f6f6b446174612c00000000006101b78601527f6164647265737320706f7374457865637574696f6e486f6f6b2c0000000000006101d28601527f627974657320706f7374457865637574696f6e486f6f6b446174612c000000006101ec8601527f616464726573732061756374696f6e5265736f6c76657229000000000000000061020886015283516102008187030181526102808601909452602e6102208601818152939592949193919261339990610240013960405160200161084d959493929190613222565b6040516020818303038152906040528152509850610f3a565b808860c00151670de0b6b3a764000061087f91906131ce565b61088991906131e1565b61089390856131ce565b92505f88606001515167ffffffffffffffff8111156108b4576108b4612be9565b60405190808252806020026020018201604052801561091c57816020015b604080516060810182525f80825260208083018290529282015282527fffffffffffffffffffffffffffffffffffffffffffffffffffffffffffffffff9092019101816108d25790505b5090505f5b8960600151518110156109fc5760405180606001604052808b60600151838151811061094f5761094f613282565b60200260200101515f015173ffffffffffffffffffffffffffffffffffffffff1681526020018b60600151838151811061098b5761098b613282565b60200260200101516020015181526020018b6060015183815181106109b2576109b2613282565b60200260200101516040015173ffffffffffffffffffffffffffffffffffffffff168152508282815181106109e9576109e9613282565b6020908102919091010152600101610921565b506040805160e0810182528a518152908a01516020820190610a1e9087612055565b81526020018281526020018c8060200190610a399190612b81565b8080601f0160208091040260200160405190810160405280939291908181526020018383808284375f92019190915250505090825250602001610a7b8b6114a7565b81526020013073ffffffffffffffffffffffffffffffffffffffff168152602001604051602001610b1b907f487962726964496e70757428000000000000000000000000000000000000000081527f6164647265737320746f6b656e2c000000000000000000000000000000000000600c8201527f75696e74323536206d6178416d6f756e74290000000000000000000000000000601a820152602c0190565b604080518083037fffffffffffffffffffffffffffffffffffffffffffffffffffffffffffffffe00181528282527f4879627269644f7264657228000000000000000000000000000000000000000060208401527f4f72646572496e666f20696e666f2c0000000000000000000000000000000000602c8401527f6164647265737320636f7369676e65722c000000000000000000000000000000603b8401527f487962726964496e70757420696e7075742c0000000000000000000000000000604c8401527f4879627269644f75747075745b5d206f7574707574732c000000000000000000605e8401527f75696e743235362061756374696f6e5374617274426c6f636b2c00000000000060758401527f75696e7432353620626173656c696e655072696f726974794665652c00000000608f8401527f75696e74323536207363616c696e67466163746f722c0000000000000000000060ab8401527f75696e743235365b5d207072696365437572766529000000000000000000000060c1840152815160b681850301815260d6840183527f4879627269644f7574707574280000000000000000000000000000000000000060f68501527f6164647265737320746f6b656e2c0000000000000000000000000000000000006101038501527f75696e74323536206d696e416d6f756e742c00000000000000000000000000006101118501527f6164647265737320726563697069656e742900000000000000000000000000006101238501528251610115818603018152610135850184527f4f72646572496e666f28000000000000000000000000000000000000000000006101558601527f616464726573732072656163746f722c0000000000000000000000000000000061015f8601527f6164647265737320737761707065722c0000000000000000000000000000000061016f8601527f75696e74323536206e6f6e63652c00000000000000000000000000000000000061017f8601527f75696e7432353620646561646c696e652c00000000000000000000000000000061018d8601527f6164647265737320707265457865637574696f6e486f6f6b2c0000000000000061019e8601527f627974657320707265457865637574696f6e486f6f6b446174612c00000000006101b78601527f6164647265737320706f7374457865637574696f6e486f6f6b2c0000000000006101d28601527f627974657320706f7374457865637574696f6e486f6f6b446174612c000000006101ec8601527f616464726573732061756374696f6e5265736f6c76657229000000000000000061020886015283516102008187030181526102808601909452602e61022086018181529395929491939192613399906102400139604051602001610f24959493929190613222565b6040516020818303038152906040528152509950505b5050505050505050919050565b6040517f487962726964496e70757428000000000000000000000000000000000000000060208201527f6164647265737320746f6b656e2c000000000000000000000000000000000000602c8201527f75696e74323536206d6178416d6f756e74290000000000000000000000000000603a820152606090604c01604080517fffffffffffffffffffffffffffffffffffffffffffffffffffffffffffffffe0818403018152908290527f4879627269644f7264657228000000000000000000000000000000000000000060208301527f4f72646572496e666f20696e666f2c0000000000000000000000000000000000602c8301527f6164647265737320636f7369676e65722c000000000000000000000000000000603b8301527f487962726964496e70757420696e7075742c0000000000000000000000000000604c8301527f4879627269644f75747075745b5d206f7574707574732c000000000000000000605e8301527f75696e743235362061756374696f6e5374617274426c6f636b2c00000000000060758301527f75696e7432353620626173656c696e655072696f726974794665652c00000000608f8301527f75696e74323536207363616c696e67466163746f722c0000000000000000000060ab8301527f75696e743235365b5d207072696365437572766529000000000000000000000060c18301529060d601604080517fffffffffffffffffffffffffffffffffffffffffffffffffffffffffffffffe0818403018152908290527f4879627269644f7574707574280000000000000000000000000000000000000060208301527f6164647265737320746f6b656e2c000000000000000000000000000000000000602d8301527f75696e74323536206d696e416d6f756e742c0000000000000000000000000000603b8301527f6164647265737320726563697069656e74290000000000000000000000000000604d83015290605f01604080517fffffffffffffffffffffffffffffffffffffffffffffffffffffffffffffffe0818403018152908290527f4f72646572496e666f280000000000000000000000000000000000000000000060208301527f616464726573732072656163746f722c00000000000000000000000000000000602a8301527f6164647265737320737761707065722c00000000000000000000000000000000603a8301527f75696e74323536206e6f6e63652c000000000000000000000000000000000000604a8301527f75696e7432353620646561646c696e652c00000000000000000000000000000060588301527f6164647265737320707265457865637574696f6e486f6f6b2c0000000000000060698301527f627974657320707265457865637574696f6e486f6f6b446174612c000000000060828301527f6164647265737320706f7374457865637574696f6e486f6f6b2c000000000000609d8301527f627974657320706f7374457865637574696f6e486f6f6b446174612c0000000060b78301527f616464726573732061756374696f6e5265736f6c76657229000000000000000060d38301529060eb01604080517fffffffffffffffffffffffffffffffffffffffffffffffffffffffffffffffe081840301815260608301909152602e808352909190613399602083013960405160200161141b959493929190613222565b604051602081830303815290604052905090565b5f606473ffffffffffffffffffffffffffffffffffffffff1663a3b1b31d6040518163ffffffff1660e01b8152600401602060405180830381865afa15801561147a573d5f5f3e3d5ffd5b505050506040513d601f19601f8201168201806040525081019061149e91906132af565b905090565b4390565b604080517f4879627269644f7264657228000000000000000000000000000000000000000060208201527f4f72646572496e666f20696e666f2c0000000000000000000000000000000000602c8201527f6164647265737320636f7369676e65722c000000000000000000000000000000603b8201527f487962726964496e70757420696e7075742c0000000000000000000000000000604c8201527f4879627269644f75747075745b5d206f7574707574732c000000000000000000605e8201527f75696e743235362061756374696f6e5374617274426c6f636b2c00000000000060758201527f75696e7432353620626173656c696e655072696f726974794665652c00000000608f8201527f75696e74323536207363616c696e67466163746f722c0000000000000000000060ab8201527f75696e743235365b5d207072696365437572766529000000000000000000000060c1820152815160b681830301815260d6820183527f487962726964496e70757428000000000000000000000000000000000000000060f68301527f6164647265737320746f6b656e2c0000000000000000000000000000000000006101028084018290527f75696e74323536206d6178416d6f756e7429000000000000000000000000000061011085015284518085039091018152610122840185527f4879627269644f7574707574280000000000000000000000000000000000000061014285015261014f8401919091527f75696e74323536206d696e416d6f756e742c000000000000000000000000000061015d8401527f6164647265737320726563697069656e7429000000000000000000000000000061016f8401528351610161818503018152610181840185527f4f72646572496e666f28000000000000000000000000000000000000000000006101a18501527f616464726573732072656163746f722c000000000000000000000000000000006101ab8501527f6164647265737320737761707065722c000000000000000000000000000000006101bb8501527f75696e74323536206e6f6e63652c0000000000000000000000000000000000006101cb8501527f75696e7432353620646561646c696e652c0000000000000000000000000000006101d98501527f6164647265737320707265457865637574696f6e486f6f6b2c000000000000006101ea8501527f627974657320707265457865637574696f6e486f6f6b446174612c00000000006102038501527f6164647265737320706f7374457865637574696f6e486f6f6b2c00000000000061021e8501527f627974657320706f7374457865637574696f6e486f6f6b446174612c000000006102388501527f616464726573732061756374696f6e5265736f6c766572290000000000000000610254850152845161024c81860301815261026c85019095525f946118d19461028c016132c6565b604051602081830303815290604052805190602001206118f3835f01516120e0565b836020015161190585604001516121b1565b6119128660600151612298565b86608001518760a001518860c001518960e0015160405160200161193691906132da565b604080517fffffffffffffffffffffffffffffffffffffffffffffffffffffffffffffffe081840301815282825280516020918201209083019a909a5281019790975273ffffffffffffffffffffffffffffffffffffffff9095166060870152608086019390935260a085019190915260c084015260e0830152610100820152610120810191909152610140015b604051602081830303815290604052805190602001209050919050565b5f81468461010001516040516020016119fa919061330f565b604080517fffffffffffffffffffffffffffffffffffffffffffffffffffffffffffffffe081840301815290829052611a3793929160200161335f565b6040516020818303038152906040528051906020012090505b92915050565b5f5f82806020019051810190611a6c9190613376565b915091505f83604081518110611a8457611a84613282565b01602090810151604080515f80825293810180835289905260f89290921c9082018190526060820186905260808201859052925060019060a0016020604051602081039080840390855afa158015611ade573d5f5f3e3d5ffd5b5050506020604051035190508073ffffffffffffffffffffffffffffffffffffffff168773ffffffffffffffffffffffffffffffffffffffff16141580611b39575073ffffffffffffffffffffffffffffffffffffffff8116155b15611b70576040517fd7815be100000000000000000000000000000000000000000000000000000000815260040160405180910390fd5b50505050505050565b6060825167ffffffffffffffff811115611b9557611b95612be9565b604051908082528060200260200182016040528015611bbe578160200160208202803683370190505b50825184519192505f918082189181119190910218815b81811015611d07575f5f611c01888481518110611bf457611bf4613282565b60200260200101516124a5565b915091505f878481518110611c1857611c18613282565b602002602001015190505f670de0b6b3a76400008284611c3891906131f8565b611c4291906131ce565b90507dffffffffffffffffffffffffffffffffffffffffffffffffffffffffffff8111611c8b611c878585670de0b6b3a7640000828114828214179281109111141790565b1590565b1796909617957fffff00000000000000000000000000000000000000000000000000000000000060f085901b167dffffffffffffffffffffffffffffffffffffffffffffffffffffffffffff821617888681518110611cec57611cec613282565b60200260200101818152505050505050806001019050611bd5565b508115611d40576040517fe80f248200000000000000000000000000000000000000000000000000000000815260040160405180910390fd5b805b8551811015611d8a57858181518110611d5d57611d5d613282565b6020026020010151848281518110611d7757611d77613282565b6020908102919091010152600101611d42565b50505092915050565b670de0b6b3a76400008215611dff5781831115611dea576040517f97417ef2000000000000000000000000000000000000000000000000000000008152600481018490526024810183905260440160405180910390fd5b828203611df785826124df565b915050611e38565b835115611e38576040517f97206b5600000000000000000000000000000000000000000000000000000000815260040160405180910390fd5b60c0850151670de0b6b3a7640000808214838214179181109083111417611e8b576040517fe80f248200000000000000000000000000000000000000000000000000000000815260040160405180910390fd5b949350505050565b5f483a1015611ece576040517ff3eb44e500000000000000000000000000000000000000000000000000000000815260040160405180910390fd5b50483a0381811115611ede570390565b505f5b919050565b60605f835167ffffffffffffffff811115611f0357611f03612be9565b604051908082528060200260200182016040528015611f6b57816020015b604080516060810182525f80825260208083018290529282015282527fffffffffffffffffffffffffffffffffffffffffffffffffffffffffffffffff909201910181611f215790505b5090505f5b845181101561204d576040518060600160405280868381518110611f9657611f96613282565b60200260200101515f015173ffffffffffffffffffffffffffffffffffffffff168152602001611fec86888581518110611fd257611fd2613282565b60200260200101516020015161275490919063ffffffff16565b815260200186838151811061200357612003613282565b60200260200101516040015173ffffffffffffffffffffffffffffffffffffffff1681525082828151811061203a5761203a613282565b6020908102919091010152600101611f70565b509392505050565b61208c60405180606001604052805f73ffffffffffffffffffffffffffffffffffffffff1681526020015f81526020015f81525090565b6040518060600160405280845f015173ffffffffffffffffffffffffffffffffffffffff1681526020016120cd84866020015161278a90919063ffffffff16565b8152602085810151910152905092915050565b5f60405180610100016040528060cb81526020016133c760cb913980519060200120825f015183602001518460400151856060015186608001518760a00151805190602001208860c001518960e00151805190602001208a61010001516040516020016119c49a99989796959493929190998a5273ffffffffffffffffffffffffffffffffffffffff98891660208b015296881660408a01526060890195909552608088019390935290851660a087015260c0860152831660e0850152610100840152166101208201526101400190565b6040517f487962726964496e70757428000000000000000000000000000000000000000060208201527f6164647265737320746f6b656e2c000000000000000000000000000000000000602c8201527f75696e74323536206d6178416d6f756e74290000000000000000000000000000603a8201525f90604c01604080517fffffffffffffffffffffffffffffffffffffffffffffffffffffffffffffffe081840301815282825280516020918201208551868301519285019190915273ffffffffffffffffffffffffffffffffffffffff169183019190915260608201526080016119c4565b5f5f825167ffffffffffffffff8111156122b4576122b4612be9565b6040519080825280602002602001820160405280156122dd578160200160208202803683370190505b5090505f5b8351811015612475576040517f4879627269644f7574707574280000000000000000000000000000000000000060208201527f6164647265737320746f6b656e2c000000000000000000000000000000000000602d8201527f75696e74323536206d696e416d6f756e742c0000000000000000000000000000603b8201527f6164647265737320726563697069656e74290000000000000000000000000000604d820152605f01604051602081830303815290604052805190602001208482815181106123b1576123b1613282565b60200260200101515f01518583815181106123ce576123ce613282565b6020026020010151602001518684815181106123ec576123ec613282565b60200260200101516040015160405160200161243a949392919093845273ffffffffffffffffffffffffffffffffffffffff9283166020850152604084019190915216606082015260800190565b6040516020818303038152906040528051906020012082828151811061246257612462613282565b60209081029190910101526001016122e2565b508060405160200161248791906132da565b60405160208183030381529060405280519060200120915050919050565b60f081901c5f826124d660017e010000000000000000000000000000000000000000000000000000000000006131ce565b92949216925050565b5f82515f036124f75750670de0b6b3a7640000611a50565b5f80805b8551811015612710575f5f61251b888481518110611bf457611bf4613282565b91509150815f0361254e578487106125475780955060019350848703612547579450611a509350505050565b5050612708565b61255882866131f8565b8710156126f9578380156125965750612594886125766001866131ce565b8151811061258657612586613282565b602002602001015160f01c90565b155b1561263d575f6125bb896125ab6001876131ce565b81518110611bf457611bf4613282565b91506125de90508183670de0b6b3a7640000828114828214179281109111141790565b612614576040517fe80f248200000000000000000000000000000000000000000000000000000000815260040160405180910390fd5b6126358183888b61262588836131f8565b670de0b6b3a764000087116127b9565b9650506126ef565b87515f9061264c8560016131f8565b101561266a57612661896125ab8660016131f8565b91506126759050565b50670de0b6b3a76400005b6126948282670de0b6b3a7640000828114828214179281109111141790565b6126ca576040517fe80f248200000000000000000000000000000000000000000000000000000000815260040160405180910390fd5b6126eb8282888b6126db88836131f8565b670de0b6b3a764000088116127b9565b9650505b5050505050611a50565b61270382866131f8565b945050505b6001016124fb565b5081841061274a576040517f89cc995200000000000000000000000000000000000000000000000000000000815260040160405180910390fd5b505f949350505050565b81810281810483146127735781156127735763bac65e5b5f526004601cfd5b670de0b6b3a7640000808206151591040192915050565b5f815f19048311156127a95781156127a95763bac65e5b5f526004601cfd5b50670de0b6b3a764000091020490565b5f858714612801578483038585038082035f6127d5838b6131e1565b6127df838d6131e1565b6127e991906131f8565b90508584878303040181151502945050505050612804565b50845b9695505050505050565b5f6020828403121561281e575f5ffd5b813567ffffffffffffffff811115612834575f5ffd5b820160408185031215612845575f5ffd5b9392505050565b5f81518084528060208401602086015e5f6020828601015260207fffffffffffffffffffffffffffffffffffffffffffffffffffffffffffffffe0601f83011685010191505092915050565b5f8151808452602084019350602083015f5b8281101561291057815173ffffffffffffffffffffffffffffffffffffffff81511687526020810151602088015273ffffffffffffffffffffffffffffffffffffffff6040820151166040880152506060860195506020820191506001810190506128aa565b5093949350505050565b602081525f8251610120602084015261294d6101408401825173ffffffffffffffffffffffffffffffffffffffff169052565b602081015173ffffffffffffffffffffffffffffffffffffffff908116610160850152604082015161018085015260608201516101a08501526080820151166101c084015260a08101516101206101e08501526129ae61026085018261284c565b905060c08201516129d861020086018273ffffffffffffffffffffffffffffffffffffffff169052565b5060e08201517ffffffffffffffffffffffffffffffffffffffffffffffffffffffffffffffec085830301610220860152612a13828261284c565b9150506101008201519150612a4161024085018373ffffffffffffffffffffffffffffffffffffffff169052565b60208501519150612a7f6040850183805173ffffffffffffffffffffffffffffffffffffffff16825260208082015190830152604090810151910152565b604085015191507fffffffffffffffffffffffffffffffffffffffffffffffffffffffffffffffe08482030160a0850152612aba8183612898565b91505060608401517fffffffffffffffffffffffffffffffffffffffffffffffffffffffffffffffe08483030160c0850152612af6828261284c565b915050608084015160e084015260a0840151612b2b61010085018273ffffffffffffffffffffffffffffffffffffffff169052565b5060c08401517fffffffffffffffffffffffffffffffffffffffffffffffffffffffffffffffe084830301610120850152612b66828261284c565b95945050505050565b602081525f612845602083018461284c565b5f5f83357fffffffffffffffffffffffffffffffffffffffffffffffffffffffffffffffe1843603018112612bb4575f5ffd5b83018035915067ffffffffffffffff821115612bce575f5ffd5b602001915036819003821315612be2575f5ffd5b9250929050565b7f4e487b71000000000000000000000000000000000000000000000000000000005f52604160045260245ffd5b604051610120810167ffffffffffffffff81118282101715612c3a57612c3a612be9565b60405290565b6040805190810167ffffffffffffffff81118282101715612c3a57612c3a612be9565b6040516060810167ffffffffffffffff81118282101715612c3a57612c3a612be9565b604051610140810167ffffffffffffffff81118282101715612c3a57612c3a612be9565b604051601f82017fffffffffffffffffffffffffffffffffffffffffffffffffffffffffffffffe016810167ffffffffffffffff81118282101715612cf157612cf1612be9565b604052919050565b73ffffffffffffffffffffffffffffffffffffffff81168114612d1a575f5ffd5b50565b8035611ee181612cf9565b5f82601f830112612d37575f5ffd5b813567ffffffffffffffff811115612d5157612d51612be9565b612d8260207fffffffffffffffffffffffffffffffffffffffffffffffffffffffffffffffe0601f84011601612caa565b818152846020838601011115612d96575f5ffd5b816020850160208301375f918101602001919091529392505050565b5f6101208284031215612dc3575f5ffd5b612dcb612c16565b9050612dd682612d1d565b8152612de460208301612d1d565b60208201526040828101359082015260608083013590820152612e0960808301612d1d565b608082015260a082013567ffffffffffffffff811115612e27575f5ffd5b612e3384828501612d28565b60a083015250612e4560c08301612d1d565b60c082015260e082013567ffffffffffffffff811115612e63575f5ffd5b612e6f84828501612d28565b60e083015250612e826101008301612d1d565b61010082015292915050565b5f60408284031215612e9e575f5ffd5b612ea6612c40565b90508135612eb381612cf9565b815260209182013591810191909152919050565b5f67ffffffffffffffff821115612ee057612ee0612be9565b5060051b60200190565b5f82601f830112612ef9575f5ffd5b8135612f0c612f0782612ec7565b612caa565b80828252602082019150602060608402860101925085831115612f2d575f5ffd5b602085015b83811015612f8b5760608188031215612f49575f5ffd5b612f51612c63565b8135612f5c81612cf9565b8152602082810135908201526040820135612f7681612cf9565b60408201528352602090920191606001612f32565b5095945050505050565b5f82601f830112612fa4575f5ffd5b8135612fb2612f0782612ec7565b8082825260208201915060208360051b860101925085831115612fd3575f5ffd5b602085015b83811015612f8b578035835260209283019201612fd8565b5f60408284031215613000575f5ffd5b613008612c40565b823581529050602082013567ffffffffffffffff811115613027575f5ffd5b61303384828501612f95565b60208301525092915050565b5f6020828403121561304f575f5ffd5b813567ffffffffffffffff811115613065575f5ffd5b82016101608185031215613077575f5ffd5b61307f612c86565b813567ffffffffffffffff811115613095575f5ffd5b6130a186828501612db2565b8252506130b060208301612d1d565b60208201526130c28560408401612e8e565b6040820152608082013567ffffffffffffffff8111156130e0575f5ffd5b6130ec86828501612eea565b60608301525060a082810135608083015260c0808401359183019190915260e08301359082015261010082013567ffffffffffffffff81111561312d575f5ffd5b61313986828501612f95565b60e08301525061012082013567ffffffffffffffff811115613159575f5ffd5b61316586828501612ff0565b6101008301525061014082013567ffffffffffffffff811115613186575f5ffd5b61319286828501612d28565b61012083015250949350505050565b7f4e487b71000000000000000000000000000000000000000000000000000000005f52601160045260245ffd5b81810381811115611a5057611a506131a1565b8082028115828204841417611a5057611a506131a1565b80820180821115611a5057611a506131a1565b5f81518060208401855e5f93019283525090919050565b7f4879627269644f72646572207769746e6573732900000000000000000000000081525f61327761327161326b61326561325f601487018c61320b565b8a61320b565b8861320b565b8661320b565b8461320b565b979650505050505050565b7f4e487b71000000000000000000000000000000000000000000000000000000005f52603260045260245ffd5b5f602082840312156132bf575f5ffd5b5051919050565b5f61280461327161326b613265858a61320b565b81515f90829060208501835b828110156133045781518452602093840193909101906001016132e6565b509195945050505050565b6020808252825182820152828101516040808401528051606084018190525f929190910190829060808501905b80831015612f8b578351825260208201915060208401935060018301925061333c565b8381528260208201525f612b66604083018461320b565b5f5f60408385031215613387575f5ffd5b50508051602090910151909290915056fe546f6b656e5065726d697373696f6e73286164647265737320746f6b656e2c75696e7432353620616d6f756e74294f72646572496e666f28616464726573732072656163746f722c6164647265737320737761707065722c75696e74323536206e6f6e63652c75696e7432353620646561646c696e652c6164647265737320707265457865637574696f6e486f6f6b2c627974657320707265457865637574696f6e486f6f6b446174612c6164647265737320706f7374457865637574696f6e486f6f6b2c627974657320706f7374457865637574696f6e486f6f6b446174612c616464726573732061756374696f6e5265736f6c76657229a26469706673582212204dae1b6ff2603372f2161f34d30fc1e5ecb40aa4f2d66e2515b92041993e472564736f6c634300081e0033","linkReferences":{}},"methodIdentifiers":{"BASE_SCALING_FACTOR()":"542c0792","getPermit2OrderType()":"e01af54d","resolve((bytes,bytes))":"45e914a7"},"id":88}