{"abi":[{"type":"constructor","inputs":[{"name":"_permit2","type":"address","internalType":"contract IPermit2"},{"name":"_protocolFeeOwner","type":"address","internalType":"address"}],"stateMutability":"nonpayable"},{"type":"receive","stateMutability":"payable"},{"type":"function","name":"execute","inputs":[{"name":"order","type":"tuple","internalType":"struct SignedOrder","components":[{"name":"order","type":"bytes","internalType":"bytes"},{"name":"sig","type":"bytes","internalType":"bytes"}]}],"outputs":[],"stateMutability":"payable"},{"type":"function","name":"executeBatch","inputs":[{"name":"orders","type":"tuple[]","internalType":"struct SignedOrder[]","components":[{"name":"order","type":"bytes","internalType":"bytes"},{"name":"sig","type":"bytes","internalType":"bytes"}]}],"outputs":[],"stateMutability":"payable"},{"type":"function","name":"executeBatchWithCallback","inputs":[{"name":"orders","type":"tuple[]","internalType":"struct SignedOrder[]","components":[{"name":"order","type":"bytes","internalType":"bytes"},{"name":"sig","type":"bytes","internalType":"bytes"}]},{"name":"callbackData","type":"bytes","internalType":"bytes"}],"outputs":[],"stateMutability":"payable"},{"type":"function","name":"executeWithCallback","inputs":[{"name":"order","type":"tuple","internalType":"struct SignedOrder","components":[{"name":"order","type":"bytes","internalType":"bytes"},{"name":"sig","type":"bytes","internalType":"bytes"}]},{"name":"callbackData","type":"bytes","internalType":"bytes"}],"outputs":[],"stateMutability":"payable"},{"type":"function","name":"feeController","inputs":[],"outputs":[{"name":"","type":"address","internalType":"contract IProtocolFeeController"}],"stateMutability":"view"},{"type":"function","name":"owner","inputs":[],"outputs":[{"name":"","type":"address","internalType":"address"}],"stateMutability":"view"},{"type":"function","name":"permit2","inputs":[],"outputs":[{"name":"","type":"address","internalType":"contract IPermit2"}],"stateMutability":"view"},{"type":"function","name":"setProtocolFeeController","inputs":[{"name":"_newFeeController","type":"address","internalType":"address"}],"outputs":[],"stateMutability":"nonpayable"},{"type":"function","name":"transferOwnership","inputs":[{"name":"newOwner","type":"address","internalType":"address"}],"outputs":[],"stateMutability":"nonpayable"},{"type":"event","name":"Fill","inputs":[{"name":"orderHash","type":"bytes32","indexed":true,"internalType":"bytes32"},{"name":"filler","type":"address","indexed":true,"internalType":"address"},{"name":"swapper","type":"address","indexed":true,"internalType":"address"},{"name":"nonce","type":"uint256","indexed":false,"internalType":"uint256"}],"anonymous":false},{"type":"event","name":"OwnershipTransferred","inputs":[{"name":"user","type":"address","indexed":true,"internalType":"address"},{"name":"newOwner","type":"address","indexed":true,"internalType":"address"}],"anonymous":false},{"type":"event","name":"ProtocolFeeControllerSet","inputs":[{"name":"oldFeeController","type":"address","indexed":false,"internalType":"address"},{"name":"newFeeController","type":"address","indexed":false,"internalType":"address"}],"anonymous":false},{"type":"error","name":"DuplicateFeeOutput","inputs":[{"name":"duplicateToken","type":"address","internalType":"address"}]},{"type":"error","name":"FeeTooLarge","inputs":[{"name":"token","type":"address","internalType":"address"},{"name":"amount","type":"uint256","internalType":"uint256"},{"name":"recipient","type":"address","internalType":"address"}]},{"type":"error","name":"InputAndOutputFees","inputs":[]},{"type":"error","name":"InputOutputScaling","inputs":[]},{"type":"error","name":"InvalidCosignature","inputs":[]},{"type":"error","name":"InvalidDeadline","inputs":[]},{"type":"error","name":"InvalidFeeToken","inputs":[{"name":"feeToken","type":"address","internalType":"address"}]},{"type":"error","name":"InvalidGasPrice","inputs":[]},{"type":"error","name":"InvalidReactor","inputs":[]},{"type":"error","name":"NativeTransferFailed","inputs":[]},{"type":"error","name":"OrderAlreadyFilled","inputs":[]},{"type":"error","name":"OrderNotFillable","inputs":[]}],"bytecode":{"object":"0x60a06040523480156200001157600080fd5b5060405162003470380380620034708339810160408190526200003491620000b8565b600080546001600160a01b0319166001600160a01b03831690811782556040518492849283928392907f8be0079c531659141344cd1fd0a4f28419497f9722a3daafe3b4186f6b6457e0908290a350506001600255506001600160a01b031660805250620000f79050565b6001600160a01b0381168114620000b557600080fd5b50565b60008060408385031215620000cc57600080fd5b8251620000d9816200009f565b6020840151909250620000ec816200009f565b809150509250929050565b608051613350620001206000396000818160e001528181610d6101526119eb01526133506000f3fe60806040526004361061009a5760003560e01c80632d771389116100695780636999b3771161004e5780636999b377146101715780638da5cb5b1461019e578063f2fde38b146101cb57600080fd5b80632d7713891461013e5780633f62192e1461015e57600080fd5b80630d335884146100a65780630d7a16c3146100bb57806312261ee7146100ce57806313fb72c71461012b57600080fd5b366100a157005b600080fd5b6100b96100b4366004612440565b6101eb565b005b6100b96100c93660046124ee565b610364565b3480156100da57600080fd5b506101027f000000000000000000000000000000000000000000000000000000000000000081565b60405173ffffffffffffffffffffffffffffffffffffffff909116815260200160405180910390f35b6100b9610139366004612530565b6104c5565b34801561014a57600080fd5b506100b96101593660046125c9565b610683565b6100b961016c3660046125ed565b61078f565b34801561017d57600080fd5b506001546101029073ffffffffffffffffffffffffffffffffffffffff1681565b3480156101aa57600080fd5b506000546101029073ffffffffffffffffffffffffffffffffffffffff1681565b3480156101d757600080fd5b506100b96101e63660046125c9565b610894565b6101f3610985565b604080516001808252818301909252600091816020015b6040805161016081018252600060a0820181815260c0830182905260e0830182905261010083018290526101208301829052606061014084018190529083528351808201855282815260208082018490528186018490528085019190915293830181905280830152608082015282527fffffffffffffffffffffffffffffffffffffffffffffffffffffffffffffffff90920191018161020a5790505090506102b2846109f6565b816000815181106102c5576102c5612659565b60200260200101819052506102d981610b60565b6040517f585da628000000000000000000000000000000000000000000000000000000008152339063585da628906103199084908790879060040161285c565b600060405180830381600087803b15801561033357600080fd5b505af1158015610347573d6000803e3d6000fd5b5050505061035481610bb1565b5061035f6001600255565b505050565b61036c610985565b8060008167ffffffffffffffff8111156103885761038861262a565b60405190808252806020026020018201604052801561044357816020015b6040805161016081018252600060a0820181815260c0830182905260e0830182905261010083018290526101208301829052606061014084018190529083528351808201855282815260208082018490528186018490528085019190915293830181905280830152608082015282527fffffffffffffffffffffffffffffffffffffffffffffffffffffffffffffffff9092019101816103a65790505b50905060005b828110156104a25761047d85858381811061046657610466612659565b90506020028101906104789190612922565b6109f6565b82828151811061048f5761048f612659565b6020908102919091010152600101610449565b506104ac81610b60565b6104b581610bb1565b50506104c16001600255565b5050565b6104cd610985565b8260008167ffffffffffffffff8111156104e9576104e961262a565b6040519080825280602002602001820160405280156105a457816020015b6040805161016081018252600060a0820181815260c0830182905260e0830182905261010083018290526101208301829052606061014084018190529083528351808201855282815260208082018490528186018490528085019190915293830181905280830152608082015282527fffffffffffffffffffffffffffffffffffffffffffffffffffffffffffffffff9092019101816105075790505b50905060005b828110156105ec576105c787878381811061046657610466612659565b8282815181106105d9576105d9612659565b60209081029190910101526001016105aa565b506105f681610b60565b6040517f585da628000000000000000000000000000000000000000000000000000000008152339063585da628906106369084908890889060040161285c565b600060405180830381600087803b15801561065057600080fd5b505af1158015610664573d6000803e3d6000fd5b5050505061067181610bb1565b505061067d6001600255565b50505050565b60005473ffffffffffffffffffffffffffffffffffffffff163314610709576040517f08c379a000000000000000000000000000000000000000000000000000000000815260206004820152600c60248201527f554e415554484f52495a4544000000000000000000000000000000000000000060448201526064015b60405180910390fd5b6001805473ffffffffffffffffffffffffffffffffffffffff8381167fffffffffffffffffffffffff000000000000000000000000000000000000000083168117909355604080519190921680825260208201939093527fb904ae9529e373e48bc82df4326cceaf1b4c472babf37f5b7dec46fecc6b53e0910160405180910390a15050565b610797610985565b604080516001808252818301909252600091816020015b6040805161016081018252600060a0820181815260c0830182905260e0830182905261010083018290526101208301829052606061014084018190529083528351808201855282815260208082018490528186018490528085019190915293830181905280830152608082015282527fffffffffffffffffffffffffffffffffffffffffffffffffffffffffffffffff9092019101816107ae579050509050610856826109f6565b8160008151811061086957610869612659565b602002602001018190525061087d81610b60565b61088681610bb1565b506108916001600255565b50565b60005473ffffffffffffffffffffffffffffffffffffffff163314610915576040517f08c379a000000000000000000000000000000000000000000000000000000000815260206004820152600c60248201527f554e415554484f52495a454400000000000000000000000000000000000000006044820152606401610700565b600080547fffffffffffffffffffffffff00000000000000000000000000000000000000001673ffffffffffffffffffffffffffffffffffffffff83169081178255604051909133917f8be0079c531659141344cd1fd0a4f28419497f9722a3daafe3b4186f6b6457e09190a350565b60028054036109f0576040517f08c379a000000000000000000000000000000000000000000000000000000000815260206004820152601f60248201527f5265656e7472616e637947756172643a207265656e7472616e742063616c6c006044820152606401610700565b60028055565b6040805161016081018252600060a0820181815260c0830182905260e083018290526101008301829052610120830182905260606101408401819052908352835180820185528281526020808201849052818601849052840152928201839052828201929092526080810182905290610a6f8380612960565b810190610a7c9190612d2c565b80516020810151604090910151919250610a9591610d04565b6000610aa082610e17565b9050610aac8183611065565b6000610abb83606001516111c7565b90506040518060a0016040528084600001518152602001610ae983866080015161121c90919063ffffffff16565b8152602001610b05838660a0015161131b90919063ffffffff16565b8152602001868060200190610b1a9190612960565b8080601f01602080910402602001604051908101604052809392919081815260200183838082843760009201919091525050509082525060200192909252509392505050565b805160005b8181101561035f576000838281518110610b8157610b81612659565b60200260200101519050610b9481611400565b610b9e81336118f0565b610ba881336119e9565b50600101610b65565b805160005b81811015610cf3576000838281518110610bd257610bd2612659565b602002602001015190506000816040015151905060005b81811015610c5357600083604001518281518110610c0957610c09612659565b60200260200101519050610c4a81604001518260200151836000015173ffffffffffffffffffffffffffffffffffffffff16611d239092919063ffffffff16565b50600101610be9565b5081600001516020015173ffffffffffffffffffffffffffffffffffffffff163373ffffffffffffffffffffffffffffffffffffffff16868581518110610c9c57610c9c612659565b6020026020010151608001517f78ad7ec0e9f89e74012afa58738b6b661c024cb0fd185ee2f616c0a28924bd66856000015160400151604051610ce191815260200190565b60405180910390a45050600101610bb6565b5047156104c1576104c13347611d6a565b6040517f4fe02b4400000000000000000000000000000000000000000000000000000000815273ffffffffffffffffffffffffffffffffffffffff8381166004830152600883901c6024830181905291600160ff85161b916000917f000000000000000000000000000000000000000000000000000000000000000090911690634fe02b4490604401602060405180830381865afa158015610daa573d6000803e3d6000fd5b505050506040513d601f19601f82011682018060405250810190610dce9190612e2d565b9050818118808316600003610e0f576040517fee3b3d4b00000000000000000000000000000000000000000000000000000000815260040160405180910390fd5b505050505050565b6040517f5072696f726974794f726465722800000000000000000000000000000000000060208201527f4f72646572496e666f20696e666f2c0000000000000000000000000000000000602e8201527f6164647265737320636f7369676e65722c000000000000000000000000000000603d8201527f75696e743235362061756374696f6e5374617274426c6f636b2c000000000000604e8201527f75696e7432353620626173656c696e655072696f726974794665655765692c0060688201527f5072696f72697479496e70757420696e7075742c00000000000000000000000060878201527f5072696f726974794f75747075745b5d206f7574707574732900000000000000609b82015260009060b401604080517fffffffffffffffffffffffffffffffffffffffffffffffffffffffffffffffe081840301815260c08301909152608d80835290919061323360208301396040518060800160405280604881526020016131bd604891396040518060800160405280605b81526020016132c0605b9139604051602001610fb19493929190612e46565b60405160208183030381529060405280519060200120610fd48360000151611e04565b836020015184604001518560600151610ff08760800151611e9e565b610ffd8860a00151611f05565b60408051602081019890985287019590955273ffffffffffffffffffffffffffffffffffffffff9093166060860152608085019190915260a084015260c083015260e0820152610100015b604051602081830303815290604052805190602001209050919050565b8051606001514211156110a4576040517f769d11e400000000000000000000000000000000000000000000000000000000815260040160405180910390fd5b6040810151602082015173ffffffffffffffffffffffffffffffffffffffff16158015906110d157508043105b80156110e1575060c08201515181115b1561110b576020820151611103906110f98486611fa3565b8460e0015161201a565b5060c0810151515b80431015611145576040517fc603552000000000000000000000000000000000000000000000000000000000815260040160405180910390fd5b6080820151604001511561035f5760005b8260a001515181101561067d5760008360a00151828151811061117b5761117b612659565b60200260200101516040015111156111bf576040517fa6b844f500000000000000000000000000000000000000000000000000000000815260040160405180910390fd5b600101611156565b6000483a1015611203576040517ff3eb44e500000000000000000000000000000000000000000000000000000000815260040160405180910390fd5b50483a0381811115611213570390565b5060005b919050565b6112566040518060600160405280600073ffffffffffffffffffffffffffffffffffffffff16815260200160008152602001600081525090565b60008360400151836112689190612ecc565b90506298968081106112b6576040518060600160405280856000015173ffffffffffffffffffffffffffffffffffffffff168152602001600081526020018560200151815250915050611315565b6040805160608101909152845173ffffffffffffffffffffffffffffffffffffffff1681526020810182156113005760208601516112fb906298968085810390612142565b611306565b85602001515b81526020868101519101529150505b92915050565b81516060908067ffffffffffffffff8111156113395761133961262a565b6040519080825280602002602001820160405280156113a257816020015b60408051606081018252600080825260208083018290529282015282527fffffffffffffffffffffffffffffffffffffffffffffffffffffffffffffffff9092019101816113575790505b50915060005b818110156113f8576113d38582815181106113c5576113c5612659565b60200260200101518561217e565b8382815181106113e5576113e5612659565b60209081029190910101526001016113a8565b505092915050565b60015473ffffffffffffffffffffffffffffffffffffffff166114205750565b6001546040517f8aa6cf0300000000000000000000000000000000000000000000000000000000815260009173ffffffffffffffffffffffffffffffffffffffff1690638aa6cf0390611477908590600401612ee3565b600060405180830381865afa158015611494573d6000803e3d6000fd5b505050506040513d6000823e601f3d9081017fffffffffffffffffffffffffffffffffffffffffffffffffffffffffffffffe01682016040526114da9190810190612ef6565b60408301515181519192509060006114f28284612fc6565b67ffffffffffffffff81111561150a5761150a61262a565b60405190808252806020026020018201604052801561157357816020015b60408051606081018252600080825260208083018290529282015282527fffffffffffffffffffffffffffffffffffffffffffffffffffffffffffffffff9092019101816115285790505b50905060005b838110156115c4578560400151818151811061159757611597612659565b60200260200101518282815181106115b1576115b1612659565b6020908102919091010152600101611579565b5060008060005b848110156118df5760008782815181106115e7576115e7612659565b6020026020010151905060005b828110156116a55788818151811061160e5761160e612659565b60200260200101516000015173ffffffffffffffffffffffffffffffffffffffff16826000015173ffffffffffffffffffffffffffffffffffffffff160361169d5781516040517ffff0830300000000000000000000000000000000000000000000000000000000815273ffffffffffffffffffffffffffffffffffffffff9091166004820152602401610700565b6001016115f4565b506000805b888110156117665760008b6040015182815181106116ca576116ca612659565b60200260200101519050836000015173ffffffffffffffffffffffffffffffffffffffff16816000015173ffffffffffffffffffffffffffffffffffffffff160361175d578515611747576040517fedc7e2e400000000000000000000000000000000000000000000000000000000815260040160405180910390fd5b60208101516117569084612fc6565b9250600196505b506001016116aa565b50815160208b01515173ffffffffffffffffffffffffffffffffffffffff9182169116036117df5784156117c6576040517fedc7e2e400000000000000000000000000000000000000000000000000000000815260040160405180910390fd5b6020808b015101516117d89082612fc6565b9050600193505b806000036118345781516040517feddf07f500000000000000000000000000000000000000000000000000000000815273ffffffffffffffffffffffffffffffffffffffff9091166004820152602401610700565b611842816005612710612142565b826020015111156118b5578151602083015160408085015190517f82e7565600000000000000000000000000000000000000000000000000000000815273ffffffffffffffffffffffffffffffffffffffff93841660048201526024810192909252919091166044820152606401610700565b8186848a01815181106118ca576118ca612659565b602090810291909101015250506001016115cb565b505050604090940193909352505050565b81515173ffffffffffffffffffffffffffffffffffffffff163014611941576040517f4ddf4a6400000000000000000000000000000000000000000000000000000000815260040160405180910390fd5b81516080015173ffffffffffffffffffffffffffffffffffffffff16156104c1578151608001516040517f6e84ba2b00000000000000000000000000000000000000000000000000000000815273ffffffffffffffffffffffffffffffffffffffff90911690636e84ba2b906119bd9084908690600401612fd9565b60006040518083038186803b1580156119d557600080fd5b505afa158015610e0f573d6000803e3d6000fd5b7f000000000000000000000000000000000000000000000000000000000000000073ffffffffffffffffffffffffffffffffffffffff1663137c29fe611aa9846040805160a0810182526000606082018181526080830182905282526020820181905291810191909152506040805160a081018252602080840180515173ffffffffffffffffffffffffffffffffffffffff1660608085019182529151850151608085015283528451840151918301919091529251909201519082015290565b6040805180820182526000808252602091820152815180830190925273ffffffffffffffffffffffffffffffffffffffff86168252808701518101519082015285600001516020015186608001516040518060c00160405280608d8152602001613233608d91396040518060800160405280604881526020016131bd60489139604080517f5072696f726974794f726465722800000000000000000000000000000000000060208201527f4f72646572496e666f20696e666f2c0000000000000000000000000000000000602e8201527f6164647265737320636f7369676e65722c000000000000000000000000000000603d8201527f75696e743235362061756374696f6e5374617274426c6f636b2c000000000000604e8201527f75696e7432353620626173656c696e655072696f726974794665655765692c0060688201527f5072696f72697479496e70757420696e7075742c00000000000000000000000060878201527f5072696f726974794f75747075745b5d206f7574707574732900000000000000609b820152815160948183030181526101348201909252605b60b48201818152916132c09060d401396040518060600160405280602e8152602001613205602e9139604051602001611c88959493929190613008565b604080517fffffffffffffffffffffffffffffffffffffffffffffffffffffffffffffffe08184030181529082905260608a01517fffffffff0000000000000000000000000000000000000000000000000000000060e089901b168352611cf596959493926004016130a3565b600060405180830381600087803b158015611d0f57600080fd5b505af1158015610e0f573d6000803e3d6000fd5b73ffffffffffffffffffffffffffffffffffffffff8316611d485761035f8282611d6a565b61035f73ffffffffffffffffffffffffffffffffffffffff8416338484612232565b60008273ffffffffffffffffffffffffffffffffffffffff168260405160006040518083038185875af1925050503d8060008114611dc4576040519150601f19603f3d011682016040523d82523d6000602084013e611dc9565b606091505b505090508061035f576040517ff4b3b1bc00000000000000000000000000000000000000000000000000000000815260040160405180910390fd5b60006040518060c00160405280608d8152602001613233608d913980516020918201208351848301516040808701516060880151608089015160a08a0151805190890120935161104898939492939192910196875273ffffffffffffffffffffffffffffffffffffffff958616602088015293851660408701526060860192909252608085015290911660a083015260c082015260e00190565b60006040518060800160405280604881526020016131bd6048913980516020918201208351848301516040808701519051611048950193845273ffffffffffffffffffffffffffffffffffffffff9290921660208401526040830152606082015260800190565b600080825160200267ffffffffffffffff811115611f2557611f2561262a565b6040519080825280601f01601f191660200182016040528015611f4f576020820181803683370190505b50905060005b8351811015611f94576000611f82858381518110611f7557611f75612659565b6020026020010151612324565b60208381028501015250600101611f55565b50805160209091012092915050565b600081468460c00151604051602001611fbf9151815260200190565b604080517fffffffffffffffffffffffffffffffffffffffffffffffffffffffffffffffe081840301815290829052611ffc93929160200161316b565b60405160208183030381529060405280519060200120905092915050565b600080828060200190518101906120319190613198565b9150915060008360408151811061204a5761204a612659565b0160209081015160408051600080825293810180835289905260f89290921c9082018190526060820186905260808201859052925060019060a0016020604051602081039080840390855afa1580156120a7573d6000803e3d6000fd5b5050506020604051035190508073ffffffffffffffffffffffffffffffffffffffff168773ffffffffffffffffffffffffffffffffffffffff16141580612102575073ffffffffffffffffffffffffffffffffffffffff8116155b15612139576040517fd7815be100000000000000000000000000000000000000000000000000000000815260040160405180910390fd5b50505050505050565b6000827fffffffffffffffffffffffffffffffffffffffffffffffffffffffffffffffff048411830215820261217757600080fd5b5091020490565b604080516060810182526000808252602082018190529181019190915260408051606081018252845173ffffffffffffffffffffffffffffffffffffffff16815290840151602082019015612201576121fc8560400151856121e09190612ecc565b6121ed9062989680612fc6565b6020870151906298968061239b565b612207565b84602001515b8152602001846060015173ffffffffffffffffffffffffffffffffffffffff16815250905092915050565b60006040517f23b872dd00000000000000000000000000000000000000000000000000000000815273ffffffffffffffffffffffffffffffffffffffff8516600482015273ffffffffffffffffffffffffffffffffffffffff841660248201528260448201526020600060648360008a5af13d15601f3d116001600051141617169150508061231d576040517f08c379a000000000000000000000000000000000000000000000000000000000815260206004820152601460248201527f5452414e534645525f46524f4d5f4641494c45440000000000000000000000006044820152606401610700565b5050505050565b60006040518060800160405280605b81526020016132c0605b9139805160209182012083518483015160408087015160608801519151611048969192910194855273ffffffffffffffffffffffffffffffffffffffff93841660208601526040850192909252606084015216608082015260a00190565b6000827fffffffffffffffffffffffffffffffffffffffffffffffffffffffffffffffff04841183021582026123d057600080fd5b50910281810615159190040190565b6000604082840312156123f157600080fd5b50919050565b60008083601f84011261240957600080fd5b50813567ffffffffffffffff81111561242157600080fd5b60208301915083602082850101111561243957600080fd5b9250929050565b60008060006040848603121561245557600080fd5b833567ffffffffffffffff8082111561246d57600080fd5b612479878388016123df565b9450602086013591508082111561248f57600080fd5b5061249c868287016123f7565b9497909650939450505050565b60008083601f8401126124bb57600080fd5b50813567ffffffffffffffff8111156124d357600080fd5b6020830191508360208260051b850101111561243957600080fd5b6000806020838503121561250157600080fd5b823567ffffffffffffffff81111561251857600080fd5b612524858286016124a9565b90969095509350505050565b6000806000806040858703121561254657600080fd5b843567ffffffffffffffff8082111561255e57600080fd5b61256a888389016124a9565b9096509450602087013591508082111561258357600080fd5b50612590878288016123f7565b95989497509550505050565b73ffffffffffffffffffffffffffffffffffffffff8116811461089157600080fd5b80356112178161259c565b6000602082840312156125db57600080fd5b81356125e68161259c565b9392505050565b6000602082840312156125ff57600080fd5b813567ffffffffffffffff81111561261657600080fd5b612622848285016123df565b949350505050565b7f4e487b7100000000000000000000000000000000000000000000000000000000600052604160045260246000fd5b7f4e487b7100000000000000000000000000000000000000000000000000000000600052603260045260246000fd5b60005b838110156126a357818101518382015260200161268b565b50506000910152565b600081518084526126c4816020860160208601612688565b601f017fffffffffffffffffffffffffffffffffffffffffffffffffffffffffffffffe0169290920160200192915050565b60008151808452602080850194506020840160005b83811015612756578151805173ffffffffffffffffffffffffffffffffffffffff908116895284820151858a015260409182015116908801526060909601959082019060010161270b565b509495945050505050565b6000815160e0845273ffffffffffffffffffffffffffffffffffffffff8082511660e08601528060208301511661010086015260408201516101208601526060820151610140860152806080830151166101608601525060a0810151905060c06101808501526127d56101a08501826126ac565b905060208301516128136020860182805173ffffffffffffffffffffffffffffffffffffffff16825260208082015190830152604090810151910152565b506040830151848203608086015261282b82826126f6565b915050606083015184820360a086015261284582826126ac565b915050608083015160c08501528091505092915050565b6000604082016040835280865180835260608501915060608160051b8601019250602080890160005b838110156128d1577fffffffffffffffffffffffffffffffffffffffffffffffffffffffffffffffa08887030185526128bf868351612761565b95509382019390820190600101612885565b5050858403818701528684528688828601376000848801820152601f9096017fffffffffffffffffffffffffffffffffffffffffffffffffffffffffffffffe0169092019094019695505050505050565b600082357fffffffffffffffffffffffffffffffffffffffffffffffffffffffffffffffc183360301811261295657600080fd5b9190910192915050565b60008083357fffffffffffffffffffffffffffffffffffffffffffffffffffffffffffffffe184360301811261299557600080fd5b83018035915067ffffffffffffffff8211156129b057600080fd5b60200191503681900382131561243957600080fd5b6040516060810167ffffffffffffffff811182821017156129e8576129e861262a565b60405290565b6040516080810167ffffffffffffffff811182821017156129e8576129e861262a565b604051610100810167ffffffffffffffff811182821017156129e8576129e861262a565b604051601f82017fffffffffffffffffffffffffffffffffffffffffffffffffffffffffffffffe016810167ffffffffffffffff81118282101715612a7c57612a7c61262a565b604052919050565b600082601f830112612a9557600080fd5b813567ffffffffffffffff811115612aaf57612aaf61262a565b612ae060207fffffffffffffffffffffffffffffffffffffffffffffffffffffffffffffffe0601f84011601612a35565b818152846020838601011115612af557600080fd5b816020850160208301376000918101602001919091529392505050565b600060c08284031215612b2457600080fd5b60405160c0810167ffffffffffffffff8282108183111715612b4857612b4861262a565b8160405282935084359150612b5c8261259c565b908252602084013590612b6e8261259c565b816020840152604085013560408401526060850135606084015260808501359150612b988261259c565b81608084015260a0850135915080821115612bb257600080fd5b50612bbf85828601612a84565b60a0830152505092915050565b600060608284031215612bde57600080fd5b612be66129c5565b90508135612bf38161259c565b80825250602082013560208201526040820135604082015292915050565b600067ffffffffffffffff821115612c2b57612c2b61262a565b5060051b60200190565b600082601f830112612c4657600080fd5b81356020612c5b612c5683612c11565b612a35565b82815260079290921b84018101918181019086841115612c7a57600080fd5b8286015b84811015612cdf5760808189031215612c975760008081fd5b612c9f6129ee565b8135612caa8161259c565b8152818501358582015260408083013590820152606080830135612ccd8161259c565b90820152835291830191608001612c7e565b509695505050505050565b600060208284031215612cfc57600080fd5b6040516020810181811067ffffffffffffffff82111715612d1f57612d1f61262a565b6040529135825250919050565b600060208284031215612d3e57600080fd5b813567ffffffffffffffff80821115612d5657600080fd5b908301906101408286031215612d6b57600080fd5b612d73612a11565b823582811115612d8257600080fd5b612d8e87828601612b12565b825250612d9d602084016125be565b60208201526040830135604082015260608301356060820152612dc38660808501612bcc565b608082015260e083013582811115612dda57600080fd5b612de687828601612c35565b60a083015250612dfa866101008501612cea565b60c082015261012083013582811115612e1257600080fd5b612e1e87828601612a84565b60e08301525095945050505050565b600060208284031215612e3f57600080fd5b5051919050565b60008551612e58818460208a01612688565b855190830190612e6c818360208a01612688565b8551910190612e7f818360208901612688565b8451910190612e92818360208801612688565b019695505050505050565b7f4e487b7100000000000000000000000000000000000000000000000000000000600052601160045260246000fd5b808202811582820484141761131557611315612e9d565b6020815260006125e66020830184612761565b60006020808385031215612f0957600080fd5b825167ffffffffffffffff811115612f2057600080fd5b8301601f81018513612f3157600080fd5b8051612f3f612c5682612c11565b81815260609182028301840191848201919088841115612f5e57600080fd5b938501935b83851015612fba5780858a031215612f7b5760008081fd5b612f836129c5565b8551612f8e8161259c565b81528587015187820152604080870151612fa78161259c565b9082015283529384019391850191612f63565b50979650505050505050565b8082018082111561131557611315612e9d565b73ffffffffffffffffffffffffffffffffffffffff831681526040602082015260006126226040830184612761565b7f5072696f726974794f72646572207769746e657373290000000000000000000081526000601687516130418183860160208c01612688565b8751908401906130578184840160208c01612688565b875191019061306c8184840160208b01612688565b86519101906130818184840160208a01612688565b85519101906130968184840160208901612688565b0101979650505050505050565b60006101406130d3838a51805173ffffffffffffffffffffffffffffffffffffffff168252602090810151910152565b60208901516040840152604089015160608401526131146080840189805173ffffffffffffffffffffffffffffffffffffffff168252602090810151910152565b73ffffffffffffffffffffffffffffffffffffffff871660c08401528560e084015280610100840152613149818401866126ac565b905082810361012084015261315e81856126ac565b9998505050505050505050565b83815282602082015260008251613189816040850160208701612688565b91909101604001949350505050565b600080604083850312156131ab57600080fd5b50508051602090910151909290915056fe5072696f72697479496e707574286164647265737320746f6b656e2c75696e7432353620616d6f756e742c75696e74323536206d70735065725072696f7269747946656557656929546f6b656e5065726d697373696f6e73286164647265737320746f6b656e2c75696e7432353620616d6f756e74294f72646572496e666f28616464726573732072656163746f722c6164647265737320737761707065722c75696e74323536206e6f6e63652c75696e7432353620646561646c696e652c61646472657373206164646974696f6e616c56616c69646174696f6e436f6e74726163742c6279746573206164646974696f6e616c56616c69646174696f6e44617461295072696f726974794f7574707574286164647265737320746f6b656e2c75696e7432353620616d6f756e742c75696e74323536206d70735065725072696f726974794665655765692c6164647265737320726563697069656e7429a2646970667358221220353e4a9c8af32ce67b5de33aaecb5fae198f4618ed76c7f0ec66d08df440265b64736f6c63430008180033","linkReferences":{}},"methodIdentifiers":{"execute((bytes,bytes))":"3f62192e","executeBatch((bytes,bytes)[])":"0d7a16c3","executeBatchWithCallback((bytes,bytes)[],bytes)":"13fb72c7","executeWithCallback((bytes,bytes),bytes)":"0d335884","feeController()":"6999b377","owner()":"8da5cb5b","permit2()":"12261ee7","setProtocolFeeController(address)":"2d771389","transferOwnership(address)":"f2fde38b"},"id":65}