{"abi":[{"type":"constructor","inputs":[],"stateMutability":"nonpayable"},{"type":"fallback","stateMutability":"nonpayable"},{"type":"function","name":"owner","inputs":[],"outputs":[{"name":"","type":"address","internalType":"address"}],"stateMutability":"view"},{"type":"function","name":"setOwner","inputs":[{"name":"_owner","type":"address","internalType":"address"}],"outputs":[],"stateMutability":"nonpayable"},{"type":"function","name":"setTarget","inputs":[{"name":"_target","type":"address","internalType":"address"}],"outputs":[],"stateMutability":"nonpayable"},{"type":"function","name":"target","inputs":[],"outputs":[{"name":"","type":"address","internalType":"address"}],"stateMutability":"view"},{"type":"event","name":"ProxyOwnerChanged","inputs":[{"name":"owner","type":"address","indexed":false,"internalType":"address"}],"anonymous":false},{"type":"event","name":"ProxyTargetSet","inputs":[{"name":"target","type":"address","indexed":false,"internalType":"address"}],"anonymous":false}],"bytecode":{"object":"0x6080604052348015600e575f80fd5b505f80546001600160a01b031916331790556102b38061002d5f395ff3fe608060405234801561000f575f80fd5b506004361061004a575f3560e01c806313af4035146100bd578063776d1a01146100d05780638da5cb5b146100e3578063d4b8399214610111575b6001546001600160a01b0316806100995760405162461bcd60e51b815260206004820152600e60248201526d15185c99d95d081b9bdd081cd95d60921b60448201526064015b60405180910390fd5b604051365f82375f803683855af43d805f843e8180156100b7578184f35b8184fd5b005b6100bb6100cb366004610250565b610124565b6100bb6100de366004610250565b6101bd565b5f546100f5906001600160a01b031681565b6040516001600160a01b03909116815260200160405180910390f35b6001546100f5906001600160a01b031681565b5f546001600160a01b031633146101695760405162461bcd60e51b81526020600482015260096024820152682737ba1037bbb732b960b91b6044820152606401610090565b5f80546001600160a01b0319166001600160a01b0383169081179091556040519081527fe543d3a077035cec99b732bad2c4cf1c0fdee02ddf561ae543106ccc31cf35a3906020015b60405180910390a150565b5f546001600160a01b031633146102025760405162461bcd60e51b81526020600482015260096024820152682737ba1037bbb732b960b91b6044820152606401610090565b600180546001600160a01b0319166001600160a01b0383169081179091556040519081527ff1b1e874978309afba903baec19abf568b0337fcedc05dde58cfea25ec25b94d906020016101b2565b5f60208284031215610260575f80fd5b81356001600160a01b0381168114610276575f80fd5b939250505056fea26469706673582212209927617c4c48e469a09ba0687a3588e871b87639ce58ca1e9834cfa89ff06e5464736f6c634300081a0033","linkReferences":{}},"methodIdentifiers":{"owner()":"8da5cb5b","setOwner(address)":"13af4035","setTarget(address)":"776d1a01","target()":"d4b83992"},"id":0}