{"abi":[{"type":"fallback","stateMutability":"payable"},{"type":"receive","stateMutability":"payable"},{"type":"function","name":"CUSTOM_STORAGE_ROOT","inputs":[],"outputs":[{"name":"","type":"bytes32","internalType":"bytes32"}],"stateMutability":"view"},{"type":"function","name":"ENTRY_POINT","inputs":[],"outputs":[{"name":"","type":"address","internalType":"address"}],"stateMutability":"view"},{"type":"function","name":"allowance","inputs":[{"name":"spender","type":"address","internalType":"address"}],"outputs":[{"name":"allowance","type":"uint256","internalType":"uint256"}],"stateMutability":"view"},{"type":"function","name":"approveNative","inputs":[{"name":"spender","type":"address","internalType":"address"},{"name":"amount","type":"uint256","internalType":"uint256"}],"outputs":[{"name":"","type":"bool","internalType":"bool"}],"stateMutability":"nonpayable"},{"type":"function","name":"approveNativeTransient","inputs":[{"name":"spender","type":"address","internalType":"address"},{"name":"amount","type":"uint256","internalType":"uint256"}],"outputs":[{"name":"","type":"bool","internalType":"bool"}],"stateMutability":"nonpayable"},{"type":"function","name":"domainSeparator","inputs":[],"outputs":[{"name":"","type":"bytes32","internalType":"bytes32"}],"stateMutability":"view"},{"type":"function","name":"eip712Domain","inputs":[],"outputs":[{"name":"fields","type":"bytes1","internalType":"bytes1"},{"name":"name","type":"string","internalType":"string"},{"name":"version","type":"string","internalType":"string"},{"name":"chainId","type":"uint256","internalType":"uint256"},{"name":"verifyingContract","type":"address","internalType":"address"},{"name":"salt","type":"bytes32","internalType":"bytes32"},{"name":"extensions","type":"uint256[]","internalType":"uint256[]"}],"stateMutability":"view"},{"type":"function","name":"execute","inputs":[{"name":"batchedCall","type":"tuple","internalType":"struct BatchedCall","components":[{"name":"calls","type":"tuple[]","internalType":"struct Call[]","components":[{"name":"to","type":"address","internalType":"address"},{"name":"value","type":"uint256","internalType":"uint256"},{"name":"data","type":"bytes","internalType":"bytes"}]},{"name":"shouldRevert","type":"bool","internalType":"bool"}]}],"outputs":[],"stateMutability":"payable"},{"type":"function","name":"execute","inputs":[{"name":"mode","type":"bytes32","internalType":"bytes32"},{"name":"executionData","type":"bytes","internalType":"bytes"}],"outputs":[],"stateMutability":"payable"},{"type":"function","name":"execute","inputs":[{"name":"signedBatchedCall","type":"tuple","internalType":"struct SignedBatchedCall","components":[{"name":"batchedCall","type":"tuple","internalType":"struct BatchedCall","components":[{"name":"calls","type":"tuple[]","internalType":"struct Call[]","components":[{"name":"to","type":"address","internalType":"address"},{"name":"value","type":"uint256","internalType":"uint256"},{"name":"data","type":"bytes","internalType":"bytes"}]},{"name":"shouldRevert","type":"bool","internalType":"bool"}]},{"name":"nonce","type":"uint256","internalType":"uint256"},{"name":"keyHash","type":"bytes32","internalType":"bytes32"}]},{"name":"wrappedSignature","type":"bytes","internalType":"bytes"}],"outputs":[],"stateMutability":"payable"},{"type":"function","name":"executeUserOp","inputs":[{"name":"userOp","type":"tuple","internalType":"struct PackedUserOperation","components":[{"name":"sender","type":"address","internalType":"address"},{"name":"nonce","type":"uint256","internalType":"uint256"},{"name":"initCode","type":"bytes","internalType":"bytes"},{"name":"callData","type":"bytes","internalType":"bytes"},{"name":"accountGasLimits","type":"bytes32","internalType":"bytes32"},{"name":"preVerificationGas","type":"uint256","internalType":"uint256"},{"name":"gasFees","type":"bytes32","internalType":"bytes32"},{"name":"paymasterAndData","type":"bytes","internalType":"bytes"},{"name":"signature","type":"bytes","internalType":"bytes"}]},{"name":"","type":"bytes32","internalType":"bytes32"}],"outputs":[],"stateMutability":"nonpayable"},{"type":"function","name":"getKey","inputs":[{"name":"keyHash","type":"bytes32","internalType":"bytes32"}],"outputs":[{"name":"","type":"tuple","internalType":"struct Key","components":[{"name":"keyType","type":"uint8","internalType":"enum KeyType"},{"name":"publicKey","type":"bytes","internalType":"bytes"}]}],"stateMutability":"view"},{"type":"function","name":"getKeySettings","inputs":[{"name":"keyHash","type":"bytes32","internalType":"bytes32"}],"outputs":[{"name":"","type":"uint256","internalType":"Settings"}],"stateMutability":"view"},{"type":"function","name":"getSeq","inputs":[{"name":"key","type":"uint256","internalType":"uint256"}],"outputs":[{"name":"seq","type":"uint256","internalType":"uint256"}],"stateMutability":"view"},{"type":"function","name":"hashTypedData","inputs":[{"name":"hash","type":"bytes32","internalType":"bytes32"}],"outputs":[{"name":"","type":"bytes32","internalType":"bytes32"}],"stateMutability":"view"},{"type":"function","name":"invalidateNonce","inputs":[{"name":"newNonce","type":"uint256","internalType":"uint256"}],"outputs":[],"stateMutability":"nonpayable"},{"type":"function","name":"isRegistered","inputs":[{"name":"keyHash","type":"bytes32","internalType":"bytes32"}],"outputs":[{"name":"","type":"bool","internalType":"bool"}],"stateMutability":"view"},{"type":"function","name":"isValidSignature","inputs":[{"name":"data","type":"bytes32","internalType":"bytes32"},{"name":"wrappedSignature","type":"bytes","internalType":"bytes"}],"outputs":[{"name":"result","type":"bytes4","internalType":"bytes4"}],"stateMutability":"view"},{"type":"function","name":"keyAt","inputs":[{"name":"i","type":"uint256","internalType":"uint256"}],"outputs":[{"name":"","type":"tuple","internalType":"struct Key","components":[{"name":"keyType","type":"uint8","internalType":"enum KeyType"},{"name":"publicKey","type":"bytes","internalType":"bytes"}]}],"stateMutability":"view"},{"type":"function","name":"keyCount","inputs":[],"outputs":[{"name":"","type":"uint256","internalType":"uint256"}],"stateMutability":"view"},{"type":"function","name":"multicall","inputs":[{"name":"data","type":"bytes[]","internalType":"bytes[]"}],"outputs":[{"name":"results","type":"bytes[]","internalType":"bytes[]"}],"stateMutability":"payable"},{"type":"function","name":"namespaceAndVersion","inputs":[],"outputs":[{"name":"","type":"string","internalType":"string"}],"stateMutability":"pure"},{"type":"function","name":"register","inputs":[{"name":"key","type":"tuple","internalType":"struct Key","components":[{"name":"keyType","type":"uint8","internalType":"enum KeyType"},{"name":"publicKey","type":"bytes","internalType":"bytes"}]}],"outputs":[],"stateMutability":"nonpayable"},{"type":"function","name":"revoke","inputs":[{"name":"keyHash","type":"bytes32","internalType":"bytes32"}],"outputs":[],"stateMutability":"nonpayable"},{"type":"function","name":"supportsExecutionMode","inputs":[{"name":"mode","type":"bytes32","internalType":"bytes32"}],"outputs":[{"name":"result","type":"bool","internalType":"bool"}],"stateMutability":"pure"},{"type":"function","name":"transferFromNative","inputs":[{"name":"from","type":"address","internalType":"address"},{"name":"recipient","type":"address","internalType":"address"},{"name":"amount","type":"uint256","internalType":"uint256"}],"outputs":[{"name":"","type":"bool","internalType":"bool"}],"stateMutability":"nonpayable"},{"type":"function","name":"transferFromNativeTransient","inputs":[{"name":"from","type":"address","internalType":"address"},{"name":"recipient","type":"address","internalType":"address"},{"name":"amount","type":"uint256","internalType":"uint256"}],"outputs":[{"name":"","type":"bool","internalType":"bool"}],"stateMutability":"nonpayable"},{"type":"function","name":"transientAllowance","inputs":[{"name":"spender","type":"address","internalType":"address"}],"outputs":[{"name":"","type":"uint256","internalType":"uint256"}],"stateMutability":"view"},{"type":"function","name":"update","inputs":[{"name":"keyHash","type":"bytes32","internalType":"bytes32"},{"name":"settings","type":"uint256","internalType":"Settings"}],"outputs":[],"stateMutability":"nonpayable"},{"type":"function","name":"updateEntryPoint","inputs":[{"name":"entryPoint","type":"address","internalType":"address"}],"outputs":[],"stateMutability":"nonpayable"},{"type":"function","name":"validateUserOp","inputs":[{"name":"userOp","type":"tuple","internalType":"struct PackedUserOperation","components":[{"name":"sender","type":"address","internalType":"address"},{"name":"nonce","type":"uint256","internalType":"uint256"},{"name":"initCode","type":"bytes","internalType":"bytes"},{"name":"callData","type":"bytes","internalType":"bytes"},{"name":"accountGasLimits","type":"bytes32","internalType":"bytes32"},{"name":"preVerificationGas","type":"uint256","internalType":"uint256"},{"name":"gasFees","type":"bytes32","internalType":"bytes32"},{"name":"paymasterAndData","type":"bytes","internalType":"bytes"},{"name":"signature","type":"bytes","internalType":"bytes"}]},{"name":"userOpHash","type":"bytes32","internalType":"bytes32"},{"name":"missingAccountFunds","type":"uint256","internalType":"uint256"}],"outputs":[{"name":"validationData","type":"uint256","internalType":"uint256"}],"stateMutability":"nonpayable"},{"type":"event","name":"ApproveNative","inputs":[{"name":"owner","type":"address","indexed":true,"internalType":"address"},{"name":"spender","type":"address","indexed":true,"internalType":"address"},{"name":"value","type":"uint256","indexed":false,"internalType":"uint256"}],"anonymous":false},{"type":"event","name":"ApproveNativeTransient","inputs":[{"name":"owner","type":"address","indexed":true,"internalType":"address"},{"name":"spender","type":"address","indexed":true,"internalType":"address"},{"name":"value","type":"uint256","indexed":false,"internalType":"uint256"}],"anonymous":false},{"type":"event","name":"EIP712DomainChanged","inputs":[],"anonymous":false},{"type":"event","name":"EntryPointUpdated","inputs":[{"name":"newEntryPoint","type":"address","indexed":true,"internalType":"address"}],"anonymous":false},{"type":"event","name":"NonceInvalidated","inputs":[{"name":"nonce","type":"uint256","indexed":false,"internalType":"uint256"}],"anonymous":false},{"type":"event","name":"Registered","inputs":[{"name":"keyHash","type":"bytes32","indexed":true,"internalType":"bytes32"},{"name":"key","type":"tuple","indexed":false,"internalType":"struct Key","components":[{"name":"keyType","type":"uint8","internalType":"enum KeyType"},{"name":"publicKey","type":"bytes","internalType":"bytes"}]}],"anonymous":false},{"type":"event","name":"Revoked","inputs":[{"name":"keyHash","type":"bytes32","indexed":true,"internalType":"bytes32"}],"anonymous":false},{"type":"event","name":"TransferFromNative","inputs":[{"name":"from","type":"address","indexed":true,"internalType":"address"},{"name":"to","type":"address","indexed":true,"internalType":"address"},{"name":"value","type":"uint256","indexed":false,"internalType":"uint256"}],"anonymous":false},{"type":"event","name":"TransferFromNativeTransient","inputs":[{"name":"from","type":"address","indexed":true,"internalType":"address"},{"name":"to","type":"address","indexed":true,"internalType":"address"},{"name":"value","type":"uint256","indexed":false,"internalType":"uint256"}],"anonymous":false},{"type":"error","name":"AllowanceExceeded","inputs":[]},{"type":"error","name":"CallFailed","inputs":[{"name":"reason","type":"bytes","internalType":"bytes"}]},{"type":"error","name":"CannotRegisterRootKey","inputs":[]},{"type":"error","name":"CannotUpdateRootKey","inputs":[]},{"type":"error","name":"ECDSAInvalidSignature","inputs":[]},{"type":"error","name":"ECDSAInvalidSignatureLength","inputs":[{"name":"length","type":"uint256","internalType":"uint256"}]},{"type":"error","name":"ECDSAInvalidSignatureS","inputs":[{"name":"s","type":"bytes32","internalType":"bytes32"}]},{"type":"error","name":"ExcessiveInvalidation","inputs":[]},{"type":"error","name":"FnSelectorNotRecognized","inputs":[]},{"type":"error","name":"IncorrectSender","inputs":[]},{"type":"error","name":"IndexOutOfBounds","inputs":[]},{"type":"error","name":"InvalidHookResponse","inputs":[]},{"type":"error","name":"InvalidNonce","inputs":[]},{"type":"error","name":"InvalidSignature","inputs":[]},{"type":"error","name":"KeyDoesNotExist","inputs":[]},{"type":"error","name":"KeyExpired","inputs":[{"name":"expiration","type":"uint40","internalType":"uint40"}]},{"type":"error","name":"NotEntryPoint","inputs":[]},{"type":"error","name":"OnlyAdminCanSelfCall","inputs":[]},{"type":"error","name":"TransferNativeFailed","inputs":[]},{"type":"error","name":"Unauthorized","inputs":[]},{"type":"error","name":"UnsupportedExecutionMode","inputs":[]}],"bytecode":{"object":"0x60c0604052346100be57604080519081016001600160401b038111828210176100aa576040908152601a82527f556e6973776170204d696e696d616c2044656c65676174696f6e0000000000006020830190815281519182016001600160401b038111838210176100aa57604052600182526020820192603160f81b845251902060805251902060a052604051614c3490816100c38239608051816123ef015260a051816124150152f35b634e487b7160e01b5f52604160045260245ffd5b5f80fdfe60806040526004361015610015575b3661245a57005b5f3560e01c80630f3ebf6e1461020457806312aaac70146101ff5780631626ba7e146101fa57806319822f7c146101f55780631b71bb6e146101f057806323d57886146101eb57806325e5c243146101e657806327258b22146101e157806328495877146101dc57806330b1fa3b146101d75780633e5beab9146101d25780634223b5c2146101cd5780636575f6aa146101c85780636a1ea88d146101c35780637613e7ba146101be578063786902f2146101b9578063789ff701146101b457806384b0196e146101af5780638dd7712f146101aa57806394430fa5146101a5578063997a7d01146101a057806399e1d0161461019b578063a58bb84a14610196578063ac9650d814610191578063b70e36f01461018c578063b75c7dc614610187578063d03c791414610182578063e9ae5c531461017d578063eceded3014610178578063f698da25146101735763fac750e00361000e57611589565b61156f565b6114d2565b611332565b611314565b611116565b610f91565b610e8d565b610d96565b610d62565b610bc6565b610b9b565b610b13565b6109f7565b6109de565b6109c5565b61095f565b6108fc565b6108de565b610838565b6107dd565b61075d565b6105f2565b6105ca565b610555565b6104be565b61041a565b610368565b6102dc565b6102ad565b3461022a57602036600319011261022a5760206102226004356115a3565b604051908152f35b5f80fd5b634e487b7160e01b5f52602160045260245ffd5b6003111561024c57565b61022e565b90600382101561024c5752565b805180835260209291819084018484015e5f828201840152601f01601f1916010190565b606060206102aa9381845261029a8285018251610251565b015191604080820152019061025e565b90565b3461022a57602036600319011261022a576102d86102cc60043561170e565b60405191829182610282565b0390f35b3461022a57604036600319011261022a5760043560243567ffffffffffffffff811161022a573660238201121561022a57806004013567ffffffffffffffff811161022a57366024828401011161022a576102d892602461033e9301906118a4565b6040516001600160e01b031990911681529081906020820190565b908161012091031261022a5790565b3461022a57606036600319011261022a5760043567ffffffffffffffff811161022a57610399903690600401610359565b602435906044356001600160a01b036103b061211e565b1633036103d4576102d8926103c492611a93565b6040519081529081906020820190565b7fd663742a000000000000000000000000000000000000000000000000000000005f5260045ffd5b6001600160a01b0381160361022a57565b3590610418826103fc565b565b3461022a57602036600319011261022a57600435610437816103fc565b303303610496576001600160a01b0316600160ff1b81177fc807f46cbe2302f9a007e47db23c8af6a94680c1d26280fb9582873dbe5c9200557fea942933e7fb7cb728727281a81e352a20dda96dbc4ee97633a3fa25da48e4ab5f80a2005b7f82b42900000000000000000000000000000000000000000000000000000000005f5260045ffd5b3461022a57604036600319011261022a576004356104db816103fc565b60243590303303610496576001600160a01b031690815f527fc807f46cbe2302f9a007e47db23c8af6a94680c1d26280fb9582873dbe5c92056020528060405f20556040519081527f30346eac03b1c5913bb026e6d8d0f42783a0c706bb2a86916410dc385cc2723660203092a360405160018152602090f35b3461022a57604036600319011261022a57600435610572816103fc565b602435903033036104965780610590836001600160a01b03936127ae565b60405192835216907ff8c1385bb618a432aebbaae5bfab911559154982a64e1750b17b50f5782dc98860203092a360405160018152602090f35b3461022a57602036600319011261022a5760206105e86004356127c0565b6040519015158152f35b3461022a575f36600319011261022a576102d86040516106136040826106a2565b601f81527f556e69737761702e4d696e696d616c44656c65676174696f6e2e312e302e3000602082015260405191829160208352602083019061025e565b634e487b7160e01b5f52604160045260245ffd5b6040810190811067ffffffffffffffff82111761068157604052565b610651565b6060810190811067ffffffffffffffff82111761068157604052565b90601f8019910116810190811067ffffffffffffffff82111761068157604052565b604051906104186040836106a2565b6040519061041860c0836106a2565b604051906104186060836106a2565b6003111561022a57565b67ffffffffffffffff811161068157601f01601f191660200190565b81601f8201121561022a5780359061072e826106fb565b9261073c60405194856106a2565b8284526020838301011161022a57815f926020809301838601378301015290565b3461022a57602036600319011261022a5760043567ffffffffffffffff811161022a576040600319823603011261022a5760405161079a81610665565b81600401356107a8816106f1565b8152602482013567ffffffffffffffff811161022a576107db9260046107d19236920101610717565b6020820152611cd4565b005b3461022a57602036600319011261022a576001600160a01b03600435610802816103fc565b165f527fc807f46cbe2302f9a007e47db23c8af6a94680c1d26280fb9582873dbe5c9205602052602060405f2054604051908152f35b3461022a57602036600319011261022a57600435610854611612565b508061088b6318fb58646004527fc807f46cbe2302f9a007e47db23c8af6a94680c1d26280fb9582873dbe5c92015f5260245f2090565b015490610896612c73565b11156108b6576102cc8168fbb67fda52d4bfb8bf6102d89314150261170e565b7f4e23d035000000000000000000000000000000000000000000000000000000005f5260045ffd5b3461022a57602036600319011261022a576020610222600435612490565b3461022a57602036600319011261022a5777ffffffffffffffffffffffffffffffffffffffffffffffff600435165f527fc807f46cbe2302f9a007e47db23c8af6a94680c1d26280fb9582873dbe5c9204602052602060405f2054604051908152f35b3461022a575f36600319011261022a5760206040517fc807f46cbe2302f9a007e47db23c8af6a94680c1d26280fb9582873dbe5c92008152f35b606090600319011261022a576004356109b1816103fc565b906024356109be816103fc565b9060443590565b3461022a5760206105e86109d836610999565b91611f0e565b3461022a5760206105e86109f136610999565b9161200c565b3461022a575f36600319011261022a57610ab56040610ac2815191610a1c81846106a2565b601a83527f556e6973776170204d696e696d616c2044656c65676174696f6e00000000000060208401528051610a5282826106a2565b600181527f3100000000000000000000000000000000000000000000000000000000000000602082015281519485947f0f00000000000000000000000000000000000000000000000000000000000000865260e0602087015260e086019061025e565b918483039085015261025e565b4660608301523060808301525f60a083015281810360c083015260206060519182815201906080905f5b818110610afa575050500390f35b8251845285945060209384019390920191600101610aec565b3461022a57604036600319011261022a5760043567ffffffffffffffff811161022a57610b44903690600401610359565b6001600160a01b03610b5461211e565b1633036103d45780610b966004610b8d610b80610b786101006107db970186611a60565b810190611857565b5050936060810190611a60565b81019101610d3c565b6129ed565b3461022a575f36600319011261022a576020610bb561211e565b6001600160a01b0360405191168152f35b3461022a57602036600319011261022a576001600160a01b03600435610beb816103fc565b165f526020805f205c604051908152f35b67ffffffffffffffff81116106815760051b60200190565b8015150361022a57565b359061041882610c14565b91909160408184031261022a5760405190610c4382610665565b8193813567ffffffffffffffff811161022a5782019080601f8301121561022a57813591610c7083610bfc565b92610c7e60405194856106a2565b80845260208085019160051b8301019183831161022a5760208101915b838310610cbc57505050505060208092610cb792855201610c1e565b910152565b823567ffffffffffffffff811161022a578201906060828703601f19011261022a5760405190610ceb82610686565b6020830135610cf9816103fc565b82526040830135602083015260608301359167ffffffffffffffff831161022a57610d2c88602080969581960101610717565b6040820152815201920191610c9b565b9060208282031261022a57813567ffffffffffffffff811161022a576102aa9201610c29565b602036600319011261022a5760043567ffffffffffffffff811161022a57610d916107db913690600401610c29565b612171565b3461022a57604036600319011261022a57602435600435303303610496578015610e0657610dc3816127c0565b15610df7575f527fc807f46cbe2302f9a007e47db23c8af6a94680c1d26280fb9582873dbe5c920360205260405f20555f80f35b63395ed8c160e21b5f5260045ffd5b7fb37b2fa0000000000000000000000000000000000000000000000000000000005f5260045ffd5b602081016020825282518091526040820191602060408360051b8301019401925f915b838310610e6057505050505090565b9091929394602080610e7e600193603f19868203018752895161025e565b97019301930191939290610e51565b602036600319011261022a5760043567ffffffffffffffff811161022a573660238201121561022a5780600401359067ffffffffffffffff821161022a576024810190602436918460051b01011161022a57610ee882610bfc565b91610ef660405193846106a2565b808352601f19610f0582610bfc565b015f5b818110610f805750505f5b818110610f2857604051806102d88682610e2e565b5f80610f358385876121a5565b90610f45604051809381936121c5565b0390305af4610f526121d2565b9015610f785790600191610f668287612201565b52610f718186612201565b5001610f13565b602081519101fd5b806060602080938801015201610f08565b3461022a57602036600319011261022a57600435303303610496578060401c61100c610ffe8277ffffffffffffffffffffffffffffffffffffffffffffffff165f527fc807f46cbe2302f9a007e47db23c8af6a94680c1d26280fb9582873dbe5c920460205260405f2090565b5467ffffffffffffffff1690565b9167ffffffffffffffff81169267ffffffffffffffff81168411156110ee5767ffffffffffffffff61ffff91850316116110c6577f4d9dbebf1d909894d9c26fe228c27cec643b2cb490124e5b658f4edd203c20c1926110b06110c19377ffffffffffffffffffffffffffffffffffffffffffffffff165f527fc807f46cbe2302f9a007e47db23c8af6a94680c1d26280fb9582873dbe5c920460205260405f2090565b556040519081529081906020820190565b0390a1005b7f24d35a26000000000000000000000000000000000000000000000000000000005f5260045ffd5b7f756688fe000000000000000000000000000000000000000000000000000000005f5260045ffd5b3461022a57602036600319011261022a5760043530330361049657805f906111696318fb58646004527fc807f46cbe2302f9a007e47db23c8af6a94680c1d26280fb9582873dbe5c92015f5260245f2090565b9068fbb67fda52d4bfb8bf84146113075783156112f7575b811980549182159260011c935f19850191600183811b179461128a57816020525f5260405f2094855492831561127b575f975083035f190161125d575b50505055556111cd60015b1590565b610df75761120a611205825f527fc807f46cbe2302f9a007e47db23c8af6a94680c1d26280fb9582873dbe5c920260205260405f2090565b61225e565b5f8181527fc807f46cbe2302f9a007e47db23c8af6a94680c1d26280fb9582873dbe5c920360205260408120557fe5af7daed5ab2a2dc5f98d53619f05089c0c14d11a6621f6b906a2366c9a7ab35f80a2005b810186199081015491830101819055855260408520555f80806111be565b505050505050506111cd901590565b95509350505050600190828154146112db57818101838154146112c75750600201918254146112bd5750600190506111cd565b5f6111cd92551590565b6111cd935060025f92019081549055551590565b6111cd9250806002835f93019182548155019081549055551590565b5068fbb67fda52d4bfb8bf611181565b63f5a267f15f526004601cfd5b3461022a57602036600319011261022a5760206105e8600435612bf1565b604036600319011261022a5760043560243567ffffffffffffffff811161022a57611361903690600401610717565b61136a82612bf1565b156114aa578051810190602082019060208184031261022a5760208101519067ffffffffffffffff821161022a570181603f8201121561022a576020810151926113b384610bfc565b936113c160405195866106a2565b8085526020808087019260051b850101019284841161022a5760408101915b848310611425576107db87610d917eff0000000000000000000000000000000000000000000000000000000000008b16156114196106c4565b92835215156020830152565b825167ffffffffffffffff811161022a5782016020810191906060908603601f19011261022a576040519061145982610686565b6020830151611467816103fc565b82526040830151602083015260608301519167ffffffffffffffff831161022a5761149a89602080969581960101611663565b60408201528152019201916113e0565b7f7f181275000000000000000000000000000000000000000000000000000000005f5260045ffd5b604036600319011261022a5760043567ffffffffffffffff811161022a576060600319823603011261022a576040519061150b82610686565b80600401359067ffffffffffffffff821161022a5761153260449260043691840101610c29565b835260248101356020840152013560408201526024359067ffffffffffffffff821161022a576115696107db923690600401610717565b906122bd565b3461022a575f36600319011261022a5760206102226123c2565b3461022a575f36600319011261022a576020610222612c73565b80156115f3576115b2816127c0565b6115c55763395ed8c160e21b5f5260045ffd5b5f527fc807f46cbe2302f9a007e47db23c8af6a94680c1d26280fb9582873dbe5c920360205260405f205490565b5079010000000000000000000000000000000000000000000000000090565b6040519061161f82610665565b60606020835f81520152565b90600182811c92168015611659575b602083101461164557565b634e487b7160e01b5f52602260045260245ffd5b91607f169161163a565b81601f8201121561022a5760208151910161167d826106fb565b9261168b60405194856106a2565b8284528282011161022a57815f926020928386015e8301015290565b60208183031261022a5780519067ffffffffffffffff821161022a570160408183031261022a57604051916116db83610665565b81516116e6816106f1565b8352602082015167ffffffffffffffff811161022a576117069201611663565b602082015290565b611716611612565b50801561181c57611726816127c0565b6117395763395ed8c160e21b5f5260045ffd5b61176a905f527fc807f46cbe2302f9a007e47db23c8af6a94680c1d26280fb9582873dbe5c920260205260405f2090565b604051905f9080549061177c8261162b565b80855291600181169081156117f557506001146117b5575b5050906117a6816102aa9303826106a2565b602080825183010191016116a7565b5f90815260208120939250905b8082106117db575090915081016020016117a682611794565b9192600181602092548385880101520191019092916117c2565b60ff191660208087019190915292151560051b850190920192506117a69150839050611794565b50611825611612565b506040513060208201526020815261183e6040826106a2565b6040519061184b82610665565b60028252602082015290565b9160608383031261022a57823592602081013567ffffffffffffffff811161022a5783611885918301610717565b92604082013567ffffffffffffffff811161022a576102aa9201610717565b916118b9611905949261191592810190611857565b929195909460405160208101917f88db707a1e2dc654f6eae4e6a221fc7a3904142a8e1135d44397d0f80930e8f783526040820152604081526118fd6060826106a2565b519020612490565b93846119108761170e565b6125a8565b15611a50577f1626ba7e0000000000000000000000000000000000000000000000000000000092611945856115a3565b9061194f826126bf565b6001600160a01b038281169260041661196c575b50505050909150565b611991955060409496855196879586948593639ac4eafd60e01b855260048501612718565b0392165afa908115611a4b575f905f926119f1575b506001600160e01b0319639ac4eafd60e01b9116036119c957815f808080611963565b7f1e048e1d000000000000000000000000000000000000000000000000000000005f5260045ffd5b9150506040813d604011611a43575b81611a0d604093836106a2565b8101031261022a57639ac4eafd60e01b6001600160e01b0319611a3b6020611a3485612703565b9401612703565b9291506119a6565b3d9150611a00565b612734565b509150506001600160e01b031990565b903590601e198136030182121561022a570180359067ffffffffffffffff821161022a5760200191813603831361022a57565b9180939193611cb0575b50611abe611ab2610b78610100850185611a60565b9290866119108461170e565b15611ca657611acc816115a3565b93611ad6856126bf565b78ffffffffff00000000000000000000000000000000000000008516946001600160a01b03808216939091600216611b13575b5050505050909150565b611c10949650611c276040969887519889978896879563a3180ce160e01b8752600487015260806024870152611b5c60848701611b4f8361040d565b6001600160a01b03169052565b602081013560a4870152611bfd611bf1611bb0611b91611b7e8f86018661275c565b61012060c48d01526101a48c019161278e565b611b9e606086018661275c565b8b83036083190160e48d01529061278e565b60808401356101048a015260a08401356101248a015260c08401356101448a0152611bde60e085018561275c565b8a8303608319016101648c01529061278e565b9161010081019061275c565b878303608319016101848901529061278e565b91604485015260031984830301606485015261025e565b0392165afa908115611a4b575f905f92611c60575b506001600160e01b031963a3180ce160e01b9116036119c957815f80808080611b09565b6001600160e01b0319925063a3180ce160e01b9150611c969060403d604011611c9f575b611c8e81836106a2565b81019061273f565b92909150611c3c565b503d611c84565b5050915050600190565b5f9081803892335af1505f611a9d565b60405190611ccf6020836106a2565b5f8252565b303303610496578051600381101561024c5760021480611dbf575b611d97577f8df00f8e3bbfb2c3024a60b74e1d4e520f7cbe1da3476726241146ecf6328832611d92611d208361285d565b92611d7c604051611d4681611d388560208301610282565b03601f1981018352826106a2565b611d77865f527fc807f46cbe2302f9a007e47db23c8af6a94680c1d26280fb9582873dbe5c920260205260405f2090565b611e42565b611d858461289a565b5060405191829182610282565b0390a2565b7f41e2e8f3000000000000000000000000000000000000000000000000000000005f5260045ffd5b5060208101516001600160a01b03611de282519260208030958301019101612593565b1614611cef565b818110611df4575050565b5f8155600101611de9565b9190601f8111611e0e57505050565b610418925f5260205f20906020601f840160051c83019310611e38575b601f0160051c0190611de9565b9091508190611e2b565b919091825167ffffffffffffffff811161068157611e6a81611e64845461162b565b84611dff565b6020601f8211600114611ea9578190611e9a9394955f92611e9e575b50508160011b915f199060031b1c19161790565b9055565b015190505f80611e86565b601f19821690611ebc845f5260205f2090565b915f5b818110611ef657509583600195969710611ede575b505050811b019055565b01515f1960f88460031b161c191690555f8080611ed4565b9192602060018192868b015181550194019201611ebf565b8215612005576001600160a01b0330911603611fdd57335f908152602090205c90828210611fb5576001600160a01b0391835f198210611fa3575b505016905f80808084865af1611f5d6121d2565b5015611f94576040519081527f3f1beca043a9fe9118bbaeca0035e81e02d6d7cf184bf32fa9dfbd73fdd027c060203092a3600190565b635835233d60e11b5f5260045ffd5b611fae9103336127ae565b5f83611f49565b7fc45cb513000000000000000000000000000000000000000000000000000000005f5260045ffd5b7f7d1c29f3000000000000000000000000000000000000000000000000000000005f5260045ffd5b5050505f90565b91905f928215612116576001600160a01b0330911603611fdd57335f9081527fc807f46cbe2302f9a007e47db23c8af6a94680c1d26280fb9582873dbe5c92056020526040902054828110611fb5575f1981106120c6575b506001600160a01b0316918080808085875af161207f6121d2565b50156120b757506040519081527fed1cf8378e55f85e35be72eebdbef1b7347825916e51aa538d1855113f8c259d60203092a3600190565b80635835233d60e11b60049252fd5b92506001600160a01b0390825f940361210f336001600160a01b03165f527fc807f46cbe2302f9a007e47db23c8af6a94680c1d26280fb9582873dbe5c920560205260405f2090565b5590612064565b505050505f90565b7fc807f46cbe2302f9a007e47db23c8af6a94680c1d26280fb9582873dbe5c920054600160ff1b811615612158576001600160a01b031690565b50734337084d9e255ff0702461cf8895ce9e3b5ff10890565b61217a33612b50565b61218381612b9c565b1561049657610418916129ed565b634e487b7160e01b5f52603260045260245ffd5b908210156121c0576121bc9160051b810190611a60565b9091565b612191565b908092918237015f815290565b3d156121fc573d906121e3826106fb565b916121f160405193846106a2565b82523d5f602084013e565b606090565b80518210156121c05760209160051b010190565b634e487b7160e01b5f52601160045260245ffd5b908160021b917f3fffffffffffffffffffffffffffffffffffffffffffffffffffffffffffffff81160361225957565b612215565b612268815461162b565b9081612272575050565b81601f5f9311600114612283575055565b8183526020832061229f91601f0160051c810190600101611de9565b808252602082209081548360011b9084198560031b1c191617905555565b9060208201518060401c5f527fc807f46cbe2302f9a007e47db23c8af6a94680c1d26280fb9582873dbe5c920460205260405f208054915f1983146122595767ffffffffffffffff9160018401905516036110ee578060208061232593518301019101612c2a565b916123376123328261302c565b612490565b61234d6111c9604084019483611910875161170e565b61239a57610418936001600160a01b0361236785516115a3565b612370816126bf565b169160018316612387575b505050519051906129ed565b845161239293613156565b5f808061237b565b7f8baa579f000000000000000000000000000000000000000000000000000000005f5260045ffd5b60405160208101907f8b73c3c69bb8fe3d512ecc4cf759cc79239f7b179b0ffacaa9a75d522b39400f82527f000000000000000000000000000000000000000000000000000000000000000060408201527f000000000000000000000000000000000000000000000000000000000000000060608201524660808201523060a082015260a0815261245460c0826106a2565b51902090565b5f3560e01c63bc197c81811463f23a6e6182141763150b7a0282141761248757633c10b94e5f526004601cfd5b6020526020603cf35b6124986123c2565b906040519060208201927f1901000000000000000000000000000000000000000000000000000000000000845260228301526042820152604281526124546062826106a2565b919082604091031261022a576020825192015190565b60208183031261022a5780519067ffffffffffffffff821161022a57019060c08282031261022a576125246106d3565b91805167ffffffffffffffff811161022a5782612542918301611663565b8352602081015167ffffffffffffffff811161022a5760a092612566918301611663565b6020840152604081015160408401526060810151606084015260808101516080840152015160a082015290565b9081602091031261022a57516102aa816103fc565b9190600283516125b781610242565b6125c081610242565b03612603576125f160206125df6001600160a01b03946125fd94612ff6565b94015160208082518301019101612593565b6001600160a01b031690565b91161490565b91805161260f81610242565b61261881610242565b61265357906102aa9261263b602061264d940151602080825183010191016124de565b939092602080825183010191016124de565b91612fcb565b906001825161266181610242565b61266a81610242565b03612005576102aa92611d386126ba61269360206126a5960151602080825183010191016124de565b959094602080825183010191016124f4565b92604051928391602083019190602083019252565b612dd5565b6126c89061300c565b906126d05750565b64ffffffffff907f48c76fe1000000000000000000000000000000000000000000000000000000005f521660045260245ffd5b51906001600160e01b03198216820361022a57565b6102aa939260609282526020820152816040820152019061025e565b6040513d5f823e3d90fd5b919082604091031261022a57602061275683612703565b92015190565b9035601e198236030181121561022a57016020813591019167ffffffffffffffff821161022a57813603831361022a57565b908060209392818452848401375f828201840152601f01601f1916010190565b6001600160a01b03165f5260205f205d565b6127f57fc807f46cbe2302f9a007e47db23c8af6a94680c1d26280fb9582873dbe5c92016318fb58646004525f5260245f2090565b68fbb67fda52d4bfb8bf821461130757811561284c575b80195415612823576020525f5260405f2054151590565b9060019181815414612847578183820154146128475760020154146102aa57505f90565b505090565b68fbb67fda52d4bfb8bf915061280c565b805190600382101561024c57602001516020815191012060405190612886602083018094610251565b6040820152604081526124546060826106a2565b905f916128d27fc807f46cbe2302f9a007e47db23c8af6a94680c1d26280fb9582873dbe5c92016318fb58646004525f5260245f2090565b9068fbb67fda52d4bfb8bf81146113075780156129cc575b811991825491816020528215612932575b805f5260405f2092835415612911575050505050565b9091929394955060011c8092015560010180915560011b6001179055600190565b9150805480156129c3578281146129bd576001820180549081156129af57508381146129a857600283019182549283156129995750848314612991575f52600160405f20555f52600260405f20555f52600360405f20556007916128fb565b505050505050565b95505050505091925055600190565b5050505050565b945050505091925055600190565b50505050565b50555060019150565b5068fbb67fda52d4bfb8bf6128ea565b9060206102aa92818152019061025e565b5f5b815180518210156129bd5781612a0491612201565b5180516001600160a01b031680612b4a575030905b612a22856115a3565b8060c81c1580612b38575b612b10576001600160a01b031690606092612a4a83600816151590565b612aeb575b815f9291604060208594015192015191602083519301915af190612a716121d2565b928660108316612ada575b5050501580612acd575b612a9357506001016129ef565b612ac9906040519182917fa5fa8d2b000000000000000000000000000000000000000000000000000000008352600483016129dc565b0390fd5b5060208301511515612a86565b612ae39261382d565b5f8086612a7c565b92505f81612b06602083940151604083015190878b8861377b565b9491509150612a4f565b7f3ceb88d9000000000000000000000000000000000000000000000000000000005f5260045ffd5b50306001600160a01b03841614612a2d565b90612a19565b6001600160a01b0316308114612b97576102aa9060405190602082015260208152612b7c6040826106a2565b60405190612b8982610665565b60028252602082015261285d565b505f90565b8015612beb57612bab816127c0565b15612b97575f527fc807f46cbe2302f9a007e47db23c8af6a94680c1d26280fb9582873dbe5c920360205260405f205460c81c612be6575f90565b600190565b50600190565b600160f81b8114908115612c03575090565b7f010100000000000000000000000000000000000000000000000000000000000091501490565b91909160408184031261022a57805167ffffffffffffffff811161022a5783612c54918301611663565b92602082015167ffffffffffffffff811161022a576102aa9201611663565b6318fb58646004527fc807f46cbe2302f9a007e47db23c8af6a94680c1d26280fb9582873dbe5c92015f5260245f2090811954918260011c921515908054156002600183015415920154159215612cc957505050565b90919293505f90612cef5750600190612cea57506002906102aa5750600390565b919050565b92915050565b906015820180921161225957565b906002820180921161225957565b9190820180921161225957565b805191908290602001825e015f815290565b906104186001612d70936040519485917f226368616c6c656e6765223a22000000000000000000000000000000000000006020840152602d830190612d1e565b7f2200000000000000000000000000000000000000000000000000000000000000815203601e198101855201836106a2565b8051602010156121c05760400190565b612dbf9060209392612d1e565b9081520190565b9081602091031261022a575190565b92919060a081019384517f7fffffff800000007fffffffffffffffde737d56d38bcf4279dce5617e3192a810612fb85760208201907fff1a2a9176d650e4a99dedb58f1793003935130579fe17b5a3f698ac5b00e634612e4483516060860151612e3e81612cf5565b91613a7a565b6020815191012003612fc157612e5c612e61916131e1565b612d30565b612e7682516040850151612e3e845182612d11565b60208151910120906020815191012003612fb857600160f81b80612ec3612e9d8551612da2565b517fff000000000000000000000000000000000000000000000000000000000000001690565b1603612fb8575f612edd6020925160405191828092612d1e565b039060025afa15611a4b5760205f612f128151612f068551611d38604051938492888401612db2565b60405191828092612d1e565b039060025afa15611a4b5760805f519101935f80865185612f638551611d388a60405194859360208501978c899192608093969594919660a084019784526020840152604083015260608201520152565b51906101005afa94612f736121d2565b80519680612faf575b612f8f57506102aa95505190519161326e565b600196612fab9650810160209081019550019250612dc6915050565b1490565b50861515612f7c565b50505050505f90565b5050505050505f90565b93929190612fdc848484848961337c565b90959015612fec57505050505090565b6102aa9550613437565b6102aa916130039161365a565b9092919261369e565b60a01c64ffffffffff1690811561302557428211159190565b5f91508190565b609c60405161303c60c0826106a2565b8181527f746f2c75696e743235362076616c75652c62797465732064617461290000000060a060208301927f5369676e65644261746368656443616c6c284261746368656443616c6c20626184527f746368656443616c6c2c75696e74323536206e6f6e63652c627974657333322060408201527f6b657948617368294261746368656443616c6c2843616c6c5b5d2063616c6c7360608201527f2c626f6f6c2073686f756c645265766572742943616c6c28616464726573732060808201520152209061245461310d8251613895565b611d38604060208501519401516040519485936020850197889094939260609260808301968352602083015260408201520152565b9081602091031261022a576102aa90612703565b6020926001600160a01b03613183959360405196879586948593630cf7564f60e21b855260048501612718565b0392165afa908115611a4b57630cf7564f60e21b916001600160e01b0319915f916131b2575b5016036119c957565b6131d4915060203d6020116131da575b6131cc81836106a2565b810190613142565b5f6131a9565b503d6131c2565b6040516102aa916131f36060836106a2565b604082527f4142434445464748494a4b4c4d4e4f505152535455565758595a61626364656660208301527f6768696a6b6c6d6e6f707172737475767778797a303132333435363738392d5f6040830152613b25565b5f516020614c085f395f51905f5203905f516020614c085f395f51905f52821161225957565b939190929383158015613350575b8015613348575b8015613331575b612fb8576132988386613bcc565b15612fb85760405191602083526020808401526020604084015260608301527fffffffff00000000ffffffffffffffffbce6faada7179e84f3b9cac2fc63254f60808301525f516020614c085f395f51905f5260a083015260208260c08160055f19fa1561022a575f516020614c085f395f51905f529461332b9386613325945181818909940991613c86565b91613248565b90081590565b505f516020614c085f395f51905f5282101561328a565b508115613283565b505f516020614c085f395f51905f5284101561327c565b9081602091031261022a57516102aa81610c14565b91909361338c6111c98387614380565b8015613424575b613418575f94611d386133d29287966040519586946020860198899192608093969594919660a084019784526020840152604083015260608201520152565b51906101005afa6133e16121d2565b908061340d575b15613406578060208061340093518301019101613367565b90600190565b505f905f90565b5060208151146133e8565b50505050505f90600190565b506134326111c982866143e4565b613393565b90939291926134468486614380565b158015613649575b612fb8575f516020614c085f395f51905f52613629612fab9561361e6136359661347661446d565b9561347f6106e2565b5f81525f60208201525f604082015287526134986106e2565b9182526020820152600160408201526134b18660200190565b9081526134bc6106e2565b7f6b17d1f2e12c4247f8bce6e563a440f277037d812deb33a0f4a13945d898c29681527f4fe342e2fe1a7f9b8ee7eb4a7c0f9e162bce33576b315ececbb6406837bf51f5602082015260016040820152608087019081526136146135208351614797565b604089019081526136056135f66135378551614797565b6101008c0190815261354c87518551906147d4565b9560608d019687528c61356c6135658a518451906147d4565b9160a00190565b528c61358561357e87518451906147d4565b9160c00190565b528c61359e61359789518451906147d4565b9160e00190565b528c6135b86135b08a518551906147d4565b916101200190565b528c6135d26135ca87518551906147d4565b916101400190565b528c6135ec6135e489518551906147d4565b916101600190565b52519051906147d4565b6101808b0181815295516147d4565b6101a08a0152518351906147d4565b6101c088016135ec565b6101e08501526147f3565b818188099309906144b3565b505f516020614c085f395f51905f52900690565b5061365481846143e4565b1561344e565b815191906041830361368a576136839250602082015190606060408401519301515f1a906145c4565b9192909190565b50505f9160029190565b6004111561024c57565b6136a781613694565b806136b0575050565b6136b981613694565b600181036136e9577ff645eedf000000000000000000000000000000000000000000000000000000005f5260045ffd5b6136f281613694565b6002810361372657507ffce698f7000000000000000000000000000000000000000000000000000000005f5260045260245ffd5b80613732600392613694565b1461373a5750565b7fd78bce0c000000000000000000000000000000000000000000000000000000005f5260045260245ffd5b91909160408184031261022a57612c5481612703565b90915f6001600160a01b0380946137c3839798604051998a9889978895633b26d3b960e21b87526004870152166024850152604484015260806064840152608483019061025e565b0393165af1908115611a4b575f905f926137f4575b506001600160e01b0319633b26d3b960e21b9116036119c95790565b6001600160e01b03199250633b26d3b960e21b9150613824903d805f833e61381c81836106a2565b810190613765565b929091506137d8565b91613867926020925f6001600160a01b03604051809781968295639e808d4d60e01b8452600484015260406024840152604483019061025e565b0393165af1908115611a4b57639e808d4d60e01b916001600160e01b0319915f916131b2575016036119c957565b608060546040516138a76080826106a2565b8181527f35362076616c75652c6279746573206461746129000000000000000000000000606060208301927f4261746368656443616c6c2843616c6c5b5d2063616c6c732c626f6f6c20736884527f6f756c645265766572742943616c6c286164647265737320746f2c75696e7432604082015201522090825180519461392d86610bfc565b9561393b60405197886106a2565b80875261394a601f1991610bfc565b013660208801376060935f5b8351811015613a26578061396c60019286612201565b51602960405161397c8a826106a2565b8181527f7465732064617461290000000000000000000000000000000000000000000000604060208301927f43616c6c286164647265737320746f2c75696e743235362076616c75652c62798452015220906001600160a01b0381511690604060208201519101516020815191012090604051926020840194855260408401528a83015288820152878152613a1260a0826106a2565b519020613a1f828b612201565b5201613956565b50949350946124549250613a579150602090604051613a4c81611d388582018095614646565b519020930151151590565b604080516020810195865290810193909352151560608301528160808101611d38565b805160609493929083811115613aeb575b81811115613ae3575b50828110613aa157505050565b6040519450918290039101601f8201601f19165b8181015185820152601f1901908115613ace5790613ab5565b505060408184015f6020820152016040528252565b90505f613a94565b925082613a8b565b90613afd826106fb565b613b0a60405191826106a2565b8281528092613b1b601f19916106fb565b0190602036910137565b90815115613bc25790613b52613b4d613b46613b418451612229565b612d03565b6003900490565b613af3565b916020830190828051019060208201928351945f85525b838110613b7857505050505290565b600360049101916001603f845182828260121c16880101518453828282600c1c16880101518385015382828260061c16880101516002850153168501015160038201530190613b69565b50506102aa611cc0565b600160601b63ffffffff60c01b03198110801590613c6e575b8015613c5d575b613c5757600160601b63ffffffff60c01b03197f5ac635d8aa3a93e7b3ebbd55769886bc651d06b0cc53b0f63bce3c3e27d2604b818381807fffffffff00000001000000000000000000000000fffffffffffffffffffffffc81970991818180090908089180091490565b50505f90565b5080158015613bec57508115613bec565b50600160601b63ffffffff60c01b0319821015613be5565b925f9260ff929184821580614378575b61436d57613ca48488614673565b9095861580614365575b61432a575b84811c60028560fe1c16015b1561431257600185821c16600285831c60011b1601600181146142c7575b600281146142bc575b6003146142af575b60019889975f1992909201969594935b875f1911613d7f5750505050505050505060405191606083015260208252602080830152602060408301526bfffffffffffffffffffffffe63ffffffff60c01b03196080830152600160601b63ffffffff60c01b031960a083015260208260c08160055f19fa1561022a57600160601b63ffffffff60c01b03199151900990565b600160601b63ffffffff60c01b03198160029c999b9697989a9c0994600160601b63ffffffff60c01b03198680098096600160601b63ffffffff60c01b031982840997600160601b63ffffffff60c01b0319910991600160601b63ffffffff60c01b03198b8208908b600160601b63ffffffff60c01b031903600160601b63ffffffff60c01b0319910890600160601b63ffffffff60c01b03199109600160601b63ffffffff60c01b0319906003099c600160601b63ffffffff60c01b031990830999600160601b63ffffffff60c01b031991099b600160601b63ffffffff60c01b0319876bfffffffffffffffffffffffe63ffffffff60c01b031909600160601b63ffffffff60c01b031982800990600160601b63ffffffff60c01b0319910896600160601b63ffffffff60c01b031903600160601b63ffffffff60c01b0319908808600160601b63ffffffff60c01b03199109600160601b63ffffffff60c01b03198193830990600160601b63ffffffff60c01b0319910891888c1c600116888d1c60011b6002160180156142935760018114614248575b6002811461423d575b600314614234575b8c15614221578c91600160601b63ffffffff60c01b03198085818e819609089389820392090895811561408f575b600160601b63ffffffff60c01b031987800999600160601b63ffffffff60c01b03198b9889099d8e98600160601b63ffffffff60c01b031991099d600160601b63ffffffff60c01b0319910999600160601b63ffffffff60c01b0319910991600160601b63ffffffff60c01b0319836bfffffffffffffffffffffffe63ffffffff60c01b03190987600160601b63ffffffff60c01b031903600160601b63ffffffff60c01b031984800990600160601b63ffffffff60c01b0319910890600160601b63ffffffff60c01b0319910896600160601b63ffffffff60c01b031991099186600160601b63ffffffff60c01b031903600160601b63ffffffff60c01b0319910890600160601b63ffffffff60c01b0319910990600160601b63ffffffff60c01b0319910893985b5f19019697959493613cfe565b8c871561409c5750613f58565b999150919a9550600160601b63ffffffff60c01b03198b6bfffffffffffffffffffffffe63ffffffff60c01b031909600160601b63ffffffff60c01b0319818009928391600160601b63ffffffff60c01b031983830994600160601b63ffffffff60c01b031991099d8e91600160601b63ffffffff60c01b0319828103820891600160601b63ffffffff60c01b0319910890600160601b63ffffffff60c01b03199109600160601b63ffffffff60c01b03199060030992600160601b63ffffffff60c01b0319910999600160601b63ffffffff60c01b031991099b600160601b63ffffffff60c01b0319836bfffffffffffffffffffffffe63ffffffff60c01b031909600160601b63ffffffff60c01b031983800990600160601b63ffffffff60c01b031991089b600160601b63ffffffff60c01b03199109918b600160601b63ffffffff60c01b031903600160601b63ffffffff60c01b03199108600160601b63ffffffff60c01b0319910990600160601b63ffffffff60c01b0319910893614082565b60019c50909a8c99509095509050614082565b50508284613f2a565b8492508b9150613f22565b7f6b17d1f2e12c4247f8bce6e563a440f277037d812deb33a0f4a13945d898c29692507f4fe342e2fe1a7f9b8ee7eb4a7c0f9e162bce33576b315ececbb6406837bf51f59150613f19565b505050600160601b63ffffffff60c01b03199994990393614082565b9150955084958091613cee565b899850869350613ce6565b7f6b17d1f2e12c4247f8bce6e563a440f277037d812deb33a0f4a13945d898c29698507f4fe342e2fe1a7f9b8ee7eb4a7c0f9e162bce33576b315ececbb6406837bf51f59350613cdd565b5f1901600185821c16600285831c60011b1601613cbf565b92935f516020614c085f395f51905f52919482039008925f9284158061435d575b15613cb3575050505050505050505f90565b50600161434b565b508115613cae565b505050505050505f90565b508115613c96565b9081151591826143cd575b50816143c3575b8161439b575090565b7f7fffffff800000007fffffffffffffffde737d56d38bcf4279dce5617e3192a89150111590565b8015159150614392565b5f516020614c085f395f51905f521191505f61438b565b600160601b63ffffffff60c01b031980807f5ac635d8aa3a93e7b3ebbd55769886bc651d06b0cc53b0f63bce3c3e27d2604b8185817fffffffff00000001000000000000000000000000fffffffffffffffffffffffc81838009080908818580091493109110161690565b6040519061445c82610686565b5f6040838281528260208201520152565b6040519061020061447e81846106a2565b825f5b82811061448d57505050565b60209061449861444f565b8184015201614481565b9060108110156121c05760051b0190565b5f9392849283929183915b608083106144d457505050506121bc9293614a4c565b856145a2575b600c6144e68260fc1c90565b1660036144f38460fe1c90565b1617604061450182876144a2565b510151614529575b5061452061451960019260021b90565b9260021b90565b920191906144be565b959194909782155f146145785750505061454384836144a2565b51519260016145206145196040614569602061455f8b8a6144a2565b51015199886144a2565b5101519796995b925050614509565b6145199592600192614597926145916145209a896144a2565b516148c7565b979196909699614570565b96946145b391946145b99396614846565b91614846565b9491939093966144da565b91907f7fffffffffffffffffffffffffffffff5d576e7357a4501ddfe92f46681b20a0841161463b579160209360809260ff5f9560405194855216868401526040830152606082015282805260015afa15611a4b575f516001600160a01b0381161561463157905f905f90565b505f906001905f90565b5050505f9160039190565b80516020909101905f5b81811061465d5750505090565b8251845260209384019390920191600101614650565b91907f6b17d1f2e12c4247f8bce6e563a440f277037d812deb33a0f4a13945d898c2967f4fe342e2fe1a7f9b8ee7eb4a7c0f9e162bce33576b315ececbb6406837bf51f591801561479157846121bc9495831480614788575b15614773575050600160601b63ffffffff60c01b03198260020991600160601b63ffffffff60c01b03198084800993818080808881818a09950996817fffffffff00000001000000000000000000000000fffffffffffffffffffffffe816001840892080960030981808080866bfffffffffffffffffffffffe63ffffffff60c01b03190981858009089681600181818c099b099809810393868203900890090890614b43565b90919261477f93614ab5565b92909190614b43565b508184146146cc565b50925090565b6147b7906147a361444f565b508051906040602082015191015191614846565b90604051926147c584610686565b83526020830152604082015290565b6147b7916147e061444f565b50805160406020830151920151926148c7565b5f516020614c085f395f51905f527fffffffff00000000ffffffffffffffffbce6faada7179e84f3b9cac2fc63254f61482b92614bc3565b90156148345790565b634e487b715f5260126020526024601cfd5b929091600160601b63ffffffff60c01b031980918180868009968180808a818080808a800980097fffffffff00000001000000000000000000000000fffffffffffffffffffffffc09818088800960030908940960040991818080808087600209810381868009089c80096008098103938b82039008900908940960020990565b91939092935f945f945f94604081015190600160601b63ffffffff60c01b0319828009600160601b63ffffffff60c01b031985800992600160601b63ffffffff60c01b03198087860960208501510991600160601b63ffffffff60c01b0319808681868103818d8189890990090896510991818381039189090890811585151694855f146149ed5750505050506001146149615750505050565b600160601b63ffffffff60c01b03198080809a508699508097985080969381808087819998099d838f94097fffffffff00000001000000000000000000000000fffffffffffffffffffffffc09818088800960030908940960040991818080808087600209810381868009089c80096008098103938b820390089009089409600209905f8080806129bd565b929b5093509650600160601b63ffffffff60c01b031980808080809c9d50809a995080985080969f508b8009809709958a098180876002098103818381038188800908089d098103938c8203900890090895099009905f8080806129bd565b92918015614aab57600160601b63ffffffff60c01b03196bfffffffffffffffffffffffe63ffffffff60c01b0319614a8392614bc3565b91901561483457600160601b63ffffffff60c01b031991829081808280098097099509900990565b505090505f905f90565b9392908015614b3657600160601b63ffffffff60c01b0319806001969481808080809a9881809981039d8e920908938160018b820392090881818009998a9182099809918180898180876bfffffffffffffffffffffffe63ffffffff60c01b031909818381038188800908089c09938b820390080908946001099260010990565b5092509190600190600190565b9092919260405192602084526020808501526020604085015260608401526bfffffffffffffffffffffffe63ffffffff60c01b03196080840152600160601b63ffffffff60c01b031960a084015260208360c08160055f19fa1561022a57600160601b63ffffffff60c01b03198093918180935180920995098009900991565b91908115614bfe576020925f9260c0926040519286845286808501528660408501526060840152608083015260a082015260055afa905f5190565b5050505f905f9056feffffffff00000000ffffffffffffffffbce6faada7179e84f3b9cac2fc632551a164736f6c634300081d000a","linkReferences":{}},"methodIdentifiers":{"CUSTOM_STORAGE_ROOT()":"7613e7ba","ENTRY_POINT()":"94430fa5","allowance(address)":"3e5beab9","approveNative(address,uint256)":"23d57886","approveNativeTransient(address,uint256)":"25e5c243","domainSeparator()":"f698da25","eip712Domain()":"84b0196e","execute((((address,uint256,bytes)[],bool),uint256,bytes32),bytes)":"eceded30","execute(((address,uint256,bytes)[],bool))":"99e1d016","execute(bytes32,bytes)":"e9ae5c53","executeUserOp((address,uint256,bytes,bytes,bytes32,uint256,bytes32,bytes,bytes),bytes32)":"8dd7712f","getKey(bytes32)":"12aaac70","getKeySettings(bytes32)":"0f3ebf6e","getSeq(uint256)":"6a1ea88d","hashTypedData(bytes32)":"6575f6aa","invalidateNonce(uint256)":"b70e36f0","isRegistered(bytes32)":"27258b22","isValidSignature(bytes32,bytes)":"1626ba7e","keyAt(uint256)":"4223b5c2","keyCount()":"fac750e0","multicall(bytes[])":"ac9650d8","namespaceAndVersion()":"28495877","register((uint8,bytes))":"30b1fa3b","revoke(bytes32)":"b75c7dc6","supportsExecutionMode(bytes32)":"d03c7914","transferFromNative(address,address,uint256)":"789ff701","transferFromNativeTransient(address,address,uint256)":"786902f2","transientAllowance(address)":"997a7d01","update(bytes32,uint256)":"a58bb84a","updateEntryPoint(address)":"1b71bb6e","validateUserOp((address,uint256,bytes,bytes,bytes32,uint256,bytes32,bytes,bytes),bytes32,uint256)":"19822f7c"},"id":41}