{"abi":[{"type":"function","name":"authorize","inputs":[{"name":"key","type":"tuple","internalType":"struct Key","components":[{"name":"expiry","type":"uint40","internalType":"uint40"},{"name":"keyType","type":"uint8","internalType":"enum KeyType"},{"name":"isSuperAdmin","type":"bool","internalType":"bool"},{"name":"publicKey","type":"bytes","internalType":"bytes"}]}],"outputs":[{"name":"keyHash","type":"bytes32","internalType":"bytes32"}],"stateMutability":"nonpayable"},{"type":"function","name":"domainSeparator","inputs":[],"outputs":[{"name":"","type":"bytes32","internalType":"bytes32"}],"stateMutability":"view"},{"type":"function","name":"eip712Domain","inputs":[],"outputs":[{"name":"fields","type":"bytes1","internalType":"bytes1"},{"name":"name","type":"string","internalType":"string"},{"name":"version","type":"string","internalType":"string"},{"name":"chainId","type":"uint256","internalType":"uint256"},{"name":"verifyingContract","type":"address","internalType":"address"},{"name":"salt","type":"bytes32","internalType":"bytes32"},{"name":"extensions","type":"uint256[]","internalType":"uint256[]"}],"stateMutability":"view"},{"type":"function","name":"execute","inputs":[{"name":"mode","type":"bytes32","internalType":"bytes32"},{"name":"executionData","type":"bytes","internalType":"bytes"}],"outputs":[],"stateMutability":"payable"},{"type":"function","name":"getKey","inputs":[{"name":"keyHash","type":"bytes32","internalType":"bytes32"}],"outputs":[{"name":"","type":"tuple","internalType":"struct Key","components":[{"name":"expiry","type":"uint40","internalType":"uint40"},{"name":"keyType","type":"uint8","internalType":"enum KeyType"},{"name":"isSuperAdmin","type":"bool","internalType":"bool"},{"name":"publicKey","type":"bytes","internalType":"bytes"}]}],"stateMutability":"view"},{"type":"function","name":"hashTypedData","inputs":[{"name":"hash","type":"bytes32","internalType":"bytes32"}],"outputs":[{"name":"","type":"bytes32","internalType":"bytes32"}],"stateMutability":"view"},{"type":"function","name":"isValidSignature","inputs":[{"name":"hash","type":"bytes32","internalType":"bytes32"},{"name":"signature","type":"bytes","internalType":"bytes"}],"outputs":[{"name":"result","type":"bytes4","internalType":"bytes4"}],"stateMutability":"view"},{"type":"function","name":"keyAt","inputs":[{"name":"i","type":"uint256","internalType":"uint256"}],"outputs":[{"name":"","type":"tuple","internalType":"struct Key","components":[{"name":"expiry","type":"uint40","internalType":"uint40"},{"name":"keyType","type":"uint8","internalType":"enum KeyType"},{"name":"isSuperAdmin","type":"bool","internalType":"bool"},{"name":"publicKey","type":"bytes","internalType":"bytes"}]}],"stateMutability":"view"},{"type":"function","name":"keyCount","inputs":[],"outputs":[{"name":"","type":"uint256","internalType":"uint256"}],"stateMutability":"view"},{"type":"function","name":"revoke","inputs":[{"name":"keyHash","type":"bytes32","internalType":"bytes32"}],"outputs":[],"stateMutability":"nonpayable"},{"type":"function","name":"supportsExecutionMode","inputs":[{"name":"mode","type":"bytes32","internalType":"bytes32"}],"outputs":[{"name":"result","type":"bool","internalType":"bool"}],"stateMutability":"pure"},{"type":"event","name":"Authorized","inputs":[{"name":"keyHash","type":"bytes32","indexed":true,"internalType":"bytes32"},{"name":"key","type":"tuple","indexed":false,"internalType":"struct Key","components":[{"name":"expiry","type":"uint40","internalType":"uint40"},{"name":"keyType","type":"uint8","internalType":"enum KeyType"},{"name":"isSuperAdmin","type":"bool","internalType":"bool"},{"name":"publicKey","type":"bytes","internalType":"bytes"}]}],"anonymous":false},{"type":"event","name":"EIP712DomainChanged","inputs":[],"anonymous":false},{"type":"event","name":"Revoked","inputs":[{"name":"keyHash","type":"bytes32","indexed":true,"internalType":"bytes32"}],"anonymous":false},{"type":"error","name":"CallFailed","inputs":[{"name":"reason","type":"bytes","internalType":"bytes"}]},{"type":"error","name":"IndexOutOfBounds","inputs":[]},{"type":"error","name":"KeyDoesNotExist","inputs":[]},{"type":"error","name":"Unauthorized","inputs":[]},{"type":"error","name":"UnsupportedExecutionMode","inputs":[]}],"bytecode":{"object":"0x60c060405234801561000f575f80fd5b5060608061002161004e60201b60201c565b8092508193505050818051906020012060808181525050808051906020012060a0818152505050506100c5565b6060806040518060400160405280601a81526020017f556e6973776170204d696e696d616c2044656c65676174696f6e0000000000008152506040518060400160405280600181526020017f3100000000000000000000000000000000000000000000000000000000000000815250915091509091565b60805160a0516122b56100e65f395f61054f01525f61052e01526122b55ff3fe60806040526004361061009b575f3560e01c8063b75c7dc611610063578063b75c7dc6146101bf578063cebfe336146101e7578063d03c791414610223578063e9ae5c531461025f578063f698da251461027b578063fac750e0146102a55761009b565b806312aaac701461009f5780631626ba7e146100db5780634223b5c2146101175780636575f6aa1461015357806384b0196e1461018f575b5f80fd5b3480156100aa575f80fd5b506100c560048036038101906100c0919061111c565b6102cf565b6040516100d291906112c3565b60405180910390f35b3480156100e6575f80fd5b5061010160048036038101906100fc9190611344565b6102e7565b60405161010e91906113db565b60405180910390f35b348015610122575f80fd5b5061013d60048036038101906101389190611427565b610321565b60405161014a91906112c3565b60405180910390f35b34801561015e575f80fd5b506101796004803603810190610174919061111c565b610354565b6040516101869190611461565b60405180910390f35b34801561019a575f80fd5b506101a3610365565b6040516101b6979695949392919061160b565b60405180910390f35b3480156101ca575f80fd5b506101e560048036038101906101e0919061111c565b6103b0565b005b3480156101f2575f80fd5b5061020d600480360381019061020891906118c5565b6103f1565b60405161021a9190611461565b60405180910390f35b34801561022e575f80fd5b506102496004803603810190610244919061111c565b610442565b604051610256919061191b565b60405180910390f35b61027960048036038101906102749190611344565b610463565b005b348015610286575f80fd5b5061028f610508565b60405161029c9190611461565b60405180910390f35b3480156102b0575f80fd5b506102b961059f565b6040516102c69190611934565b60405180910390f35b6102d7611040565b6102e0826105b7565b9050919050565b5f6102fb6102f4856106b9565b8484610739565b1561030f57631626ba7e60e01b905061031a565b63ffffffff60e01b90505b9392505050565b610329611040565b61034d61034883610338610754565b5f0161077b90919063ffffffff16565b6105b7565b9050919050565b5f61035e826106b9565b9050919050565b5f6060805f805f60607f0f0000000000000000000000000000000000000000000000000000000000000096506103996107e5565b809650819750505046935030925090919293949596565b6103b861085c565b6103c1816108c3565b807fe5af7daed5ab2a2dc5f98d53619f05089c0c14d11a6621f6b906a2366c9a7ab360405160405180910390a250565b5f6103fa61085c565b6104038261093b565b9050807f3d3a48be5a98628ecf98a6201185102da78bbab8f63a4b2d6b9eef354f5131f58360405161043591906112c3565b60405180910390a2919050565b5f61044c826109ae565b8061045c575061045b82610a07565b5b9050919050565b61046c836109ae565b1561049b575f82828101906104819190611ad2565b905061048b61085c565b6104958482610a60565b50610503565b6104a483610a07565b156104d0575f8083838101906104ba9190611b19565b915091506104c9858383610b02565b5050610502565b6040517f7f18127500000000000000000000000000000000000000000000000000000000815260040160405180910390fd5b5b505050565b5f7f8b73c3c69bb8fe3d512ecc4cf759cc79239f7b179b0ffacaa9a75d522b39400f5f1b7f00000000000000000000000000000000000000000000000000000000000000007f00000000000000000000000000000000000000000000000000000000000000004630604051602001610584959493929190611b8f565b60405160208183030381529060405280519060200120905090565b5f6105b26105ab610754565b5f01610b3d565b905090565b6105bf611040565b5f6105c8610754565b6001015f8481526020019081526020015f2080546105e590611c0d565b80601f016020809104026020016040519081016040528092919081815260200182805461061190611c0d565b801561065c5780601f106106335761010080835404028352916020019161065c565b820191905f5260205f20905b81548152906001019060200180831161063f57829003601f168201915b505050505090505f81510361069d576040517fe57b630400000000000000000000000000000000000000000000000000000000815260040160405180910390fd5b808060200190518101906106b19190611d78565b915050919050565b5f6106c2610508565b7f82850db280a2a2d24384284a8455f1e4b4e73ab353b2a7a121eee673a754af0c836040516020016106f5929190611dbf565b6040516020818303038152906040528051906020012060405160200161071c929190611e5a565b604051602081830303815290604052805190602001209050919050565b5f80610746858585610b8a565b509050809150509392505050565b5f7f21f3d48e9724698d61a2dadd352c365013ee5d0f841f7fc54fb8a78301ee0c00905090565b5f61078583610c31565b905081810154905068fbb67fda52d4bfb8bf811415810290506107a783610b3d565b82106107df576040517f4e23d03500000000000000000000000000000000000000000000000000000000815260040160405180910390fd5b92915050565b6060806040518060400160405280601a81526020017f556e6973776170204d696e696d616c2044656c65676174696f6e0000000000008152506040518060400160405280600181526020017f3100000000000000000000000000000000000000000000000000000000000000815250915091509091565b3073ffffffffffffffffffffffffffffffffffffffff163373ffffffffffffffffffffffffffffffffffffffff16146108c1576040517f82b4290000000000000000000000000000000000000000000000000000000000815260040160405180910390fd5b565b5f6108cc610754565b9050806001015f8381526020019081526020015f205f6108ec9190611080565b61090182825f01610c4890919063ffffffff16565b610937576040517fe57b630400000000000000000000000000000000000000000000000000000000815260040160405180910390fd5b5050565b5f61094582610d58565b90505f610950610754565b90508260405160200161096391906112c3565b604051602081830303815290604052816001015f8481526020019081526020015f209081610991919061202d565b506109a782825f01610d9890919063ffffffff16565b5050919050565b5f7f01000000000000000000000000000000000000000000000000000000000000005f1b821480610a0057507f01010000000000000000000000000000000000000000000000000000000000005f1b82145b9050919050565b5f7f01000000000078210001000000000000000000000000000000000000000000005f1b821480610a5957507f01010000000078210001000000000000000000000000000000000000000000005f1b82145b9050919050565b5f610a6a83610ec1565b90505f5b8251811015610afc575f80610a9c858481518110610a8f57610a8e6120fc565b5b6020026020010151610ef1565b9150915081158015610aab5750835b15610aed57806040517fa5fa8d2b000000000000000000000000000000000000000000000000000000008152600401610ae49190612171565b60405180910390fd5b50508080600101915050610a6e565b50505050565b6040517f08c379a0000000000000000000000000000000000000000000000000000000008152600401610b34906121db565b60405180910390fd5b5f80610b4883610c31565b90508019548060011c925080610b83575f92508282015415610b8357600192508282015415610b8357600292508282015415610b8357600392505b5050919050565b5f806040848490501480610ba15750604184849050145b15610bee573073ffffffffffffffffffffffffffffffffffffffff16610bc8868686610fb4565b73ffffffffffffffffffffffffffffffffffffffff16145f805f1b905091509150610c29565b6040517f08c379a0000000000000000000000000000000000000000000000000000000008152600401610c20906121db565b60405180910390fd5b935093915050565b5f6318fb5864600452815f5260245f209050919050565b5f80610c5384610c31565b905068fbb67fda52d4bfb8bf8303610c725763f5a267f15f526004601cfd5b82610c845768fbb67fda52d4bfb8bf92505b801954600115610d505780610cf9576001925083825403610cbb5760018201548255600282015460018301555f6002830155610d50565b83600183015403610cdb57600282015460018301555f6002830155610d50565b83600283015403610cf1575f6002830155610d50565b5f9250610d50565b81602052835f5260405f20805480610d12575050610d50565b60018360011c039250826001820314610d3c57828401548060018303860155805f528160405f2055505b60018360011b178419555f82556001945050505b505092915050565b5f8160200151826060015180519060200120604051602001610d7b929190612208565b604051602081830303815290604052805190602001209050919050565b5f80610da384610c31565b905068fbb67fda52d4bfb8bf8303610dc25763f5a267f15f526004601cfd5b82610dd45768fbb67fda52d4bfb8bf92505b801954600115610eb9578160205280610e8257815480610dfb578483556001935050610eb9565b848103610e085750610eb9565b600183015480610e2357856001850155600194505050610eb9565b858103610e31575050610eb9565b600284015480610e4d5786600286015560019550505050610eb9565b868103610e5c57505050610eb9565b825f52600160405f2055815f52600260405f2055805f52600360405f2055600793505050505b835f5260405f208054610eb7578160011c915084828401558160010181558160010160011b6001178319556001935050610eb9565b505b505092915050565b5f805f1b7eff0000000000000000000000000000000000000000000000000000000000005f1b8316149050919050565b5f60605f8073ffffffffffffffffffffffffffffffffffffffff16845f015173ffffffffffffffffffffffffffffffffffffffff1614610f3457835f0151610f36565b305b90508073ffffffffffffffffffffffffffffffffffffffff1684602001518560400151604051610f669190612269565b5f6040518083038185875af1925050503d805f8114610fa0576040519150601f19603f3d011682016040523d82523d5f602084013e610fa5565b606091505b50809350819450505050915091565b5f604051600115611038578260408114610fd65760418114610ffa575061102b565b6020850135601b8160ff1c0160205285356040528060011b60011c6060525061100b565b60408501355f1a6020526040856040375b50845f526020600160805f60015afa5191505f606052806040523d611038575b638baa579f5f526004601cfd5b509392505050565b60405180608001604052805f64ffffffffff1681526020015f600281111561106b5761106a611166565b5b81526020015f15158152602001606081525090565b50805461108c90611c0d565b5f825580601f1061109d57506110ba565b601f0160209004905f5260205f20908101906110b991906110bd565b5b50565b5b808211156110d4575f815f9055506001016110be565b5090565b5f604051905090565b5f80fd5b5f80fd5b5f819050919050565b6110fb816110e9565b8114611105575f80fd5b50565b5f81359050611116816110f2565b92915050565b5f60208284031215611131576111306110e1565b5b5f61113e84828501611108565b91505092915050565b5f64ffffffffff82169050919050565b61116081611147565b82525050565b7f4e487b71000000000000000000000000000000000000000000000000000000005f52602160045260245ffd5b600381106111a4576111a3611166565b5b50565b5f8190506111b482611193565b919050565b5f6111c3826111a7565b9050919050565b6111d3816111b9565b82525050565b5f8115159050919050565b6111ed816111d9565b82525050565b5f81519050919050565b5f82825260208201905092915050565b8281835e5f83830152505050565b5f601f19601f8301169050919050565b5f611235826111f3565b61123f81856111fd565b935061124f81856020860161120d565b6112588161121b565b840191505092915050565b5f608083015f8301516112785f860182611157565b50602083015161128b60208601826111ca565b50604083015161129e60408601826111e4565b50606083015184820360608601526112b6828261122b565b9150508091505092915050565b5f6020820190508181035f8301526112db8184611263565b905092915050565b5f80fd5b5f80fd5b5f80fd5b5f8083601f840112611304576113036112e3565b5b8235905067ffffffffffffffff811115611321576113206112e7565b5b60208301915083600182028301111561133d5761133c6112eb565b5b9250929050565b5f805f6040848603121561135b5761135a6110e1565b5b5f61136886828701611108565b935050602084013567ffffffffffffffff811115611389576113886110e5565b5b611395868287016112ef565b92509250509250925092565b5f7fffffffff0000000000000000000000000000000000000000000000000000000082169050919050565b6113d5816113a1565b82525050565b5f6020820190506113ee5f8301846113cc565b92915050565b5f819050919050565b611406816113f4565b8114611410575f80fd5b50565b5f81359050611421816113fd565b92915050565b5f6020828403121561143c5761143b6110e1565b5b5f61144984828501611413565b91505092915050565b61145b816110e9565b82525050565b5f6020820190506114745f830184611452565b92915050565b5f7fff0000000000000000000000000000000000000000000000000000000000000082169050919050565b6114ae8161147a565b82525050565b5f81519050919050565b5f82825260208201905092915050565b5f6114d8826114b4565b6114e281856114be565b93506114f281856020860161120d565b6114fb8161121b565b840191505092915050565b61150f816113f4565b82525050565b5f73ffffffffffffffffffffffffffffffffffffffff82169050919050565b5f61153e82611515565b9050919050565b61154e81611534565b82525050565b5f81519050919050565b5f82825260208201905092915050565b5f819050602082019050919050565b611586816113f4565b82525050565b5f611597838361157d565b60208301905092915050565b5f602082019050919050565b5f6115b982611554565b6115c3818561155e565b93506115ce8361156e565b805f5b838110156115fe5781516115e5888261158c565b97506115f0836115a3565b9250506001810190506115d1565b5085935050505092915050565b5f60e08201905061161e5f83018a6114a5565b818103602083015261163081896114ce565b9050818103604083015261164481886114ce565b90506116536060830187611506565b6116606080830186611545565b61166d60a0830185611452565b81810360c083015261167f81846115af565b905098975050505050505050565b5f80fd5b7f4e487b71000000000000000000000000000000000000000000000000000000005f52604160045260245ffd5b6116c78261121b565b810181811067ffffffffffffffff821117156116e6576116e5611691565b5b80604052505050565b5f6116f86110d8565b905061170482826116be565b919050565b5f80fd5b61171681611147565b8114611720575f80fd5b50565b5f813590506117318161170d565b92915050565b60038110611743575f80fd5b50565b5f8135905061175481611737565b92915050565b611763816111d9565b811461176d575f80fd5b50565b5f8135905061177e8161175a565b92915050565b5f80fd5b5f67ffffffffffffffff8211156117a2576117a1611691565b5b6117ab8261121b565b9050602081019050919050565b828183375f83830152505050565b5f6117d86117d384611788565b6116ef565b9050828152602081018484840111156117f4576117f3611784565b5b6117ff8482856117b8565b509392505050565b5f82601f83011261181b5761181a6112e3565b5b813561182b8482602086016117c6565b91505092915050565b5f608082840312156118495761184861168d565b5b61185360806116ef565b90505f61186284828501611723565b5f83015250602061187584828501611746565b602083015250604061188984828501611770565b604083015250606082013567ffffffffffffffff8111156118ad576118ac611709565b5b6118b984828501611807565b60608301525092915050565b5f602082840312156118da576118d96110e1565b5b5f82013567ffffffffffffffff8111156118f7576118f66110e5565b5b61190384828501611834565b91505092915050565b611915816111d9565b82525050565b5f60208201905061192e5f83018461190c565b92915050565b5f6020820190506119475f830184611506565b92915050565b5f67ffffffffffffffff82111561196757611966611691565b5b602082029050602081019050919050565b61198181611534565b811461198b575f80fd5b50565b5f8135905061199c81611978565b92915050565b5f606082840312156119b7576119b661168d565b5b6119c160606116ef565b90505f6119d08482850161198e565b5f8301525060206119e384828501611413565b602083015250604082013567ffffffffffffffff811115611a0757611a06611709565b5b611a1384828501611807565b60408301525092915050565b5f611a31611a2c8461194d565b6116ef565b90508083825260208201905060208402830185811115611a5457611a536112eb565b5b835b81811015611a9b57803567ffffffffffffffff811115611a7957611a786112e3565b5b808601611a8689826119a2565b85526020850194505050602081019050611a56565b5050509392505050565b5f82601f830112611ab957611ab86112e3565b5b8135611ac9848260208601611a1f565b91505092915050565b5f60208284031215611ae757611ae66110e1565b5b5f82013567ffffffffffffffff811115611b0457611b036110e5565b5b611b1084828501611aa5565b91505092915050565b5f8060408385031215611b2f57611b2e6110e1565b5b5f83013567ffffffffffffffff811115611b4c57611b4b6110e5565b5b611b5885828601611aa5565b925050602083013567ffffffffffffffff811115611b7957611b786110e5565b5b611b8585828601611807565b9150509250929050565b5f60a082019050611ba25f830188611452565b611baf6020830187611452565b611bbc6040830186611452565b611bc96060830185611506565b611bd66080830184611545565b9695505050505050565b7f4e487b71000000000000000000000000000000000000000000000000000000005f52602260045260245ffd5b5f6002820490506001821680611c2457607f821691505b602082108103611c3757611c36611be0565b5b50919050565b5f81519050611c4b8161170d565b92915050565b5f81519050611c5f81611737565b92915050565b5f81519050611c738161175a565b92915050565b5f611c8b611c8684611788565b6116ef565b905082815260208101848484011115611ca757611ca6611784565b5b611cb284828561120d565b509392505050565b5f82601f830112611cce57611ccd6112e3565b5b8151611cde848260208601611c79565b91505092915050565b5f60808284031215611cfc57611cfb61168d565b5b611d0660806116ef565b90505f611d1584828501611c3d565b5f830152506020611d2884828501611c51565b6020830152506040611d3c84828501611c65565b604083015250606082015167ffffffffffffffff811115611d6057611d5f611709565b5b611d6c84828501611cba565b60608301525092915050565b5f60208284031215611d8d57611d8c6110e1565b5b5f82015167ffffffffffffffff811115611daa57611da96110e5565b5b611db684828501611ce7565b91505092915050565b5f604082019050611dd25f830185611452565b611ddf6020830184611452565b9392505050565b5f81905092915050565b7f19010000000000000000000000000000000000000000000000000000000000005f82015250565b5f611e24600283611de6565b9150611e2f82611df0565b600282019050919050565b5f819050919050565b611e54611e4f826110e9565b611e3a565b82525050565b5f611e6482611e18565b9150611e708285611e43565b602082019150611e808284611e43565b6020820191508190509392505050565b5f819050815f5260205f209050919050565b5f6020601f8301049050919050565b5f82821b905092915050565b5f60088302611eec7fffffffffffffffffffffffffffffffffffffffffffffffffffffffffffffffff82611eb1565b611ef68683611eb1565b95508019841693508086168417925050509392505050565b5f819050919050565b5f611f31611f2c611f27846113f4565b611f0e565b6113f4565b9050919050565b5f819050919050565b611f4a83611f17565b611f5e611f5682611f38565b848454611ebd565b825550505050565b5f90565b611f72611f66565b611f7d818484611f41565b505050565b5b81811015611fa057611f955f82611f6a565b600181019050611f83565b5050565b601f821115611fe557611fb681611e90565b611fbf84611ea2565b81016020851015611fce578190505b611fe2611fda85611ea2565b830182611f82565b50505b505050565b5f82821c905092915050565b5f6120055f1984600802611fea565b1980831691505092915050565b5f61201d8383611ff6565b9150826002028217905092915050565b612036826111f3565b67ffffffffffffffff81111561204f5761204e611691565b5b6120598254611c0d565b612064828285611fa4565b5f60209050601f831160018114612095575f8415612083578287015190505b61208d8582612012565b8655506120f4565b601f1984166120a386611e90565b5f5b828110156120ca578489015182556001820191506020850194506020810190506120a5565b868310156120e757848901516120e3601f891682611ff6565b8355505b6001600288020188555050505b505050505050565b7f4e487b71000000000000000000000000000000000000000000000000000000005f52603260045260245ffd5b5f82825260208201905092915050565b5f612143826111f3565b61214d8185612129565b935061215d81856020860161120d565b6121668161121b565b840191505092915050565b5f6020820190508181035f8301526121898184612139565b905092915050565b7f4e6f7420696d706c656d656e74656400000000000000000000000000000000005f82015250565b5f6121c5600f836114be565b91506121d082612191565b602082019050919050565b5f6020820190508181035f8301526121f2816121b9565b9050919050565b612202816111b9565b82525050565b5f60408201905061221b5f8301856121f9565b6122286020830184611452565b9392505050565b5f81905092915050565b5f612243826111f3565b61224d818561222f565b935061225d81856020860161120d565b80840191505092915050565b5f6122748284612239565b91508190509291505056fea2646970667358221220c433f289bb2a8e01a2b942931e4016077a2fb8c30e9e67fb2aeb0a528d8ac09964736f6c634300081a0033","linkReferences":{}},"methodIdentifiers":{"authorize((uint40,uint8,bool,bytes))":"cebfe336","domainSeparator()":"f698da25","eip712Domain()":"84b0196e","execute(bytes32,bytes)":"e9ae5c53","getKey(bytes32)":"12aaac70","hashTypedData(bytes32)":"6575f6aa","isValidSignature(bytes32,bytes)":"1626ba7e","keyAt(uint256)":"4223b5c2","keyCount()":"fac750e0","revoke(bytes32)":"b75c7dc6","supportsExecutionMode(bytes32)":"d03c7914"},"id":32}