{"abi":[{"type":"fallback","stateMutability":"payable"},{"type":"receive","stateMutability":"payable"},{"type":"function","name":"CUSTOM_STORAGE_ROOT","inputs":[],"outputs":[{"name":"","type":"bytes32","internalType":"bytes32"}],"stateMutability":"view"},{"type":"function","name":"ENTRY_POINT","inputs":[],"outputs":[{"name":"","type":"address","internalType":"address"}],"stateMutability":"view"},{"type":"function","name":"domainSeparator","inputs":[],"outputs":[{"name":"","type":"bytes32","internalType":"bytes32"}],"stateMutability":"view"},{"type":"function","name":"eip712Domain","inputs":[],"outputs":[{"name":"fields","type":"bytes1","internalType":"bytes1"},{"name":"name","type":"string","internalType":"string"},{"name":"version","type":"string","internalType":"string"},{"name":"chainId","type":"uint256","internalType":"uint256"},{"name":"verifyingContract","type":"address","internalType":"address"},{"name":"salt","type":"bytes32","internalType":"bytes32"},{"name":"extensions","type":"uint256[]","internalType":"uint256[]"}],"stateMutability":"view"},{"type":"function","name":"execute","inputs":[{"name":"mode","type":"bytes32","internalType":"bytes32"},{"name":"executionData","type":"bytes","internalType":"bytes"}],"outputs":[],"stateMutability":"payable"},{"type":"function","name":"executeUserOp","inputs":[{"name":"userOp","type":"tuple","internalType":"struct PackedUserOperation","components":[{"name":"sender","type":"address","internalType":"address"},{"name":"nonce","type":"uint256","internalType":"uint256"},{"name":"initCode","type":"bytes","internalType":"bytes"},{"name":"callData","type":"bytes","internalType":"bytes"},{"name":"accountGasLimits","type":"bytes32","internalType":"bytes32"},{"name":"preVerificationGas","type":"uint256","internalType":"uint256"},{"name":"gasFees","type":"bytes32","internalType":"bytes32"},{"name":"paymasterAndData","type":"bytes","internalType":"bytes"},{"name":"signature","type":"bytes","internalType":"bytes"}]},{"name":"","type":"bytes32","internalType":"bytes32"}],"outputs":[],"stateMutability":"nonpayable"},{"type":"function","name":"getKey","inputs":[{"name":"keyHash","type":"bytes32","internalType":"bytes32"}],"outputs":[{"name":"","type":"tuple","internalType":"struct Key","components":[{"name":"keyType","type":"uint8","internalType":"enum KeyType"},{"name":"publicKey","type":"bytes","internalType":"bytes"}]}],"stateMutability":"view"},{"type":"function","name":"getKeySettings","inputs":[{"name":"keyHash","type":"bytes32","internalType":"bytes32"}],"outputs":[{"name":"","type":"uint256","internalType":"Settings"}],"stateMutability":"view"},{"type":"function","name":"getSeq","inputs":[{"name":"key","type":"uint256","internalType":"uint256"}],"outputs":[{"name":"seq","type":"uint256","internalType":"uint256"}],"stateMutability":"view"},{"type":"function","name":"hashTypedData","inputs":[{"name":"hash","type":"bytes32","internalType":"bytes32"}],"outputs":[{"name":"","type":"bytes32","internalType":"bytes32"}],"stateMutability":"view"},{"type":"function","name":"invalidateNonce","inputs":[{"name":"newNonce","type":"uint256","internalType":"uint256"}],"outputs":[],"stateMutability":"nonpayable"},{"type":"function","name":"isValidSignature","inputs":[{"name":"data","type":"bytes32","internalType":"bytes32"},{"name":"wrappedSignature","type":"bytes","internalType":"bytes"}],"outputs":[{"name":"result","type":"bytes4","internalType":"bytes4"}],"stateMutability":"view"},{"type":"function","name":"keyAt","inputs":[{"name":"i","type":"uint256","internalType":"uint256"}],"outputs":[{"name":"","type":"tuple","internalType":"struct Key","components":[{"name":"keyType","type":"uint8","internalType":"enum KeyType"},{"name":"publicKey","type":"bytes","internalType":"bytes"}]}],"stateMutability":"view"},{"type":"function","name":"keyCount","inputs":[],"outputs":[{"name":"","type":"uint256","internalType":"uint256"}],"stateMutability":"view"},{"type":"function","name":"namespaceAndVersion","inputs":[],"outputs":[{"name":"","type":"string","internalType":"string"}],"stateMutability":"pure"},{"type":"function","name":"packedEntrypoint","inputs":[],"outputs":[{"name":"","type":"uint256","internalType":"uint256"}],"stateMutability":"view"},{"type":"function","name":"register","inputs":[{"name":"key","type":"tuple","internalType":"struct Key","components":[{"name":"keyType","type":"uint8","internalType":"enum KeyType"},{"name":"publicKey","type":"bytes","internalType":"bytes"}]}],"outputs":[],"stateMutability":"nonpayable"},{"type":"function","name":"revoke","inputs":[{"name":"keyHash","type":"bytes32","internalType":"bytes32"}],"outputs":[],"stateMutability":"nonpayable"},{"type":"function","name":"supportsExecutionMode","inputs":[{"name":"mode","type":"bytes32","internalType":"bytes32"}],"outputs":[{"name":"result","type":"bool","internalType":"bool"}],"stateMutability":"pure"},{"type":"function","name":"update","inputs":[{"name":"keyHash","type":"bytes32","internalType":"bytes32"},{"name":"settings","type":"uint256","internalType":"Settings"}],"outputs":[],"stateMutability":"nonpayable"},{"type":"function","name":"updateEntryPoint","inputs":[{"name":"entryPoint","type":"address","internalType":"address"}],"outputs":[],"stateMutability":"nonpayable"},{"type":"function","name":"validateUserOp","inputs":[{"name":"userOp","type":"tuple","internalType":"struct PackedUserOperation","components":[{"name":"sender","type":"address","internalType":"address"},{"name":"nonce","type":"uint256","internalType":"uint256"},{"name":"initCode","type":"bytes","internalType":"bytes"},{"name":"callData","type":"bytes","internalType":"bytes"},{"name":"accountGasLimits","type":"bytes32","internalType":"bytes32"},{"name":"preVerificationGas","type":"uint256","internalType":"uint256"},{"name":"gasFees","type":"bytes32","internalType":"bytes32"},{"name":"paymasterAndData","type":"bytes","internalType":"bytes"},{"name":"signature","type":"bytes","internalType":"bytes"}]},{"name":"userOpHash","type":"bytes32","internalType":"bytes32"},{"name":"missingAccountFunds","type":"uint256","internalType":"uint256"}],"outputs":[{"name":"validationData","type":"uint256","internalType":"uint256"}],"stateMutability":"nonpayable"},{"type":"event","name":"EIP712DomainChanged","inputs":[],"anonymous":false},{"type":"event","name":"EntryPointUpdated","inputs":[{"name":"newEntryPoint","type":"address","indexed":true,"internalType":"address"}],"anonymous":false},{"type":"event","name":"NonceInvalidated","inputs":[{"name":"nonce","type":"uint256","indexed":false,"internalType":"uint256"}],"anonymous":false},{"type":"event","name":"Registered","inputs":[{"name":"keyHash","type":"bytes32","indexed":true,"internalType":"bytes32"},{"name":"key","type":"tuple","indexed":false,"internalType":"struct Key","components":[{"name":"keyType","type":"uint8","internalType":"enum KeyType"},{"name":"publicKey","type":"bytes","internalType":"bytes"}]}],"anonymous":false},{"type":"event","name":"Revoked","inputs":[{"name":"keyHash","type":"bytes32","indexed":true,"internalType":"bytes32"}],"anonymous":false},{"type":"error","name":"CallFailed","inputs":[{"name":"reason","type":"bytes","internalType":"bytes"}]},{"type":"error","name":"CannotRegisterSelf","inputs":[]},{"type":"error","name":"CannotUpdateRootKey","inputs":[]},{"type":"error","name":"ECDSAInvalidSignature","inputs":[]},{"type":"error","name":"ECDSAInvalidSignatureLength","inputs":[{"name":"length","type":"uint256","internalType":"uint256"}]},{"type":"error","name":"ECDSAInvalidSignatureS","inputs":[{"name":"s","type":"bytes32","internalType":"bytes32"}]},{"type":"error","name":"ExcessiveInvalidation","inputs":[]},{"type":"error","name":"FnSelectorNotRecognized","inputs":[]},{"type":"error","name":"IndexOutOfBounds","inputs":[]},{"type":"error","name":"InvalidHookResponse","inputs":[]},{"type":"error","name":"InvalidNonce","inputs":[]},{"type":"error","name":"InvalidSignature","inputs":[]},{"type":"error","name":"KeyDoesNotExist","inputs":[]},{"type":"error","name":"KeyExpired","inputs":[{"name":"expiration","type":"uint40","internalType":"uint40"}]},{"type":"error","name":"NotEntryPoint","inputs":[]},{"type":"error","name":"OnlyAdminCanSelfCall","inputs":[]},{"type":"error","name":"Unauthorized","inputs":[]},{"type":"error","name":"UnsupportedExecutionMode","inputs":[]}],"bytecode":{"object":"0x60c0604052348015600e575f5ffd5b506060806063604080518082018252601a81527f556e6973776170204d696e696d616c2044656c65676174696f6e000000000000602080830191909152825180840190935260018352603160f81b9083015291565b8151602092830120608052805191012060a05250607d9050565b60805160a0516149f461009e5f395f610d6f01525f610d4701526149f45ff3fe608060405260043610610138575f3560e01c806384b0196e116100aa578063b70e36f01161006e578063b70e36f014610403578063b75c7dc614610422578063d03c791414610441578063e9ae5c5314610470578063f698da2514610483578063fac750e0146104975761013f565b806384b0196e1461035d578063868b6663146103845780638dd7712f1461039957806394430fa5146103b8578063a58bb84a146103e45761013f565b806328495877116100fc578063284958771461024e57806330b1fa3b146102995780634223b5c2146102b85780636575f6aa146102d75780636a1ea88d146102f65780637613e7ba1461032a5761013f565b80630f3ebf6e1461017857806312aaac70146101aa5780631626ba7e146101d657806319822f7c1461020e5780631b71bb6e1461022d5761013f565b3661013f57005b5f3560e01c63bc197c81811463f23a6e6182141763150b7a028214171561016a57806020526020603cf35b50633c10b94e5f526004601cfd5b348015610183575f5ffd5b50610197610192366004613a4a565b6104ad565b6040519081526020015b60405180910390f35b3480156101b5575f5ffd5b506101c96101c4366004613a4a565b6104f8565b6040516101a19190613ac3565b3480156101e1575f5ffd5b506101f56101f0366004613aee565b61060a565b6040516001600160e01b031990911681526020016101a1565b348015610219575f5ffd5b50610197610228366004613b7a565b6106b1565b348015610238575f5ffd5b5061024c610247366004613be7565b6107a5565b005b348015610259575f5ffd5b50604080518082018252601f81527f556e69737761702e4d696e696d616c44656c65676174696f6e2e312e302e3000602082015290516101a19190613c02565b3480156102a4575f5ffd5b5061024c6102b3366004613d6b565b6107ec565b3480156102c3575f5ffd5b506101c96102d2366004613a4a565b6108a5565b3480156102e2575f5ffd5b506101976102f1366004613a4a565b6108c6565b348015610301575f5ffd5b50610197610310366004613a4a565b6001600160c01b03165f9081526003602052604090205490565b348015610335575f5ffd5b506101977fc807f46cbe2302f9a007e47db23c8af6a94680c1d26280fb9582873dbe5c920081565b348015610368575f5ffd5b506103716108d0565b6040516101a19796959493929190613de8565b34801561038f575f5ffd5b5061019760045481565b3480156103a4575f5ffd5b5061024c6103b3366004613e7e565b610940565b3480156103c3575f5ffd5b506103cc610a12565b6040516001600160a01b0390911681526020016101a1565b3480156103ef575f5ffd5b5061024c6103fe366004613ebf565b610a56565b34801561040e575f5ffd5b5061024c61041d366004613a4a565b610ab4565b34801561042d575f5ffd5b5061024c61043c366004613a4a565b610b8f565b34801561044c575f5ffd5b5061046061045b366004613a4a565b610c0e565b60405190151581526020016101a1565b61024c61047e366004613aee565b610c27565b34801561048e575f5ffd5b50610197610d1b565b3480156104a2575f5ffd5b50610197610dbf565b565b5f816104be5750600160c81b919050565b6104c85f83610dc9565b156104df57505f9081526002602052604090205490565b60405163395ed8c160e21b815260040160405180910390fd5b604080518082019091525f81526060602082015281610554576040805180820182525f81526060602091820152815180830183526002815282513081840152835180820384018152908401909352908101919091525b92915050565b61055e5f83610dc9565b156104df575f828152600160205260409020805461057b90613edf565b80601f01602080910402602001604051908101604052809291908181526020018280546105a790613edf565b80156105f25780601f106105c9576101008083540402835291602001916105f2565b820191905f5260205f20905b8154815290600101906020018083116105d557829003601f168201915b505050505080602001905181019061054e9190613f60565b5f808061061984860186613fcf565b915091505f610627836104ad565b90505f5f61063483610e51565b915091508115610665576040516348c76fe160e01b815264ffffffffff821660048201526024015b60405180910390fd5b6001600160a01b03831661067a816004610e94565b61068e57610689868b87610ea3565b6106a3565b6106a36001600160a01b038216878c88610ef5565b9a9950505050505050505050565b5f6106ba610a12565b6001600160a01b0316336001600160a01b0316146106eb57604051636b31ba1560e11b815260040160405180910390fd5b6106f482610fa4565b5f80610704610100870187614012565b8101906107119190613fcf565b915091505f61071f836104ad565b90505f5f61072c83610e51565b915091508115610758576040516348c76fe160e01b815264ffffffffff8216600482015260240161065c565b6001600160a01b03831661076d816002610e94565b61078657610689868661077f8d61405b565b8c86610fb7565b6106a3866107938c61405b565b6001600160a01b03841691908c61100e565b6107ad6110b3565b6001600160a01b038116600160ff1b81176004556040517fea942933e7fb7cb728727281a81e352a20dda96dbc4ee97633a3fa25da48e4ab905f90a250565b6107f46110b3565b6107fd816110d2565b1561081b5760405163e335c8f960e01b815260040160405180910390fd5b5f61082582611122565b9050816040516020016108389190613ac3565b60408051601f198184030181529181525f8381526001602052209061085d908261419b565b506108685f82611161565b50807f8df00f8e3bbfb2c3024a60b74e1d4e520f7cbe1da3476726241146ecf6328832836040516108999190613ac3565b60405180910390a25050565b604080518082019091525f81526060602082015261054e6101c45f8461127d565b5f61054e826112c6565b600f60f81b6060805f80808361092e604080518082018252601a81527f556e6973776170204d696e696d616c2044656c65676174696f6e000000000000602080830191909152825180840190935260018352603160f81b9083015291565b97989097965046955030945091925090565b610948610a12565b6001600160a01b0316336001600160a01b03161461097957604051636b31ba1560e11b815260040160405180910390fd5b5f610988610100840184614012565b8101906109959190613fcf565b5090505f36816109c36109be6109ae6060890189614012565b6004919091019160031990910190565b6112f4565b9250925092506109d28361130f565b6109ef57604051637f18127560e01b815260040160405180910390fd5b5f6109fc8284018461434c565b9050610a09848287611328565b50505050505050565b5f610a24600454600160ff1b16151590565b610a415750734337084d9e255ff0702461cf8895ce9e3b5ff10890565b506004546001600160ff1b031690565b905090565b610a5e6110b3565b81610a7c5760405163059bd97d60e51b815260040160405180910390fd5b610a865f83610dc9565b610aa35760405163395ed8c160e21b815260040160405180910390fd5b5f9182526002602052604090912055565b610abc6110b3565b604081811c5f81815260036020529190912054826001600160401b0380831690821611610afc57604051633ab3447f60e11b815260040160405180910390fd5b81810361ffff6001600160401b0382161115610b2b57604051631269ad1360e11b815260040160405180910390fd5b506001600160c01b0383165f90815260036020526040908190206001600160401b0383169055517f4d9dbebf1d909894d9c26fe228c27cec643b2cb490124e5b658f4edd203c20c190610b819086815260200190565b60405180910390a150505050565b610b976110b3565b610ba15f826113a0565b610bbe5760405163395ed8c160e21b815260040160405180910390fd5b5f818152600160205260408120610bd4916139b4565b5f818152600260205260408082208290555182917fe5af7daed5ab2a2dc5f98d53619f05089c0c14d11a6621f6b906a2366c9a7ab391a250565b5f610c188261130f565b8061054e575061054e826114a6565b610c308361130f565b15610c5d575f610c428284018461434c565b9050610c4c6110b3565b610c5784825f611328565b50505050565b610c66836114a6565b15610cfd575f80610c798385018561437d565b915091505f5f82806020019051810190610c9391906143ca565b915091505f5f82806020019051810190610cad91906143ca565b9092509050610ce782610ce18887604080518082018252606081525f60209182015281518083019092529281529182015290565b836114d0565b610cf2898784611328565b505050505050505050565b604051637f18127560e01b815260040160405180910390fd5b505050565b604080517f8b73c3c69bb8fe3d512ecc4cf759cc79239f7b179b0ffacaa9a75d522b39400f60208201527f0000000000000000000000000000000000000000000000000000000000000000918101919091527f000000000000000000000000000000000000000000000000000000000000000060608201524660808201523060a08201525f9060c00160405160208183030381529060405280519060200120905090565b5f610a515f6115af565b6318fb58646004525f8281526024812068fbb67fda52d4bfb8bf8303610df65763f5a267f15f526004601cfd5b82610e085768fbb67fda52d4bfb8bf92505b801954610e39578054600192508314610e4a5760018101548314610e4a5760028101548314610e4a575f9150610e4a565b80602052825f5260405f2054151591505b5092915050565b5f5f5f610e658460a01c64ffffffffff1690565b90508064ffffffffff165f03610e8057505f93849350915050565b4264ffffffffff8216111594909350915050565b166001600160a01b0316151590565b5f5f610eae856104f8565b9050610ecc610ec4610ebf866115fd565b6112c6565b829085611637565b15610ee15750630b135d3f60e11b9050610eee565b506001600160e01b031990505b9392505050565b5f5f856001600160a01b0316630785729c8686866040518463ffffffff1660e01b8152600401610f2793929190614404565b6040805180830381865afa158015610f41573d5f5f3e3d5ffd5b505050506040513d601f19601f82011682018060405250810190610f659190614439565b925090506001600160e01b031981166301e15ca760e21b14610f9a57604051631e048e1d60e01b815260040160405180910390fd5b505b949350505050565b8015610fb4575f385f3884335af1505b50565b5f5f610fc2876104f8565b9050610fcf818588611637565b15610fea57505064ffffffffff60a01b60a082901b16611005565b505064ffffffffff60a01b60a082901b16600117611005565b505b95945050505050565b5f5f856001600160a01b0316632d36e75c8686866040518463ffffffff1660e01b81526004016110409392919061446a565b6040805180830381865afa15801561105a573d5f5f3e3d5ffd5b505050506040513d601f19601f8201168201806040525081019061107e919061453e565b925090506001600160e01b03198116630b4db9d760e21b14610f9a57604051631e048e1d60e01b815260040160405180910390fd5b3330146104ab576040516282b42960e81b815260040160405180910390fd5b5f6002825160028111156110e8576110e8613a61565b14801561054e5750306001600160a01b031682602001518060200190518101906111129190614568565b6001600160a01b03161492915050565b5f815f0151826020015180519060200120604051602001611144929190614583565b604051602081830303815290604052805190602001209050919050565b6318fb58646004525f8281526024812068fbb67fda52d4bfb8bf830361118e5763f5a267f15f526004601cfd5b826111a05768fbb67fda52d4bfb8bf92505b8019548160205280611244578154806111c0578483556001935050611275565b8481036111cd5750611275565b6001830154806111e857856001850155600194505050611275565b8581036111f6575050611275565b6002840154806112125786600286015560019550505050611275565b86810361122157505050611275565b5f9283526040808420600190559183528183206002905582529020600390555060075b835f5260405f20805461127357600191821c8381018690558083019182905590821b8217831955909250611275565b505b505092915050565b6318fb58646004525f8281526024902081015468fbb67fda52d4bfb8bf811415026112a7836115af565b821061054e57604051634e23d03560e01b815260040160405180910390fd5b5f6112cf610d1b565b60405161190160f01b6020820152602281019190915260428101839052606201611144565b8135365f61130485856001611787565b915091509250925092565b5f600160f81b82148061054e57505061010160f01b1490565b60ff60f01b8316155f5b8351811015611399575f5f6113608684815181106113525761135261459e565b6020026020010151866117c9565b915091508115801561136f5750835b1561138f578060405163a5fa8d2b60e01b815260040161065c9190613c02565b5050600101611332565b5050505050565b6318fb58646004525f8281526024812068fbb67fda52d4bfb8bf83036113cd5763f5a267f15f526004601cfd5b826113df5768fbb67fda52d4bfb8bf92505b8019548061144857600192508382540361140c5760018201805483556002830180549091555f9055611275565b8360018301540361142a5760028201805460018401555f9055611275565b83600283015403611440575f6002830155611275565b5f9250611275565b81602052835f5260405f20805480611461575050611275565b60018360011c03925082600182031461148b57828401548060018303860155805f52508060405f20555b5060018260011b178319555f81555060019250505092915050565b5f690100000000007821000160b01b82148061054e575050690101000000007821000160b01b1490565b6114dd8260200151611913565b5f6114e7846104f8565b90505f6114f3856104ad565b90505f5f61150083610e51565b91509150811561152c576040516348c76fe160e01b815264ffffffffff8216600482015260240161065c565b6001600160a01b0383165f611543610ebf89611962565b90505f61155a6001600160a01b0384166001610e94565b61156e5761156987838a611637565b611583565b6115836001600160a01b0384168b848b6119b5565b9050806115a357604051638baa579f60e01b815260040160405180910390fd5b50505050505050505050565b6318fb58646004525f818152602481208019548060011c9250806115f65781545f9350156115f6576001925082820154156115f6576002925082820154156115f657600392505b5050919050565b604080517f88db707a1e2dc654f6eae4e6a221fc7a3904142a8e1135d44397d0f80930e8f760208201529081018290525f90606001611144565b5f60028451600281111561164d5761164d613a61565b0361168e57836020015180602001905181019061166a9190614568565b6001600160a01b031661167d8484611a5a565b6001600160a01b0316149050610eee565b5f845160028111156116a2576116a2613a61565b036116f7575f5f85602001518060200190518101906116c191906145b2565b915091505f5f858060200190518101906116db91906145b2565b915091506116ec8783838787611a82565b945050505050610eee565b60018451600281111561170c5761170c613a61565b0361177e575f5f856020015180602001905181019061172b91906145b2565b915091505f8480602001905181019061174491906145d4565b90506117748660405160200161175c91815260200190565b6040516020818303038152906040525f838686611abb565b9350505050610eee565b505f9392505050565b63ffffffff600582901b84013581168401602081810192823516918291849183010186880110156117bf57633b99b53d5f526004601cfd5b5050935093915050565b81515f9060609082906001600160a01b0316156117e75784516117e9565b305b90505f6117f5856104ad565b90506118018160c81c90565b15801561181657506001600160a01b03821630145b1561183457604051633ceb88d960e01b815260040160405180910390fd5b6001600160a01b038116606061184b826008610e94565b156118755760208801516040890151611872916001600160a01b038516918a918891611e08565b90505b836001600160a01b03168860200151896040015160405161189691906146a9565b5f6040518083038185875af1925050503d805f81146118d0576040519150601f19603f3d011682016040523d82523d5f602084013e6118d5565b606091505b5090965094506118ef6001600160a01b0383166010610e94565b15611908576119086001600160a01b0383168883611eb4565b505050509250929050565b604081811c5f81815260036020529182208054919284926001600160401b038416929091611940836146c8565b9190505514610d1657604051633ab3447f60e11b815260040160405180910390fd5b5f604051806080016040528060508152602001614998605091398051906020012061198f835f0151611f57565b602080850151604051611144949392019283526020830191909152604082015260600190565b5f5f856001600160a01b03166347db8d108686866040518463ffffffff1660e01b81526004016119e793929190614404565b6040805180830381865afa158015611a01573d5f5f3e3d5ffd5b505050506040513d601f19601f82011682018060405250810190611a2591906146ef565b925090506001600160e01b0319811663047db8d160e41b14610f9a57604051631e048e1d60e01b815260040160405180910390fd5b5f5f5f5f611a688686612020565b925092509250611a788282612069565b5090949350505050565b5f5f5f611a928888888888612125565b9150915080611aad57611aa88888888888612222565b611aaf565b815b98975050505050505050565b5f611ad460025f5160206148ef5f395f51905f5261472b565b8460a001511115611ae657505f611005565b60608401515f90611b0890611afc81601561473e565b602088015191906122d2565b90507fff1a2a9176d650e4a99dedb58f1793003935130579fe17b5a3f698ac5b00e634818051906020012014611b41575f915050611005565b5f611b4b886122df565b604051602001611b5b9190614751565b60405160208183030381529060405290505f611b92876040015183518960400151611b86919061473e565b60208a015191906122d2565b90508180519060200120818051906020012014611bb4575f9350505050611005565b86518051600160f81b9182916020908110611bd157611bd161459e565b0160200151166001600160f81b03191614611bf1575f9350505050611005565b878015611c29575086518051600160fa1b9182916020908110611c1657611c1661459e565b0160200151166001600160f81b03191614155b15611c39575f9350505050611005565b5f60028860200151604051611c4e91906146a9565b602060405180830381855afa158015611c69573d5f5f3e3d5ffd5b5050506040513d601f19601f82011682018060405250810190611c8c9190614783565b90505f6002895f015183604051602001611ca792919061479a565b60408051601f1981840301815290829052611cc1916146a9565b602060405180830381855afa158015611cdc573d5f5f3e3d5ffd5b5050506040513d601f19601f82011682018060405250810190611cff9190614783565b6080808b015160a0808d015160408051602081018790529081019390935260608301529181018b90529081018990529091505f9060c00160405160208183030381529060405290505f5f6101006001600160a01b031683604051611d6391906146a9565b5f60405180830381855afa9150503d805f8114611d9b576040519150601f19603f3d011682016040523d82523d5f602084013e611da0565b606091505b50805191935091501515828015611db45750805b15611de05781806020019051810190611dcd9190614783565b6001149950505050505050505050611005565b611df5858e608001518f60a001518f8f612304565b9f9e505050505050505050505050505050565b60605f866001600160a01b031663ec9b4ee4878787876040518563ffffffff1660e01b8152600401611e3d94939291906147b2565b5f604051808303815f875af1158015611e58573d5f5f3e3d5ffd5b505050506040513d5f823e601f3d908101601f19168201604052611e7f91908101906147de565b925090506001600160e01b03198116633b26d3b960e21b1461100357604051631e048e1d60e01b815260040160405180910390fd5b604051639e808d4d60e01b81525f906001600160a01b03851690639e808d4d90611ee49086908690600401614812565b6020604051808303815f875af1158015611f00573d5f5f3e3d5ffd5b505050506040513d601f19601f82011682018060405250810190611f24919061482a565b90506001600160e01b03198116639e808d4d60e01b14610c5757604051631e048e1d60e01b815260040160405180910390fd5b5f5f82516001600160401b03811115611f7257611f72613c14565b604051908082528060200260200182016040528015611f9b578160200160208202803683370190505b5090505f5b8351811015611ff057611fcb848281518110611fbe57611fbe61459e565b60200260200101516123da565b828281518110611fdd57611fdd61459e565b6020908102919091010152600101611fa0565b50806040516020016120029190614843565b60405160208183030381529060405280519060200120915050919050565b5f5f5f8351604103612057576020840151604085015160608601515f1a61204988828585612439565b955095509550505050612062565b505081515f91506002905b9250925092565b5f82600381111561207c5761207c613a61565b03612085575050565b600182600381111561209957612099613a61565b036120b75760405163f645eedf60e01b815260040160405180910390fd5b60028260038111156120cb576120cb613a61565b036120ec5760405163fce698f760e01b81526004810182905260240161065c565b600382600381111561210057612100613a61565b03612121576040516335e2f38360e21b81526004810182905260240161065c565b5050565b5f5f61213186866124f7565b15806121445750612142848461254e565b155b1561215457505f90506001612218565b6040805160208101899052908101879052606081018690526080810185905260a081018490525f9081906101009060c00160408051601f198184030181529082905261219f916146a9565b5f60405180830381855afa9150503d805f81146121d7576040519150601f19603f3d011682016040523d82523d5f602084013e6121dc565b606091505b50915091508180156121ef575080516020145b6121fa575f5f612211565b8080602001905181019061220e9190614878565b60015b9350935050505b9550959350505050565b5f61222d85856124f7565b1580612240575061223e838361254e565b155b1561224c57505f611005565b5f61225784846125b2565b90505f612271865f5160206148ef5f395f51905f5261277f565b90505f5f5160206148ef5f395f51905f52828a0990505f5f5160206148ef5f395f51905f52838a0990505f6122a785848461278e565b509050896122c25f5160206148ef5f395f51905f5283614891565b149b9a5050505050505050505050565b6060610f9c8484846128b2565b606061054e8260405180606001604052806040815260200161490f604091395f612917565b5f84158061231f57505f5160206148ef5f395f51905f528510155b80612328575083155b8061234057505f5160206148ef5f395f51905f528410155b1561234c57505f611005565b6123568383612a91565b61236157505f611005565b5f61236b85612b79565b90505f5f5160206148ef5f395f51905f5282890990505f5f5160206148ef5f395f51905f5283890990505f6123a287878585612be4565b90505f5160206148ef5f395f51905f526123c98a5f5160206148ef5f395f51905f526148a4565b8208159a9950505050505050505050565b5f60405180606001604052806029815260200161494f602991398051602091820120835184830151604080870151805190860120905161114495019384526001600160a01b039290921660208401526040830152606082015260800190565b5f80806fa2a8918ca85bafe22016d0b997e4df60600160ff1b0384111561246857505f915060039050826124ed565b604080515f808252602082018084528a905260ff891692820192909252606081018790526080810186905260019060a0016020604051602081039080840390855afa1580156124b9573d5f5f3e3d5ffd5b5050604051601f1901519150506001600160a01b0381166124e457505f9250600191508290506124ed565b92505f91508190505b9450945094915050565b5f821580159061251357505f5160206148ef5f395f51905f5283105b801561251e57508115155b8015610eee5750507f7fffffff800000007fffffffffffffffde737d56d38bcf4279dce5617e3192a81015919050565b5f600160601b63ffffffff60c01b031980838409817f5ac635d8aa3a93e7b3ebbd55769886bc651d06b0cc53b0f63bce3c3e27d2604b8387856003600160601b0363ffffffff60c01b0319878b8c0908090894821191909310169190921416919050565b6125ba6139eb565b60405180606001604052805f81526020015f81526020015f815250815f601081106125e7576125e761459e565b6020020181905250604051806060016040528084815260200183815260200160018152508160016010811061261e5761261e61459e565b602002018190525060405180606001604052805f5160206148cf5f395f51905f5281526020015f5160206149785f395f51905f52815260200160018152508160046010811061266f5761266f61459e565b60200201526126858160015b6020020151613250565b604082015261269581600461267b565b61010082015260208101516126b2908260025b60200201516132ac565b60608201526126cb8160015b60200201518260046126a8565b60a08201526126db8160026126be565b60c08201526126eb8160036126be565b60e08201526127048160015b60200201518260086126a8565b6101208201526127158160026126f7565b6101408201526127268160036126f7565b6101608201526127378160046126f7565b6101808201526127518160015b602002015182600c6126a8565b6101a0820152612762816002612744565b6101c0820152612773816003612744565b6101e082015292915050565b5f610eee83600284038461330a565b5f80808080805b60808110156128965781156127c9576127af84848461332b565b919550935091506127c184848461332b565b919550935091505b600c60fc89901c1660fe88901c178981601081106127e9576127e961459e565b6020020151604001511561288257825f03612858578981601081106128105761281061459e565b6020020151518a82601081106128285761282861459e565b6020020151602001518b83601081106128435761284361459e565b60200201516040015191965094509250612882565b61287a8a826010811061286d5761286d61459e565b60200201518686866133ae565b919650945092505b50600297881b979690961b95600101612795565b506128a28383836134da565b945094505050505b935093915050565b606083518281116128c1578092505b8381116128cc578093505b5081831015610eee5750604051828203848401601f19601f830181165b82810151858201528101806128e9575050508060208301015f81526020810160405250808252509392505050565b606083515f03612935575060408051602081019091525f8152610eee565b5f826129655760038551600461294b91906148b7565b61295690600261473e565b612960919061472b565b61298a565b600385516002612975919061473e565b61297f919061472b565b61298a9060046148b7565b90505f816001600160401b038111156129a5576129a5613c14565b6040519080825280601f01601f1916602001820160405280156129cf576020820181803683370190505b509050600185016020820187885189016020810180515f82525b82841015612a44576003840193508351603f8160121c168701518653600186019550603f81600c1c168701518653600186019550603f8160061c168701518653600186019550603f81168701518653506001850194506129e9565b905250508515612a8557600388510660018114612a685760028114612a7b57612a83565b603d6001830353603d6002830353612a83565b603d60018303535b505b50909695505050505050565b5f600160601b63ffffffff60c01b031983101580612abd5750600160601b63ffffffff60c01b03198210155b80612acf575082158015612acf575081155b15612adb57505f61054e565b5f600160601b63ffffffff60c01b031983840990505f600160601b63ffffffff60c01b0319806003600160601b0363ffffffff60c01b03198709600160601b63ffffffff60c01b031987600160601b63ffffffff60c01b0319898a0909089050600160601b63ffffffff60c01b03197f5ac635d8aa3a93e7b3ebbd55769886bc651d06b0cc53b0f63bce3c3e27d2604b820891909114949350505050565b5f60405160208152602080820152602060408201528260608201527bffffffff00000000000000004319055258e8617b0c46353d039cdab01960808201525f5160206148ef5f395f51905f5260a082015260208160c08360055f19fa612bdd575f5ffd5b5192915050565b5f80808060ff818088158015612bf8575087155b15612c0b575f9650505050505050610f9c565b612c315f5160206148cf5f395f51905f525f5160206149785f395f51905f528d8d613527565b909250905081158015612c42575080155b15612c8b575f5160206148ef5f395f51905f52885f5160206148ef5f395f51905f52038a0898505f975088158015612c78575087155b15612c8b575f9650505050505050610f9c565b600189841c16600189851c1660011b015b80612cbe5760018403935060018a851c1660018a861c1660011b019050612c9c565b50600189841c16600189851c1660011b01955060018603612cfa575f5160206148cf5f395f51905f5296505f5160206149785f395f51905f5293505b60028603612d09578a96508993505b60038603612d18578196508093505b60018303925060019550600194505b825f1911156131d557600160601b63ffffffff60c01b031984600209600160601b63ffffffff60c01b0319818209600160601b63ffffffff60c01b0319818a09600160601b63ffffffff60c01b03198284099250600160601b63ffffffff60c01b031980600160601b63ffffffff60c01b03198b8d08600160601b63ffffffff60c01b03198c600160601b63ffffffff60c01b0319038e0809600309600160601b63ffffffff60c01b03198985099850600160601b63ffffffff60c01b03198a84099950600160601b63ffffffff60c01b031980836002600160601b0363ffffffff60c01b031909600160601b63ffffffff60c01b0319838409089a50600160601b63ffffffff60c01b03198083600160601b63ffffffff60c01b0319038d0882099250600160601b63ffffffff60c01b031983600160601b63ffffffff60c01b03198a870908975060018d881c1660018d891c1660011b01905080612ea35787600160601b63ffffffff60c01b0319039750505050506131ca565b60018103612ecc575f5160206148cf5f395f51905f5293505f5160206149785f395f51905f5292505b60028103612edb578e93508d92505b60038103612eea578593508492505b89612f0357509198506001975087965094506131ca9050565b600160601b63ffffffff60c01b031988600160601b63ffffffff60c01b03198b860908600160601b63ffffffff60c01b03198c600160601b63ffffffff60c01b031903600160601b63ffffffff60c01b03198d8809089350806130bc57836130bc57600160601b63ffffffff60c01b0319896002600160601b0363ffffffff60c01b0319099450600160601b63ffffffff60c01b03198586099350600160601b63ffffffff60c01b0319848d099250600160601b63ffffffff60c01b03198486099450600160601b63ffffffff60c01b0319808c600160601b63ffffffff60c01b0319038e08600160601b63ffffffff60c01b03198d8f08099050600160601b63ffffffff60c01b0319816003099150600160601b63ffffffff60c01b03198a86099950600160601b63ffffffff60c01b03198b85099a50600160601b63ffffffff60c01b031980846002600160601b0363ffffffff60c01b031909600160601b63ffffffff60c01b0319848509089b50600160601b63ffffffff60c01b0319808d600160601b63ffffffff60c01b031903850883099350600160601b63ffffffff60c01b0319808a87098508985050505050506131ca565b600160601b63ffffffff60c01b03198485099150600160601b63ffffffff60c01b0319848309600160601b63ffffffff60c01b0319838d099b50600160601b63ffffffff60c01b0319818c099a50600160601b63ffffffff60c01b0319838e09600160601b63ffffffff60c01b031980826002600160601b0363ffffffff60c01b031909600160601b63ffffffff60c01b031984600160601b63ffffffff60c01b031903600160601b63ffffffff60c01b031987880908089350600160601b63ffffffff60c01b031980838d09600160601b63ffffffff60c01b031985600160601b63ffffffff60c01b031988600160601b63ffffffff60c01b031903860809089a50505050809a50505050505b600183039250612d27565b60405186606082015260208152602080820152602060408201526002600160601b0363ffffffff60c01b03196080820152600160601b63ffffffff60c01b031960a082015260208160c08360055f19fa61322d575f5ffd5b600160601b63ffffffff60c01b0319815189099c9b505050505050505050505050565b61327160405180606001604052805f81526020015f81526020015f81525090565b5f5f5f61328a855f01518660200151876040015161332b565b6040805160608101825293845260208401929092529082015295945050505050565b6132cd60405180606001604052805f81526020015f81526020015f81525090565b5f5f5f6132e786865f0151876020015188604001516133ae565b604080516060810182529384526020840192909252908201529695505050505050565b5f5f5f6133188686866135b4565b9150915081611005576110056012613606565b5f5f5f600160601b63ffffffff60c01b031980868709818687098283848384096003600160601b0363ffffffff60c01b03190984858c8d096003090890508283838b09600409838482600209850385848509089650838485858609600809850385868a880385088509089550505050808186880960020991505093509350939050565b5f5f5f600160601b63ffffffff60c01b0319604088015181818209828388858a8b090960208c0151098381850385868686098c090884858a8b098d51098581870387868f090893508115841516801561340e5760018114613454576134c9565b868586098788898386096002098903898a848a098b038b88890908089a5087888983890987098903898a8e8c038c8689090887090899505086878c8809860997506134c9565b8c8c8c898283098a8283098b8c8d8384096003600160601b0363ffffffff60c01b0319098d8e8889096003090890508b8c83870960040994508b8c866002098d038d838409089e508b8c8384096008098c0391508b8f8d03860894508b828d878409089d505050898a8284096002099a505050505b505050505050509450945094915050565b5f5f825f036134ed57505f9050806128aa565b600160601b63ffffffff60c01b03195f613507858361277f565b905081818209828189099450828383830988099350505050935093915050565b5f8080808661353d5785859350935050506135ab565b8461354f5787879350935050506135ab565b858814801561355d57508487145b1561357e5761356f8888600180613617565b929a5090985092509050613598565b61358d88886001808a8a613770565b929a50909850925090505b6135a4888884846138f1565b9350935050505b94509492505050565b5f5f825f036135c757505f9050806128aa565b60405160208152602080820152602060408201528560608201528460808201528360a082015260205f60c08360055afa9250505f519050935093915050565b634e487b715f52806020526024601cfd5b5f5f5f5f600160601b63ffffffff60c01b0319876002099350600160601b63ffffffff60c01b03198485099150600160601b63ffffffff60c01b03198289099050600160601b63ffffffff60c01b03198285099250600160601b63ffffffff60c01b03198683099150600160601b63ffffffff60c01b031980600160601b63ffffffff60c01b0319888b08600160601b63ffffffff60c01b031989600160601b63ffffffff60c01b0319038c08096003099550600160601b63ffffffff60c01b031980826002600160601b0363ffffffff60c01b031909600160601b63ffffffff60c01b0319888909089350600160601b63ffffffff60c01b03198085600160601b63ffffffff60c01b031903830887099750600160601b63ffffffff60c01b03198584099050600160601b63ffffffff60c01b031980888509600160601b63ffffffff60c01b03190389089250945094509450949050565b5f5f5f5f885f0361378c575084925083915060019050806138e4565b600160601b63ffffffff60c01b0319988903988981898809089450600160601b63ffffffff60c01b03198a600160601b63ffffffff60c01b031903600160601b63ffffffff60c01b03198a8909089550600160601b63ffffffff60c01b03198687099350600160601b63ffffffff60c01b03198685099250600160601b63ffffffff60c01b03198489099150600160601b63ffffffff60c01b03198388099050600160601b63ffffffff60c01b0319848b099750600160601b63ffffffff60c01b031980896002600160601b0363ffffffff60c01b031909600160601b63ffffffff60c01b031985600160601b63ffffffff60c01b031903600160601b63ffffffff60c01b0319898a0908089350600160601b63ffffffff60c01b031980848b09600160601b63ffffffff60c01b031987600160601b63ffffffff60c01b031988600160601b63ffffffff60c01b0319038d08090892505b9650965096509692505050565b5f5f5f6138fd8461395b565b9050600160601b63ffffffff60c01b031981870991505f600160601b63ffffffff60c01b03198287099050600160601b63ffffffff60c01b03198182099150600160601b63ffffffff60c01b03198289099350505094509492505050565b5f60405160208152602080820152602060408201528260608201526002600160601b0363ffffffff60c01b03196080820152600160601b63ffffffff60c01b031960a082015260208160c08360055f19fa612bdd575f5ffd5b5080546139c090613edf565b5f825580601f106139cf575050565b601f0160209004905f5260205f2090810190610fb49190613a32565b6040518061020001604052806010905b613a1c60405180606001604052805f81526020015f81526020015f81525090565b8152602001906001900390816139fb5790505090565b5b80821115613a46575f8155600101613a33565b5090565b5f60208284031215613a5a575f5ffd5b5035919050565b634e487b7160e01b5f52602160045260245ffd5b60038110613a9157634e487b7160e01b5f52602160045260245ffd5b9052565b5f81518084528060208401602086015e5f602082860101526020601f19601f83011685010191505092915050565b60208152613ad5602082018351613a75565b5f6020830151604080840152610f9c6060840182613a95565b5f5f5f60408486031215613b00575f5ffd5b8335925060208401356001600160401b03811115613b1c575f5ffd5b8401601f81018613613b2c575f5ffd5b80356001600160401b03811115613b41575f5ffd5b866020828401011115613b52575f5ffd5b939660209190910195509293505050565b5f6101208284031215613b74575f5ffd5b50919050565b5f5f5f60608486031215613b8c575f5ffd5b83356001600160401b03811115613ba1575f5ffd5b613bad86828701613b63565b9660208601359650604090950135949350505050565b6001600160a01b0381168114610fb4575f5ffd5b8035613be281613bc3565b919050565b5f60208284031215613bf7575f5ffd5b8135610eee81613bc3565b602081525f610eee6020830184613a95565b634e487b7160e01b5f52604160045260245ffd5b604080519081016001600160401b0381118282101715613c4a57613c4a613c14565b60405290565b60405161012081016001600160401b0381118282101715613c4a57613c4a613c14565b604051606081016001600160401b0381118282101715613c4a57613c4a613c14565b60405160c081016001600160401b0381118282101715613c4a57613c4a613c14565b604051601f8201601f191681016001600160401b0381118282101715613cdf57613cdf613c14565b604052919050565b60038110610fb4575f5ffd5b5f6001600160401b03821115613d0b57613d0b613c14565b50601f01601f191660200190565b5f82601f830112613d28575f5ffd5b8135613d3b613d3682613cf3565b613cb7565b818152846020838601011115613d4f575f5ffd5b816020850160208301375f918101602001919091529392505050565b5f60208284031215613d7b575f5ffd5b81356001600160401b03811115613d90575f5ffd5b820160408185031215613da1575f5ffd5b613da9613c28565b8135613db481613ce7565b815260208201356001600160401b03811115613dce575f5ffd5b613dda86828501613d19565b602083015250949350505050565b60ff60f81b8816815260e060208201525f613e0660e0830189613a95565b8281036040840152613e188189613a95565b606084018890526001600160a01b038716608085015260a0840186905283810360c0850152845180825260208087019350909101905f5b81811015613e6d578351835260209384019390920191600101613e4f565b50909b9a5050505050505050505050565b5f5f60408385031215613e8f575f5ffd5b82356001600160401b03811115613ea4575f5ffd5b613eb085828601613b63565b95602094909401359450505050565b5f5f60408385031215613ed0575f5ffd5b50508035926020909101359150565b600181811c90821680613ef357607f821691505b602082108103613b7457634e487b7160e01b5f52602260045260245ffd5b5f82601f830112613f20575f5ffd5b8151602083015f613f33613d3684613cf3565b9050828152858383011115613f46575f5ffd5b8282602083015e5f92810160200192909252509392505050565b5f60208284031215613f70575f5ffd5b81516001600160401b03811115613f85575f5ffd5b820160408185031215613f96575f5ffd5b613f9e613c28565b8151613fa981613ce7565b815260208201516001600160401b03811115613fc3575f5ffd5b613dda86828501613f11565b5f5f60408385031215613fe0575f5ffd5b8235915060208301356001600160401b03811115613ffc575f5ffd5b61400885828601613d19565b9150509250929050565b5f5f8335601e19843603018112614027575f5ffd5b8301803591506001600160401b03821115614040575f5ffd5b602001915036819003821315614054575f5ffd5b9250929050565b5f610120823603121561406c575f5ffd5b614074613c50565b61407d83613bd7565b81526020838101359082015260408301356001600160401b038111156140a1575f5ffd5b6140ad36828601613d19565b60408301525060608301356001600160401b038111156140cb575f5ffd5b6140d736828601613d19565b6060830152506080838101359082015260a0808401359082015260c0808401359082015260e08301356001600160401b03811115614113575f5ffd5b61411f36828601613d19565b60e0830152506101008301356001600160401b0381111561413e575f5ffd5b61414a36828601613d19565b6101008301525092915050565b601f821115610d1657805f5260205f20601f840160051c8101602085101561417c5750805b601f840160051c820191505b81811015611399575f8155600101614188565b81516001600160401b038111156141b4576141b4613c14565b6141c8816141c28454613edf565b84614157565b6020601f8211600181146141fa575f83156141e35750848201515b5f19600385901b1c1916600184901b178455611399565b5f84815260208120601f198516915b828110156142295787850151825560209485019460019092019101614209565b508482101561424657868401515f19600387901b60f8161c191681555b50505050600190811b01905550565b5f82601f830112614264575f5ffd5b81356001600160401b0381111561427d5761427d613c14565b8060051b61428d60208201613cb7565b918252602081850181019290810190868411156142a8575f5ffd5b6020860192505b838310156143425782356001600160401b038111156142cc575f5ffd5b86016060818903601f190112156142e1575f5ffd5b6142e9613c73565b60208201356142f781613bc3565b81526040820135602082015260608201356001600160401b0381111561431b575f5ffd5b61432a8a602083860101613d19565b604083015250835250602092830192909101906142af565b9695505050505050565b5f6020828403121561435c575f5ffd5b81356001600160401b03811115614371575f5ffd5b610f9c84828501614255565b5f5f6040838503121561438e575f5ffd5b82356001600160401b038111156143a3575f5ffd5b6143af85828601614255565b92505060208301356001600160401b03811115613ffc575f5ffd5b5f5f604083850312156143db575f5ffd5b825160208401519092506001600160401b038111156143f8575f5ffd5b61400885828601613f11565b838152826020820152606060408201525f6110056060830184613a95565b80516001600160e01b031981168114613be2575f5ffd5b5f5f6040838503121561444a575f5ffd5b61445383614422565b915061446160208401614422565b90509250929050565b8381526060602082015261448a6060820184516001600160a01b03169052565b602083015160808201525f604084015161012060a08401526144b0610180840182613a95565b90506060850151605f198483030160c08501526144cd8282613a95565b915050608085015160e084015260a085015161010084015260c085015161012084015260e0850151605f198483030161014085015261450c8282613a95565b915050610100850151605f198483030161016085015261452c8282613a95565b92505050826040830152949350505050565b5f5f6040838503121561454f575f5ffd5b61455883614422565b6020939093015192949293505050565b5f60208284031215614578575f5ffd5b8151610eee81613bc3565b604081016145918285613a75565b8260208301529392505050565b634e487b7160e01b5f52603260045260245ffd5b5f5f604083850312156145c3575f5ffd5b505080516020909101519092909150565b5f602082840312156145e4575f5ffd5b81516001600160401b038111156145f9575f5ffd5b820160c0818503121561460a575f5ffd5b614612613c95565b81516001600160401b03811115614627575f5ffd5b61463386828501613f11565b82525060208201516001600160401b0381111561464e575f5ffd5b61465a86828501613f11565b60208301525060408281015190820152606080830151908201526080808301519082015260a091820151918101919091529392505050565b5f81518060208401855e5f93019283525090919050565b5f610eee8284614692565b634e487b7160e01b5f52601160045260245ffd5b5f600182016146d9576146d96146b4565b5060010190565b80518015158114613be2575f5ffd5b5f5f60408385031215614700575f5ffd5b61470983614422565b9150614461602084016146e0565b634e487b7160e01b5f52601260045260245ffd5b5f8261473957614739614717565b500490565b8082018082111561054e5761054e6146b4565b6c1131b430b63632b733b2911d1160991b81525f614772600d830184614692565b601160f91b81526001019392505050565b5f60208284031215614793575f5ffd5b5051919050565b5f6147a58285614692565b9283525050602001919050565b84815260018060a01b0384166020820152826040820152608060608201525f6143426080830184613a95565b5f5f604083850312156147ef575f5ffd5b6147f883614422565b915060208301516001600160401b038111156143f8575f5ffd5b828152604060208201525f610f9c6040830184613a95565b5f6020828403121561483a575f5ffd5b610eee82614422565b81515f90829060208501835b8281101561486d57815184526020938401939091019060010161484f565b509195945050505050565b5f60208284031215614888575f5ffd5b610eee826146e0565b5f8261489f5761489f614717565b500690565b8181038181111561054e5761054e6146b4565b808202811582820484141761054e5761054e6146b456fe6b17d1f2e12c4247f8bce6e563a440f277037d812deb33a0f4a13945d898c296ffffffff00000000ffffffffffffffffbce6faada7179e84f3b9cac2fc6325514142434445464748494a4b4c4d4e4f505152535455565758595a6162636465666768696a6b6c6d6e6f707172737475767778797a303132333435363738392d5f43616c6c286164647265737320746f2c75696e743235362076616c75652c62797465732064617461294fe342e2fe1a7f9b8ee7eb4a7c0f9e162bce33576b315ececbb6406837bf51f55369676e656443616c6c732843616c6c5b5d2063616c6c732c75696e74323536206e6f6e63652943616c6c286164647265737320746f2c75696e743235362076616c75652c6279746573206461746129a164736f6c634300081d000a","linkReferences":{}},"methodIdentifiers":{"CUSTOM_STORAGE_ROOT()":"7613e7ba","ENTRY_POINT()":"94430fa5","domainSeparator()":"f698da25","eip712Domain()":"84b0196e","execute(bytes32,bytes)":"e9ae5c53","executeUserOp((address,uint256,bytes,bytes,bytes32,uint256,bytes32,bytes,bytes),bytes32)":"8dd7712f","getKey(bytes32)":"12aaac70","getKeySettings(bytes32)":"0f3ebf6e","getSeq(uint256)":"6a1ea88d","hashTypedData(bytes32)":"6575f6aa","invalidateNonce(uint256)":"b70e36f0","isValidSignature(bytes32,bytes)":"1626ba7e","keyAt(uint256)":"4223b5c2","keyCount()":"fac750e0","namespaceAndVersion()":"28495877","packedEntrypoint()":"868b6663","register((uint8,bytes))":"30b1fa3b","revoke(bytes32)":"b75c7dc6","supportsExecutionMode(bytes32)":"d03c7914","update(bytes32,uint256)":"a58bb84a","updateEntryPoint(address)":"1b71bb6e","validateUserOp((address,uint256,bytes,bytes,bytes32,uint256,bytes32,bytes,bytes),bytes32,uint256)":"19822f7c"},"id":87}